:020000040800F2
:1000000008930120810200086963000885580008F0
:1000100065630008CD1D00088D7A0008000000000F
:10002000000000000000000000000000C101000806
:10003000EB1E0008000000001D0200085D700008B3
:100040009B0200089B0200089B0200089B0200081C
:100050009B0200089B0200089B0200089B0200080C
:100060009B0200089B0200089B0200089B020008FC
:100070009B0200089B0200089B0200089B020008EC
:100080009B0200089B0200089B0200089B020008DC
:100090009B0200089B0200089B0200089B020008CC
:1000A0009B0200089B0200089B0200089B020008BC
:1000B000497100089B020008597100089B02000862
:1000C0009B0200089B0200089B0200089B0200089C
:1000D0009B0200089B0200089B0200089B0200088C
:1000E000BD2500089B0200089B02000869710008FA
:1000F0009B0200089B0200089B0200089B0200086C
:100100009B0200089B0200089B0200089B0200085B
:100110009B0200089B0200089B0200089B0200084B
:10012000D11D00089B0200089B0200089B020008EA
:100130009B0200089B0200089B0200089B0200082B
:100140009B0200089B0200089B0200089B0200081B
:100150009B0200089B0200089B0200089B0200080B
:100160009B0200089B0200089B0200089B020008FB
:100170009B0200089B0200089B0200080000000090
:100180009B0200089B0200089B0200089B020008DB
:100190009B0200089B0200089B0200089B020008CB
:1001A0009B0200089B0200089B020008DFF80CD0AD
:1001B00000F0E8FA004800475D2B0308089301208F
:1001C0002C4B19680868B0E8F04F80F30988BFF33A
:1001D0006F8F4FF0000080F311887047000000001F
:1001E00008480068006880F308884FF0000080F33A
:1001F000148862B661B6BFF34F8FBFF36F8F00DF15
:1002000000BF00BF08ED00E0DFF80C00016841F41A
:1002100070010160704700BF88ED00E0EFF30980D6
:10022000BFF36F8F134B1A681EF0100F08BF20ED3D
:10023000108A20E9F04F106009B44FF0500080F3AD
:100240001188BFF34F8FBFF36F8F4CF043FA4FF01D
:10025000000080F3118809BC19680868B0E8F04F05
:100260001EF0100F08BFB0EC108A80F30988BFF3AE
:100270006F8F704768000020EFF305807047000023
:100280000648804706480047FEE7FEE7FEE7FEE730
:10029000FEE7FEE7FEE7FEE7FEE7FEE73571000852
:1002A000AD0100082DE9F05F0546002092469B460F
:1002B00088460646814640241BE02846414647467C
:1002C000224600F0BAF953465A46C01A914110D35B
:1002D00011461846224600F0A1F92D1A67EB0108D5
:1002E0004F4622460120002100F098F917EB000943
:1002F0004E41201EA4F10104DFDC484631462A4667
:100300004346BDE8F09F40EA01039B0703D009E0A4
:1003100008C9121F08C0042AFAD203E011F8013BF1
:1003200000F8013B521EF9D27047D2B201E000F84A
:10033000012B491EFBD270470022F6E710B5134689
:100340000A4604461946FFF7F0FF204610BD421C3E
:1003500010F8011B0029FBD1801A704710B500224C
:1003600000E0521C835C8C5CA34201D1002BF8D1CD
:10037000D8B2E1B2401A10BD30B5044600200346A1
:1003800000E05B1C934203D2E05CCD5C401BF8D0E4
:1003900030BD034611F8012B00F8012B002AF9D1DA
:1003A000184670472DE9FE4F81EA030404F000442B
:1003B00021F0004100944FF0000B23F0004350EA7D
:1003C00001045ED052EA03045BD0C3F30A54C1F3C4
:1003D0000A552C44A4F2F3340194A0FB0254C1F357
:1003E000130141F48011C3F3130343F4801301FBA1
:1003F000024400FB034E840A970A44EA815447EA08
:100400008357A4FB076802958D0A05FB07854FEA11
:10041000932C04FB0C542705029D4FEA065847EA2B
:100420001637B5EB08056EEB070C870E920E47EA00
:10043000811742EA8312A7FB0201B6EB0B0164EBC2
:1004400000042B0D43EA0C335E1844EB1C50DA46D3
:100450005146E7FB0201C5F313044FEA0B3343EAAD
:1004600014534FEA0432019C43EA0603A4F10C043E
:100470000294009CCDE900B400F035F903B0BDE86A
:10048000F08F00200146F9E72DE9F04D81EA0304E1
:1004900004F0004B21F0004514464FF0000A23F011
:1004A000004150EA050220D054EA01021DD0C5F3F4
:1004B0000A570246C5F31303C1F31300C1F30A56EA
:1004C00040F4801543F48013A7EB0608101BD646B2
:1004D00008F2FD3873EB050002D308F1010801E0D2
:1004E00092185B41B8F1000F03DA00200146BDE825
:1004F000F08D00204FF48011064684460EE0171B55
:1005000073EB050705D3121B63EB050306434CEAA7
:10051000010C49084FEA300092185B4150EA01078C
:10052000EDD152EA030012D082EA040083EA050109
:10053000084305D0101BAB4106D20122002306E080
:1005400000224FF0004302E06FF0010253101AEB5B
:1005500006004CEB085110EB0A0041EB0B01BDE823
:10056000F04D00F0B1B80EB540F2334102910021D8
:10057000CDE900110A460B4600F0B5F803B000BD06
:1005800070B5C1F30A5201F000450024C1F3130114
:1005900040F2FF3341F480119A4201DA002070BD2D
:1005A00040F233439A42A2F2334203DC524200F05B
:1005B00044F800E090402C43F1D0404270BD00F080
:1005C000004230F000400AD0C10D01F56071C0F367
:1005D000160042EA0151C20840071143704700204B
:1005E0000146704701F0004330B421F0004150EA69
:1005F000010206D00A0DA2F56072C1F31301002AB0
:1006000002DC30BC00207047440F44EAC104C10042
:10061000E01830BC00EBC25000F01FB8202A04DB09
:10062000203A00FA02F1002070479140C2F1200305
:1006300020FA03F3194390407047202A04DB203A44
:1006400021FA02F00021704721FA02F3D040C2F1F2
:10065000200291400843194670470029A8BF7047FF
:10066000401C490008BF20F00100704710B4B0FAE8
:1006700080FC00FA0CF050EA010404BF10BC704783
:1006800049B1CCF1200421FA04F411FA0CF118BF9D
:10069000012121430843A3EB0C01CB1D4FEA00616C
:1006A0004FEA102042BF002010BC704700EBC3503F
:1006B00010440029A4BF10BC7047401C490008BF6B
:1006C00020F0010010BC704710B5141E73F1000437
:1006D00008DA401C41F1000192185B411A4301D134
:1006E00020F0010010BD2DE9F04D92469B4611B15E
:1006F000B1FA81F202E0B0FA80F220329046FFF7C0
:100700008DFF04460F4640EA0A0041EA0B015346BA
:100710005A46084313D0114653EA010019D0C8F1D4
:1007200040025046FFF789FF05460E46504659469F
:100730004246FFF773FF084305D0012004E020463E
:100740003946BDE8F08D0020054346EAE0762C43AB
:1007500037430A986305E40AA0EB08000022FD0A6B
:1007600044EA47540A3002D500200146E9E7010572
:1007700010196941DDE9084500196941BDE8F04DEE
:10078000A2E70000064C074D06E0E06840F00103D8
:1007900094E8070098471034AC42F6D3FFF70AFDFF
:1007A00010AC0C0830AC0C0870B58C1810F8015B5C
:1007B00015F0070301D110F8013B2A1106D110F8FA
:1007C000012B03E010F8016B01F8016B5B1EF9D1FE
:1007D0002B0705D40023521E0DD401F8013BFAE784
:1007E00010F8013BCB1A921C03E013F8015B01F8EF
:1007F000015B521EF9D5A142D8D3002070BD002064
:1008000001E0411C88B20228FBDB704770B504464A
:100810000D46054A32F81410044A52F824002A46BC
:1008200003F0EAF870BD0000240500203005002028
:1008300010B5044601212046FFF7E8FF01212046BC
:1008400000F006F80121204600F014F810BD000069
:1008500070B504460D46054A32F81410044A52F8A1
:1008600024002A4603F0C8F870BD000028050020C7
:100870003805002070B504460D46054A32F81410BC
:10088000044A52F824002A4603F0B6F870BD00006E
:100890002C0500204005002070B506460C460025BA
:1008A00001213046FFF7D4FF01213046FFF7AEFFAC
:1008B00000213046FFF7AAFF00BF1AE004F4004011
:1008C00020B101213046FFF7D5FF03E0002130467B
:1008D000FFF7D0FFFFF793FF00213046FFF7B8FF87
:1008E000FFF78DFF01213046FFF7B2FF6400681C5F
:1008F000C5B2102DE2DB01213046FFF787FF70BD46
:100900002DE9F0412DED068B80460C46B0EE408A75
:10091000F0EE608A9FED1C0BB0EE40AAF0EE60AAEC
:10092000B0EE489AF0EE689A9FED190B53EC102B3D
:1009300051EC190BFFF7A8FD41EC190B53EC1A2BE6
:1009400051EC190BFFF72EFD41EC190B51EC190B73
:10095000FFF716FE06463746C7F30D07B513C5F376
:100960000D05274325434FF404514046FFF794FFFC
:1009700039464046FFF790FF29464046FFF78CFF77
:10098000BDEC068BBDE8F081CE98ED780826774166
:100990000000000080842E412DE9F04107460C46FE
:1009A000154626462E4331463846FFF775FFBDE80B
:1009B000F0812DE9F04180460C4615461E46002781
:1009C00047EA0400284340EA060739464046FFF755
:1009D00063FFBDE8F0812DE9F0472DED028B06465F
:1009E0000C46B0EE408AF0EE608A15461F46DDF8F0
:1009F0002880022E0BDAB4F5804F02D0B4F5004FF8
:100A000005D1B5F5404F06D0B5F5604F03D0BDEC2C
:100A1000028BBDE8F087B4F5804F01D1002001E0E2
:100A20004FF400608146B5F5404F01D1002001E050
:100A30004FF4806082464FF480713046FFF72CFF00
:100A40004FF404513046FFF727FFA1B2B0EE480A39
:100A5000F0EE680A3046FFF753FFBAB2A9B230464B
:100A6000FFF79AFF53464A4641463046FFF7A1FF3B
:100A700000BFCCE770B50546AC6B206C00F05000B1
:100A800050BB206C40F4007020642068806800F047
:100A90004050E8B9207ED8B92068C06A00F47000E0
:100AA00020B12068806800F4806088B920684068C0
:100AB00020F0200021684860206C20F480702064C1
:100AC000206C00F4805018B9206C40F001002064C4
:100AD000204602F0B3F80BE0206C00F0100018B1D3
:100AE000204602F0ADF803E0A06BC16C28468847B1
:100AF00070BD70B50546AC6B40202064606C40F062
:100B000004006064204602F09BF870BD70B5044696
:100B1000A56B284602F093F870BD000055494A685D
:100B200022F440324A604A6843681A434A600268C5
:100B3000526822F4807203685A600268536802693E
:100B400043EA022203685A600268526822F0407247
:100B500003685A600268526883681A4303685A60DF
:100B60000268926822F4006203689A6002689268E0
:100B7000C3681A4303689A603F4B826A9A4218D04E
:100B80000268926822F0706203689A600268926854
:100B9000836A1A4303689A600268926822F040529E
:100BA00003689A6002689268C36A1A4303689A608D
:100BB0000BE00268926822F0706203689A60026833
:100BC000926822F0405203689A600268926822F0AC
:100BD000020203689A6002689368027E43EA420256
:100BE00003689A602022125CA2B10268526842F443
:100BF000006203685A600268526822F46042036827
:100C00005A6002685368426A521E43EA42320368DD
:100C10005A6005E00268526822F4006203685A6074
:100C20000268D26A22F470020368DA620268D36A48
:100C3000828B521E43EA02520368DA6202689268AB
:100C400022F4007203689A600268936890F830207A
:100C500043EA422203689A600268926822F4806242
:100C600003689A6002689368426943EA82220368D3
:100C70009A607047002301400100000F70B50246E2
:100C80000B460021002400260025DFED1D0AB0EEF2
:100C9000600A032B01DA002070BD14881688012138
:100CA0000DE032F81100A04201DD32F8114032F8B7
:100CB0001100B04201DA32F81160481CC1B2994209
:100CC000EFDB002104E032F811000544481CC1B2FA
:100CD0009942F8DB281B001B00EE900AB8EE601A60
:100CE000981E00EE900AF8EEE00AC1EE201AB0EE6F
:100CF000610AFCEEC00A10EE900A80B2CCE7000058
:100D00000000000010B50446062C7CD2DFE804F099
:100D100082031C354E674149D1F8B800012127F004
:100D200027FD3E49D1F8B400012127F021FD3B49C0
:100D3000D1F8B000012127F01BFD3849D1F8AC00F3
:100D4000012127F015FD66E03449D1F8B8000121F2
:100D500028F079FA3149D1F8B400012127F008FDD3
:100D60002E49D1F8B000012127F002FD2B49D1F81E
:100D7000AC00012127F0FCFC4DE02849D1F8B80077
:100D8000012128F060FA2549D1F8B400012128F0AA
:100D90005AFA2249D1F8B000012127F0E9FC1F4995
:100DA000D1F8AC00012127F0E3FC34E01B49D1F875
:100DB000B800012128F047FA1849D1F8B400012100
:100DC00028F041FA1549D1F8B000012128F03BFA8A
:100DD0001249D1F8AC00012127F0CAFC1BE00F49F1
:100DE000D1F8B800012128F02EFA0C49D1F8B4004E
:100DF000012128F028FA0949D1F8B000012128F092
:100E000022FA064900E005E0D1F8AC00012128F003
:100E10001AFA00E000BF00BF10BD0000A435012099
:100E200010B50446062C7CD2DFE804F082031C35A2
:100E30004E674149D1F88802012127F099FC3E49CB
:100E4000D1F88402012127F093FC3B49D1F88002BC
:100E5000012127F08DFC3849D1F87C02012127F0CF
:100E600087FC66E03449D1F88802012128F0EBF9CB
:100E70003149D1F88402012127F07AFC2E49D1F8BA
:100E80008002012127F074FC2B49D1F87C0201215A
:100E900027F06EFC4DE02849D1F88802012128F0A6
:100EA000D2F92549D1F88402012128F0CCF9224950
:100EB000D1F88002012127F05BFC1F49D1F87C02A8
:100EC000012127F055FC34E01B49D1F888020121AB
:100ED00028F0B9F91849D1F88402012128F0B3F9B2
:100EE0001549D1F88002012128F0ADF91249D1F855
:100EF0007C02012127F03CFC1BE00F49D1F888025D
:100F0000012128F0A0F90C49D1F88402012128F030
:100F10009AF90949D1F88002012128F094F906498B
:100F200000E005E0D1F87C02012128F08CF900E016
:100F300000BF00BF10BD0000A435012010B504465D
:100F4000062C7CD2DFE804F082031C354E67414951
:100F5000D1F8B401012127F00BFC3E49D1F8B001D2
:100F6000012127F005FC3B49D1F8AC01012127F014
:100F7000FFFB3849D1F8A801012127F0F9FB66E011
:100F80003449D1F8B401012128F05DF93149D1F893
:100F9000B001012127F0ECFB2E49D1F8AC01012171
:100FA00027F0E6FB2B49D1F8A801012127F0E0FB4F
:100FB0004DE02849D1F8B401012128F044F9254930
:100FC000D1F8B001012128F03EF92249D1F8AC0155
:100FD000012127F0CDFB1F49D1F8A801012127F0FD
:100FE000C7FB34E01B49D1F8B401012128F02BF9EB
:100FF0001849D1F8B001012128F025F91549D1F897
:10100000AC01012128F01FF91249D1F8A8010121F2
:1010100027F0AEFB1BE00F49D1F8B401012128F005
:1010200012F90C49D1F8B001012128F00CF9094955
:10103000D1F8AC01012128F006F9064900E005E0ED
:10104000D1F8A801012128F0FEF800E000BF00BFA0
:1010500010BD0000A435012010B50446062C6DD249
:10106000DFE804F06C03182D42573649C8690121A6
:1010700027F07EFB3349086A012127F079FB3149CB
:10108000486A012127F074FB2E49886A012127F064
:101090006FFB54E02B49C869012128F0D4F8294995
:1010A000086A012127F064FB2649486A012127F0DC
:1010B0005FFB2449886A012127F05AFB3FE0214960
:1010C000C869012128F0BFF81E49086A012128F0EB
:1010D000BAF81C49486A012127F04AFB1949886A75
:1010E000012127F045FB2AE01649C869012128F0B3
:1010F000AAF81449086A012128F0A5F81149486A9C
:10110000012128F0A0F80F49886A012127F030FB5F
:1011100015E00C49C869012128F095F80949086AC9
:10112000012128F090F80749486A012128F08BF83E
:101130000449886A012128F086F800E000BF00BF5A
:1011400010BD0000A435012010B50446062C7CD249
:10115000DFE804F082031C354E674149D1F82801CD
:10116000012127F005FB3E49D1F82401012127F098
:10117000FFFA3B49D1F82001012127F0F9FA38495B
:10118000D1F81C01012127F0F3FA66E03449D1F8C7
:101190002801012128F057F83149D1F82401012113
:1011A00027F0E6FA2E49D1F82001012127F0E0FAD4
:1011B0002B49D1F81C01012127F0DAFA4DE028492A
:1011C000D1F82801012128F03EF82549D1F8240161
:1011D000012128F038F82249D1F82001012127F017
:1011E000C7FA1F49D1F81C01012127F0C1FA34E0E8
:1011F0001B49D1F82801012128F025F81849D1F818
:101200002401012128F01FF81549D1F820010121FE
:1012100028F019F81249D1F81C01012127F0A8FA89
:101220001BE00F49D1F82801012128F00CF80C49E6
:10123000D1F82401012128F006F80949D1F820014C
:10124000012128F000F8064900E005E0D1F81C0172
:10125000012127F0F8FF00E000BF00BF10BD000033
:10126000A435012010B50446062C7CD2DFE804F03A
:1012700082031C354E674149D1F8F402012127F061
:1012800077FA3E49D1F8F002012127F071FA3B4983
:10129000D1F8EC02012127F06BFA3849D1F8E802C5
:1012A000012127F065FA66E03449D1F8F402012102
:1012B00027F0C9FF3149D1F8F002012127F058FA8F
:1012C0002E49D1F8EC02012127F052FA2B49D1F82E
:1012D000E802012127F04CFA4DE02849D1F8F40248
:1012E000012127F0B0FF2549D1F8F002012127F0B4
:1012F000AAFF2249D1F8EC02012127F039FA1F494F
:10130000D1F8E802012127F033FA34E01B49D1F883
:10131000F402012127F097FF1849D1F8F0020121CA
:1013200027F091FF1549D1F8EC02012127F08BFF3E
:101330001249D1F8E802012127F01AFA1BE00F49FF
:10134000D1F8F402012127F07EFF0C49D1F8F00218
:10135000012127F078FF0949D1F8EC02012127F09B
:1013600072FF064900E005E0D1F8E802012127F00C
:101370006AFF00E000BF00BF10BD0000A4350120DF
:1013800010B50446062C7CD2DFE804F082031C353D
:101390004E674149D1F85003012127F0E9F93E4950
:1013A000D1F84C03012127F0E3F93B49D1F8480378
:1013B000012127F0DDF93849D1F84403012127F054
:1013C000D7F966E03449D1F85003012127F03BFFFB
:1013D0003149D1F84C03012127F0CAF92E49D1F83F
:1013E0004803012127F0C4F92B49D1F84403012116
:1013F00027F0BEF94DE02849D1F85003012127F02C
:1014000022FF2549D1F84C03012127F01CFF224976
:10141000D1F84803012127F0ABF91F49D1F8440363
:10142000012127F0A5F934E01B49D1F8500301212F
:1014300027F009FF1849D1F84C03012127F003FFD9
:101440001549D1F84803012127F0FDFE1249D1F8D2
:101450004403012127F08CF91BE00F49D1F8500318
:10146000012127F0F0FE0C49D1F84C03012127F0AF
:10147000EAFE0949D1F84803012127F0E4FE0649B4
:1014800000E005E0D1F84403012127F0DCFE00E094
:1014900000BF00BF10BD0000A435012010B50446F8
:1014A000062C7CD2DFE804F082031C354E674149EC
:1014B000D1F80402012127F05BF93E49D1F800027E
:1014C000012127F055F93B49D1F8FC01012127F012
:1014D0004FF93849D1F8F801012127F049F966E0C0
:1014E0003449D1F80402012127F0ADFE3149D1F889
:1014F0000002012127F03CF92E49D1F8FC0101211D
:1015000027F036F92B49D1F8F801012127F030F9FD
:101510004DE02849D1F80402012127F094FE254925
:10152000D1F80002012127F08EFE2249D1F8FC01FA
:10153000012127F01DF91F49D1F8F801012127F0F9
:1015400017F934E01B49D1F80402012127F07BFE92
:101550001849D1F80002012127F075FE1549D1F88C
:10156000FC01012127F06FFE1249D1F8F801012199
:1015700027F0FEF81BE00F49D1F80402012127F003
:1015800062FE0C49D1F80002012127F05CFE0949F6
:10159000D1F8FC01012127F056FE064900E005E0E4
:1015A000D1F8F801012127F04EFE00E000BF00BF96
:1015B00010BD0000A435012010B50446062C7CD2D5
:1015C000DFE804F082031C354E674149D1F854022C
:1015D000012127F0CDF83E49D1F85002012127F032
:1015E000C7F83B49D1F84C02012127F0C1F838492E
:1015F000D1F84802012127F0BBF866E03449D1F860
:101600005402012127F01FFE3149D1F85002012177
:1016100027F0AEF82E49D1F84C02012127F0A8F8A6
:101620002B49D1F84802012127F0A2F84DE02849C2
:10163000D1F85402012127F006FE2549D1F85002C5
:10164000012127F000FE2249D1F84C02012127F0A8
:101650008FF81F49D1F84802012127F089F834E0BA
:101660001B49D1F85402012127F0EDFD1849D1F8AA
:101670005002012127F0E7FD1549D1F84C02012164
:1016800027F0E1FD1249D1F84802012127F070F856
:101690001BE00F49D1F85402012127F0D4FD0C4979
:1016A000D1F85002012127F0CEFD0949D1F84C02B2
:1016B000012127F0C8FD064900E005E0D1F8480205
:1016C000012127F0C0FD00E000BF00BF10BD0000F9
:1016D000A435012070B52DED028B002500249FED6F
:1016E0009A0AB0EE408A994805789948008800EE39
:1016F000100AB8EE400ADFED970A80EE201AB0EE2D
:10170000418A012D04D0022D7ED0032D7DD1EAE047
:1017100000209149087091480078042837D09048FB
:1017200090ED000AB4EEC80AF1EE10FA03DB0120D6
:101730008C49087066E08A4890ED140AB4EEC80A35
:10174000F1EE10FA03D80520864908705AE000240B
:101750001AE0834800EB840090ED000AB4EEC80A5A
:10176000F1EE10FA0ED27E49601C01EB800090ED84
:10177000000AB4EEC80AF1EE10FA03DB7A48005D05
:1017800078490870601CC4B2152CE2DB3AE0774857
:1017900090ED000AB4EEC80AF1EE10FA03DB012066
:1017A000704908702EE0714890ED140AB4EEC80A32
:1017B000F1EE10FA03D805206A49087022E00024EF
:1017C0001EE06A4800EB840090ED000AB4EEC80AFF
:1017D000F1EE10FA12D26549601C01EB800090ED29
:1017E000000AB4EEC80AF1EE10FA07DB5E48005DAD
:1017F00000EE100AB8EE400AB0EE408A601CC4B297
:10180000152CDEDB574801E013E078E000785849FA
:101810000978884208DA5348007855490870084624
:1018200000785449087003E0514800785149087025
:1018300066E0514890ED000AB4EEC80AF1EE10FAE5
:1018400003DB01204749087030E04B4890ED140A53
:10185000B4EEC80AF1EE10FA03D805204149087029
:1018600024E0002420E0444800EB840090ED000ACE
:10187000B4EEC80AF1EE10FA14D23F49601C01EB35
:10188000800090ED000AB4EEC80AF1EE10FA09DB10
:101890003548005D3349087008460078052801D1B5
:1018A00004200870601CC4B2152CDCDB2D480078C5
:1018B0002F490978884211DD2A4800782C490870A0
:1018C000084600782B4908702348007850B92B4807
:1018D00000F07AFE01202049087003E024480078D7
:1018E000244908700CE005201E490870084600785D
:1018F0001F490870084600781E49087000E000BFC4
:1019000000BF1F480078042809D114480078042833
:1019100005D001221749194800F02AFD0CE01848AB
:101920000078032808D10D480078032804D001224C
:101930001049124800F01CFD084800781049087052
:10194000BDEC028B70BD0000000000008805002087
:101950004805002000007A44590500207A0500203F
:1019600038A30C085405002020A30C088CA30C08F5
:101970005505002080050020E0A30C0800001C088D
:1019800058050020002100207C4A1178012904D04C
:10199000022972D003296FD1E4E0794AD2ED000A1E
:1019A000784A128800EE102AB8EE400AF4EEC00A17
:1019B000F1EE10FA07DB0122734B1A701A46127807
:1019C000724B1A7043E06E4AD2ED140A6D4A1288C7
:1019D00000EE102AB8EE400AF4EEC00AF1EE10FA5A
:1019E00007D80522684B1A701A461278674B1A708E
:1019F0002DE0002029E0624A02EB8002D2ED000ACD
:101A0000604A128800EE102AB8EE400AF4EEC00ACE
:101A1000F1EE10FA17D25A4A02EB8002D2ED000A18
:101A2000584A128800EE102AB8EE400AF4EEC00AB6
:101A3000F1EE10FA07DB564A125C534B1A701A4645
:101A40001278524B1A70421CD0B21528D3DB514A7F
:101A500012784E4B1B789A4204DD4C4A12784D4B5B
:101A60001A7007E04B4A1278474B1A701A461278E0
:101A7000464B1A707FE000E07CE0474AD2ED000A56
:101A8000404A128800EE102AB8EE400AF4EEC00A6E
:101A9000F1EE10FA07DB01223B4B1A701A4612785E
:101AA0003A4B1A704AE03C4AD2ED140A354A128881
:101AB00000EE102AB8EE400AF4EEC00AF1EE10FA79
:101AC00007D80422304B1A701A4612782F4B1A701E
:101AD00034E0002030E0304A02EB8002D2ED000A10
:101AE000284A128800EE102AB8EE400AF4EEC00A26
:101AF000F1EE10FA1ED2284A02EB8002D2ED000A63
:101B0000204A128800EE102AB8EE400AF4EEC00A0D
:101B1000F1EE10FA0EDB1E4A125C1B4B1A701A46CD
:101B200012781A4B1A70184A1278042A02DD04221D
:101B3000154B1A70421CD0B21528CCDB154A12780E
:101B4000124B1B789A4204DD104A1278114B1A701E
:101B500007E0104A12780C4B1A701A4612780B4B99
:101B60001A7008E00522084B1A701A461278074BC3
:101B70001A7000E000BF00BF704700008805002019
:101B800038A30C0848050020540500205505002006
:101B900020A30C0880050020E0A30C0884480078EE
:101BA000012851D183490870834991F9000000EB65
:101BB000D0714910A0EB4101C1B980480078401EA6
:101BC0007E490870B4207E49096888637B480078A4
:101BD00020BB79480078401E40B277490870182031
:101BE0007649087020207749087017E0754800781A
:101BF000401E744908700020714909688863714863
:101C0000007858B96C480078401E40B26A490870A4
:101C100018206A49087020206A490870664890F9BF
:101C2000000000280FDC00206549096888636249CC
:101C300008705F4908705F49087018205F49087094
:101C4000202060490870B2E05948007802280AD183
:101C500058480078012806D1002056490870584994
:101C600009688863A3E0524800780228EBD1524803
:101C700090F90000062190FBF1F201FB1200002810
:101C800048D151480078401C4F49087008460078F8
:101C9000402879DD484991F9000000EBD0714910E6
:101CA000A0EB4101E1B945480078401E4349087066
:101CB000B42043490968886340480078002863D10C
:101CC0003D480078401E40B23B49087000203E4924
:101CD000087018203949087020203A49087053E0EC
:101CE00038480078401E3749087000203449096898
:101CF000886334480078002846D12F480078401E79
:101D000040B22D49087018202C49087020202D4918
:101D1000087039E0284991F9000000EBD0714910B2
:101D2000A0EB4101C1B925480078401E2349087045
:101D3000B4202349096888632048007820BB1E48E6
:101D40000078401E40B21C49087018201B490870DA
:101D500020201C49087017E01A480078401E1949D5
:101D6000087000201649096888631648007858B939
:101D700011480078401E40B20F49087018200F49E2
:101D8000087020200F4908700B4890F900000028C7
:101D90000DDC00200A490968886307490870044976
:101DA00008701820054908702020064908707047FF
:101DB0005B0500205C0500205A0500205D05002021
:101DC000901F00205E0500205F05002000BFFEE799
:101DD00010B5024801F0F0F810BD0000F41C00201E
:101DE0000146087810381823B0FBF3F20848805CED
:101DF000C865032A05D908686FF30900001D8865C6
:101E000003E008686FF309008865886D704700007B
:101E100060DA0408014600208A6A8B69CBB932B1C6
:101E2000012A0DD0022A03D0032A10D10EE000BFF0
:101E3000CB6A03F08073B3F1807F00D1012007E00B
:101E4000CB6AB3F1C07F00D1012001E000E000BF08
:101E500034E08B69B3F5005F1AD132B1012A07D0A3
:101E6000022A03D0032A11D10AE000BF01200EE0AC
:101E7000CB6A03F08073B3F1807F00D1012006E0CC
:101E8000CB6AB3F1C07F00D1012000E000BF15E0B4
:101E900032B1012A05D0022A04D0032A0CD103E072
:101EA00000BF00BF012008E0CB6A03F08073B3F1EC
:101EB000807F00D1012000E000BF00BF704730B537
:101EC0000468246824F4802405682C600468636036
:101ED0008468402C04D10468A2600468E16003E0D7
:101EE0000468A1600468E26030BD704770B50024EA
:101EF00000BF8B48007801281FD003208949087053
:101F000001F080FD044688480068201AB0F57A7F09
:101F100004D985480460012084490870834800780A
:101F2000012816D18248008898B90120804908808C
:101F30000122804800F01CFA0BE07C480078012860
:101F400002D105207749087001F05CFD044676480F
:101F500004607948007800EB401045007148007833
:101F6000062879D2DFE800F0032C51797FBE734850
:101F700000687349884205D905206A490870002025
:101F80006E4908600121052000F074FA002108461E
:101F900000F070FA0021012000F06CFA002102200C
:101FA00000F068FA00206749096888636549096894
:101FB000C863654909684863634909688863ACE098
:101FC00062480078012801D1614908705B480068C7
:101FD0006049884205D900205849086005205149C8
:101FE00008700121052000F045FA0021012000F0D1
:101FF00041FA0021022000F03DFA00205249096810
:10200000486351490968886387E05048007801288F
:1020100001D14F490870002048490860012105207E
:1020200000F028FA0021084600F024FA00210120DF
:1020300000F020FA0021022000F01CFA00204149A3
:10204000096888633F490968C8633F49096848636C
:102050003D490968886360E05EE000203749086018
:1020600000F0E2F959E001203849087000203349B6
:1020700008600121052000F0FDF90121002000F099
:10208000F9F93148006845630121022000F0F2F9B6
:102090003148007840B931480078012804D1002047
:1020A0002849096888631CE02D480068B0F5FA7F6C
:1020B00005D22C48006823490968886311E0284844
:1020C0000068B0F5FA7F09D325480068B0F5FA6FCB
:1020D00004D200201B490968886302E000202049DF
:1020E00008601AE02048006840F2145188420AD97A
:1020F0000F480088012806D100200D4908800122E0
:102100000C4800F035F90121082000F0B3F9012155
:10211000072000F0AFF900E000BF00BF70BD000075
:10212000880500207A0500207C0500207B05002022
:102130007605002000001A08130300200400002088
:10214000C0D40100001F0020B81E0020740500202C
:1021500075050020C0270900200300201F03002070
:1021600020000020700500201C00002010B52DED7F
:10217000068B9FED290AB0EE408A002400BF40E0A4
:1021800001222649264800F0F3FD244890ED000A7C
:10219000B8EE400ADFED230A20EE200ADFED220A26
:1021A00080EE201AB0EE418A18EE100AFEF707FA08
:1021B00041EC1A0B9FED1D0B53EC102BFEF764F94D
:1021C00041EC190BFEF70EFA08EE100A18EE100A91
:1021D000FEF7F5F941EC1A0B9FED160B53EC102BA3
:1021E000FEF752F941EC190BFEF7FCF908EE100A64
:1021F000BCEEC80A10EE100A104921F81400601C49
:10220000C4B20F2CBCDB0F210C48FEF737FD0C4984
:102210000880BDEC068B10BD0000000050050020BA
:10222000AC1C002000404E45000080457AC7293A8A
:1022300092CBEF3F2063EE5A423EE53FA08E012055
:102240004805002010B52DED068B9FED2F0AF0EE0E
:10225000408A00249FED2D0AB0EE408A01222C49CD
:102260002C4800F085FD2A4890ED000AB8EE400A9F
:10227000DFED290A20EE200ADFED280A80EE201A81
:10228000B0EE418A18EE100AFEF799F941EC1A0BEC
:102290009FED230B53EC102BFEF7F6F841EC190BD6
:1022A000FEF7A0F908EE100A18EE100AFEF787F9FB
:1022B00041EC1A0B9FED1C0B53EC102BFEF7E4F8CE
:1022C00041EC190BFEF78EF908EE100ABCEEC80AB5
:1022D00010EE100A81B2164802780078401C144BA8
:1022E0001870144820F81210184600780E2802DDE5
:1022F0000020194608700F210E48FEF7BFFC0E495A
:102300000880BDEC068B10BD6666864000000000AC
:1023100050050020AC1C002000404E4500008045C8
:102320007AC7293A92CBEF3F2063EE5A423EE53F0F
:1023300057050020A08E0120480500202DE9F0411E
:1023400005460E4617460024A04601F0D7F8A846D9
:1023500000BF07E0D8F8000026F8140008F10208D2
:10236000601CC4B2BC42F5DB01F072F8BDE8F0813C
:102370002DE9F04F87B005460F4690460024A3464E
:10238000A146A246022627484068A84207D9254808
:10239000806AA84203D2012007B0BDE8F08F01F0A7
:1023A000ADF8002412E01F4800EB04104068A8427A
:1023B0000AD81C4800EB04108068A84204D31948CE
:1023C00000EB0410D0F800B0601CC4B2032CEADBB0
:1023D0000020019001200490CDF80CB0022005905F
:1023E00006A901A800F0DCFF06460EB13046D3E78F
:1023F000A94600240FE037F814A0524600234946AE
:10240000012001F02FF806460EB13046C4E709F16D
:102410000209601CC4B24445EDDB01F019F83046F6
:10242000BAE7000034A40C0810B50021072000F022
:1024300021F80121062000F01DF80121052000F0FF
:1024400019F80021084600F015F80021032000F0DB
:1024500011F80021042000F00DF80021082000F000
:1024600009F80021012000F005F80021022000F009
:1024700001F810BD2DE9F04104460D46064850F81C
:10248000346000EBC40087882A463946304601F0A4
:10249000B3FABDE8F081000064A40C0800201E49D6
:1024A00009781D4A5278914234D11B4949781A4A19
:1024B000927891422ED118498978174AD278914260
:1024C00028D11549097801F08001802908D11249E5
:1024D000097801F0020119B90121104A117019E0BF
:1024E0000D49097801F08001A1B90B49097801F083
:1024F000400119B10321094A11700BE0064909781E
:1025000001F0020119B904490978382902D10221E0
:10251000024A1170704700008405002088050020E1
:10252000002006490968886304490968C8630449AA
:10253000096848630249096888637047001F0020E2
:10254000B81E002000B52DED028B81B0FFF76CFFA7
:10255000FFF7E6FF0020FEF76BF90120FEF768F9B0
:1025600014480068FDF7FFFF41EC180B02208302BE
:102570004FF46042B0EE480AF0EE680A4103009062
:102580000020FEF728FA0C480068FDF7ECFF41EC4C
:10259000180B022083024FF46042B0EE480AF0EEBE
:1025A000680A410300900120FEF715FA01B0BDEC66
:1025B000028B00BD680500206C05002010B54FF4AB
:1025C000005001F0FBF810BDF0B587B004460025BF
:1025D0000026022718484068A04206D91648806A9B
:1025E000A04202D2012007B0F0BD00F087FF002515
:1025F00011E0114800EB05104068A04209D80E48D0
:1026000000EB05108068A04203D30B4800EB0510D7
:102610000668681CC5B2032DEBDB00200190012089
:10262000049003960220059006A901A800F0B8FEC8
:1026300007463846D7E7000034A40C0872B600BF3E
:10264000FEE7000010B5002201B909E0012901D11F
:102650000A0205E0022901D10A0201E04FF44072AA
:102660000B2800D9001D0E4B1B6823F440730C4C43
:10267000236023461B681343236023461B6823F013
:10268000F803236023461B68022444EAC004234362
:10269000034C236023461B6843F48033236010BD42
:1026A000103C02401C48006800F40070B0B11A48A9
:1026B000006820F400701849086000BF08460068F0
:1026C00040F4006008600846006820F4006008607C
:1026D00000BF0846006840F4007008600E480068BB
:1026E00000F48060B0B10C48006820F480600A49B2
:1026F000086000BF0846006840F480500860084643
:10270000006820F48050086000BF0846006840F46C
:102710008060086070470000003C0240134A126865
:1027200022F44072114B1A60032906D11A4612682E
:10273000DB131A430D4B1A600EE0012906D10B4A38
:10274000126842F00402094B1A6005E0074A126859
:1027500042F40042054B1A60044A12684FF4803379
:1027600043EA00231A43014B1A607047103C0240B1
:10277000074A126822F44072054B1A601A46126822
:102780001A601A46126842F001021A60017070471E
:10279000103C024010B50A49096821F44071084C08
:1027A00021602146096841F4407121602146096891
:1027B00041F0010121600260BFF36F8F436010BDE3
:1027C000103C0240084A126822F44072064B1A601C
:1027D0001A46126842F480721A601A46126842F071
:1027E00001021A6001807047103C0240084A1268DA
:1027F00022F44072064B1A601A46126842F40072C4
:102800001A601A46126842F001021A6001607047AD
:10281000103C02402A48006800F0100040B12948EE
:10282000C06940F010002749C861102024490860A1
:102830002348006800F0200040B12248C06940F001
:1028400008002049C86120201D4908601C48006814
:1028500000F0400040B11B48C06940F00400194935
:10286000C8614020164908601548006800F08000E3
:1028700040B11448C06940F002001249C86180208C
:102880000F4908600E48006800F4807048B10D4898
:10289000C06940F001000B49C8614FF480700849DD
:1028A00008600748006800F0020040B10548C069B0
:1028B00040F020000349C8610220014908607047C8
:1028C0000C3C0240B020002070B5044600250020DA
:1028D0001449C86101F096F8054609E0601C38B15A
:1028E00024B101F08FF8401BA04201D9032070BD34
:1028F0000D48006800F480300028EFD10A480068D5
:1029000000F0010010B10120074908600648006886
:1029100000F4F97018B1FFF77DFF0120E7E7002010
:10292000E5E70000B02000200C3C024002460868A9
:10293000B0B9D1E901031843CB6818430B691843B8
:102940004B6918438B691843CB6918430B6A1843CA
:102950004B6A184313686FF30E031843106019E0B5
:10296000D1E9070318434B6A1843136823F4F8436B
:1029700018431060D1E901031843CB6818430B6971
:1029800018434B6918438B69184353686FF30E0360
:1029900018435060002070470246506943F6FE73AA
:1029A000984340EA41005061002070472DE9F04112
:1029B00005460C4616460027D4E900010843A168E5
:1029C000491E40EA4110E16840EA412029696FF35D
:1029D00015010843286101F015F807460AE0701C4C
:1029E00040B126B101F00EF8C01BB04202D903205D
:1029F000BDE8F081A86900F020002028EFD0002079
:102A0000F6E7000030B50346FAB90868401E4C6886
:102A1000641E40EA04148868401E44EA0024C86822
:102A2000401E44EA0034088A401E44EA0044888A72
:102A3000401E44EA0054087E401E44EA00609C6840
:102A400004F070442043986022E0C868401E0403EC
:102A5000888A401E44EA00509C680E4D2C4020435A
:102A600098600868401E4C68641E40EA0414886838
:102A7000401E44EA0024088A401E44EA0044087EBE
:102A8000401E44EA0060DC6804F070442043D860D3
:102A9000002030BDFF0F0FFF38B502460020009028
:102AA00000BF92F83C00012801D1022038BD01206E
:102AB00082F83C0000BF0868092816D91068C06871
:102AC0000C780A3C04EB44050724AC40A04314688E
:102AD000E0600C780A3C04EB44048868A040146869
:102AE000E46820431468E06013E0106800690C7823
:102AF00004EB44050724AC40A043146820610C7823
:102B000004EB44048868A0401468246920431468D6
:102B100020614868072817D21068406B0C79641E42
:102B200004EB84051F24AC40A0431468606308884C
:102B300080B20C79641E04EB8404A0401468646BBA
:102B400020431468606331E048680D2817D210688C
:102B5000006B0C79E41F04EB84051F24AC40A043F8
:102B600014682063088880B20C79E41F04EB8404A5
:102B7000A0401468246B20431468206316E010689A
:102B8000C06A0C790D3C04EB84051F24AC40A043C3
:102B90001468E062088880B20C790D3C04EB840470
:102BA000A0401468E46A20431468E0621E4B1F4C86
:102BB0001068A0420AD10868122807D1586820F48A
:102BC00000005860586840F480005860174C106846
:102BD000A04222D1164C0868A04202D008681128F1
:102BE0001BD1586820F480005860586840F40000F9
:102BF00058600F4C0868A0420FD10E4800680E4C78
:102C0000B0FBF4F000EB80004000009002E0009880
:102C1000401E009000980028F9D100BF002082F8E3
:102C20003C0000BF00BF41E70023014000200140FD
:102C3000120000105800002040420F0070477047FB
:102C40007047000070B5044600250CB9012070BD26
:102C50001549A06A884200D000BF206C30B92046D8
:102C600000F024F80020606484F83C00206C00F040
:102C7000100088B9206C20F4885040F002002064D5
:102C80002046FDF74BFF00206064206C20F002001E
:102C900040F00100206400E0012500BF002084F81E
:102CA0003C0000BF2846D2E70100000F10B586B0F7
:102CB0000446142101A8FDF73FFB284920688842FB
:102CC00049D100BF002000902548006840F4807082
:102CD000234908600846006800F48070009000BF37
:102CE00000BF00BF002000901D481438006840F06D
:102CF00004001B49143908600846006800F004000D
:102D0000009000BF00BF202001900320029000200F
:102D1000039001A9134800F05FFD134813490860B0
:102D200000204860002111488160C1604FF480613B
:102D3000016149004161890081610021C161016235
:102D4000416200F059FA08B1FFF778FC00BF07486C
:102D5000A063846300BF06B010BD000000200140E6
:102D6000443802400008024010640240F41C002075
:102D7000F8B504460D4616460020009000BF94F8B2
:102D80003C00012801D10220F8BD012084F83C005C
:102D900000BF2068806800F00100A0B9206880684A
:102DA00040F0010021688860554800685549B0FB33
:102DB000F1F000EB4000009002E00098401E00900F
:102DC00000980028F9D12068806800F48070B0F580
:102DD000807F05D12068806820F480702168886039
:102DE0002068806800F0010000287ED0206C40F24E
:102DF0000161884340F4807020642068406800F4DA
:102E0000806028B1206C20F4005040F48050206491
:102E1000206C00F48050B0F5805F04D1606C20F02D
:102E20000600606401E00020606400BF002084F8B8
:102E30003C0000BF344F3548A16BC8633448A16BD8
:102E400008643448A16BC8646FF0220021680860F0
:102E50002068406840F08060216848602068806891
:102E600040F4807021688860226802F14C0133468A
:102E70002A46A06B00F036FA786800F01F0018BBF5
:102E800025492068884213D024492068884204D10B
:102E9000381D006800F01F0050B1214920688842A9
:102EA0002BD11948001D006800F01F00102824D203
:102EB0002068806800F04050F8B92068806840F0D1
:102EC00080402168886018E013492068884214D146
:102ED0002068806800F0405078B92068806840F031
:102EE00080402168886008E0FFE7206C40F0100017
:102EF0002064606C40F001006064002044E7000042
:102F00005800002040420F0000230140750A0008CD
:102F10000D0B0008F30A00080020014000210140C9
:102F20000022014010B504460CB9012010BD94F8F0
:102F3000390028B9002084F83800204600F022F833
:102F4000022084F839002068006820F4403061686D
:102F50000843216808602068406B20F00700A168E2
:102F60000843216848632068006C6FF30D00E16836
:102F70000843216808640020E063012084F83900D8
:102F80000020D3E708B50A4A016891420FD100BF7B
:102F9000002100910749096841F40001054A1160C8
:102FA0001146096801F40001009100BF00BF08BD8F
:102FB00000B0024030380240F8B5044600200090CE
:102FC0008C4800684FF41651B0FBF1F7A56D2E68E0
:102FD00094F85C1008208840304098B12068006860
:102FE00000F0040070B12068006820F0040021683F
:102FF000086094F85C1008208840A860606D40F07C
:103000000100606594F85C1001208840304068B190
:103010002068406900F0800040B194F85C10012005
:103020008840A860606D40F00200606594F85C1014
:1030300004208840304068B12068006800F0020039
:1030400040B194F85C1004208840A860606D40F0A6
:103050000400606594F85C1010208840304078B31C
:103060002068006800F0080050B394F85C1010204D
:103070008840A8602068006800F4802080B1206843
:10308000006800F4002028B9206CC8B12046216CEB
:10309000884715E0A06C98B12046A16C88470FE0E6
:1030A0002068006800F4807028B92068006820F06B
:1030B000080021680860206C10B12046216C884708
:1030C00094F85C10202088403040002865D02068AB
:1030D000006800F0100000285FD094F85C102020F9
:1030E0008840A86094F83500052828D12068006839
:1030F00020F01600216808602068406920F08000F8
:1031000021684861206C08B9A06C28B1206800686B
:1031100020F008002168086094F85C103F20884087
:10312000A860012084F8350000BF002084F8340036
:1031300000BF206D10B12046216D8847F8BD206882
:10314000006800F4802080B12068006800F400204E
:1031500028B9606C10B12046616C88471DE0E06BB7
:10316000D8B12046E16B884717E02068006800F47A
:10317000807068B92068006820F01000216808603D
:10318000012084F8350000BF002084F8340000BF1F
:10319000E06B10B12046E16B8847606D38B3606D1D
:1031A00000F00100F0B1052084F8350020680068C7
:1031B00020F001002168086000BF0098401C0090CA
:1031C000B84200D905E02068006800F0010000283E
:1031D000F3D100BF012084F8350000BF002084F83F
:1031E000340000BFE06C10B12046E16C884700BF9E
:1031F000A4E70000580000202DE9F0410446002516
:1032000000F000FC074614B90120BDE8F081606AB7
:1032100000B100BF022084F8350000BF002084F810
:10322000340000BF2068006820F0010021680860B9
:103230000AE000F0E7FBC01B052805D920206065E7
:10324000032084F83500E0E72068006800F0010002
:103250000028EED12068056821480540D4E9010125
:103260000843E16808432169084361690843A1698B
:103270000843E1690843216A08430543606A04285A
:1032800003D1D4E90B010843054320680560206899
:10329000456925F00705606A0543606A04280DD179
:1032A000A06A0543E06A48B12046FEF7B3FD28B1A5
:1032B00040206065012084F83500A6E7206845615C
:1032C0002046FEF78DFD064694F85C103F208840AE
:1032D000B06000206065012084F83500002094E78C
:1032E0003F8010F02DE9F04704460D4616461F4674
:1032F0004FF00008D4F8589000BF94F8340001282B
:1033000002D10220BDE8F087012084F8340000BF1C
:1033100094F83500012825D1022084F835000020DA
:1033200060653B46324629462046FEF7C8FD94F8C4
:103330005C103F208840C9F808002068006840F011
:10334000160021680860206C28B12068006840F0F1
:103350000800216808602068006840F001002168CA
:10336000086006E000BF002084F8340000BF4FF082
:1033700002084046C6E7000070B5044600F042FB74
:1033800006462546681C10B104480078054400BF75
:1033900000F038FB801BA842FAD370BD6400002007
:1033A0002DE9F04104460E460127002500BF2648BE
:1033B000007E012802D10220BDE8F08101202249CF
:1033C000087600BF4CF25030FFF77EFA0746002F18
:1033D00032D1401E30602068012810D1207C616805
:1033E000FFF79CF94CF25030FFF76EFA074617488A
:1033F000006848F204018843144908601AE0A5688F
:1034000012E0217C2846FFF71DF94CF25030FFF7FF
:103410005BFA07460D48006820F0FA000B49086087
:103420000FB1356005E06D1CD4E902100844A842D4
:10343000E7D800BFFFF736F900BF00200249087641
:1034400000BF3846B8E70000B0200020103C024022
:103450000348006840F000400149086000207047C0
:10346000103C02402DE9F04106460F4614461D4629
:103470004FF0010800BF1F48007E012802D1022042
:10348000BDE8F08101201B49087600BF4CF25030A6
:10349000FFF71AFA8046B8F1000F23D126B9E1B23E
:1034A0003846FFF765F912E0012E04D1A1B2384683
:1034B000FFF788F90BE0022E04D121463846FFF7CA
:1034C00095F904E022462B463846FFF763F94CF2A3
:1034D0005030FFF7F9F980460748006820F00100F6
:1034E0000549086000BF00200249087600BF404639
:1034F000C6E70000B0200020103C0240002009492F
:10350000096801F0004159B10749064A0C3A1160B7
:10351000064911600349096801F0004101B1012029
:1035200070470000103C024023016745AB89EFCD96
:1035300000B587B0142102A8FCF7FEFE31480068F0
:1035400008B107B000BD01202E49086000BF00206F
:1035500001902D48006840F001002B4908600846A2
:10356000006800F00100019000BF00BF4FF63F006F
:1035700002900220039000200490032005900C206C
:10358000069002A9214800F027F90D2002900220A0
:10359000039000200490032005900C20069002A9BF
:1035A0001B4800F019F948F23710029002200390EE
:1035B00000200490032005900C20069002A91548D5
:1035C00000F00AF94FF68370029002200390002069
:1035D0000490032005900C20069002A90E4800F0EC
:1035E000FBF84CF20370029002200390002004903C
:1035F000032005900C20069002A9084800F0ECF882
:1036000000BF9EE7500000203838024000140240FE
:10361000000802400018024000100240000C024066
:1036200070B50546B5F5005F7ED15A48007830BBCD
:103630004FF40051584800F0D7F920B157480068BE
:103640005749086045E05548006855490968401ADF
:1036500026280ED95148006851490968401A29287E
:1036600007D801204B4908704C4800684C49086055
:103670002FE000204A4908604849086029E04FF4DB
:103680000051454800F0B0F9F8B146480078401CB8
:1036900044490870444800784006000E42490870CA
:1036A0003E4800683E490968401A032811D33B4848
:1036B00000683B490968401A04280AD83A4800784B
:1036C00040F001003849087003E03448006834498C
:1036D00008603448007807285AD1334800784006FB
:1036E000000E31490870084600783049304A127897
:1036F00088542D48007800F0020020B12A48007854
:1037000000F0800048B12848007800F08000A8B997
:103710002548007800F0300080B100F073F90446CD
:1037200024480068201A00E032E0B0F5FA7F1BD987
:103730000120214908701F48046015E01E480078E8
:1037400001280CD1184800781849087016480078EC
:10375000487015480078887013480078C87000F0E9
:1037600051F904461348046011480078401C104980
:10377000087008460078032801DD0020087000204A
:103780000849087005490860054908600149087042
:1037900070BD000082050020000C024008000020DF
:1037A000900500209405002083050020840500205A
:1037B000950500208C0500208105002010B50446E9
:1037C00004480068204020B1024804602046FFF70A
:1037D00027FF10BD143C0140F8B502460B460025FA
:1037E000002400200021E0E0012606FA01F51E6811
:1037F00006EA0504AC4274D11E7906F00306012ED8
:1038000004D01E7906F00306022E13D190684F00F3
:103810000326BE40B0434F00DE68BE403043906098
:10382000506801268E40B0431E79C6F300168E40C4
:10383000304350601E7906F00306032E09D0D0688D
:103840004F000326BE40B0434F009E68BE40304349
:10385000D0601E7906F00306022E13D1CF0802F1C4
:10386000200656F827004E07F70E0F26BE40B0433D
:103870004F07FF0E1E69BE403043CF0802F12006FD
:1038800046F8270010684F000326BE40B0431E795B
:1038900006F003064F00BE40304310605E6806F439
:1038A0004036002E1DD000BF00260096414E3668DF
:1038B00046F480463F4F3E603E46366806F48046FA
:1038C000009600BF00BF3C4E8F0856F827008E07B9
:1038D000370F0F26BE40B043384EB24202D1002609
:1038E0002EE061E0364EB24201D1012628E0354E8D
:1038F000B24201D1022623E0334EB24201D1032667
:103900001EE0324EB24201D1042619E0304EB242DE
:1039100001D1052614E02F4EB24201D106260FE058
:103920002D4EB24201D107260AE02C4EB24201D1FF
:10393000082605E02A4EB24201D1092600E00A26F7
:103940008F073F0FBE4030431B4E8F0846F82700BD
:10395000244E3068A0435E6806F4801606B120430A
:10396000204E3060361D3068A0435E6806F40016B5
:1039700006B120431B4E361D30601A4E361F30688C
:10398000A0435E6806F4003606B12043154E361F8C
:103990003060361F3068A0435E6806F4803606B19A
:1039A0002043104E083E3060491C1029FFF41CAF24
:1039B000F8BD0000443802400838014000000240D1
:1039C0000004024000080240000C024000100240C7
:1039D0000014024000180240001C02400020024077
:1039E00000240240083C0140024613690B400BB121
:1039F000012000E0002070470AB1816101E00B0462
:103A00008361704701480068704700005C00002037
:103A10000348006803490978084401490860704771
:103A20005C0000206400002010B50D48006840F4E0
:103A300000700B4908600846006840F48060086028
:103A40000846006840F480700860032000F01CFB0A
:103A50000F2000F007F800F09BFA002010BD0000D6
:103A6000003C02402DE9F04188B004460027B846EA
:103A700000BF002001902348006840F00400214965
:103A800008600846006800F00400019000BF00BF15
:103A900002A903A800F096FD069F1FB900F0BAFD29
:103AA000054602E000F0B6FD45001748B5FBF0F012
:103AB000A0F1010815481649086040F2E7311448A2
:103AC000C160C0F80480002101618160816101F062
:103AD0002BF9064696B90E4801F04EFA06466EB925
:103AE0001E2000F07FFA102C07D2002221461E2053
:103AF00000F08CFA0748046000E00126304608B068
:103B0000BDE8F0814038024040420F00000800400C
:103B1000682000206000002070B504460E4615465F
:103B200000BF94F8A000012801D1022070BD01203F
:103B300084F8A00000BF022084F8A10005EB8501F5
:103B400001EBC50204F1380101EB82003422314659
:103B5000FCF7D9FB2A463146204601F095FE0120AC
:103B60002168486284F8A10000BF002084F8A0000A
:103B700000BF00BFDAE7000070B504460CB90120B1
:103B800070BD94F8A10028B9002084F8A000204658
:103B900000F07EF8022084F8A1002068806920F0FF
:103BA000704021688861D4E901010843E168084355
:103BB0002169084321688969084321688861206870
:103BC00080683249084021688860A08A050420681E
:103BD0008068A16929430843216888602068C0681B
:103BE0002A4908402168C860A08B05042068C06885
:103BF000216A294308432168C86020680069234975
:103C0000084021680861A08C050420680069A16A49
:103C10002943084321680861206840691B4908401E
:103C200021684861A08D050420684069216B294303
:103C300008432168486194F83500050294F836007D
:103C400006042068C06A00F07F402168C86246EA26
:103C5000050094F8341008432168C96A08432168B4
:103C6000C8622068406B40F0060021684863206805
:103C7000806940F00100216888610020C4F8A40038
:103C8000012084F8A10000207AE7000000F800F08D
:103C900010B592B0044614210DA8FCF74DFB30215D
:103CA00001A8FCF749FB7C49206888427ED10820A6
:103CB00001904FF4A8700590032107914FF48030D4
:103CC0000A9001A800F03AFA08B1FEF7B7FC00BF6D
:103CD000002000907148006840F080606F490860E3
:103CE0000846006800F08060009000BF00BF00BF81
:103CF0000020009069481438006840F020006749AF
:103D0000143908600846006800F02000009000BFE9
:103D100000BF00BF002000900846006840F001008E
:103D200008600846006800F00100009000BF00BF76
:103D300000BF002000900846006840F002000860C4
:103D40000846006800F00200009000BF00BF00BFFE
:103D5000002000900846006840F0400008600846D7
:103D6000006800F04000009000BF00BF00BF0020CE
:103D700000900846006840F00400086008460068AB
:103D800000F00400009000BF00BF00BF00200090C2
:103D90000846006840F0080008600846006800F027
:103DA0000800009000BF00BF081500E072E00D9011
:103DB00002200E9000200F90032010900E201190F2
:103DC0000DA93748FFF708FD41F658000D90022075
:103DD0000E9000200F90032010900E2011900DA93E
:103DE0003048FFF7F9FC03200D9002200E900020D0
:103DF0000F9003201090092011900DA92A48FFF779
:103E0000EBFC4FF470600D9002200E9000200F909C
:103E1000032010900E2011900DA92348FFF7DCFC21
:103E20004FF40C600D9002200E9000200F900320A4
:103E300010900E2011900DA91C48FFF7CDFCC0205A
:103E40000D9002200E9000200F90032010900E2065
:103E500011900DA91648FFF7BFFC08200D90022015
:103E60000E9000200F90032010900E2011900DA9AD
:103E70001048FFF7B1FC4FF4A0500D9002200E90B7
:103E800000200F9003201090092011900DA90748E1
:103E9000FFF7A2FC12B010BD006801404438024098
:103EA00000140240000002400004024000180240DA
:103EB00000080240000C02402DE9F04104460E4685
:103EC0001746984600BF94F8A000012802D10220AE
:103ED000BDE8F081012084F8A00000BF022084F832
:103EE000A10008EB880000EBC80104F1380000EBEA
:103EF00081052E60A86A30446860AF60E86A384483
:103F0000E86042462946204601F0BEFC01202168B7
:103F1000486284F8A10000BF002084F8A00000BF20
:103F200000BFD5E72DE9F04104460E4617469846F6
:103F300000BF94F8A000012802D10220BDE8F08162
:103F4000012084F8A00000BF022084F8A10008EB43
:103F5000880000EBC80104F1380000EB81052868F7
:103F600030446860A8683844E860AE62EF62424658
:103F70002946204601F088FC01202168486284F827
:103F8000A10000BF002084F8A00000BF00BFD5E75B
:103F900008B500BF002000901148006840F4804040
:103FA0000F4908600846006800F48040009000BF98
:103FB00000BF00BF00200090081F006840F0805044
:103FC000091F08600846006800F08050009000BF9C
:103FD00000BF00220F21901E00F018F808BD00005D
:103FE000443802400146084600280DDB00BF00BFF0
:103FF00000F01F0301229A4043099B0003F1E023D4
:10400000C3F8002100BF00BF00BF70472DE9F05F7B
:1040100080460D461646002703F06CFD07463946DC
:104020002A46334601F00700C0F1070ABAF1040F2F
:1040300002D94FF0040A01E0C0F1070AD14600F1AD
:10404000040ABAF1070F02D24FF0000A01E0A0F112
:10405000030AD4464FF0010A0AFA09FAAAF1010A42
:104060000AEA020A0AFA0CFA4FF0010B0BFA0CFBEF
:10407000ABF1010B0BEA030B4AEA0B042146404665
:1040800003F040FDBDE8F09F00BF00F00702064BC3
:1040900019684FF6FF031940044B0B4343EA022112
:1040A000014B196000BF70470CED00E00000FA05FD
:1040B00038B5002400BF002000901D48006840F083
:1040C00080501B4908600846006800F0805000904E
:1040D00000BF00BF012017490864FFF793FC0446A6
:1040E00007E0FFF78FFC001BB0F57A7F01D90320B2
:1040F00038BD1148406800F48030B0F5803FF0D101
:1041000001200C494864FFF77DFC044607E0FFF7F7
:1041100079FC001BB0F57A7F01D90320E8E7064857
:10412000406800F40030B0F5003FF0D10020DFE738
:104130004038024000000E4200700040F8B50446CE
:1041400000250026207800F0010048B9207800F012
:104150000200022804D0207800F04000402862D1FC
:104160000020B1498866FFF74DFC054606E0FFF7E1
:1041700049FC401B022801D90320F8BDAB48006868
:10418000C0F3C0600028F2D1207800F0010038B1FF
:1041900060688101207A41EA0070A4498431086096
:1041A000207800F00200022819D1A048843000686D
:1041B000C0F3027660688101207B41EA006040EA3A
:1041C00006709A498431086098488C30006820F065
:1041D0001F00E169491E084394498C31086020782A
:1041E00000F0400040280AD160688101207B41EA4C
:1041F0000061207A41EA00708C4984310860012016
:1042000089498866FFF7FEFB054606E0FFF7FAFBE3
:10421000401B022801D90320AFE784480068C0F39F
:10422000C0600028F2D0207800F00400042804D0F8
:10423000207800F00800082863D100207A49086738
:10424000FFF7E0FB054606E0FFF7DCFB401B02281A
:1042500001D9032091E775480068C0F34070002839
:10426000F2D1207800F00400042819D16F4888307A
:104270000068C0F3027620698101207D41EA006078
:1042800040EA0670694988310860081D006820F41A
:10429000F851206A401E41EA002064498C310860D0
:1042A000207800F00800082817D16048883000689E
:1042B000C0F303662069800140EA0661207E41EA7E
:1042C00000705A4988310860081D006820F44030A9
:1042D000616A084355498C310860012052490867DA
:1042E000FFF790FB054606E0FFF78CFB401B02281A
:1042F00001D9032041E74D480068C0F34070002811
:10430000F2D0207800F0200020287DD100BF0020CE
:10431000009046484030006840F0805043494031AA
:1043200008600846006800F08050009000BF00BFA1
:104330003F48006840F480703D490860FFF762FB29
:10434000054606E0FFF75EFB401B022801D903206B
:1043500013E73748006800F480700028F2D0334833
:104360007030006800F440764EB3208D00F4407049
:10437000B04224D02D487030006820F440760120EF
:104380002C490860002008602848703006600068EA
:1043900000F0010098B1FFF735FB054608E0FFF794
:1043A00031FB401B41F28831884201D90320E4E609
:1043B0001E4870300068C0F340000028EFD000BFF6
:1043C000208D00F44070B0F5407F0CD117480830C4
:1043D000006820F4F810184AA16A114008431349F4
:1043E0000831086007E011480830006820F4F81030
:1043F0000E49083108600D4870300068218DC1F306
:104400000B010843094900E002E07031086000BF79
:10441000207800F01000102803D194F82C000749F0
:1044200008600020A9E60000000047420038024072
:1044300000700040400E4742FFFCFF0FE011474272
:1044400070B504460D460CB9012070BD584800688F
:1044500000F00F00A84209D255490D7008460068C7
:1044600000F00F00A84201D00120EEE7207800F014
:10447000020002281DD1207800F00400042805D194
:104480004C48006840F4E0504A490860207800F049
:104490000800082805D14748006840F460404549B5
:1044A00008604448006820F0F000A16808434149D2
:1044B0000860207800F00100A8B36068012807D1E7
:1044C0003C4808380068C0F34040B8B90120BCE758
:1044D0006068022802D06068032807D13548083890
:1044E0000068C0F3406048B90120AEE731480838A1
:1044F0000068C0F3400008B90120A6E72D48006815
:1045000020F00300616808432A490860FFF77AFA3F
:10451000064609E0FFF776FA801B41F288318842AF
:1045200002D9032091E707E02248006800F00C0060
:104530006168B0EB810FEDD11D48006800F00F00FD
:10454000A84209D91A490D700846006800F00F000A
:10455000A84201D0012078E7207800F00400042868
:1045600007D11448006820F4E050E168084311497D
:104570000860207800F00800082808D10D4800687D
:1045800020F46040216940EAC1000A49086000F057
:1045900061F808490968C1F30311074A515CC84032
:1045A0000649086006480068FFF75CFA00204CE7FF
:1045B000003C02400838024048DA04085800002055
:1045C000600000200F2202600D4A126802F0030210
:1045D00042600B4A126802F0F0028260084A1268D8
:1045E00002F4E052C260064A126802F46042D20845
:1045F0000261044A126802F00F020A60704700006C
:1046000008380240003C0240014800687047000042
:104610005800002000B5FFF7F7FF04490968C1F30F
:104620008221034A515CC84000BD000008380240A6
:1046300058DA040800B5FFF7E7FF04490968C1F339
:104640004231034A515CC84000BD000008380240B6
:1046500058DA04082DE9F047002400250026A14679
:104660002548006800F00C0020B1042805D0082877
:104670003AD105E0DFF8849039E0DFF8849036E045
:104680001D48001F006800F03F041B48001F006821
:1046900000F4800078B11A481749091F0968C1F36E
:1046A0008811A0FB01700146224600233846FBF723
:1046B000F9FD05460EE011480F49091F0968C1F3CD
:1046C0008811A0FB01700146224600233846FBF703
:1046D000E9FD05460848001F0068C0F30140401C82
:1046E0004600B5FBF6F902E0DFF8109000BF00BF0E
:1046F0004846BDE8F0870000083802400024F40076
:1047000000127A00F8B504460CB90120F8BD2078F3
:1047100000F00100002874D0F948006800F00C0097
:1047200004280DD0F648006800F00C00082813D1CA
:10473000F348001F006800F48000B0F5800F0BD133
:10474000EF4808380068C0F34040002859D060683E
:10475000002856D10120D9E700BF6068B0F5803F3E
:1047600008D1E7480838006840F48030E449083947
:1047700008601EE06068B0F5A02F0DD1E048083851
:10478000006840F48020DE49083908600846006867
:1047900040F4803008600CE0D9480838006820F404
:1047A0008030D749083908600846006820F4802026
:1047B000086000BF606890B1FFF724F9054606E085
:1047C000FFF720F9401B642801D903209EE7CC485D
:1047D00008380068C0F340400028F1D011E0FFF72E
:1047E00011F9054606E0FFF70DF9401B642801D9D1
:1047F00003208BE7C24808380068C0F34040002817
:10480000F1D1207800F0020002285FD1BC48006896
:1048100000F00C0058B1BA48006800F00C000828FD
:104820001CD1B748001F006800F48000B0B9B4483C
:1048300008380068C0F3400020B1E068012801D0CA
:10484000012063E7AE480838006820F0F8002169CD
:1048500040EAC100AA490839086037E0E06800B3BF
:104860000120A8490860FFF7CDF8054606E0FFF7EC
:10487000C9F8401B022801D9032047E7A04808389F
:104880000068C0F340000028F1D09D480838006857
:1048900020F0F800216940EAC10099490839086010
:1048A00014E0002097490860FFF7ACF8054606E0E1
:1048B000FFF7A8F8401B022801D9032026E79048FB
:1048C00008380068C0F340000028F1D1207800F0DB
:1048D000080008282CD16069A8B101208A49086025
:1048E000FFF790F8054606E0FFF78CF8401B02281A
:1048F00001D903200AE782486C300068C0F3400009
:104900000028F1D014E000207F490860FFF77AF812
:10491000054606E0FFF776F8401B022801D9032080
:10492000F4E677486C300068C0F340000028F1D10D
:10493000207800F00400042870D100277048383037
:10494000006800F0805090B900BF002000906C48D3
:104950003830006840F080506949383108600846B6
:10496000006800F08050009000BF00BF012767483A
:10497000006800F48070B0B96448006840F480704A
:1049800062490860FFF73EF8054606E0FFF73AF88F
:10499000401B022801D90320B8E65C48006800F4F7
:1049A00080700028F2D000BFA068012808D15448C8
:1049B0006830006840F001005149683108601DE02E
:1049C000A06805280DD14E486830006840F004000A
:1049D0004B49683108600846006840F001000860F3
:1049E0000CE047486830006820F001004449683115
:1049F00008600846006820F00400086000BFA06856
:104A0000A8B1FEF7FFFF054609E0FEF7FBFF401BDC
:104A100041F28831884202D9032077E626E03848FF
:104A200068300068C0F340000028EED013E0FEF7C5
:104A3000E9FF054608E0FEF7E5FF401B41F288313B
:104A4000884201D9032061E62D4868300068C0F330
:104A500040000028EFD1012F07D1294838300068E5
:104A600020F0805026493831086000BFA069002836
:104A700045D02348006800F00C0008285DD0A069EC
:104A8000022845D100201F490866FEF7BBFF0546F6
:104A900006E0FEF7B7FF401B022801D9032035E6E8
:104AA000174808380068C0F340600028F1D1D4E905
:104AB00007010843616A40EA81110122A06AC2EB42
:104AC000500041EA00412C20005D41EA00600C49A1
:104AD000091F086001200B490866FEF793FF054691
:104AE00006E0FEF78FFF401B022801D903200DE6E8
:104AF000034808380068C0F340600028F1D049E05E
:104B00000838024000004742800E474200700040D3
:104B1000002021490866FEF775FF054606E0FEF70E
:104B200071FF401B022801D90320EFE51B480068F4
:104B3000C0F340600028F2D12CE0A069012800D128
:104B4000E4E51648001D0668A069012820D006F497
:104B50008001E06981421BD106F03F01206A814259
:104B600016D147F6C0703040616AB0EB811F0FD19B
:104B700006F440310122A06AC2EB5000B1EB004FB5
:104B800006D106F070612C20005DB1EB006F01D002
:104B90000120BBE50020B9E5000047420038024093
:104BA00070B504460D460CB9012070BD94F82C0078
:104BB00028B9002084F82D00204600F011F80220CA
:104BC00084F82C00211D2068FDF7B0FE2946D4E9A9
:104BD0000002FDF717FF012084F82C000020E4E715
:104BE00010B50446FEF7A4FC10BD70B504460D4692
:104BF00094F82C00022800D170BD94F82C000128F4
:104C00000AD1022084F82C0029462068FDF7C4FE52
:104C1000012084F82C0001E00120EDE70020EBE703
:104C20002DE9F04104460E46174694F82C50022D0B
:104C300002D10220BDE8F081012D01D0052D12D155
:104C4000022084F82C003A4631462068FDF7AEFE7B
:104C50003068022803D1052084F82C0005E00120EB
:104C600084F82C0001E00120E4E70020E2E770472F
:104C70007047000030B502460B4600BF92F83C007A
:104C8000012801D1022030BD012082F83C0000BF84
:104C9000022082F83D00106844681068816824F0A2
:104CA00070041868044310684460184D1068A842E6
:104CB0001BD01068B0F1804F17D0154D1068A84276
:104CC00013D0144D1068A8420FD0134D1068A8429D
:104CD0000BD0124D1068A84207D0114D1068A842A1
:104CE00003D0104D1068A84205D121F0800158680A
:104CF000014310688160012082F83D0000BF002060
:104D000082F83C0000BF00BFBDE70000000001408A
:104D10000004004000080040000C00400004014076
:104D2000004001400018004010B504460CB90120B5
:104D300010BD94F83D0028B9002084F83C002046BE
:104D400000F026F8022084F83D00211D206802F0C2
:104D500017FA012084F8460000BF84F83E000121C4
:104D60003F200155402001554120015500BF00BFA3
:104D7000012084F84200432001554420015545207C
:104D8000015500BF012084F83D000020D0E700005D
:104D900038B504462068B0F1804F18D100BF00201C
:104DA00000904848006840F0010046490860084605
:104DB000006800F00100009000BF00BF0022052144
:104DC0001C20FFF723F91C20FFF70CF978E03E497F
:104DD000206888420FD100BF002000903948006849
:104DE00040F00200374908600846006800F0020001
:104DF000009000BF64E03549206888420FD100BFB1
:104E0000002000902F48006840F008002D490860FD
:104E10000846006800F00800009000BF50E02C49F0
:104E2000206888421AD100BF002000902548001D4C
:104E3000006840F002002349091D08600846006828
:104E400000F00200009000BF00BF002205212B20CF
:104E5000FFF7DCF82B20FFF7C5F831E01D4920688B
:104E6000884211D100BF002000901648001D006844
:104E700040F480301349091D08600846006800F4BA
:104E80008030009000BF1BE013492068884217D192
:104E900000BF002000900B48006840F04000094926
:104EA00008600846006800F04000009000BF00BFA6
:104EB000002205212B20FFF7A9F82B20FFF792F8FD
:104EC00038BD00004038024000040040000C0040A3
:104ED000000401400040014000180040014691F8E4
:104EE0003D00012801D001207047022081F83D00DB
:104EF0001A4B086898421BD00868B0F1804F17D051
:104F0000174B0868984213D0164B086898420FD088
:104F1000154B086898420BD0144B0868984207D08C
:104F2000134B0868984203D0124B086898420CD182
:104F30000868806800F00702062A0CD0086800683C
:104F400040F001000B68186005E00868006840F058
:104F500001000B6818600020C6E700000000014057
:104F60000004004000080040000C00400004014024
:104F70000040014000180040014691F83D00012822
:104F800001D001207047022081F83D000868C06808
:104F900040F001000B68D8601A4B086898421BD09B
:104FA0000868B0F1804F17D0174B0868984213D0AB
:104FB000164B086898420FD0154B086898420BD0E2
:104FC000144B0868984207D0134B0868984203D0E6
:104FD000124B086898420CD10868806800F00702FC
:104FE000062A0CD00868006840F001000B681860C1
:104FF00005E00868006840F001000B6818600020B8
:10500000C0E700000000014000040040000800402C
:10501000000C004000040140004001400018004026
:105020002DE9F04104460D46002700BF94F83C00EE
:10503000012802D10220BDE8F081012084F83C0063
:1050400000BF022084F83D002068866826F07706BD
:1050500026F47F46206886602868502833D00CDC10
:10506000202850D004DC00284BD0102851D149E032
:10507000302849D040284CD139E060282DD0702804
:1050800007D0B0F5805F03D0B0F5005F41D10DE0EF
:1050900041E0D5E902136A68206802F0F6F820685A
:1050A000866846F077062068866034E0D5E902130A
:1050B0006A68206802F0E9F82068806840F480405F
:1050C0002168886027E0EA686968206802F0CEF904
:1050D0005021206802F0E4F81DE0EA686968206861
:1050E00002F0D7F96021206802F0DAF813E0EA68EC
:1050F0006968206802F0BAF94021206802F0D0F80F
:1051000009E000BF00BF00BF2968206802F0C8F8AE
:1051100001E0012700BF00BF012084F83D0000BF6F
:10512000002084F83C0000BF384684E7704770B523
:1051300004462068C5682068066906F00200022857
:1051400019D105F00200022815D1401F216808611D
:10515000012020772068806900F0030018B1204604
:10516000FFF7E4FF05E0204600F036F9204600F0A6
:10517000EAF90020207706F00400042819D105F090
:105180000400042815D1C04321680861022020775B
:105190002068806900F4407018B12046FFF7C6FF10
:1051A00005E0204600F018F9204600F0CCF9002078
:1051B000207706F00800082819D105F00800082813
:1051C00015D1C04321680861042020772068C06998
:1051D00000F0030018B12046FFF7A8FF05E02046C5
:1051E00000F0FAF8204600F0AEF90020207706F033
:1051F0001000102819D105F01000102815D1C04357
:1052000021680861082020772068C06900F4407098
:1052100018B12046FFF78AFF05E0204600F0DCF8D1
:10522000204600F090F90020207706F0010048B1F8
:1052300005F0010030B16FF00100216808612046DF
:1052400000F008FA06F08000802809D105F08000FF
:10525000802805D1C043216808612046FFF707FD7B
:1052600006F04000402809D105F04000402805D153
:10527000C04321680861204600F084FA06F020004F
:10528000202809D105F02000202805D1C04321683D
:1052900008612046FFF7ECFC70BD000010B586B039
:1052A0000446142101A8FBF747F82068B0F1804FAD
:1052B0001DD100BF002000904048006840F0010070
:1052C0003E4908600846006800F00100009000BFF9
:1052D00000BF012001900220029000200390049062
:1052E0000120059001A93648FEF776FA64E03549B9
:1052F000206888421DD100BF002000902F48006820
:1053000040F002002D4908600846006800F00200E5
:10531000009000BF00BF30200190022002900020CA
:10532000039004900220059001A92748FEF754FA43
:1053300042E02649206888421DD100BF002000902D
:105340001E48006840F001001C49086008460068DB
:1053500000F00100009000BF00BF06200190022075
:1053600002900020039004900220059001A91448A7
:10537000FEF732FA20E01649206888421CD100BFAF
:10538000002000900D48006840F010000B490860B4
:105390000846006800F01000009000BF00BF4020E9
:1053A00001900220029000200390049003200590B9
:1053B00001A90848FEF710FA06B010BD30380240C7
:1053C000000002400004004000040240000C0040C5
:1053D000004001400010024070472DE9F0410446B2
:1053E0000D461646002700BF94F83C00012802D164
:1053F0000220BDE8F081012084F83C0000BF36B1F6
:10540000042E1BD0082E31D00C2E5ED145E029464B
:10541000206801F04FFF2068806940F00800216893
:1054200088612068806920F0040021688861206814
:105430008069296908432168886148E02946206815
:1054400001F070FF2068806940F400602168886185
:105450002068806920F48060216888612068806904
:10546000296940EA01202168886130E029462068E6
:1054700001F096FF2068C06940F008002168C8610B
:105480002068C06920F004002168C8612068C069F4
:10549000296908432168C86119E02946206801F09C
:1054A000BBFF2068C06940F400602168C8612068C3
:1054B000C06920F480602168C8612068C0692969DA
:1054C00040EA01202168C86101E0012700BF00BF58
:1054D00000BF002084F83C0000BF384689E710B5C3
:1054E00004460CB9012010BD94F83D0028B90020F5
:1054F00084F83C00204600F025F8022084F83D00A6
:10550000211D206801F03CFE012084F8460000BF08
:1055100084F83E0001213F200155402001554120E3
:10552000015500BF00BF012084F84200432001550F
:10553000442001554520015500BF012084F83D005D
:105540000020D0E77047704770B504460D4615B986
:1055500094F83E000BE0042D02D13F20005D06E0F0
:10556000082D02D14020005D01E04120005D0128AE
:1055700001D0012070BD1DB9022084F83E000EE06C
:10558000042D03D102213F20015508E0082D03D14D
:1055900002214020015502E0022141200155012253
:1055A0002946206801F060FE23492068884203D024
:1055B00022492068884201D1012000E0002028B162
:1055C0002068406C40F40040216848641A49206813
:1055D00088421BD02068B0F1804F17D0184920684E
:1055E000884213D01749206888420FD01649206896
:1055F00088420BD011492068884207D0134920689F
:10560000884203D01249206888420CD12068806803
:1056100000F00706062E0CD02068006840F001005C
:105620002168086005E02068006840F001002168FA
:10563000086000209EE700000000014000040140D7
:105640000004004000080040000C00400040014001
:105650000018004010B5044636492068884201D140
:10566000FEF7D6F934492068884259D1334800689A
:10567000401C3249086032480068401C30490860CC
:1056800030480068401C2F4908602F480068401CC3
:105690002D4908602D480068401C2C4908602C48A2
:1056A0000068401C2A4908602A480068401C2949B3
:1056B000086029480068401C27490860274800689E
:1056C000401C2649086026480068401C24490860A0
:1056D00024480068401C23490860234800780428B7
:1056E00003D021480078032805D120480068401CD9
:1056F0001E49086002E000201C4908601C48007830
:10570000012804D11B480068401C1A4908600F4852
:10571000006840F2DC51884202D901201649087025
:1057200016492068884204D115480068401C144975
:10573000086010BD00080040000401401000002077
:1057400004000020000000200C00002014000020B5
:10575000200000201C000020280000202C00002039
:1057600030000020380000200F0300203C00002003
:105770001E030020340000202400002000180040F8
:1057800008000020704710B504460CB9012010BD78
:10579000A06900B100E000BF94F8410028B90020E2
:1057A00084F84000204600F029F8242084F84100C5
:1057B0002068C06820F400502168C860204601F0CD
:1057C0007DFE2068006920F490402168086120680F
:1057D000406920F02A00216848612068C06840F4D0
:1057E00000502168C86000206064202084F84100D7
:1057F00084F842000020606300BFC8E710B586B09F
:105800000446142101A8FAF797FD1B492068884235
:1058100030D100BF002000901848006840F0100010
:10582000164908600846006800F01000009000BFAC
:1058300000BF00BF0020009010481438006840F0FE
:1058400001000E49143908600846006800F00100A4
:10585000009000BF00BF4FF4C06001900220029092
:1058600000200390032004900720059001A904481C
:10587000FDF7B2FF06B010BD0010014044380240F1
:105880000000024000BFFEE7F0B58E880768FF68A1
:10589000C7F30B473E44330406688436802707FB72
:1058A0000266766806F47047066884364FF0800C0E
:1058B0000CFB026677600E680768FF68C7F30B474A
:1058C0003E44761C1E43076884370CFB02777E60DB
:1058D0008E890768FF68C7F30A073E4433040668E9
:1058E0008436802707FB0266B66806F470470668B0
:1058F00084360CFB0266B7608E680768FF68C7F3E2
:105900000A073E44761C46EA0307066884360CFB09
:105910000266B76006688436802707FB0266366930
:1059200026F00707066884360CFB026637610F69AC
:10593000066884360CFB026637613126765C3302DA
:105940003226765C34040E7E35060668843680275F
:1059500007FB0266B6690027066884360CFB026600
:10596000B76191F830601E43264346EA0507066892
:1059700084360CFB0266B76106688436802707FB15
:105980000266766926F0FF07066884360CFB02661D
:1059900077614F69066884360CFB0266776106689A
:1059A0008436802707FB0266F66940F20777BE431C
:1059B000076884370CFB0277FE61D1E9077637432D
:1059C000066884360CFB0266F76106688436802719
:1059D00007FB0266B66A0027066884360CFB02667F
:1059E000B7624F6A066884360CFB0266B7620E69BE
:1059F0000EB9042313E00E69012E01D103230EE03A
:105A00000E69042E08D00E69022E05D00E69032EF1
:105A100002D00E69072E01D1022300E0012306689F
:105A20008436802707FB0266F66A06F0E0270668E0
:105A300084364FF0800C0CFB0266F762D1E90076E9
:105A4000F61B5E43F61C0F8D5F4346EA0747066868
:105A500084360CFB0266F76206688436802707FBF3
:105A60000266366BF70AFF02066884360CFB026694
:105A70003763CF6A066884360CFB026637630668B4
:105A80008436D701F65946F00107066884364FEA96
:105A9000C21C46F80C70F0BD1FB5002000900190AC
:105AA000029003901548164908604FF48030486012
:105AB0000021134881600161017680F82010C162E5
:105AC000104981620021C1600121C161002180F87B
:105AD000301001214161FDF7B5F808B1FCF7AEFDCA
