:020000040800F2
:10000000689401208102000811670008915C0008D3
:100010000D67000825210008357E0008000000005B
:10002000000000000000000000000000C101000806
:1000300043220008000000001D020008BD730008F4
:100040009B0200089B0200089B0200089B0200081C
:100050009B0200089B0200089B0200089B0200080C
:100060009B0200089B0200089B0200089B020008FC
:100070009B0200089B0200089B0200089B020008EC
:100080009B0200089B0200089B0200089B020008DC
:100090009B0200089B0200089B02000845290008FB
:1000A0009B0200089B0200089B0200089B020008BC
:1000B000AD740008BD7400089B0200089B02000894
:1000C0009B0200089B0200089B0200089B0200089C
:1000D0009B0200089B0200089B0200089B0200088C
:1000E0009B0200089B0200089B020008CD740008D8
:1000F000FD740008E57400089B0200089B020008DC
:100100009B0200089B0200089B0200089B0200085B
:100110009B0200089B0200089B0200089B0200084B
:10012000292100089B0200089B0200089B0200088E
:100130009B0200089B0200089B0200089B0200082B
:100140009B0200089B0200089B0200089B0200081B
:100150009B0200089B0200089B0200089B0200080B
:100160009B0200089B0200089B0200089B020008FB
:100170009B0200089B0200089B0200080000000090
:100180009B0200089B0200089B0200089B020008DB
:100190009B0200089B0200089B0200089B020008CB
:1001A0009B0200089B0200089B020008DFF80CD0AD
:1001B00000F0E8FA00480047BD2E030868940120CB
:1001C0002C4B19680868B0E8F04F80F30988BFF33A
:1001D0006F8F4FF0000080F311887047000000001F
:1001E00008480068006880F308884FF0000080F33A
:1001F000148862B661B6BFF34F8FBFF36F8F00DF15
:1002000000BF00BF08ED00E0DFF80C00016841F41A
:1002100070010160704700BF88ED00E0EFF30980D6
:10022000BFF36F8F134B1A681EF0100F08BF20ED3D
:10023000108A20E9F04F106009B44FF0500080F3AD
:100240001188BFF34F8FBFF36F8F4DF057FC4FF006
:10025000000080F3118809BC19680868B0E8F04F05
:100260001EF0100F08BFB0EC108A80F30988BFF3AE
:100270006F8F704778000020EFF305807047000013
:100280000648804706480047FEE7FEE7FEE7FEE730
:10029000FEE7FEE7FEE7FEE7FEE7FEE799740008EB
:1002A000AD0100082DE9F05F0546002092469B460F
:1002B00088460646814640241BE02846414647467C
:1002C000224600F0BAF953465A46C01A914110D35B
:1002D00011461846224600F0A1F92D1A67EB0108D5
:1002E0004F4622460120002100F098F917EB000943
:1002F0004E41201EA4F10104DFDC484631462A4667
:100300004346BDE8F09F40EA01039B0703D009E0A4
:1003100008C9121F08C0042AFAD203E011F8013BF1
:1003200000F8013B521EF9D27047D2B201E000F84A
:10033000012B491EFBD270470022F6E710B5134689
:100340000A4604461946FFF7F0FF204610BD421C3E
:1003500010F8011B0029FBD1801A704710B500224C
:1003600000E0521C835C8C5CA34201D1002BF8D1CD
:10037000D8B2E1B2401A10BD30B5044600200346A1
:1003800000E05B1C934203D2E05CCD5C401BF8D0E4
:1003900030BD034611F8012B00F8012B002AF9D1DA
:1003A000184670472DE9FE4F81EA030404F000442B
:1003B00021F0004100944FF0000B23F0004350EA7D
:1003C00001045ED052EA03045BD0C3F30A54C1F3C4
:1003D0000A552C44A4F2F3340194A0FB0254C1F357
:1003E000130141F48011C3F3130343F4801301FBA1
:1003F000024400FB034E840A970A44EA815447EA08
:100400008357A4FB076802958D0A05FB07854FEA11
:10041000932C04FB0C542705029D4FEA065847EA2B
:100420001637B5EB08056EEB070C870E920E47EA00
:10043000811742EA8312A7FB0201B6EB0B0164EBC2
:1004400000042B0D43EA0C335E1844EB1C50DA46D3
:100450005146E7FB0201C5F313044FEA0B3343EAAD
:1004600014534FEA0432019C43EA0603A4F10C043E
:100470000294009CCDE900B400F035F903B0BDE86A
:10048000F08F00200146F9E72DE9F04D81EA0304E1
:1004900004F0004B21F0004514464FF0000A23F011
:1004A000004150EA050220D054EA01021DD0C5F3F4
:1004B0000A570246C5F31303C1F31300C1F30A56EA
:1004C00040F4801543F48013A7EB0608101BD646B2
:1004D00008F2FD3873EB050002D308F1010801E0D2
:1004E00092185B41B8F1000F03DA00200146BDE825
:1004F000F08D00204FF48011064684460EE0171B55
:1005000073EB050705D3121B63EB050306434CEAA7
:10051000010C49084FEA300092185B4150EA01078C
:10052000EDD152EA030012D082EA040083EA050109
:10053000084305D0101BAB4106D20122002306E080
:1005400000224FF0004302E06FF0010253101AEB5B
:1005500006004CEB085110EB0A0041EB0B01BDE823
:10056000F04D00F0B1B80EB540F2334102910021D8
:10057000CDE900110A460B4600F0B5F803B000BD06
:1005800070B5C1F30A5201F000450024C1F3130114
:1005900040F2FF3341F480119A4201DA002070BD2D
:1005A00040F233439A42A2F2334203DC524200F05B
:1005B00044F800E090402C43F1D0404270BD00F080
:1005C000004230F000400AD0C10D01F56071C0F367
:1005D000160042EA0151C20840071143704700204B
:1005E0000146704701F0004330B421F0004150EA69
:1005F000010206D00A0DA2F56072C1F31301002AB0
:1006000002DC30BC00207047440F44EAC104C10042
:10061000E01830BC00EBC25000F01FB8202A04DB09
:10062000203A00FA02F1002070479140C2F1200305
:1006300020FA03F3194390407047202A04DB203A44
:1006400021FA02F00021704721FA02F3D040C2F1F2
:10065000200291400843194670470029A8BF7047FF
:10066000401C490008BF20F00100704710B4B0FAE8
:1006700080FC00FA0CF050EA010404BF10BC704783
:1006800049B1CCF1200421FA04F411FA0CF118BF9D
:10069000012121430843A3EB0C01CB1D4FEA00616C
:1006A0004FEA102042BF002010BC704700EBC3503F
:1006B00010440029A4BF10BC7047401C490008BF6B
:1006C00020F0010010BC704710B5141E73F1000437
:1006D00008DA401C41F1000192185B411A4301D134
:1006E00020F0010010BD2DE9F04D92469B4611B15E
:1006F000B1FA81F202E0B0FA80F220329046FFF7C0
:100700008DFF04460F4640EA0A0041EA0B015346BA
:100710005A46084313D0114653EA010019D0C8F1D4
:1007200040025046FFF789FF05460E46504659469F
:100730004246FFF773FF084305D0012004E020463E
:100740003946BDE8F08D0020054346EAE0762C43AB
:1007500037430A986305E40AA0EB08000022FD0A6B
:1007600044EA47540A3002D500200146E9E7010572
:1007700010196941DDE9084500196941BDE8F04DEE
:10078000A2E70000064C074D06E0E06840F00103D8
:1007900094E8070098471034AC42F6D3FFF70AFDFF
:1007A000ACD60C08CCD60C0870B58C1810F8015BD0
:1007B00015F0070301D110F8013B2A1106D110F8FA
:1007C000012B03E010F8016B01F8016B5B1EF9D1FE
:1007D0002B0705D40023521E0DD401F8013BFAE784
:1007E00010F8013BCB1A921C03E013F8015B01F8EF
:1007F000015B521EF9D5A142D8D3002070BD002064
:1008000001E0411C88B20228FBDB704770B504464A
:100810000D46054A32F81410044A52F824002A46BC
:1008200003F0ACFA70BD0000300500203C0500204C
:1008300010B5044601212046FFF7E8FF01212046BC
:1008400000F006F80121204600F014F810BD000069
:1008500070B504460D46054A32F81410044A52F8A1
:1008600024002A4603F08AFA70BD000034050020F7
:100870004405002070B504460D46054A32F81410B0
:10088000044A52F824002A4603F078FA70BD0000AA
:10089000380500204C05002070B506460C460025A2
:1008A00001213046FFF7D4FF01213046FFF7AEFFAC
:1008B00000213046FFF7AAFF00BF1AE004F4004011
:1008C00020B101213046FFF7D5FF03E0002130467B
:1008D000FFF7D0FFFFF793FF00213046FFF7B8FF87
:1008E000FFF78DFF01213046FFF7B2FF6400681C5F
:1008F000C5B2102DE2DB01213046FFF787FF70BD46
:100900002DE9F0412DED068B80460C46B0EE408A75
:10091000F0EE608A9FED1C0BB0EE40AAF0EE60AAEC
:10092000B0EE489AF0EE689A9FED190B53EC102B3D
:1009300051EC190BFFF7A8FD41EC190B53EC1A2BE6
:1009400051EC190BFFF72EFD41EC190B51EC190B73
:10095000FFF716FE06463746C7F30D07B513C5F376
:100960000D05274325434FF404514046FFF794FFFC
:1009700039464046FFF790FF29464046FFF78CFF77
:10098000BDEC068BBDE8F081CE98ED780826774166
:100990000000000080842E412DE9F04107460C46FE
:1009A000154626462E4331463846FFF775FFBDE80B
:1009B000F0812DE9F04180460C4615461E46002781
:1009C00047EA0400284340EA060739464046FFF755
:1009D00063FFBDE8F0812DE9F0472DED028B06465F
:1009E0000C46B0EE408AF0EE608A15461F46DDF8F0
:1009F0002880022E0BDAB4F5804F02D0B4F5004FF8
:100A000005D1B5F5404F06D0B5F5604F03D0BDEC2C
:100A1000028BBDE8F087B4F5804F01D1002001E0E2
:100A20004FF400608146B5F5404F01D1002001E050
:100A30004FF4806082464FF480713046FFF72CFF00
:100A40004FF404513046FFF727FFA1B2B0EE480A39
:100A5000F0EE680A3046FFF753FFBAB2A9B230464B
:100A6000FFF79AFF53464A4641463046FFF7A1FF3B
:100A700000BFCCE770B50546AC6B206C00F05000B1
:100A800050BB206C40F4007020642068806800F047
:100A90004050E8B9207ED8B92068C06A00F47000E0
:100AA00020B12068806800F4806088B920684068C0
:100AB00020F0200021684860206C20F480702064C1
:100AC000206C00F4805018B9206C40F001002064C4
:100AD000204602F079FA0BE0206C00F0100018B10B
:100AE000204602F073FA03E0A06BC16C28468847E9
:100AF00070BD70B50546AC6B40202064606C40F062
:100B000004006064204602F061FA70BD70B50446CE
:100B1000A56B284602F059FA70BD000055494A6895
:100B200022F440324A604A6843681A434A600268C5
:100B3000526822F4807203685A600268536802693E
:100B400043EA022203685A600268526822F0407247
:100B500003685A600268526883681A4303685A60DF
:100B60000268926822F4006203689A6002689268E0
:100B7000C3681A4303689A603F4B826A9A4218D04E
:100B80000268926822F0706203689A600268926854
:100B9000836A1A4303689A600268926822F040529E
:100BA00003689A6002689268C36A1A4303689A608D
:100BB0000BE00268926822F0706203689A60026833
:100BC000926822F0405203689A600268926822F0AC
:100BD000020203689A6002689368027E43EA420256
:100BE00003689A602022125CA2B10268526842F443
:100BF000006203685A600268526822F46042036827
:100C00005A6002685368426A521E43EA42320368DD
:100C10005A6005E00268526822F4006203685A6074
:100C20000268D26A22F470020368DA620268D36A48
:100C3000828B521E43EA02520368DA6202689268AB
:100C400022F4007203689A600268936890F830207A
:100C500043EA422203689A600268926822F4806242
:100C600003689A6002689368426943EA82220368D3
:100C70009A607047002301400100000F10B5044640
:100C8000062C73D2DFE804F0BD03284D73985E494B
:100C9000D1F8C000012127F01BFF5B49D1F8BC004F
:100CA000012127F015FF5849D1F8B800012127F09C
:100CB0000FFF5549D1F8B400012127F009FF52492F
:100CC000D1F8B000012127F003FF4F49D1F8AC0063
:100CD000012128F068FC95E04B49D1F8C0000121C2
:100CE00028F061FC4849D1F8BC00012127F0F0FE52
:100CF0004549D1F8B800012127F0EAFE4249D1F870
:100D0000B400012127F0E4FE3F49D1F8B0000121F1
:100D100028F049FC3C49D1F8AC00012127F0D8FE6D
:100D200070E03949D1F8C000012128F03CFC364977
:100D3000D1F8BC00012128F036FC3349D1F8B800C5
:100D4000012127F0C5FE3049D1F8B400012127F078
:100D5000BFFE2D49D1F8B000012128F024FC2A491A
:100D6000D1F8AC00012127F0B3FE4BE049E0264961
:100D7000D1F8C000012128F016FC2349D1F8BC00AD
:100D8000012128F010FC2049D1F8B800012128F0F9
:100D90000AFC1D49D1F8B400012127F099FE1A4937
:100DA000D1F8B000012128F0FEFB1749D1F8AC00C2
:100DB000012127F08DFE25E01349D1F8C000012163
:100DC00028F0F1FB1049D1F8BC00012128F0EBFB21
:100DD0000D49D1F8B800012128F0E5FB0A49D1F806
:100DE000B400012128F0DFFB0749D1F8B000012150
:100DF00028F0D9FB0449D1F8AC00012127F068FEA6
:100E000000E000BF00BF10BDC435012010B504468E
:100E1000062C73D2DFE804F0BD03284D73985E49B9
:100E2000D1F8A402012127F053FE5B49D1F8A002BA
:100E3000012127F04DFE5849D1F89C02012127F0ED
:100E400047FE5549D1F89802012127F041FE524949
:100E5000D1F89402012127F03BFE4F49D1F89002CE
:100E6000012128F0A0FB95E04B49D1F8A402012113
:100E700028F099FB4849D1F8A002012127F028FE6B
:100E80004549D1F89C02012127F022FE4249D1F8C0
:100E90009802012127F01CFE3F49D1F8940201215C
:100EA00028F081FB3C49D1F89002012127F010FE87
:100EB00070E03949D1F8A402012128F074FB3649C9
:100EC000D1F8A002012128F06EFB3349D1F89C0231
:100ED000012127F0FDFD3049D1F89802012127F0CA
:100EE000F7FD2D49D1F89402012128F05CFB2A4935
:100EF000D1F89002012127F0EBFD4BE049E02649B3
:100F0000D1F8A402012128F04EFB2349D1F8A00218
:100F1000012128F048FB2049D1F89C02012128F04A
:100F200042FB1D49D1F89802012127F0D1FD1A4951
:100F3000D1F89402012128F036FB1749D1F890022C
:100F4000012127F0C5FD25E01349D1F8A4020121B4
:100F500028F029FB1049D1F8A002012128F023FB39
:100F60000D49D1F89C02012128F01DFB0A49D1F856
:100F70009802012128F017FB0749D1F894020121BA
:100F800028F011FB0449D1F89002012127F0A0FDBF
:100F900000E000BF00BF10BDC435012010B50446FD
:100FA000062C73D2DFE804F0BD03284D73985E4928
:100FB000D1F8C401012127F08BFD5B49D1F8C001B4
:100FC000012127F085FD5849D1F8BC01012127F006
:100FD0007FFD5549D1F8B801012127F079FD52492B
:100FE000D1F8B401012127F073FD4F49D1F8B001C8
:100FF000012128F0D8FA95E04B49D1F8C40101212C
:1010000028F0D1FA4849D1F8C001012127F060FD4C
:101010004549D1F8BC01012127F05AFD4249D1F8D8
:10102000B801012127F054FD3F49D1F8B401012155
:1010300028F0B9FA3C49D1F8B001012127F048FD68
:1010400070E03949D1F8C401012128F0ACFA3649E1
:10105000D1F8C001012128F0A6FA3349D1F8BC012A
:10106000012127F035FD3049D1F8B801012127F0E1
:101070002FFD2D49D1F8B401012128F094FA2A4915
:10108000D1F8B001012127F023FD4BE049E02649CA
:10109000D1F8C401012128F086FA2349D1F8C00112
:1010A000012128F080FA2049D1F8BC01012128F063
:1010B0007AFA1D49D1F8B801012127F009FD1A4932
:1010C000D1F8B401012128F06EFA1749D1F8B00126
:1010D000012127F0FDFC25E01349D1F8C4010121CD
:1010E00028F061FA1049D1F8C001012128F05BFA1B
:1010F0000D49D1F8BC01012128F055FA0A49D1F86F
:10110000B801012128F04FFA0749D1F8B4010121B3
:1011100028F049FA0449D1F8B001012127F0D8FCA0
:1011200000E000BF00BF10BDC435012010B504466B
:10113000062C7DD2DFE804F0A003224160815049F3
:10114000C869012127F0C4FC4D49086A012127F034
:10115000BFFC4B49486A012127F0BAFC4849886A1C
:10116000012127F0B5FC4649086B012127F0B0FCAE
:101170004349C86A012128F016FA7EE04049C8694F
:10118000012128F010FA3E49086A012127F0A0FC4D
:101190003B49486A012127F09BFC3949886A0121B3
:1011A00027F096FC3649086B012128F0FCF93449F8
:1011B000C86A012127F08CFC5FE03149C869012130
:1011C00028F0F1F92E49086A012128F0ECF92C49A0
:1011D000486A012127F07CFC2949886A012127F00F
:1011E00077FC2749086B012128F0DDF92449C86AFA
:1011F000012127F06DFC40E02149C869012128F058
:10120000D2F91F49086A012128F0CDF91C49486A22
:10121000012128F0C8F91A49886A012127F058FCF1
:101220001749086B012128F0BEF91549C86A00E08A
:1012300022E0012127F04CFC1FE01149C86901217F
:1012400028F0B1F90E49086A012128F0ACF90C49DF
:10125000486A012128F0A7F90949886A012128F084
:10126000A2F90749086B012128F09DF90449C86AD1
:10127000012127F02DFC00E000BF00BF10BD0000E1
:10128000C435012010B50446062C73D2DFE804F003
:10129000BD03284D73985E49D1F83401012127F030
:1012A00017FC5B49D1F83001012127F011FC5849A6
:1012B000D1F82C01012127F00BFC5549D1F8280168
:1012C000012127F005FC5249D1F82401012127F022
:1012D000FFFB4F49D1F82001012128F064F995E086
:1012E0004B49D1F83401012128F05DF94849D1F882
:1012F0003001012127F0ECFB4549D1F82C010121F7
:1013000027F0E6FB4249D1F82801012127F0E0FB54
:101310003F49D1F82401012128F045F93C49D1F891
:101320002001012127F0D4FB70E03949D1F83401C4
:10133000012128F038F93649D1F83001012128F08F
:1013400032F93349D1F82C01012127F0C1FB304992
:10135000D1F82801012127F0BBFB2D49D1F8240148
:10136000012128F020F92A49D1F82001012127F094
:10137000AFFB4BE049E02649D1F83401012128F0C8
:1013800012F92349D1F83001012128F00CF9204944
:10139000D1F82C01012128F006F91D49D1F82801C6
:1013A000012127F095FB1A49D1F82401012128F0E9
:1013B000FAF81749D1F82001012127F089FB25E02F
:1013C0001349D1F83401012128F0EDF81049D1F882
:1013D0003001012128F0E7F80D49D1F82C01012155
:1013E00028F0E1F80A49D1F82801012128F0DBF8BA
:1013F0000749D1F82401012128F0D5F80449D1F892
:101400002001012127F064FB00E000BF00BF10BDF8
:10141000C435012010B50446062C73D2DFE804F071
:10142000BD03284D73985E49D1F81403012127F0BC
:101430004FFB5B49D1F81003012127F049FB5849C4
:10144000D1F80C03012127F043FB5549D1F80803DB
:10145000012127F03DFB5249D1F80403012127F077
:1014600037FB4F49D1F80003012128F09CF895E0A3
:101470004B49D1F81403012128F095F84849D1F8D7
:101480001003012127F024FB4549D1F80C03012169
:1014900027F01EFB4249D1F80803012127F018FB71
:1014A0003F49D1F80403012128F07DF83C49D1F8E7
:1014B0000003012127F00CFB70E03949D1F8140337
:1014C000012128F070F83649D1F81003012128F0E5
:1014D0006AF83349D1F80C03012127F0F9FA3049B1
:1014E000D1F80803012127F0F3FA2D49D1F80403BC
:1014F000012128F058F82A49D1F80003012127F0EA
:10150000E7FA4BE049E02649D1F81403012128F01D
:101510004AF82349D1F81003012128F044F8204962
:10152000D1F80C03012128F03EF81D49D1F8080339
:10153000012127F0CDFA1A49D1F80403012128F03E
:1015400032F81749D1F80003012127F0C1FA25E04C
:101550001349D1F81403012128F025F81049D1F8D6
:101560001003012128F01FF80D49D1F80C030121C7
:1015700028F019F80A49D1F80803012128F013F8D6
:101580000749D1F80403012128F00DF80449D1F8E6
:101590000003012127F09CFA00E000BF00BF10BD4E
:1015A000C435012010B50446062C73D2DFE804F0E0
:1015B000BD03284D73985E49D1F87403012127F0CB
:1015C00087FA5B49D1F87003012127F081FA584965
:1015D000D1F86C03012127F07BFA5549D1F8680353
:1015E000012127F075FA5249D1F86403012127F04F
:1015F0006FFA4F49D1F86003012127F0D4FF95E03D
:101600004B49D1F87403012127F0CDFF4849D1F8A7
:101610007003012127F05CFA4549D1F86C030121E0
:1016200027F056FA4249D1F86803012127F050FA11
:101630003F49D1F86403012127F0B5FF3C49D1F8B7
:101640006003012127F044FA70E03949D1F87403AE
:10165000012127F0A8FF3649D1F87003012127F0B6
:10166000A2FF3349D1F86C03012127F031FA304948
:10167000D1F86803012127F02BFA2D49D1F8640332
:10168000012127F090FF2A49D1F86003012127F0BA
:101690001FFA4BE049E02649D1F87403012127F0F5
:1016A00082FF2349D1F87003012127F07CFF2049F4
:1016B000D1F86C03012127F076FF1D49D1F86803AA
:1016C000012127F005FA1A49D1F86403012127F016
:1016D0006AFF1749D1F86003012127F0F9F925E0E5
:1016E0001349D1F87403012127F05DFF1049D1F8A7
:1016F0007003012127F057FF0D49D1F86C03012138
:1017000027F051FF0A49D1F86803012127F04BFF68
:101710000749D1F86403012127F045FF0449D1F8B6
:101720006003012127F0D4F900E000BF00BF10BD25
:10173000C435012010B50446062C73D2DFE804F04E
:10174000BD03284D73985E49D1F81802012127F096
:10175000BFF95B49D1F81402012127F0B9F95849C2
:10176000D1F81002012127F0B3F95549D1F80C0244
:10177000012127F0ADF95249D1F80802012127F0E3
:10178000A7F94F49D1F80402012127F00CFF95E099
:101790004B49D1F81802012127F005FF4849D1F83B
:1017A0001402012127F094F94549D1F810020121D2
:1017B00027F08EF94249D1F80C02012127F088F96F
:1017C0003F49D1F80802012127F0EDFE3C49D1F84C
:1017D0000402012127F07CF970E03949D1F81802A0
:1017E000012127F0E0FE3649D1F81402012127F04B
:1017F000DAFE3349D1F81002012127F069F93049A6
:10180000D1F80C02012127F063F92D49D1F8080223
:10181000012127F0C8FE2A49D1F80402012127F04E
:1018200057F94BE049E02649D1F81802012127F089
:10183000BAFE2349D1F81402012127F0B4FE204951
:10184000D1F81002012127F0AEFE1D49D1F80C029B
:10185000012127F03DF91A49D1F80802012127F0AA
:10186000A2FE1749D1F80402012127F031F925E041
:101870001349D1F81802012127F095FE1049D1F83B
:101880001402012127F08FFE0D49D1F81002012129
:1018900027F089FE0A49D1F80C02012127F083FEC6
:1018A0000749D1F80802012127F07DFE0449D1F84B
:1018B0000402012127F00CF900E000BF00BF10BDB9
:1018C000C435012010B50446062C73D2DFE804F0BD
:1018D000BD03284D73985E49D1F86C02012127F0B1
:1018E000F7F85B49D1F86802012127F0F1F858496F
:1018F000D1F86402012127F0EBF85549D1F86002D4
:10190000012127F0E5F85249D1F85C02012127F0C6
:10191000DFF84F49D1F85802012127F044FE95E045
:101920004B49D1F86C02012127F03DFE4849D1F81E
:101930006802012127F0CCF84549D1F86402012161
:1019400027F0C6F84249D1F86002012127F0C0F81B
:101950003F49D1F85C02012127F025FE3C49D1F82E
:101960005802012127F0B4F870E03949D1F86C022F
:10197000012127F018FE3649D1F86802012127F02D
:1019800012FE3349D1F86402012127F0A1F8304951
:10199000D1F86002012127F09BF82D49D1F85C02B3
:1019A000012127F000FE2A49D1F85802012127F031
:1019B0008FF84BE049E02649D1F86C02012127F06D
:1019C000F2FD2349D1F86802012127F0ECFD2049FE
:1019D000D1F86402012127F0E6FD1D49D1F860022B
:1019E000012127F075F81A49D1F85C02012127F08E
:1019F000DAFD1749D1F85802012127F069F825E0EE
:101A00001349D1F86C02012127F0CDFD1049D1F81E
:101A10006802012127F0C7FD0D49D1F864020121B8
:101A200027F0C1FD0A49D1F86002012127F0BBFD72
:101A30000749D1F85C02012127F0B5FD0449D1F82E
:101A40005802012127F044F800E000BF00BF10BD9C
:101A5000C435012070B52DED028B002600249FEDCA
:101A6000A60AB0EE408AA5480678A548008800EE90
:101A7000100AB8EE400ADFEDA30A80EE201AB0EE9D
:101A8000418A012E04D0022E7ED0032E7DD1EBE0C0
:101A900000209D4908709D480078042837D09C4854
:101AA00090ED000AB4EEC80AF1EE10FA03DB012053
:101AB0009849087066E0964890ED140AB4EEC80A9A
:101AC000F1EE10FA03D80520924908705AE000247C
:101AD0001AE08F4800EB840090ED000AB4EEC80ACB
:101AE000F1EE10FA0ED28A49601C01EB800090EDF5
:101AF000000AB4EEC80AF1EE10FA03DB8648005D76
:101B000084490870601CC4B2152CE2DB3AE08348BB
:101B100090ED000AB4EEC80AF1EE10FA03DB0120E2
:101B20007C4908702EE07D4890ED140AB4EEC80A96
:101B3000F1EE10FA03D805207649087022E000245F
:101B40001EE0764800EB840090ED000AB4EEC80A6F
:101B5000F1EE10FA12D27149601C01EB800090ED99
:101B6000000AB4EEC80AF1EE10FA07DB6A48005D1D
:101B700000EE100AB8EE400AB0EE408A601CC4B213
:101B8000152CDEDB634801E013E079E0007864495E
:101B90000978884208DA5F48007861490870084689
:101BA00000786049087003E05D4800785D4908707E
:101BB00067E05D4890ED000AB4EEC80AF1EE10FA55
:101BC00003DB0120534908702AE0574890ED140ABE
:101BD000B4EEC80AF1EE10FA03D805204D4908709A
:101BE0001EE000241AE0504800EB840090ED000A4B
:101BF000B4EEC80AF1EE10FA0ED24B49601C01EBAC
:101C0000800090ED000AB4EEC80AF1EE10FA03DB92
:101C10004148005D3F490870601CC4B2152CE2DBEE
:101C20003C480078052802D104203A490870394818
:101C300000783B490978884211DD364800783849F8
:101C4000087008460078374908702F48007850B966
:101C5000364800F07DFE01202B49087003E0304833
:101C60000078304908700CE005202A4908700846C1
:101C700000782B490870084600782A49087000E06F
:101C800000BF00BF2A480078042807D11F48007809
:101C9000042803D00120274908700AE0244800786E
:101CA000032806D119480078032802D001202149D1
:101CB000087002F069F805461E480078012811D125
:101CC0001D480068281AB0F57A7F0DD91A480560BA
:101CD00001221449154800F0EBFC28B900201549F1
:101CE000087001E014480560084800781049087041
:101CF000BDEC028B70BD0000000000009C050020C0
:101D00005405002000007A446A0500208C0500205C
:101D100084CD0C08600500206CCD0C08D8CD0C08D3
:101D200061050020940500202CCE0C0800001C0842
:101D3000690500206805002064050020654A1178C7
:101D40000020012950D1644AD2ED000A634A12886A
:101D500000EE102AB8EE400AF4EEC00AF1EE10FAD6
:101D600003DB01225E4B1A709EE05B4AD2ED140A3F
:101D70005A4A128800EE102AB8EE400AF4EEC00A61
:101D8000F1EE10FA03D80522554B1A708CE00020B2
:101D900027E0514A02EB8002D2ED000A4F4A128836
:101DA00000EE102AB8EE400AF4EEC00AF1EE10FA86
:101DB00015D2494B421C03EB8202D2ED000A474A7E
:101DC000128800EE102AB8EE400AF4EEC00AF1EED6
:101DD00010FA04DB434A125C414B1A7003E0421CC8
:101DE000D0B21428D5DB5FE0022956D13E4AD2EDAD
:101DF000000A3A4A128800EE102AB8EE400AF4EEC1
:101E0000C00AF1EE10FA03DB0122354B1A704BE0E9
:101E1000354AD2ED140A314A128800EE102AB8EE83
:101E2000400AF4EEC00AF1EE10FA03D804222C4B5B
:101E30001A7039E000202DE02B4A02EB8002D2ED2F
:101E4000000A264A128800EE102AB8EE400AF4EE84
:101E5000C00AF1EE10FA1BD2234B421C03EB8202A4
:101E6000D2ED000A1D4A128800EE102AB8EE400A90
:101E7000F4EEC00AF1EE10FA0ADB1A4A125C184BB3
:101E80001A701A461278042A01DD04221A7003E03F
:101E9000421CD0B21428CFDB06E0032903D105226F
:101EA0000F4B1A7000E07047104A12780C4B1B78E9
:101EB0009A4204DD0A4A12780C4B1A7003E00B4A6E
:101EC0001278074B1A70064A1278094B1A7000BF35
:101ED000E9E700009C05002084CD0C085405002093
:101EE000600500206CCD0C082CCE0C089405002059
:101EF0006105002084480078012851D18349087089
:101F0000834991F9000000EBD0714910A0EB410129
:101F1000C1B980480078401E7E490870B4207E49CF
:101F2000096888637B48007820BB79480078401EA8
:101F300040B2774908701420764908701820774914
:101F4000087017E075480078401E7449087000203A
:101F50007149096888637148007858B96C480078FD
:101F6000401E40B26A49087014206A49087018205F
:101F70006A490870664890F9000000280FDC0020CC
:101F8000654909688863624908705F4908705F495C
:101F9000087014205F490870182060490870B2E08A
:101FA0005948007802280AD158480078012806D1FB
:101FB000002056490870584909688863A3E05248D0
:101FC00000780228EBD1524890F90000062190FBDE
:101FD000F1F201FB1200002848D151480078401C62
:101FE0004F49087008460078402879DD484991F942
:101FF000000000EBD0714910A0EB4101E1B9454868
:102000000078401E43490870B4204349096888633A
:1020100040480078002863D13D480078401E40B217
:102020003B49087000203E49087014203949087067
:1020300018203A49087053E038480078401E374964
:102040000870002034490968886334480078002803
:1020500046D12F480078401E40B22D490870142008
:102060002C49087018202D49087039E0284991F949
:10207000000000EBD0714910A0EB4101C1B9254827
:102080000078401E23490870B420234909688863FA
:102090002048007820BB1E480078401E40B21C49F2
:1020A000087014201B49087018201C49087017E09C
:1020B0001A480078401E194908700020164909681E
:1020C00088631648007858B911480078401E40B21D
:1020D0000F49087014200F49087018200F49087024
:1020E0000B4890F9000000280DDC00200A4909681F
:1020F000886307490870044908701420054908706E
:1021000018200649087070476C0500206D050020F6
:102110006B0500206E050020B01F00206F05002019
:102120007005002000BFFEE710B5024801F00AF973
:1021300010BD0000081D0020014608781038182343
:10214000B0FBF3F20848805CC865032A05D908682B
:102150006FF30900001D886503E008686FF309004C
:102160008865886D7047000074EE04080146002001
:102170008A6A8B69CBB932B1012A0DD0022A03D009
:10218000032A10D10EE000BFCB6A03F08073B3F1D5
:10219000807F00D1012007E0CB6AB3F1C07F00D17E
:1021A000012001E000E000BF34E08B69B3F5005F7F
:1021B0001AD132B1012A07D0022A03D0032A11D141
:1021C0000AE000BF01200EE0CB6A03F08073B3F198
:1021D000807F00D1012006E0CB6AB3F1C07F00D13F
:1021E000012000E000BF15E032B1012A05D0022A2B
:1021F00004D0032A0CD103E000BF00BF012008E097
:10220000CB6A03F08073B3F1807F00D1012000E03E
:1022100000BF00BF704730B50468246824F48024F0
:1022200005682C60046863608468402C04D10468ED
:10223000A2600468E16003E00468A1600468E260F1
:1022400030BD704738B500200090002400BF7848AA
:10225000007801281FD003207649087001F094FD12
:10226000044675480068201AB0F57A7F04D9724890
:10227000046001207149087070480078012816D167
:102280006F48008898B901206D49088001226D4887
:1022900000F00EFA0BE069480078012802D1052011
:1022A0006449087001F070FD0446634804606648A4
:1022B000007800EBC00085005E480078062876D2E2
:1022C000DFE800F003223A51579460480068604903
:1022D000884205D905205749087000205B490860ED
:1022E0000021052000F090FA0021084600F08CFA49
:1022F0000021042000F088FA00205649096848634C
:1023000055490968486391E050480068534988423C
:1023100005D900204D490860052046490870002174
:10232000052000F071FA0021042000F06DFA002071
:1023300049490968486379E0002044490860002160
:10234000052000F061FA0021084600F05DFA002146
:10235000042000F059FA00203E49096848633E49CC
:102360000968486362E000203849086000F032FAEA
:102370005CE00020354908600121052000F044FAA6
:102380000121002000F040FA0121042000F03CFA75
:102390003148006845633248007848B931480078D0
:1023A000012805D100202B49096848631DE03CE065
:1023B0002D480068B0F5FA7F05D22C480068254901
:1023C0000968486311E028480068B0F5FA7F09D32E
:1023D00025480068B0F5FA6F04D200201D4909684D
:1023E000486302E00020204908601FE005201149F1
:1023F00008701348008801280ED11D480068B0F508
:102400007A7F11D9012269460E4800F051F958B976
:1024100000200B49088007E00121082000F0F4F9B2
:102420000121072000F0F0F900E000BF00BF38BD37
:102430009C0500208C050020900500208D050020C3
:102440008805002000001A08230300200400002053
:10245000C0D40100F81F0020901E0020C0270900F2
:10246000300300202F0300202000002084050020DE
:102470001C00002010B52DED068B9FED290AB0EE53
:10248000408A002400BF40E001222649264800F08F
:1024900035FE244890ED000AB8EE400ADFED230A2D
:1024A00020EE200ADFED220A80EE201AB0EE418AEB
:1024B00018EE100AFEF783F841EC1A0B9FED1D0B86
:1024C00053EC102BFDF7E0FF41EC190BFEF78AF8F7
:1024D00008EE100A18EE100AFEF771F841EC1A0B1C
:1024E0009FED160B53EC102BFDF7CEFF41EC190BB3
:1024F000FEF778F808EE100ABCEEC80A10EE100AD3
:10250000104921F81400601CC4B20F2CBCDB0F2151
:102510000C4800F06FF80C490880BDEC068B10BD2C
:10252000000000005C050020C01C002000404E455B
:10253000000080457AC7293A92CBEF3F2063EE5ADC
:10254000423EE53F008F01205405002010B52DEDDF
:10255000028B9FED1F0AB0EE408A01221D491E48E2
:1025600000F0CCFD044614B1BDEC028B10BD19483F
:1025700090ED000AB8EE400ADFED180A20EE200ABE
:10258000DFED170A80EE201AB0EE418A9FED150AA2
:10259000C8EE000AB0EE608ABCEEC80A10EE100A5F
:1025A00081B21148114A127820F812100F480078B1
:1025B000401C0F2190FBF1F201FB12000B49087047
:1025C0000F21094800F016F80949088000BFCBE741
:1025D000000000005C050020C01C002000404E45AB
:1025E000000080453BAA2A3F008F012062050020A1
:1025F0005405002070B502460B4600210024002639
:102600000025DFED1D0AB0EE600A032B01DA002081
:1026100070BD1488168801210DE032F81100A04227
:1026200001DD32F8114032F81100B04201DA32F81F
:102630001160481CC1B29942EFDB002104E032F87E
:1026400011000544481CC1B29942F8DB281B001B4D
:1026500000EE900AB8EE601A981E00EE900AF8EEAE
:10266000E00AC1EE201AB0EE610AFCEEC00A10EEDC
:10267000900A80B2CCE70000000000002DE9F04194
:1026800005460E4617460024A04601F0FDF8A84670
:1026900000BF07E0D8F8000026F8140008F102088F
:1026A000601CC4B2BC42F5DB01F098F8BDE8F081D3
:1026B0002DE9F04F87B00546884616460024A3460C
:1026C000A146A2460020069002273F484068A84243
:1026D00007D93D48806AA84203D2012007B0BDE86F
:1026E000F08F002413E0384800EB04104068A84243
:1026F0000BD8354800EB04108068A84205D3324857
:1027000000EB0410D0F800B003E0601CC4B2032C4E
:10271000E9DB00BF32462D492846FFF7AFFF01F045
:10272000B3F84CF2503000F095FA2948006820F4D4
:1027300080602749086000241BE0244830F814001A
:102740004FF6FF71884212D00020019001200490C2
:10275000CDF80CB00220059006A901A800F0E6FF14
:1027600007461FB101F03AF83846B7E703E0601CAE
:10277000C4B2B442E1DB00BFA946002417E038F838
:1027800014A0524600234946012001F031F80746C3
:102790004FB10F48006840F480600D49086001F0B7
:1027A0001DF838469AE709F10209601CC4B2B44228
:1027B000E5DB0748006840F480600549086001F0E7
:1027C0000DF838468AE7000080CE0C08628F0120A1
:1027D000003C024010B50021072000F015F801214F
:1027E000062000F011F80021052000F00DF800216E
:1027F000084600F009F80021082000F005F8002143
:10280000042000F001F810BD2DE9F04104460D460A
:10281000064850F8346000EBC40087882A463946E1
:10282000304601F0ABFABDE8F0810000B0CE0C08F4
:1028300000201E4909781D4A5278914234D11B4923
:1028400049781A4A927891422ED118498978174AC4
:10285000D278914228D11549097801F08001802968
:1028600008D11249097801F0020119B90121104A71
:10287000117019E00D49097801F08001A1B90B49E7
:10288000097801F0400119B10321094A11700BE0E8
:102890000649097801F0020119B904490978382973
:1028A00002D10221024A11707047000098050020F1
:1028B0009C05002000200349096848630249096813
:1028C00048637047F81F0020901E002000B52DEDD2
:1028D000028B81B0FFF77EFFFFF7ECFF0020FDF7D2
:1028E000A7FF0120FDF7A4FF14480068FDF73BFE99
:1028F00041EC180B022083024FF46042B0EE480A0C
:10290000F0EE680A410300900020FEF764F80C48DE
:102910000068FDF728FE41EC180B022083024FF4FB
:102920006042B0EE480AF0EE680A410300900120D0
:10293000FEF751F801B0BDEC028B00BD7C05002014
:102940008005002010B5202001F0FAF810BD00002D
:10295000F0B587B004460025002600200690022727
:1029600018484068A04206D91648806AA04202D2A0
:10297000012007B0F0BD00F087FF002511E01148ED
:1029800000EB05104068A04209D80E4800EB051086
:102990008068A04203D30B4800EB05100668681C52
:1029A000C5B2032DEBDB00200190012004900396BB
:1029B0000220059006A901A800F0B8FE0746384697
:1029C000D7E7000080CE0C0872B600BFFEE700001B
:1029D00010B5002201B909E0012901D10A0205E080
:1029E000022901D10A0201E04FF440720B2800D9FC
:1029F000001D0E4B1B6823F440730C4C23602346D0
:102A00001B681343236023461B6823F0F8032360ED
:102A100023461B68022444EAC0042343034C23607A
:102A200023461B6843F48033236010BD103C0240F2
:102A30001C48006800F40070B0B11A48006820F427
:102A400000701849086000BF0846006840F4006044
:102A500008600846006820F40060086000BF08466F
:102A6000006840F4007008600E48006800F4806060
:102A7000B0B10C48006820F480600A49086000BFCB
:102A80000846006840F4805008600846006820F45A
:102A90008050086000BF0846006840F4806008600D
:102AA00070470000003C0240134A126822F4407252
:102AB000114B1A60032906D11A461268DB131A4318
:102AC0000D4B1A600EE0012906D10B4A126842F044
:102AD0000402094B1A6005E0074A126842F40042FA
:102AE000054B1A60044A12684FF4803343EA00230E
:102AF0001A43014B1A607047103C0240074A1268A3
:102B000022F44072054B1A601A4612681A601A467F
:102B1000126842F001021A6001707047103C0240D6
:102B200010B50A49096821F44071084C216021461A
:102B3000096841F4407121602146096841F00101B2
:102B400021600260BFF36F8F436010BD103C0240F4
:102B5000084A126822F44072064B1A601A4612683C
:102B600042F480721A601A46126842F001021A603A
:102B700001807047103C0240084A126822F44072FB
:102B8000064B1A601A46126842F400721A601A461E
:102B9000126842F001021A6001607047103C024066
:102BA0002A48006800F0100040B12948C06940F090
:102BB00010002749C8611020244908602348006894
:102BC00000F0200040B12248C06940F008002049D0
:102BD000C86120201D4908601C48006800F04000C2
:102BE00040B11B48C06940F004001949C861402049
:102BF000164908601548006800F0800040B114488C
:102C0000C06940F002001249C86180200F49086085
:102C10000E48006800F4807048B10D48C06940F06B
:102C200001000B49C8614FF48070084908600748EB
:102C3000006800F0020040B10548C06940F0200083
:102C40000349C86102200149086070470C3C0240FA
:102C5000D020002070B50446002500201449C8612A
:102C600001F092F8054609E0601C38B124B101F08A
:102C70008BF8401BA04201D9032070BD0D480068AD
:102C800000F480300028EFD10A48006800F001000D
:102C900010B10120074908600648006800F4F97087
:102CA00018B1FFF77DFF0120E7E70020E5E700000E
:102CB000D02000200C3C024002460868B0B9D1E99F
:102CC00001031843CB6818430B6918434B69184339
:102CD0008B691843CB6918430B6A18434B6A184336
:102CE00013686FF30E031843106019E0D1E907036E
:102CF00018434B6A1843136823F4F84318431060D1
:102D0000D1E901031843CB6818430B6918434B6999
:102D100018438B69184353686FF30E0318435060D0
:102D2000002070470246506943F6FE73984340EA1C
:102D300041005061002070472DE9F04105460C46E6
:102D400016460027D4E900010843A168491E40EA5D
:102D50004110E16840EA412029696FF315010843F9
:102D6000286101F011F807460AE0701C40B126B155
:102D700001F00AF8C01BB04202D90320BDE8F0817F
:102D8000A86900F020002028EFD00020F6E700001E
:102D900030B50346FAB90868401E4C68641E40EA24
:102DA00004148868401E44EA0024C868401E44EAAF
:102DB0000034088A401E44EA0044888A401E44EADF
:102DC0000054087E401E44EA00609C6804F0704491
:102DD0002043986022E0C868401E0403888A401E91
:102DE00044EA00509C680E4D2C40204398600868CF
:102DF000401E4C68641E40EA04148868401E44EA81
:102E00000024088A401E44EA0044087E401E44EA2A
:102E10000060DC6804F070442043D860002030BDBE
:102E2000FF0F0FFF38B502460020009000BF92F858
:102E30003C00012801D1022038BD012082F83C006D
:102E400000BF0868092816D91068C0680C780A3CC9
:102E500004EB44050724AC40A0431468E0600C7800
:102E60000A3C04EB44048868A0401468E4682043EA
:102E70001468E06013E0106800690C7804EB440506
:102E80000724AC40A043146820610C7804EB440490
:102E90008868A04014682469204314682061486849
:102EA000072817D21068406B0C79641E04EB840568
:102EB0001F24AC40A04314686063088880B20C797A
:102EC000641E04EB8404A0401468646B20431468FF
:102ED000606331E048680D2817D21068006B0C79E8
:102EE000E41F04EB84051F24AC40A0431468206356
:102EF000088880B20C79E41F04EB8404A0401468B5
:102F0000246B20431468206316E01068C06A0C79B3
:102F10000D3C04EB84051F24AC40A0431468E06220
:102F2000088880B20C790D3C04EB8404A04014683E
:102F3000E46A20431468E0621E4B1F4C1068A042F4
:102F40000AD10868122807D1586820F40000586098
:102F5000586840F480005860174C1068A04222D195
:102F6000164C0868A04202D0086811281BD1586886
:102F700020F480005860586840F4000058600F4CFE
:102F80000868A0420FD10E4800680E4CB0FBF4F068
:102F900000EB80004000009002E00098401E00908E
:102FA00000980028F9D100BF002082F83C0000BF43
:102FB00000BF41E700230140002001401200001043
:102FC0006800002040420F007047704770470000C3
:102FD00070B5044600250CB9012070BD1549A06AE2
:102FE000884200D000BF206C30B9204600F024F8A1
:102FF0000020606484F83C00206C00F0100088B968
:10300000206C20F4885040F0020020642046FDF738
:1030100085FD00206064206C20F0020040F001007B
:10302000206400E0012500BF002084F83C0000BFC0
:103030002846D2E70100000F10B586B004461421DF
:1030400001A8FDF779F928492068884249D100BFD5
:10305000002000902548006840F4807023490860F3
:103060000846006800F48070009000BF00BF00BFF9
:10307000002000901D481438006840F004001B49EF
:10308000143908600846006800F00400009000BF92
:1030900000BF20200190032002900020039001A98E
:1030A000134800F05BFD1348134908600020486096
:1030B000002111488160C1604FF4806101614900C5
:1030C0004161890081610021C1610162416200F0BA
:1030D00059FA08B1FFF778FC00BF0748A063846382
:1030E00000BF06B010BD000000200140443802407F
:1030F0000008024010640240081D0020F8B5044694
:103100000D4616460020009000BF94F83C000128B0
:1031100001D10220F8BD012084F83C0000BF2068E6
:10312000806800F00100A0B92068806840F00100CC
:1031300021688860554800685549B0FBF1F000EB04
:103140004000009002E00098401E00900098002887
:10315000F9D12068806800F48070B0F5807F05D1D7
:103160002068806820F4807021688860206880680A
:1031700000F0010000287ED0206C40F201618843FD
:1031800040F4807020642068406800F4806028B1BA
:10319000206C20F4005040F480502064206C00F437
:1031A0008050B0F5805F04D1606C20F00600606450
:1031B00001E00020606400BF002084F83C0000BFF4
:1031C000344F3548A16BC8633448A16B0864344858
:1031D000A16BC8646FF02200216808602068406815
:1031E00040F08060216848602068806840F480700A
:1031F00021688860226802F14C0133462A46A06BA0
:1032000000F036FA786800F01F0018BB25492068E6
:10321000884213D024492068884204D1381D0068B0
:1032200000F01F0050B12149206888422BD1194875
:10323000001D006800F01F00102824D2206880685C
:1032400000F04050F8B92068806840F08040216864
:10325000886018E013492068884214D1206880688B
:1032600000F0405078B92068806840F080402168C4
:10327000886008E0FFE7206C40F010002064606C7C
:1032800040F001006064002044E700006800002076
:1032900040420F0000230140750A00080D0B000892
:1032A000F30A0008002001400021014000220140F3
:1032B00010B504460CB9012010BD94F8390028B9A6
:1032C000002084F83800204600F022F8022084F81C
:1032D00039002068006820F44030616808432168A4
:1032E00008602068406B20F00700A168084321684F
:1032F00048632068006C6FF30D00E16808432168A3
:1033000008640020E063012084F839000020D3E73E
:1033100008B50A4A016891420FD100BF002100910F
:103320000749096841F40001054A1160114609681E
:1033300001F40001009100BF00BF08BD00B00240D1
:1033400030380240F8B50446002000908C480068F0
:103350004FF41651B0FBF1F7A56D2E6894F85C1090
:1033600008208840304098B12068006800F00400D0
:1033700070B12068006820F004002168086094F8AB
:103380005C1008208840A860606D40F00100606516
:1033900094F85C1001208840304068B12068406992
:1033A00000F0800040B194F85C1001208840A860D3
:1033B000606D40F00200606594F85C100420884065
:1033C000304068B12068006800F0020040B194F815
:1033D0005C1004208840A860606D40F004006065C7
:1033E00094F85C1010208840304078B32068006862
:1033F00000F0080050B394F85C1010208840A860DA
:103400002068006800F4802080B12068006800F423
:10341000002028B9206CC8B12046216C884715E0EF
:10342000A06C98B12046A16C88470FE02068006826
:1034300000F4807028B92068006820F00800216836
:103440000860206C10B12046216C884794F85C100D
:10345000202088403040002865D02068006800F0B7
:10346000100000285FD094F85C1020208840A860ED
:1034700094F83500052828D12068006820F016004F
:10348000216808602068406920F080002168486158
:10349000206C08B9A06C28B12068006820F00800F2
:1034A0002168086094F85C103F208840A8600120E3
:1034B00084F8350000BF002084F8340000BF206D80
:1034C00010B12046216D8847F8BD2068006800F4DF
:1034D000802080B12068006800F4002028B9606C6A
:1034E00010B12046616C88471DE0E06BD8B12046E2
:1034F000E16B884717E02068006800F4807068B9C5
:103500002068006820F0100021680860012084F81D
:10351000350000BF002084F8340000BFE06B10B11C
:103520002046E16B8847606D38B3606D00F00100A4
:10353000F0B1052084F835002068006820F0010013
:103540002168086000BF0098401C0090B84200D974
:1035500005E02068006800F001000028F3D100BFFA
:10356000012084F8350000BF002084F8340000BF3B
:10357000E06C10B12046E16C884700BFA4E7000072
:10358000680000202DE9F0410446002500F0FCFB16
:10359000074614B90120BDE8F081606A00B100BFA0
:1035A000022084F8350000BF002084F8340000BFFA
:1035B0002068006820F00100216808600AE000F03F
:1035C000E3FBC01B052805D920206065032084F893
:1035D0003500E0E72068006800F001000028EED127
:1035E0002068056821480540D4E901010843E168E5
:1035F00008432169084361690843A1690843E169F7
:103600000843216A08430543606A042803D1D4E9CA
:103610000B0108430543206805602068456925F0D3
:103620000705606A0543606A04280DD1A06A054356
:10363000E06A48B12046FEF799FD28B14020606558
:10364000012084F83500A6E7206845612046FEF792
:1036500073FD064694F85C103F208840B06000205F
:103660006065012084F83500002094E73F8010F069
:103670002DE9F04704460D4616461F464FF0000858
:10368000D4F8589000BF94F83400012802D10220E9
:10369000BDE8F087012084F8340000BF94F83500BD
:1036A000012825D1022084F83500002060653B46C2
:1036B000324629462046FEF7AEFD94F85C103F20C6
:1036C0008840C9F808002068006840F016002168AA
:1036D0000860206C28B12068006840F0080021686C
:1036E00008602068006840F001002168086006E07A
:1036F00000BF002084F8340000BF4FF002084046AD
:10370000C6E7000070B5044600F03EFB06462546BD
:10371000681C10B104480078054400BF00F034FB79
:10372000801BA842FAD370BD740000202DE9F0413F
:1037300004460E460127002500BF2648007E0128CA
:1037400002D10220BDE8F08101202249087600BFA5
:103750004CF25030FFF77EFA0746002F32D1401E60
:1037600030602068012810D1207C6168FFF79CF947
:103770004CF25030FFF76EFA07461748006848F2DF
:1037800004018843144908601AE0A56812E0217C0E
:103790002846FFF71DF94CF25030FFF75BFA074659
:1037A0000D48006820F0FA000B4908600FB1356041
:1037B00005E06D1CD4E902100844A842E7D800BF18
:1037C000FFF736F900BF00200249087600BF3846EF
:1037D000B8E70000D0200020103C024003480068F9
:1037E00040F000400149086000207047103C024052
:1037F0002DE9F04106460F4614461D464FF00108DC
:1038000000BF1F48007E012802D10220BDE8F081E0
:1038100001201B49087600BF4CF25030FFF71AFA1E
:103820008046B8F1000F23D126B9E1B23846FFF740
:1038300065F912E0012E04D1A1B23846FFF788F9EC
:103840000BE0022E04D121463846FFF795F904E03B
:1038500022462B463846FFF763F94CF25030FFF70B
:10386000F9F980460748006820F001000549086022
:1038700000BF00200249087600BF4046C6E70000AE
:10388000D0200020103C024000200949096801F0C6
:10389000004159B10749064A0C3A116006491160C6
:1038A0000349096801F0004101B10120704700009F
:1038B000103C024023016745AB89EFCD00B587B0CE
:1038C000142102A8FCF738FD3148006808B107B0A0
:1038D00000BD01202E49086000BF002001902D4846
:1038E000006840F001002B4908600846006800F0BD
:1038F0000100019000BF00BF4FF63F000290022080
:10390000039000200490032005900C20069002A94B
:10391000214800F023F90D2002900220039000209E
:103920000490032005900C20069002A91B4800F08B
:1039300015F948F2371002900220039000200490FD
:10394000032005900C20069002A9154800F006F906
:103950004FF6837002900220039000200490032011
:1039600005900C20069002A90E4800F0F7F84CF2E2
:103970000370029002200390002004900320059021
:103980000C20069002A9084800F0E8F800BF9EE766
:103990006000002038380240001402400008024055
:1039A0000018024000100240000C024070B50546AD
:1039B000202D7CD15848007828BB2021574800F0A2
:1039C000D5F920B1564800685649086044E054488B
:1039D000006854490968401A26280ED950480068E2
:1039E00050490968401A292807D801204A49087017
:1039F0004B4800684B4908602EE0002049490860A8
:103A00004749086028E02021444800F0AFF9F8B1A8
:103A100045480078401C44490870444800784006F6
:103A2000000E424908703E4800683E490968401A45
:103A3000032811D33A4800683A490968401A042813
:103A40000AD83A48007840F001003849087003E08D
:103A500033480068334908603348007807285AD152
:103A6000324800784006000E304908700846007859
:103A70002F49304A127888542C48007800F0020010
:103A800020B12A48007800F0800048B1274800782B
:103A900000F08000A8B92548007800F0300080B11F
:103AA00000F072F9044624480068201A00E032E071
:103AB000B0F5FA7F1BD90120204908701E48046028
:103AC00015E01E48007801280CD1184800781849E4
:103AD00008701648007848701448007888701348B9
:103AE0000078C87000F050F904461348046011488B
:103AF0000078401C0F49087008460078032801DD53
:103B00000020087000200849087005490860054930
:103B100008600149087070BD960500200000024051
:103B200008000020A4050020A8050020970500201B
:103B300098050020A9050020A0050020950500207B
:103B400010B5044604480068204020B102480460D3
:103B50002046FFF72BFF10BD143C0140F8B502468C
:103B60000B460025002400200021E0E0012606FA93
:103B700001F51E6806EA0504AC4274D11E7906F010
:103B80000306012E04D01E7906F00306022E13D17F
:103B900090684F000326BE40B0434F00DE68BE4031
:103BA00030439060506801268E40B0431E79C6F3C2
:103BB00000168E40304350601E7906F00306032E37
:103BC00009D0D0684F000326BE40B0434F009E6826
:103BD000BE403043D0601E7906F00306022E13D19A
:103BE000CF0802F1200656F827004E07F70E0F26E1
:103BF000BE40B0434F07FF0E1E69BE403043CF08A2
:103C000002F1200646F8270010684F000326BE4048
:103C1000B0431E7906F003064F00BE4030431060EB
:103C20005E6806F44036002E1DD000BF00260096C8
:103C3000414E366846F480463F4F3E603E46366809
:103C400006F48046009600BF00BF3C4E8F0856F831
:103C500027008E07370F0F26BE40B043384EB242C2
:103C600002D100262EE061E0364EB24201D101269B
:103C700028E0354EB24201D1022623E0334EB24253
:103C800001D103261EE0324EB24201D1042619E0D2
:103C9000304EB24201D1052614E02F4EB24201D17E
:103CA00006260FE02D4EB24201D107260AE02C4E27
:103CB000B24201D1082605E02A4EB24201D10926BE
:103CC00000E00A268F073F0FBE4030431B4E8F088F
:103CD00046F82700244E3068A0435E6806F480163C
:103CE00006B12043204E3060361D3068A0435E6828
:103CF00006F4001606B120431B4E361D30601A4EE6
:103D0000361F3068A0435E6806F4003606B12043D3
:103D1000154E361F3060361F3068A0435E6806F4CB
:103D2000803606B12043104E083E3060491C1029F1
:103D3000FFF41CAFF8BD00004438024008380140D1
:103D4000000002400004024000080240000C024053
:103D5000001002400014024000180240001C024003
:103D60000020024000240240083C01400246136942
:103D70000B400BB1012000E0002070470AB18161C7
:103D800001E00B0483617047014800687047000040
:103D90006C00002001464AF6AA200A681060002044
:103DA0007047000003480068034909780844014946
:103DB000086070476C0000207400002010B50D48AA
:103DC000006840F400700B4908600846006840F441
:103DD000806008600846006840F480700860032036
:103DE00000F01CFB0F2000F007F800F09BFA002009
:103DF00010BD0000003C02402DE9F04188B00446AF
:103E00000027B84600BF002001902348006840F416
:103E10008070214908600846006800F480700190B5
:103E200000BF00BF02A903A800F096FD069F1FB9BE
:103E300000F0BAFD054602E000F0B6FD4500174867
:103E4000B5FBF0F0A0F1010815481649086040F2F2
:103E5000E7311448C160C0F804800021016181602D
:103E6000816101F02BF9064696B90E4801F066FA19
:103E700006466EB92D2000F07FFA102C07D20022E2
:103E800021462D2000F08CFA0748046000E001264E
:103E9000304608B0BDE8F0814038024040420F0093
:103EA00000200040882000207000002070B50446EB
:103EB0000E46154600BF94F8A000012801D102204B
:103EC00070BD012084F8A00000BF022084F8A1008A
:103ED00005EB850101EBC50204F1380101EB82001D
:103EE00034223146FCF70FFA2A463146204601F0CB
:103EF000D1FE01202168486284F8A10000BF0020A3
:103F000084F8A00000BF00BFDAE7000070B50446E7
:103F10000CB9012070BD94F8A10028B9002084F8E4
:103F2000A000204600F07EF8022084F8A10020685E
:103F3000806920F0704021688861D4E9010108435C
:103F4000E1680843216908432168896908432168B9
:103F50008861206880683249084021688860A08AAA
:103F6000050420688068A1692943084321688860A6
:103F70002068C0682A4908402168C860A08B0504F1
:103F80002068C068216A294308432168C860206806
:103F900000692349084021680861A08C0504206855
:103FA0000069A16A294308432168086120684069C3
:103FB0001B49084021684861A08D050420684069BC
:103FC000216B294308432168486194F835000502B4
:103FD00094F8360006042068C06A00F07F4021682B
:103FE000C86246EA050094F8341008432168C96A9B
:103FF00008432168C8622068406B40F006002168D1
:1040000048632068806940F00100216888610020D1
:10401000C4F8A400012084F8A10000207AE7000081
:1040200000F800F010B592B0044614210DA8FCF77A
:1040300083F9302101A8FCF77FF97C492068884288
:104040007ED1082001904FF4A870059003210791BC
:104050004FF480300A9001A800F03AFA08B1FEF758
:10406000B3FC00BF002000907148006840F0806001
:104070006F4908600846006800F08060009000BF4B
:1040800000BF00BF0020009069481438006840F06D
:1040900020006749143908600846006800F02000D5
:1040A000009000BF00BF00BF0020009008460068DD
:1040B00040F0010008600846006800F00100009030
:1040C00000BF00BF00BF002000900846006840F01D
:1040D000020008600846006800F00200009000BF7F
:1040E00000BF00BF002000900846006840F040007C
:1040F00008600846006800F04000009000BF00BF64
:1041000000BF002000900846006840F004000860EE
:104110000846006800F00400009000BF00BF00BF28
:10412000002000900846006840F00800086008463B
:10413000006800F00800009000BF00BF081500E014
:1041400072E00D9002200E9000200F90032010903E
:104150000E2011900DA93748FFF700FD41F65800D9
:104160000D9002200E9000200F90032010900E2042
:1041700011900DA93048FFF7F1FC03200D900220AB
:104180000E9000200F9003201090092011900DA98F
:104190002A48FFF7E3FC4FF470600D9002200E9068
:1041A00000200F90032010900E2011900DA923489D
:1041B000FFF7D4FC4FF40C600D9002200E9000200D
:1041C0000F90032010900E2011900DA91C48FFF7AE
:1041D000C5FCC0200D9002200E9000200F900320FF
:1041E00010900E2011900DA91648FFF7B7FC08207B
:1041F0000D9002200E9000200F90032010900E20B2
:1042000011900DA91048FFF7A9FC4FF4A0500D9094
:1042100002200E9000200F90032010900920119092
:104220000DA90748FFF79AFC12B010BD00680140C5
:1042300044380240001402400000024000040240E2
:104240000018024000080240000C02402DE9F04135
:1042500004460E461746984600BF94F8A000012871
:1042600002D10220BDE8F081012084F8A00000BF47
:10427000022084F8A10008EB880000EBC80104F1DB
:10428000380000EB81052E60A86A30446860AF609A
:10429000E86A3844E86042462946204601F0FAFCC4
:1042A00001202168486284F8A10000BF002084F842
:1042B000A00000BF00BFD5E72DE9F04104460E463F
:1042C0001746984600BF94F8A000012802D10220AA
:1042D000BDE8F081012084F8A00000BF022084F82E
:1042E000A10008EB880000EBC80104F1380000EBE6
:1042F0008105286830446860A8683844E860AE6288
:10430000EF6242462946204601F0C4FC01202168A4
:10431000486284F8A10000BF002084F8A00000BF1C
:1043200000BFD5E708B500BF002000901148006825
:1043300040F480400F4908600846006800F480405F
:10434000009000BF00BF00BF00200090081F006861
:1043500040F08050091F08600846006800F0805057
:10436000009000BF00BF00220F21901E00F018F83F
:1043700008BD0000443802400146084600280DDB15
:1043800000BF00BF00F01F0301229A4043099B00B9
:1043900003F1E023C3F8002100BF00BF00BF704756
:1043A0002DE9F05F80460D461646002703F076FDA6
:1043B000074639462A46334601F00700C0F1070A8E
:1043C000BAF1040F02D94FF0040A01E0C0F1070A64
:1043D000D14600F1040ABAF1070F02D24FF0000AE9
:1043E00001E0A0F1030AD4464FF0010A0AFA09FAE3
:1043F000AAF1010A0AEA020A0AFA0CFA4FF0010BC2
:104400000BFA0CFBABF1010B0BEA030B4AEA0B04B2
:104410002146404603F04AFDBDE8F09F00BF00F092
:104420000702064B19684FF6FF031940044B0B4374
:1044300043EA0221014B196000BF70470CED00E018
:104440000000FA0538B5002400BF002000901D4888
:10445000006840F080501B4908600846006800F082
:104460008050009000BF00BF012017490864FFF78B
:104470008BFC044607E0FFF787FC001BB0F57A7F52
:1044800001D9032038BD1148406800F48030B0F5F0
:10449000803FF0D101200C494864FFF775FC0446C9
:1044A00007E0FFF771FC001BB0F57A7F01D903200C
:1044B000E8E70648406800F40030B0F5003FF0D16E
:1044C0000020DFE74038024000000E42007000404C
:1044D000F8B5044600250026207800F0010048B910
:1044E000207800F00200022804D0207800F040007C
:1044F000402862D10020B1498866FFF745FC054697
:1045000006E0FFF741FC401B022801D90320F8BD5B
:10451000AB480068C0F3C0600028F2D1207800F0FA
:10452000010038B160688101207A41EA0070A44935
:1045300084310860207800F00200022819D1A048D8
:1045400084300068C0F3027660688101207B41EA14
:10455000006040EA06709A498431086098488C30BF
:10456000006820F01F00E169491E084394498C311E
:104570000860207800F0400040280AD1606881017E
:10458000207B41EA0061207A41EA00708C49843145
:104590000860012089498866FFF7F6FB054606E0BA
:1045A000FFF7F2FB401B022801D90320AFE7844844
:1045B0000068C0F3C0600028F2D0207800F004004A
:1045C000042804D0207800F00800082863D10020D7
:1045D0007A490867FFF7D8FB054606E0FFF7D4FBEA
:1045E000401B022801D9032091E775480068C0F3F9
:1045F00040700028F2D1207800F00400042819D17E
:104600006F4888300068C0F3027620698101207D00
:1046100041EA006040EA0670694988310860081D77
:10462000006820F4F851206A401E41EA00206449E5
:104630008C310860207800F00800082817D1604805
:1046400088300068C0F303662069800140EA066193
:10465000207E41EA00705A4988310860081D0068D0
:1046600020F44030616A084355498C3108600120CC
:1046700052490867FFF788FB054606E0FFF784FB11
:10468000401B022801D9032041E74D480068C0F3D0
:1046900040700028F2D0207800F0200020287DD142
:1046A00000BF0020009046484030006840F0805035
:1046B0004349403108600846006800F0805000908F
:1046C00000BF00BF3F48006840F480703D4908606B
:1046D000FFF75AFB054606E0FFF756FB401B022892
:1046E00001D9032013E73748006800F480700028E0
:1046F000F2D033487030006800F440764EB3208D1D
:1047000000F44070B04224D02D487030006820F48E
:10471000407601202C49086000200860284870304D
:104720000660006800F0010098B1FFF72DFB054618
:1047300008E0FFF729FB401B41F28831884201D98C
:104740000320E4E61E4870300068C0F340000028F3
:10475000EFD000BF208D00F44070B0F5407F0CD149
:1047600017480830006820F4F810184AA16A114070
:10477000084313490831086007E011480830006811
:1047800020F4F8100E49083108600D4870300068B8
:10479000218DC1F30B010843094900E002E07031AB
:1047A000086000BF207800F01000102803D194F8B2
:1047B0002C00074908600020A9E6000000004742DD
:1047C0000038024000700040400E4742FFFCFF0FDF
:1047D000E011474270B504460D460CB9012070BD8A
:1047E0005848006800F00F00A84209D255490D70E2
:1047F0000846006800F00F00A84201D00120EEE753
:10480000207800F0020002281DD1207800F004007A
:10481000042805D14C48006840F4E0504A4908603B
:10482000207800F00800082805D14748006840F4C7
:104830006040454908604448006820F0F000A168E5
:10484000084341490860207800F00100A8B360687F
:10485000012807D13C4808380068C0F34040B8B987
:104860000120BCE76068022802D06068032807D1F5
:10487000354808380068C0F3406048B90120AEE709
:10488000314808380068C0F3400008B90120A6E7A5
:104890002D48006820F00300616808432A49086039
:1048A000FFF772FA064609E0FFF76EFA801B41F245
:1048B0008831884202D9032091E707E02248006846
:1048C00000F00C006168B0EB810FEDD11D4800686D
:1048D00000F00F00A84209D91A490D700846006877
:1048E00000F00F00A84201D0012078E7207800F006
:1048F0000400042807D11448006820F4E050E1685F
:10490000084311490860207800F00800082808D101
:104910000D48006820F46040216940EAC1000A495E
:10492000086000F061F808490968C1F30311074AFB
:10493000515CC8400649086006480068FFF75CFA09
:1049400000204CE7003C0240083802405CEE0408BE
:1049500068000020700000200F2202600D4A1268DB
:1049600002F0030242600B4A126802F0F002826019
:10497000084A126802F4E052C260064A126802F461
:104980006042D2080261044A126802F00F020A6013
:104990007047000008380240003C024001480068AF
:1049A000704700006800002000B5FFF7F7FF0449DA
:1049B0000968C1F38221034A515CC84000BD000070
:1049C000083802406CEE040800B5FFF7E7FF044921
:1049D0000968C1F34231034A515CC84000BD000080
:1049E000083802406CEE04082DE9F0470024002549
:1049F0000026A1462548006800F00C0020B10428DC
:104A000005D008283AD105E0DFF8849039E0DFF8D6
:104A1000849036E01D48001F006800F03F041B48EA
:104A2000001F006800F4800078B11A481749091F78
:104A30000968C1F38811A0FB0170014622460023DA
:104A40003846FBF72FFC05460EE011480F49091FB9
:104A50000968C1F38811A0FB0170014622460023BA
:104A60003846FBF71FFC05460848001F0068C0F3E6
:104A70000140401C4600B5FBF6F902E0DFF810905B
:104A800000BF00BF4846BDE8F0870000083802407C
:104A90000024F40000127A00F8B504460CB9012095
:104AA000F8BD207800F00100002874D0F9480068B3
:104AB00000F00C0004280DD0F648006800F00C004F
:104AC000082813D1F348001F006800F48000B0F5F7
:104AD000800F0BD1EF4808380068C0F34040002831
:104AE00059D06068002856D10120D9E700BF60681E
:104AF000B0F5803F08D1E7480838006840F48030BE
:104B0000E449083908601EE06068B0F5A02F0DD1B7
:104B1000E0480838006840F48020DE490839086021
:104B20000846006840F4803008600CE0D948083836
:104B3000006820F48030D7490839086008460068CA
:104B400020F48020086000BF606890B1FFF71CF976
:104B5000054606E0FFF718F9401B642801D9032039
:104B60009EE7CC4808380068C0F340400028F1D0E8
:104B700011E0FFF709F9054606E0FFF705F9401BCC
:104B8000642801D903208BE7C24808380068C0F3C5
:104B900040400028F1D1207800F0020002285FD1C7
:104BA000BC48006800F00C0058B1BA48006800F03A
:104BB0000C0008281CD1B748001F006800F48000D2
:104BC000B0B9B44808380068C0F3400020B1E068CC
:104BD000012801D0012063E7AE480838006820F0C2
:104BE000F800216940EAC100AA490839086037E0A5
:104BF000E06800B30120A8490860FFF7C5F8054642
:104C000006E0FFF7C1F8401B022801D9032047E75F
:104C1000A04808380068C0F340000028F1D09D4843
:104C20000838006820F0F800216940EAC10099497D
:104C30000839086014E0002097490860FFF7A4F8DD
:104C4000054606E0FFF7A0F8401B022801D9032023
:104C500026E7904808380068C0F340000028F1D1EA
:104C6000207800F0080008282CD16069A8B1012044
:104C70008A490860FFF788F8054606E0FFF784F8E0
:104C8000401B022801D903200AE782486C300068E3
:104C9000C0F340000028F1D014E000207F490860F4
:104CA000FFF772F8054606E0FFF76EF8401B022892
:104CB00001D90320F4E677486C300068C0F3400067
:104CC0000028F1D1207800F00400042870D10027DA
:104CD00070483830006800F0805090B900BF002064
:104CE00000906C483830006840F080506949383195
:104CF00008600846006800F08050009000BF00BFC8
:104D000001276748006800F48070B0B96448006803
:104D100040F4807062490860FFF736F8054606E007
:104D2000FFF732F8401B022801D90320B8E65C489F
:104D3000006800F480700028F2D000BFA06801284D
:104D400008D154486830006840F00100514968318A
:104D500008601DE0A06805280DD14E486830006845
:104D600040F004004B49683108600846006840F094
:104D7000010008600CE047486830006820F001003E
:104D80004449683108600846006820F00400086063
:104D900000BFA068A8B1FEF7F7FF054609E0FEF7DF
:104DA000F3FF401B41F28831884202D9032077E6A5
:104DB00026E0384868300068C0F340000028EED094
:104DC00013E0FEF7E1FF054608E0FEF7DDFF401BBC
:104DD00041F28831884201D9032061E62D486830CC
:104DE0000068C0F340000028EFD1012F07D1294807
:104DF0003830006820F0805026493831086000BF04
:104E0000A069002845D02348006800F00C0008285D
:104E10005DD0A069022845D100201F490866FEF731
:104E2000B3FF054606E0FEF7AFFF401B022801D99D
:104E3000032035E6174808380068C0F340600028B2
:104E4000F1D1D4E907010843616A40EA81110122E6
:104E5000A06AC2EB500041EA00412C20005D41EA0B
:104E600000600C49091F086001200B490866FEF725
:104E70008BFF054606E0FEF787FF401B022801D99D
:104E800003200DE6034808380068C0F3406000289E
:104E9000F1D049E00838024000004742800E474206
:104EA00000700040002021490866FEF76DFF0546AE
:104EB00006E0FEF769FF401B022801D90320EFE559
:104EC0001B480068C0F340600028F2D12CE0A069C4
:104ED000012800D1E4E51648001D0668A0690128F4
:104EE00020D006F48001E06981421BD106F03F0129
:104EF000206A814216D147F6C0703040616AB0EB3B
:104F0000811F0FD106F440310122A06AC2EB50008C
:104F1000B1EB004F06D106F070612C20005DB1EBC3
:104F2000006F01D00120BBE50020B9E50000474239
:104F30000038024070B504460D460CB9012070BD22
:104F400094F82C0028B9002084F82D00204600F0A9
:104F500011F8022084F82C00211D2068FDF7ACFE1A
:104F60002946D4E90002FDF713FF012084F82C0044
:104F70000020E4E710B50446FEF7A0FC10BD70B5B4
:104F800004460D4694F82C00022800D170BD94F818
:104F90002C0001280AD1022084F82C002946206820
:104FA000FDF7C0FE012084F82C0001E00120EDE7B0
:104FB0000020EBE72DE9F04104460E46174694F831
:104FC0002C50022D02D10220BDE8F081012D01D02C
:104FD000052D12D1022084F82C003A463146206873
:104FE000FDF7AAFE3068022803D1052084F82C00C2
:104FF00005E0012084F82C0001E00120E4E7002016
:10500000E2E770477047000030B502460B4600BF2C
:1050100092F83C00012801D1022030BD012082F825
:105020003C0000BF022082F83D0010684468106810
:10503000816824F070041868044310684460184DB7
:105040001068A8421BD01068B0F1804F17D0154DE2
:105050001068A84213D0144D1068A8420FD0134D09
:105060001068A8420BD0124D1068A84207D0114D0D
:105070001068A84203D0104D1068A84205D121F055
:1050800080015868014310688160012082F83D006A
:1050900000BF002082F83C0000BF00BFBDE7000059
:1050A000000001400004004000080040000C0040E7
:1050B00000040140004001400018004010B50446C3
:1050C0000CB9012010BD94F83D0028B9002084F8E7
:1050D0003C00204600F026F8022084F83D00211D07
:1050E000206802F013FA012084F8460000BF84F81B
:1050F0003E0001213F20015540200155412001552E
:1051000000BF00BF012084F8420043200155442025
:1051100001554520015500BF012084F83D000020C5
:10512000D0E7000038B504462068B0F1804F18D1B0
:1051300000BF002000905448006840F00100524930
:1051400008600846006800F00100009000BF00BF42
:10515000002205211C20FFF723F91C20FFF70CF982
:1051600091E04A492068884218D100BF0020009091
:105170004548006840F0020043490860084600685E
:1051800000F00200009000BF00BF002205211D209A
:10519000FFF706F91D20FFF7EFF874E03C4920689F
:1051A00088420FD100BF002000903748006840F0CF
:1051B0000800354908600846006800F008000090C3
:1051C00000BF60E03349206888422AD100BF002038
:1051D00000902D48001D006840F002002A49091D7A
:1051E00008600846006800F00200009000BF00BFA1
:1051F000002205212B20FFF7D3F82B20FFF7BCF866
:10520000002205212C20FFF7CBF82C20FFF7B4F863
:1052100000220F212D20FFF7C3F82D20FFF7ACF857
:1052200031E01D492068884211D100BF0020009064
:105230001548001D006840F480301349091D0860BE
:105240000846006800F48030009000BF1BE013495E
:105250002068884217D100BF002000900A480068EB
:1052600040F04000084908600846006800F040002F
:10527000009000BF00BF002205212B20FFF790F80F
:105280002B20FFF779F838BD403802400004004079
:10529000000C0040000401400040014000180040A4
:1052A000014691F83D00012801D0012070470220FD
:1052B00081F83D001A4B086898421BD00868B0F18D
:1052C000804F17D0174B0868984213D0164B0868C8
:1052D00098420FD0154B086898420BD0144B0868C1
:1052E000984207D0134B0868984203D0124B0868C5
:1052F00098420CD10868806800F00702062A0CD09A
:105300000868006840F001000B68186005E0086854
:10531000006840F001000B6818600020C6E700003C
:10532000000001400004004000080040000C004064
:10533000000401400040014000180040014691F87F
:105340003D00012801D001207047022081F83D0076
:105350000868C06840F001000B68D8601A4B086804
:1053600098421BD00868B0F1804F17D0174B0868DF
:10537000984213D0164B086898420FD0154B086816
:1053800098420BD0144B0868984207D0134B08681A
:10539000984203D0124B086898420CD10868806884
:1053A00000F00702062A0CD00868006840F00100EF
:1053B0000B68186005E00868006840F001000B68A1
:1053C00018600020C0E70000000001400004004019
:1053D00000080040000C0040000401400040014073
:1053E000001800402DE9F04104460D46002700BF9B
:1053F00094F83C00012802D10220BDE8F081012090
:1054000084F83C0000BF022084F83D0020688668D4
:1054100026F0770626F47F462068866028685028A4
:1054200033D00CDC202850D004DC00284BD01028CE
:1054300051D149E0302849D040284CD139E060288A
:105440002DD0702807D0B0F5805F03D0B0F5005F95
:1054500041D10DE041E0D5E902136A68206802F00D
:10546000DAF82068866846F077062068866034E0BF
:10547000D5E902136A68206802F0CDF820688068D8
:1054800040F480402168886027E0EA686968206805
:1054900002F0B2F95021206802F0C8F81DE0EA6875
:1054A0006968206802F0BBF96021206802F0BEF84C
:1054B00013E0EA686968206802F09EF940212068DC
:1054C00002F0B4F809E000BF00BF00BF29682068FF
:1054D00002F0ACF801E0012700BF00BF012084F812
:1054E0003D0000BF002084F83C0000BF384684E740
:1054F000704770B504462068C5682068066906F0E4
:105500000200022819D105F00200022815D1401F1F
:1055100021680861012020772068806900F003007D
:1055200018B12046FFF7E4FF05E0204600F038F907
:10553000204600F0ECF90020207706F00400042853
:1055400019D105F00400042815D1C0432168086171
:10555000022020772068806900F4407018B120464E
:10556000FFF7C6FF05E0204600F01AF9204600F0DC
:10557000CEF90020207706F00800082819D105F0A0
:105580000800082815D1C04321680861042020774D
:105590002068C06900F0030018B12046FFF7A8FF9B
:1055A00005E0204600F0FCF8204600F0B0F90020AD
:1055B000207706F01000102819D105F010001028EF
:1055C00015D1C04321680861082020772068C06990
:1055D00000F4407018B12046FFF78AFF05E020462E
:1055E00000F0DEF8204600F092F90020207706F067
:1055F000010048B105F0010030B16FF001002168F1
:105600000861204600F00AFA06F08000802809D1DF
:1056100005F08000802805D1C0432168086120463C
:10562000FFF7EFFC06F04000402809D105F04000EC
:10563000402805D1C04321680861204600F0A8FA3F
:1056400006F02000202809D105F02000202805D1EF
:10565000C043216808612046FFF7D4FC70BD0000FC
:1056600010B586B00446142101A8FAF765FE20683B
:10567000B0F1804F1ED100BF00200090414800686B
:1056800040F001003F4908600846006800F0010052
:10569000009000BF00BF4FF4004001900220029034
:1056A0000020039004900120059001A93648FEF7E0
:1056B00055FA65E03549206888421DD100BF0020B9
:1056C00000903048006840F001002E49086008460C
:1056D000006800F00100009000BF00BF04200190AE
:1056E000022002900020039004900220059001A95E
:1056F0002548FEF733FA43E02549206888421DD14A
:1057000000BF002000901F48006840F010001D49B5
:1057100008600846006800F01000009000BF00BF5D
:10572000402001900220029000200390049003206A
:10573000059001A91748FEF711FA21E016492068E3
:1057400088421DD100BF002000900E48006840F044
:1057500002000C4908600846006800F00200009052
:1057600000BF00BF4FF48040019002200290002053
:10577000039004900920059001A90848FEF7EEF96E
:1057800006B010BD3038024000000240000C00405E
:105790000040014000100240001800400004024098
:1057A00070472DE9F04104460D461646002700BF1C
:1057B00094F83C00012802D10220BDE8F0810120CC
:1057C00084F83C0000BF36B1042E1BD0082E31D027
:1057D0000C2E5ED145E02946206801F031FF20689B
:1057E000806940F00800216888612068806920F0A5
:1057F000040021688861206880692969084321685C
:10580000886148E02946206801F052FF20688069DD
:1058100040F40060216888612068806920F480601D
:105820002168886120688069296940EA012021682F
:10583000886130E02946206801F078FF2068C0695F
:1058400040F008002168C8612068C06920F00400A9
:105850002168C8612068C069296908432168C86156
:1058600019E02946206801F09DFF2068C06940F4D6
:1058700000602168C8612068C06920F480602168E8
:10588000C8612068C069296940EA01202168C861AF
:1058900001E0012700BF00BF00BF002084F83C00EA
:1058A00000BF384689E710B504460CB9012010BD89
:1058B00094F83D0028B9002084F83C00204600F010
:1058C00025F8022084F83D00211D206801F01EFE0D
:1058D000012084F8460000BF84F83E0001213F20EB
:1058E0000155402001554120015500BF00BF012056
:1058F00084F84200432001554420015545200155BC
:1059000000BF012084F83D000020D0E770477047B9
:1059100070B504460D4615B994F83E000BE0042D11
:1059200002D13F20005D06E0082D02D14020005D3D
:1059300001E04120005D012801D0012070BD1DB9AA
:10594000022084F83E000EE0042D03D102213F2006
:10595000015508E0082D03D102214020015502E045
:1059600002214120015501222946206801F042FE12
:1059700023492068884203D022492068884201D107
:10598000012000E0002028B12068406C40F4004075
:10599000216848641A49206888421BD02068B0F109
:1059A000804F17D018492068884213D017492068C3
:1059B00088420FD01649206888420BD011492068D0
:1059C000884207D013492068884203D012492068D2
:1059D00088420CD12068806800F00706062E0CD0A3
:1059E0002068006840F001002168086005E0206838
:1059F000006840F001002168086000209EE7000078
:105A00000000014000040140000400400008004084
:105A1000000C0040004001400018004010B5044652
:105A200044492068884201D1FEF7BCF94249206808
:105A3000884274D141480068401C40490860404891
:105A40000068401C3E4908603E480068401C3D49D3
:105A500008603D480068401C3B4908603B480068BE
:105A6000401C3A4908603A480068401C38490860C0
:105A700038480068401C3749086037480068401CB7
:105A80003549086035480068401C3449086034488E
:105A90000068401C3249086032480068401C3149A7
:105AA000086031480078042803D02F480078032884
:105AB00005D12E480068401C2C49086002E00020F7
:105AC0002A4908602A480078012804D1294800683A
:105AD000401C284908601D48006840F2DC5188429B
