:020000040800F2
:100000000893012081020008974C000875430008FE
:10001000954C0008B11500087D5C00080000000048
:10002000000000000000000000000000C101000806
:1000300065160008000000001D0200080F550008AA
:100040009B0200089B0200089B0200089B0200081C
:100050009B0200089B0200089B0200089B0200080C
:100060009B0200089B0200089B0200089B020008FC
:100070009B0200089B0200089B0200089B020008EC
:100080009B0200089B0200089B0200089B020008DC
:100090009B0200089B0200089B0200089B020008CC
:1000A0009B0200089B0200089B0200089B020008BC
:1000B000D95500089B020008E55500089B0200087E
:1000C0009B0200089B0200089B0200089B0200089C
:1000D0009B0200089B0200089B0200089B0200088C
:1000E0008D1B00089B0200089B020008F1550008C8
:1000F0009B0200089B0200089B0200089B0200086C
:100100009B0200089B0200089B0200089B0200085B
:100110009B0200089B0200089B0200089B0200084B
:10012000B51500089B0200089B0200089B0200080E
:100130009B0200089B0200089B0200089B0200082B
:100140009B0200089B0200089B0200089B0200081B
:100150009B0200089B0200089B0200089B0200080B
:100160009B0200089B0200089B0200089B020008FB
:100170009B0200089B0200089B0200080000000090
:100180009B0200089B0200089B0200089B020008DB
:100190009B0200089B0200089B0200089B020008CB
:1001A0009B0200089B0200089B020008DFF80CD0AD
:1001B00000F0E8FA00480047696802080893012047
:1001C0002C4B19680868B0E8F04F80F30988BFF33A
:1001D0006F8F4FF0000080F311887047000000001F
:1001E00008480068006880F308884FF0000080F33A
:1001F000148862B661B6BFF34F8FBFF36F8F00DF15
:1002000000BF00BF08ED00E0DFF80C00016841F41A
:1002100070010160704700BF88ED00E0EFF30980D6
:10022000BFF36F8F134B1A681EF0100F08BF20ED3D
:10023000108A20E9F04F106009B44FF0500080F3AD
:100240001188BFF34F8FBFF36F8F38F0A7F84FF0CF
:10025000000080F3118809BC19680868B0E8F04F05
:100260001EF0100F08BFB0EC108A80F30988BFF3AE
:100270006F8F704764000020EFF305807047000027
:100280000648804706480047FEE7FEE7FEE7FEE730
:10029000FEE7FEE7FEE7FEE7FEE7FEE7C9550008DA
:1002A000AD0100082DE9F05F0546002092469B460F
:1002B00088460646814640241BE02846414647467C
:1002C000224600F0BAF953465A46C01A914110D35B
:1002D00011461846224600F0A1F92D1A67EB0108D5
:1002E0004F4622460120002100F098F917EB000943
:1002F0004E41201EA4F10104DFDC484631462A4667
:100300004346BDE8F09F40EA01039B0703D009E0A4
:1003100008C9121F08C0042AFAD203E011F8013BF1
:1003200000F8013B521EF9D27047D2B201E000F84A
:10033000012B491EFBD270470022F6E710B5134689
:100340000A4604461946FFF7F0FF204610BD421C3E
:1003500010F8011B0029FBD1801A704710B500224C
:1003600000E0521C835C8C5CA34201D1002BF8D1CD
:10037000D8B2E1B2401A10BD30B5044600200346A1
:1003800000E05B1C934203D2E05CCD5C401BF8D0E4
:1003900030BD034611F8012B00F8012B002AF9D1DA
:1003A000184670472DE9FE4F81EA030404F000442B
:1003B00021F0004100944FF0000B23F0004350EA7D
:1003C00001045ED052EA03045BD0C3F30A54C1F3C4
:1003D0000A552C44A4F2F3340194A0FB0254C1F357
:1003E000130141F48011C3F3130343F4801301FBA1
:1003F000024400FB034E840A970A44EA815447EA08
:100400008357A4FB076802958D0A05FB07854FEA11
:10041000932C04FB0C542705029D4FEA065847EA2B
:100420001637B5EB08056EEB070C870E920E47EA00
:10043000811742EA8312A7FB0201B6EB0B0164EBC2
:1004400000042B0D43EA0C335E1844EB1C50DA46D3
:100450005146E7FB0201C5F313044FEA0B3343EAAD
:1004600014534FEA0432019C43EA0603A4F10C043E
:100470000294009CCDE900B400F035F903B0BDE86A
:10048000F08F00200146F9E72DE9F04D81EA0304E1
:1004900004F0004B21F0004514464FF0000A23F011
:1004A000004150EA050220D054EA01021DD0C5F3F4
:1004B0000A570246C5F31303C1F31300C1F30A56EA
:1004C00040F4801543F48013A7EB0608101BD646B2
:1004D00008F2FD3873EB050002D308F1010801E0D2
:1004E00092185B41B8F1000F03DA00200146BDE825
:1004F000F08D00204FF48011064684460EE0171B55
:1005000073EB050705D3121B63EB050306434CEAA7
:10051000010C49084FEA300092185B4150EA01078C
:10052000EDD152EA030012D082EA040083EA050109
:10053000084305D0101BAB4106D20122002306E080
:1005400000224FF0004302E06FF0010253101AEB5B
:1005500006004CEB085110EB0A0041EB0B01BDE823
:10056000F04D00F0B1B80EB540F2334102910021D8
:10057000CDE900110A460B4600F0B5F803B000BD06
:1005800070B5C1F30A5201F000450024C1F3130114
:1005900040F2FF3341F480119A4201DA002070BD2D
:1005A00040F233439A42A2F2334203DC524200F05B
:1005B00044F800E090402C43F1D0404270BD00F080
:1005C000004230F000400AD0C10D01F56071C0F367
:1005D000160042EA0151C20840071143704700204B
:1005E0000146704701F0004330B421F0004150EA69
:1005F000010206D00A0DA2F56072C1F31301002AB0
:1006000002DC30BC00207047440F44EAC104C10042
:10061000E01830BC00EBC25000F01FB8202A04DB09
:10062000203A00FA02F1002070479140C2F1200305
:1006300020FA03F3194390407047202A04DB203A44
:1006400021FA02F00021704721FA02F3D040C2F1F2
:10065000200291400843194670470029A8BF7047FF
:10066000401C490008BF20F00100704710B4B0FAE8
:1006700080FC00FA0CF050EA010404BF10BC704783
:1006800049B1CCF1200421FA04F411FA0CF118BF9D
:10069000012121430843A3EB0C01CB1D4FEA00616C
:1006A0004FEA102042BF002010BC704700EBC3503F
:1006B00010440029A4BF10BC7047401C490008BF6B
:1006C00020F0010010BC704710B5141E73F1000437
:1006D00008DA401C41F1000192185B411A4301D134
:1006E00020F0010010BD2DE9F04D92469B4611B15E
:1006F000B1FA81F202E0B0FA80F220329046FFF7C0
:100700008DFF04460F4640EA0A0041EA0B015346BA
:100710005A46084313D0114653EA010019D0C8F1D4
:1007200040025046FFF789FF05460E46504659469F
:100730004246FFF773FF084305D0012004E020463E
:100740003946BDE8F08D0020054346EAE0762C43AB
:1007500037430A986305E40AA0EB08000022FD0A6B
:1007600044EA47540A3002D500200146E9E7010572
:1007700010196941DDE9084500196941BDE8F04DEE
:10078000A2E70000064C074D06E0E06840F00103D8
:1007900094E8070098471034AC42F6D3FFF70AFDFF
:1007A00088930B08A8930B0870B58C1810F8015BA0
:1007B00015F0070301D110F8013B2A1106D110F8FA
:1007C000012B03E010F8016B01F8016B5B1EF9D1FE
:1007D0002B0705D40023521E0DD401F8013BFAE784
:1007E00010F8013BCB1A921C03E013F8015B01F8EF
:1007F000015B521EF9D5A142D8D3002070BD002064
:10080000401C80B20228FBD3704700000A4604490E
:10081000034B0C3331F8101053F8200002F007BAE4
:100820002005002010B504460121FFF7EFFF01214C
:10083000204600F007F82046BDE81040012100F0F6
:100840000DB800000A460449034B103331F810106C
:1008500053F8200002F0EBB9240500200A460449B1
:10086000034B143331F8101053F8200002F0DFB9B5
:100870002805002070B50C46064600250121FFF72B
:10088000E1FF01213046FFF7C1FF00213046FFF7AD
:10089000BDFF200401D5012100E000213046FFF713
:1008A000DDFFFFF7ACFF00213046FFF7CBFFFFF77E
:1008B000A6FF01213046FFF7C5FF6D1C6400EDB2B5
:1008C000102DE6D33046BDE870400121FFF79EBFF2
:1008D0002DE9FF5F89462DED020B904604462DED74
:1008E000048BB0EE408AF0EE608A4FF48071DDF840
:1008F00050B0FFF7BFFF4FF4045A51462046FFF7B0
:10090000B9FF9FED240B1FFA89F79FED209B53EC55
:10091000102B51EC180BFFF7B7FD53EC192BFFF719
:1009200041FDFFF72DFEC0F30D05C0F38D363D43AD
:100930003E4351462046FFF79DFF29462046FFF7DC
:1009400099FF31462046FFF795FF099A1FFA88F173
:1009500092B220461143FFF78DFFB9F5804F11D0B9
:100960004FF40063B8F5404F0ED04FF48062BDECF9
:10097000048B4BEA030106B02046BDE8F05F11434B
:10098000FFF778BF0023EDE70022F0E7CE98ED787F
:10099000082677410000000080842E4110B50146F2
:1009A000806B026C12F0500F05D0026CD20626D577
:1009B00001F0B0FB10BD016C41F4007101640168ED
:1009C0008A6812F0405F17D1027EAAB9CA6A12F48F
:1009D000700F02D08A6852050ED44A6822F02002B5
:1009E0004A60016C21F480710164016CC90403D474
:1009F000016C41F00101016401F08AFB10BD806BC4
:100A0000C26CBDE810400846104710B5806B40210D
:100A10000164416C41F00401416401F07BFB10BDB5
:100A200010B5806B01F075FB10BD0000464910B594
:100A30004A6822F440324A604A6843681A434A606E
:100A400001684A6822F480724A6001684A68036952
:100A500042EA03224A6001684A6822F040724A6012
:100A600001684A6883681A434A6001688A6822F408
:100A700000628A6001688A68C3681A438A60816A72
:100A80006FF07062D14201688A6822F070628A60F9
:100A900001688A680CD0836A1A438A6001688A6890
:100AA00022F040528A6001688A68C36A1A4301E0F2
:100AB00022F040528A6001688A6822F002028A604D
:100AC00001688A68037E42EA43028A6090F8201037
:100AD000002901684A680FD042F400624A60016848
:100AE0004A6822F460424A6001684A68174C436AC7
:100AF00004EB43331A4301E022F400624A600168C8
:100B0000CA6A22F47002CA620168CA6A838B104CF6
:100B100004EB03531A43CA6201688A6822F4007224
:100B20008A6001688A6890F8303042EA43228A601D
:100B300001688A6822F480628A6001688A68406974
:100B400042EA8020886010BD0023014000E0FFFFE2
:100B50000000F0FF70B50026032901D2002070BD0F
:100B600002880124134609E030F81450954200D958
:100B70002A469D4200D22B46641CE4B28C42F3D339
:100B8000002304E030F813405B1C2644DBB28B42A8
:100B9000F8D3B01A801A00EE100A891EF8EE400A47
:100BA00000EE101AB8EEC01A80EE810ABCEEC00A40
:100BB00010EE100A80B270BD10B5274C0146062910
:100BC000D4F8B80046D2DFE801F0450307151F321C
:100BD00001211EF077FA02E001211EF075FED4F823
:100BE000B4000121AC341EF06DFA012160681EF0E2
:100BF00069FA16E001211EF067FED4F8B400012165
:100C0000AC341EF061FEF0E701211EF05DFED4F869
:100C1000B4000121AC341EF057FE012160681EF0C3
:100C200053FE2068BDE8104001211EF04BBA01219F
:100C30001EF04AFED4F8B4000121AC341EF044FE8C
:100C4000012160681EF040FE2068BDE810400121CF
:100C50001EF03ABE10BD00009835012010B5294C99
:100C600001460629D4F888024AD2DFE801F0490398
:100C70000716213501211EF025FA02E001211EF0A0
:100C800023FED4F88402012104F51F741EF01AFA21
:100C9000012160681EF016FA18E001211EF014FE12
:100CA000D4F88402012104F51F741EF00DFEEFE755
:100CB00001211EF009FED4F88402012104F51F74FD
:100CC0001EF002FE012160681EF0FEFD2068BDE8F6
:100CD000104001211EF0F6B901211EF0F5FDD4F8F7
:100CE0008402012104F51F741EF0EEFD01216068ED
:100CF0001EF0EAFD2068BDE8104001211EF0E4BDB1
:100D000010BD00009835012010B5294C0146062978
:100D1000D4F8B4014AD2DFE801F0490307162135BF
:100D200001211EF0CFF902E001211EF0CDFDD4F823
:100D3000B001012104F5D4741EF0C4F901216068EA
:100D40001EF0C0F918E001211EF0BEFDD4F8B0017C
:100D5000012104F5D4741EF0B7FDEFE701211EF068
:100D6000B3FDD4F8B001012104F5D4741EF0ACFD3C
:100D7000012160681EF0A8FD2068BDE81040012137
:100D80001EF0A0B901211EF09FFDD4F8B001012191
:100D900004F5D4741EF098FD012160681EF094FDE6
:100DA0002068BDE8104001211EF08EBD10BD00007E
:100DB0009835012010B5224C01460629E0693ED243
:100DC000DFE801F03D0307131B2C01211EF07AF927
:100DD00002E001211EF078FD0121206A1EF072F967
:100DE0000121606A1EF06EF912E001211EF06CFD17
:100DF0000121206A1EF068FDF2E701211EF064FD6A
:100E00000121206A1EF060FD0121606A1EF05CFD78
:100E1000A06ABDE8104001211EF054B901211EF066
:100E200053FD0121206A1EF04FFD0121606A1EF072
:100E30004BFDA06ABDE8104001211EF045BD10BD6C
:100E40009835012010B5294C01460629D4F828010F
:100E50004AD2DFE801F049030716213501211EF0CF
:100E600031F902E001211EF02FFDD4F82401012107
:100E700004F58E741EF026F9012160681EF022F937
:100E800018E001211EF020FDD4F82401012104F511
:100E90008E741EF019FDEFE701211EF015FDD4F848
:100EA0002401012104F58E741EF00EFD01216068FD
:100EB0001EF00AFD2068BDE8104001211EF002B9B5
:100EC00001211EF001FDD4F82401012104F58E74E6
:100ED0001EF0FAFC012160681EF0F6FC2068BDE8F7
:100EE000104001211EF0F0BC10BD0000983501201B
:100EF00010B5294C01460629D4F8F4024AD2DFE89D
:100F000001F049030716213501211EF0DBF802E04C
:100F100001211EF0D9FCD4F8F002012104F53A7445
:100F20001EF0D0F8012160681EF0CCF818E0012115
:100F30001EF0CAFCD4F8F002012104F53A741EF048
:100F4000C3FCEFE701211EF0BFFCD4F8F002012141
:100F500004F53A741EF0B8FC012160681EF0B4FC80
:100F60002068BDE8104001211EF0ACB801211EF040
:100F7000ABFCD4F8F002012104F53A741EF0A4FC95
:100F8000012160681EF0A0FC2068BDE8104001212E
:100F90001EF09ABC10BD00009835012010B5294CF8
:100FA00001460629D4F850034AD2DFE801F049038C
:100FB0000716213501211EF085F802E001211EF0FF
:100FC00083FCD4F84C03012104F551741EF07AF827
:100FD000012160681EF076F818E001211EF074FC13
:100FE000D4F84C03012104F551741EF06DFCEFE7B9
:100FF00001211EF069FCD4F84C03012104F5517461
:101000001EF062FC012160681EF05EFC2068BDE8F5
:10101000104001211EF056B801211EF055FCD4F8F5
:101020004C03012104F551741EF04EFC012160684F
:101030001EF04AFC2068BDE8104001211EF044BCAF
:1010400010BD00009835012010B5294C0146062935
:10105000D4F804024AD2DFE801F04903071621352B
:1010600001211EF02FF802E001211EF02DFCD4F822
:101070000002012104F5FC741EF024F801216068CF
:101080001EF020F818E001211EF01EFCD4F800022A
:10109000012104F5FC741EF017FCEFE701211EF09E
:1010A00013FCD4F80002012104F5FC741EF00CFCC2
:1010B000012160681EF008FC2068BDE81040012195
:1010C0001EF000B801211EF0FFFBD4F80002012140
:1010D00004F5FC741EF0F8FB012160681EF0F4FBBF
:1010E0002068BDE8104001211EF0EEBB10BD0000DD
:1010F0009835012010B5294C01460629D4F8540230
:101100004AD2DFE801F049030716213501211DF01D
:10111000D9FF02E001211EF0D7FBD4F850020121D3
:1011200004F512741DF0CEFF012160681DF0CAFFA6
:1011300018E001211EF0C8FBD4F85002012104F58B
:1011400012741EF0C1FBEFE701211EF0BDFBD4F8C5
:101150005002012104F512741EF0B6FB01216068F3
:101160001EF0B2FB2068BDE8104001211DF0AABFAF
:1011700001211EF0A9FBD4F85002012104F51274DC
:101180001EF0A2FB012160681EF09EFB2068BDE8F6
:10119000104001211EF098BB10BD000098350120C1
:1011A0002DE9F05F674C66490020E288097800EE7F
:1011B000102AF8EE400A9FED641A2646052380EEB9
:1011C000810A32787778DFF884C10125DFF88091D1
:1011D000DFF880B1604E012904D002295AD00329DA
:1011E00057D192E0002121713178DFF87081042914
:1011F00010EE101ADFF868A11FD041451FDD10EE78
:10120000101A514521DA524B4D46183303EB800139
:10121000D1ED000AF4EEC00AF1EE10FA07D2D1EDDA
:10122000010AF4EEC00AF1EE10FA00DB2A5C401C61
:10123000C0B21528EAD3227025E0414501DC2570B3
:1012400021E010EE101A514501DB23701BE04049EC
:101250004A466C3101EB8003D3ED000AF4EEC00A7C
:10126000F1EE10FA0BD2D3ED010AF4EEC00AF1EE62
:1012700010FA04DB135C00EE103AB8EE400A401C92
:10128000C0B21528E6D32078B8423BD260708CF803
:1012900000003EE010EE101ADFF8C880414501DC86
:1012A000257022E010EE101ADFF8BC80414501DB0A
:1012B00023701AE0264B4FEA0908C03303EB800184
:1012C000D1ED000AF4EEC00AF1EE10FA08D2D1ED29
:1012D000010AF4EEC00AF1EE10FA01DB18F8002062
:1012E000401CC0B21528E9D322702078B84209D931
:1012F00060708CF80000207958B9584600F04AFC1C
:10130000257106E08CF8007003E0237063708CF8A0
:101310000030E078042802D0032804D00BE03078B5
:10132000042803D107E03078032804D001220749BC
:10133000584600F04DFB3078E070BDE8F09F0000AB
:101340007F0500204405002000007A447805002035
:10135000988A0B0800001C085D0500200000404032
:1013600004568640CDCC4C406ABC8C40F0B5454913
:10137000474E002091F800E043490525434F0B7884
:10138000CA8834784FF0010CBEF1010F08D0BEF1CD
:10139000020F3CD0BEF1030F01D10D704D70F0BDB6
:1013A000032A04D881F800C081F801C046E000EEAD
:1013B000102ADFF8E0E0B8EE400A10EE10CAF4455B
:1013C00002DB0D704D7039E000EE102A2F4A183202
:1013D00002EB8005B8EE401AD5ED000AF4EEC10A22
:1013E000F1EE10FA08D2B8EE401AF4EEC10AF1EEAE
:1013F00010FA01DB3B5C4B70401CC0B21528E7D3F0
:101400000B701BE03070F0BD0C704C70F0BD00EE46
:10141000102ADFF884E0B8EE400A10EE105A754545
:10142000C0DD00EE102ADFF874C0B8EE400A10EEFE
:10143000105A654506DB04200870487048788442DD
:10144000E2D9DFE700EE102A104AC03202EB800535
:10145000B8EE401AD5ED000AF4EEC10AF1EE10FA2A
:101460000BD2B8EE401AF4EEC10AF1EE10FA04DB2A
:101470003B5C4B70042B00D90423401CC0B21528E0
:10148000E4D3BDE77F05002044050020988A0B08BF
:101490007805002004568640CDCC4C406ABC8C4078
:1014A0002DE9F04F4049DFF804B10C4691F8018076
:1014B00094F90050E0786B1E4FFA83FC2379401EAC
:1014C0005B1EC2B2DCB2002318262027DBF8000026
:1014D0004FF0B40AB8F1010F13D0B8F1020F2ED1BA
:1014E00091F80280B8F1010F2BD08946062195FBB7
:1014F000F1F801FB18510029494625D0ED073CD0F1
:101500002FE04FF0010881F80280ED0703D00C7145
:10151000836324B107E0CA70C0F838A01AB981F813
:1015200000C0CE700F7191F90000002807DCDBF8D5
:10153000000083630B704B708B70CE700F71BDE831
:10154000F08F8B708363FAE791F8058008F101084A
:1015500008F0FF0881F80580B8F1400F16D9ED07B3
:1015600003D00C71836364B110E0CA70C0F838A076
:1015700062B981F800C04B7105E0CA70C0F838A0AC
:1015800022B981F800C0CE7089F80470084691F93C
:1015900000100029D3DCDBF800108B63037043706C
:1015A000C6700771CBE7000050050020881F00209F
:1015B000FEE70000014800F011BF0000EC1C002015
:1015C00001681823CAB2103AB2FBF3F2054B6FF36D
:1015D0000901032A9B5CC36500D9091D8165084682
:1015E000704700002493030810B5014600208B6962
:1015F0008A6A4FF0C07453B1B3F5005F15D072B171
:10160000012A0CD0022A0AD0032A09D104E01AB117
:10161000012A06D0022A03D1C96AC90100D50120D6
:1016200010BDC96AA142FAD010BD002AF7D0012A24
:10163000F2D0022AF3D0032AF3D010BD30B50468EB
:10164000256825F480252560046863608368402B45
:10165000036803D099600068C26030BD9A6000687A
:10166000C16030BD704700002DE9F05F6C48012774
:10167000DFF8B0B10078DFF8B0814FF0050901283C
:101680001FD0032088F8050001F0D6FAD8F81C1006
:10169000411AB1F57A7F04D9C8F81C0088F80670A1
:1016A00003E098F80600012815D1B8F8080090B9B1
:1016B0005D49A8F8087001220831584600F088F901
:1016C00009E098F80600012801D188F8059001F09A
:1016D000B3FAC8F81C005548554E564D0078002402
:1016E00000EBC00101EB001A98F8051052480629DA
:1016F0003DD2DFE801F0031F3E464B784F4A0168B8
:10170000914202D988F8059039E00121052000F0C6
:10171000D1F90021084600F0CDF90021012000F0A8
:10172000C9F90021022000F0C5F9306884633068EF
:10173000C46318E098F80310012901D188F80470F7
:101740003F4A0168914202D9046088F8059001215E
:10175000052000F0AFF90021012000F0ABF90021D5
:10176000022000F0A7F92868446328688463BDE874
:10177000F09F98F80310012901D188F804700460E3
:10178000C3E70460BDE8F05F00F06CB988F803704F
:1017900004600121052000F08DF90121002000F0F6
:1017A00089F92968C1F834A00121022000F082F9EA
:1017B0002448007818B92448007801280FD023491C
:1017C0000868B0F5FA7F04D23168D8F81800886349
:1017D000CDE740F2DC52A0F5FA70904201D23068B9
:1017E000C4E70C60C3E71A4840F21451006888420D
:1017F0000BD9B8F80800012807D10B49A8F8084010
:1018000001220831584600F0E3F80121082000F0D9
:1018100051F9BDE8F05F0121072000F04BB900004D
:101820007F05002000001A0858050020270300202B
:10183000F81E0020B01E002008000020C0D40100C7
:10184000C02709002D0300202C03002020000020C9
:101850001C00002070B5204D264E00242DED068B77
:101860009FED1EAADFED1EAA9FED1E8B9FED1F9B15
:10187000194901220831204800F0C4FC95ED020A04
:10188000B8EE400A20EE0A0A20EE2A0A10EE100AEC
:10189000FEF795FE53EC182BFEF7F6FDFEF7A2FEC1
:1018A000FEF78DFE53EC192BFEF7EEFDFEF79AFEC8
:1018B00000EE100ABCEEC00A10EE100A26F8140062
:1018C000641CE4B20F2CD3D30F210A48FFF742F96E
:1018D000E880BDEC068B70BD4405002000404E45FD
:1018E000000080397AC7293A92CBEF3F2063EE5A45
:1018F000423EE53FA08E0120A41C002010B501222D
:101900001F49204800F07EFC1D4CDFED1F0A083CFB
:1019100094ED020AB8EE400A20EE200ADFED1B0A21
:1019200020EE200A10EE100AFEF749FE9FED181B6C
:1019300053EC112BFEF7A8FDFEF754FEFEF73FFE19
:101940009FED151B53EC112BFEF79EFDFEF74AFE93
:1019500000EE100A124AA078BCEEC00A10EE101A6F
:1019600022F81010401CC0B2A0700E2801D900202F
:10197000A0700F210A48FFF7EDF8E08010BD0000CD
:101980004C050020A41C002000404E45000080397A
:101990007AC7293A92CBEF3F2063EE5A423EE53FA9
:1019A000A08E01202DE9F04116460F460546002481
:1019B00000F02EFF06E000BF55F8020B27F81400D8
:1019C000641CE4B2B442F7D3BDE8F04100F0D8BEE5
:1019D0002DE9F04104460025204886B01646884689
:1019E0002F46844206D2B4F1026F03D3012006B021
:1019F000BDE8F08100F00CFF194900BF01EB0510B4
:101A00004268A24203D88268A24200D307686D1CD4
:101A1000EDB2032DF2D3002000900120CDE9027039
:101A20000220049005A9684600F05CFE0500DED1A6
:101A3000274600240CE000BF38F814200023394664
:101A4000012000F0A7FE0500D1D1641CE4B2BF1C48
:101A5000B442F1D300F094FE2846C8E700001A080B
:101A6000AC8B0B0810B50021072000F023F80121F2
:101A7000062000F01FF80121052000F01BF80021CE
:101A8000084600F017F80021032000F013F80021A9
:101A9000042000F00FF80021082000F00BF80021CE
:101AA000012000F007F80021BDE81040022000F0FE
:101AB00001B80000054A52F8303002EBC0000A4677
:101AC00080880146184601F0B2B80000DC8B0B0894
:101AD0000F4801784278914211D183789A420ED111
:101AE000C07883420BD10A4801F08202801F802A0D
:101AF00006D00A0603D44A0604D50321C1707047F4
:101B00000121FBE78A0701D43829F8D10221F5E742
:101B1000820500202DE9F843FFF7A4FF18490020B3
:101B20000A6890630968C86316490A6850630968BF
:101B30008863FEF777FE0120FEF774FE124D2869D8
:101B4000FEF711FD022441EC100BA6024FF4604792
:101B50004FF4804833463A46414600200094FEF751
:101B6000B7FE6869FEF7FFFC41EC100B33463A46BE
:101B7000414601200094FEF7ABFEBDE8F88300006B
:101B8000F81E0020B01E0020580500204FF4005021
:101B900000F022BF70B505460024144886B02646E2
:101BA000854205D2B5F1026F02D3012006B070BDA7
:101BB00000F02EFE0E4900BF01EB04104268AA425D
:101BC00003D88268AA4200D30668641CE4B2032CDE
:101BD000F2D3002000900120CDE9026002200490A1
:101BE00005A9684600F07EFDE0E7000000001A0845
:101BF000AC8B0B0872B6FEE7002229B101291DD07B
:101C000002291ED04FF440720B2800D9001D0E4946
:101C10000B6823F440730B600B6813430B600A6876
:101C200022F0F8020A600A68022303EBC0000243B4
:101C30000A60086840F48030086070474FF4807292
:101C4000E2E74FF40072DFE7103C024013480168FE
:101C500089050FD5016821F400710160016841F424
:101C600000610160016821F400610160016841F4D4
:101C700000710160016849050FD5016821F4806198
:101C80000160016841F480510160016821F48051D4
:101C90000160016841F4806101607047003C0240CE
:101CA0000E4A136823F44073136003290DD00129F1
:101CB00011680FD041F40041116011684FF4803376
:101CC00043EA0020014311607047116848F20403A1
:101CD0001943F1E741F00401EEE70000103C024037
:101CE000064A136823F44073136013681360136883
:101CF00043F001031360017070470000103C024084
:101D0000094910B50C6824F440740C600C6844F464
:101D100040740C600C6844F001040C600260BFF376
:101D20006F8F436010BD0000103C0240074A1368EB
:101D300023F440731360136843F4807313601368D3
:101D400043F001031360018070470000103C024023
:101D5000074A136823F440731360136843F4007355
:101D60001360136843F001031360016070470000C3
:101D7000103C02401C490868C2061C4805D5C269CF
:101D800042F01002C26110220A600A68920605D56C
:101D9000C26942F00802C26120220A600A68520643
:101DA00005D5C26942F00402C26140220A600A6895
:101DB000120605D5C26942F00202C26180220A60A1
:101DC0000A68D20506D5C26942F00102C2614FF429
:101DD00080720A600A68920705D5C26942F0200243
:101DE000C2610220086070470C3C0240A82000201D
:101DF00070B5114904460020C86100F01DFF064679
:101E00000E4D09E0601C07D024B100F015FF801BC7
:101E1000A04201D9032070BD2868C003F2D428680D
:101E2000C00701D001202860286810F4F970F2D0B2
:101E3000FFF7A0FF012070BDA82000200C3C02404D
:101E4000F0B5D1E907354C6A0A68C2B102682B4384
:101E500022F4F842144323430360D1E901231A43D7
:101E6000D1E9033423431A434B6989691A430A436E
:101E700041686FF30E010A4342600020F0BDD1E9D2
:101E800001263243D1E903673E4332434E698969F3
:101E900032430A431A432A43016822436FF30E0177
:101EA0000A430260E9E7426943F6FE739A4342EA55
:101EB000410141610020704770B514460546D1E9E3
:101EC000000210438A686FF01F03C96803EB4212D7
:101ED00042EA4121084329696FF31501084328614B
:101EE00000F0AAFE064609E0601C07D024B100F00D
:101EF000A3FE801BA04201D9032070BDA869800603
:101F0000F2D4002070BD0000F0B56FF00F058C8A90
:101F10002E014FEA054ECB682F034FF07F4C0EEB9E
:101F200004540AB31A03A2F58052836822431D4C5D
:101F300023401A438260D1E9002305EB0313521EAC
:101F40001A438B6806EB03231A430B8A097E07EBBF
:101F500003431A430CEB01610A43C16801F070416D
:101F60000A43C2600020F0BDD1E9002E05EB0E153A
:101F7000521E2A438D6806EB05252A430A4D05EBC0
:101F800003331A430B8A097E07EB03431A432243A8
:101F90000CEB01610A43816801F070410A438260E1
:101FA000E0E70000FF0F0FFF00F0FFFF78B500240F
:101FB000009490F83C20012A19D0012280F83C209E
:101FC0000A6807230568092A13D9EE680A3A02EB62
:101FD000420293409E43EE600B788A680A3B03EB13
:101FE00043039A400368DD682A43DA6010E0022068
:101FF00078BD2E6902EB420293409E432E610B781E
:102000008A6803EB43039A4003681D692A431A61F7
:102010004A681F23072A13D205686E6B521E02EB13
:10202000820293409E436E630A8893B20A79521EDD
:1020300002EB820293400268556B2B43536327E007
:1020400005680D2A12D22E6BD21F02EB820293403A
:102050009E432E630B790A88DB1F92B203EB830346
:102060009A4003681D6B2A431A6311E0EE6A0D3A29
:1020700002EB820293409E43EE620B790A880D3B8D
:1020800092B203EB83039A400368DD6A2A43DA6263
:102090001B4B0568194A9D420AD10D68122D07D1C4
:1020A000556825F400055560556845F48005556070
:1020B00005689D421DD1134D0B68AB4201D0112B19
:1020C00017D1536823F480035360536843F400032B
:1020D00053600968A9420CD10B490C4A0968B1FB4D
:1020E000F2F101EB8101490000E0491E0091002955
:1020F000FBD180F83C40002078BD00000023014067
:1021000000200140120000105400002040420F0047
:1021100070477047704770B504004FF0000503D05A
:10212000206C002610B107E0012070BD204600F0B1
:102130001DF8666484F83C60206CC00610D4206CE6
:1021400020F4885040F0020020642046FEF76EFC28
:102150006664206C20F0020040F00100206400E082
:10216000012584F83C60284670BD000070B586B03B
:10217000064614216846FEF7DFF81D49306888429C
:1021800033D11C480025016841F48071016000686A
:1021900000F48070059017481438016841F004017C
:1021A00001600068694600F004000590202000905E
:1021B0000320CDE90105104800F01AFC104C0F482F
:1021C000C4E900050015A560C4E903504000606142
:1021D0008000C4E9060525622046656200F0CEF95C
:1021E00008B1FFF707FDB463A66306B070BD000039
:1021F00000200140443802400008024010640240C0
:10220000EC1C0020F8B5044600200E46009094F81F
:102210003C10012907D0012184F83C1021688B680B
:10222000DB0702D011E00220F8BD8B6843F0010308
:102230008B604049404B0968B1FBF3F101EB410170
:1022400000E0491E00910029FBD121688B68DB0565
:1022500003D58B6823F480738B6021688B68DB0760
:102260005DD0236C40F20165AB4343F4807323647B
:102270004968490505D5216C21F4005141F480518C
:102280002164216CC90404D5616C21F006016164EC
:1022900000E0606484F83C00A16B2948274DC863C6
:1022A000A16B28480864A16B2748C86421686FF0B7
:1022B000220008602068416841F080614160206828
:1022C000816841F4807181602168134632464C3147
:1022D000A06B00F0BDF968681C49C006206806D0F4
:1022E000884224D1816811F0405F13D01FE08842FA
:1022F000F8D0174A904203D1D1F80423D206F1D086
:10230000144A904213D1D1F8041301F01F0110298F
:10231000E8D30CE0816841F08041816007E0206CE7
:1023200040F010002064606C40F001006064002008
:10233000F8BD00005400002040420F00002301407F
:102340009D090008210A00080B0A0008002001402E
:10235000002101400022014070B5040004D094F82F
:102360003900002510B106E0012070BD84F8385016
:10237000204600F01FF8022084F839002068016828
:10238000626821F44031114301602068416BA2680A
:1023900021F00701114341632068016CE2686FF38B
:1023A0000D0111430164E563012084F83900002028
:1023B00070BD000008B500680649884208D106488B
:1023C000016841F400010160006800F40000009021
:1023D00008BD000000B00240303802402DE9F8434B
:1023E00004464FF00009CDF8009063484FF41651B1
:1023F000A56D0068B0FBF1F72E6894F85C1008201A
:1024000000FA01F131420FD021680A6852070BD55A
:102410000A6822F004020A6094F85C108840A86000
:10242000606D40F00100606594F85C104FF00108A9
:1024300008FA01F0304208D021684969090604D53C
:10244000A860606D40F00200606594F85C100420A4
:102450008840304208D021680968890704D5A860FF
:10246000606D40F00400606594F85C1010208840B6
:10247000304218D021680968090714D5A86020687F
:102480000168490304D50068000308D5A16C07E082
:102490000168C90503D4016821F008010160216CBD
:1024A00009B12046884794F85C10202088403042CB
:1024B00031D021680968C9062DD5A86094F8350087
:1024C00005282068016806D0490347D50068000345
:1024D0001DD4616C1CE021F0160101602068416987
:1024E00021F080014161206C08B9A06C20B1206806
:1024F000016821F00801016094F85C103F208840D9
:10250000A86084F8358084F83490216D1FE0E16B79
:1025100009B120468847606D00282BD0606DC00748
:1025200014D0052084F835002068016821F00101ED
:1025300001600098401C0090B84203D820680068F1
:10254000C007F6D184F8358084F83490E16C002916
:1025500010D001B02046BDE8F04308470168C90526
:10256000D5D4016821F01001016084F8358084F829
:102570003490CCE7BDE8F883540000202DE9F04109
:10258000044600F059FB06465CB1022084F8350091
:10259000002584F834502068016821F001010160B1
:1025A0000DE00120BDE8F08100F046FB801B05280E
:1025B00005D920206065032084F83500F2E7206803
:1025C0000068C007F0D12268116820480140D4E9B2
:1025D00001031843D4E903363343184363691843AE
:1025E000A3691843E3691843236A18430843616ADF
:1025F000042903D1D4E90B13194308431060206860
:102600004069666A20F0070130460E43012704281E
:102610000CD1A06A0643E06A40B12046FEF7E4FF11
:1026200020B14020606584F83570BAE720684661C3
:102630002046FEF7C5FF94F85C203F219140816061
:10264000656584F835700020ACE700003F8010F02D
:102650002DE9F0410446866D90F8340000250128EC
:102660000DD0012084F8340094F835700020012F3B
:1026700007D084F8340002252846BDE8F081022006
:10268000FBE7022784F8357060652046FEF7D6FF29
:1026900094F85C103F208840B0602068016841F0E9
:1026A00016010160206C20B12068016841F008012A
:1026B00001602068016841F001010160DCE7000071
:1026C00070B5044600F0B8FA0546601C02D0044814
:1026D0000078044400F0B0FA401BA042FAD370BD69
:1026E000580000202DE9F047044623480F46017E9C
:1026F00001290AD00121804601764CF25039484622
:10270000FFF776FB020003D030E00220BDE8F0873F
:102710004FF0FF3038602068184D012801D0A668BE
:102720001DE0207C6168FFF7BBFA4846FFF760FBBD
:102730000246286848F204018843286014E0217C9E
:102740003046FFF759FA4846FFF752FB0200286867
:1027500020F0FA00286001D03E6005E0761CD4E944
:1027600002100844B042EAD8FFF770FA002188F856
:1027700018101046CAE70000A8200020103C0240B4
:102780000348016841F000410160002070470000EB
:10279000103C02402DE9F0471B4E05461446307EA2
:1027A0001F468946012808D0012030764CF2503867
:1027B0004046FFF71DFB18B114E00220BDE8F0878A
:1027C0009DB1012D16D0022D19D022463B46484618
:1027D000FFF796FA4046FFF70BFB0C490A6822F018
:1027E00001020A6000213176E8E7E1B24846FFF7CE
:1027F00077FAEFE7A1B24846FFF798FAEAE72146F1
:102800004846FFF7A5FAE5E7A8200020103C024063
:10281000074900200A68002A09DA054A054B0C3AE4
:102820001360054B13600968002900DA0120704726
:10283000103C024023016745AB89EFCDF0B587B06E
:1028400014216846FDF778FD25480168002944D128
:102850000121016023480024016841F00101016069
:102860000068022500F0010005904FF63F00CDE919
:10287000000502AA03260C2782E8D00069461A4800
:1028800000F0B6F80D20CDE9000502AA694682E8FD
:10289000D000164800F0ACF848F23710CDE900053A
:1028A00002AA694682E8D000114800F0A1F84FF66C
:1028B0008370CDE9000502AA694682E8D0000D4880
:1028C00000F096F84CF20370CDE9000502AA6946C3
:1028D00082E8D000084800F08BF807B0F0BD000097
:1028E0004C0000203838024000140240000802402A
:1028F0000018024000100240000C02402DE9F04197
:102900004FF4005188425FD1304C31480127627842
:10291000304E00259AB100F085F998B12079401C1D
:102920002071A0784006000EA07031682269891AD3
:10293000C91E012910D840F00100A0700CE000F081
:1029400071F908B1306806E030682169411A273909
:10295000022913D8677020612079072834D1A07824
:102960001A494006000EA0706279891D88548207BA
:102970004FEA006205D5002A08DA10E025613560CB
:10298000EAE7002A0BDB10F0300F08D000F054F912
:10299000E168411AB1F5FA7F0BD9277008E0227877
:1029A000012A03D1087048708870C87000F044F99B
:1029B000E0606079401CC0B26071032800D9657185
:1029C0002571356025616570BDE8F0817C050020CA
:1029D000000C02400C000020044910B50A680242B5
:1029E00002D00860FFF78AFF10BD0000143C0140D0
:1029F0002DE9F84FDFF8F8A10022012403254FF05C
:102A00000F090AF1040BAAF1040E00BF0B6804FAC7
:102A100002F63340B34270D10F7907F00307012F5C
:102A200001D0022F16D187684FEA420805FA08FC48
:102A300027EA0C07D1F80CC00CFA08FC4CEA070C8A
:102A4000C0F808C04768B7430E79C6F30016964031
:102A50003E4346600E79F643B6070AD0C7684FEA90
:102A6000420C05FA0CF6B7438E6806FA0CF63E43A4
:102A7000C6600E7906F00306022E10D1D60800EBD0
:102A80008608D8F8206057074FEAD76C09FA0CF788
:102A9000BE430F6907FA0CF73743C8F82070066881
:102AA0004FEA420C05FA0CF7BE430F7907F0030713
:102AB00007FA0CF7374307604E6816F4403F1CD006
:102AC0004C4E376847F480473760366822F003077A
:102AD00006F480460096484E07EB060CDCF80868C2
:102AE00097073F0F09FA07F826EA0806DFF80C8176
:102AF000404503D14FF0000841E072E0DFF800816B
:102B0000404502D14FF0010839E0DFF8F880404538
:102B100002D14FF0020832E0DFF8EC80404502D1EC
:102B20004FF003082BE0DFF8E480404502D14FF07E
:102B3000040824E0DFF8D880404502D14FF00508B2
:102B40001DE0DFF8D080404502D14FF0060816E0C6
:102B5000DFF8C480404502D14FF007080FE0DFF8EE
:102B6000BC80404502D14FF0080808E0DFF8B08093
:102B7000404502D14FF0090801E04FF00A0808FA79
:102B800007F848EA0608CCF80888DAF800605746E3
:102B9000D1F804C09E435FEACC2C00D51E433E60B2
:102BA000DBF800605F46D1F804C09E435FEA8C2CDE
:102BB00000D51E433E60DEF800607746D1F804C0C1
:102BC0009E435FEA8C3C00D51E433E60084F083FA1
:102BD0003E68D1F804C09E435FEACC3C00D51E435A
:102BE0003E60521C102AFFF411AFBDE8F88F0000C0
:102BF000083C0140443802400030014000000240DF
:102C00000004024000080240000C02400010024094
:102C10000014024000180240001C02400020024044
:102C2000002402400069084000D0012070470AB12A
:102C3000816170470904FBE7014880687047000024
:102C40005800002002488168027811448160704772
:102C5000580000200B4810B5016841F40071016074
:102C6000016841F480610160016841F48071016094
:102C7000032000F067FA0F2000F006F800F018FAC1
:102C8000002010BD003C024030B505461F4887B00B
:102C90000024016841F004010160006806A900F009
:102CA0000400009001A800F05BFC0498A8B100F0BB
:102CB00077FC40001649174AB0FBF1F11648491E4F
:102CC000026040F2E732C0E90324C0E901148461E4
:102CD00000F00EFF040003D015E000F061FCE9E70E
:102CE0000D4800F0D5FF04000DD11E2000F0FCF9C6
:102CF000102D07D2002229461E2000F003FA0748B3
:102D0000056000E0012407B0204630BD4038024095
:102D100040420F0000080040602000205C000020BE
:102D20002DE9F041044690F8A00016460F46012810
:102D30001DD0012584F8A050022084F8A10006EBE4
:102D4000860000EBC60004EB800034223830FDF72B
:102D5000DAFA32463946204601F00DFB206845621A
:102D600084F8A150002084F8A000BDE8F081022082
:102D7000FBE7000070B5040004D094F8A100002522
:102D800010B106E0012070BD84F8A050204600F08C
:102D90006BF8022084F8A1002068816921F070415D
:102DA0008161D4E901010843D4E9031211430843C6
:102DB00021688A691043886121688A68294802402D
:102DC0008A60A18A0A0421688B68A6693343134389
:102DD0008B602168CA680240CA60A18B0B0421681D
:102DE000CA68266A32431A43CA6021680A690240E7
:102DF0000A61A18C22680B041169A66A3143194348
:102E0000116121684A6902404A61A08D010420686D
:102E10004269236B1A430A43426194F835002168E2
:102E2000020294F83600CB6A03F07F43CB6221683C
:102E3000CB6A94F8346042EA004033430343CB62E8
:102E40002068416B41F0060141632068816941F0CF
:102E500001018161C4F8A450012084F8A100002080
:102E600070BD000000F800F02DE9F04792B0044674
:102E700014216846FDF760FA302105A8FDF75CFAD9
:102E80005949206888427DD14FF4A87009904FF4C9
:102E900080304FF0080803240E90CDF814800B9476
:102EA00005A800F099F908B1FEF7A4FE4F480025E7
:102EB000016841F080610160006800F0806011905D
:102EC0004A481438016841F020010160016801F0AE
:102ED00020011191016841F001010160016801F0D8
:102EE00001011191016841F002010160016801F0E6
:102EF00002011191016841F040010160016801F097
:102F000040011191016841F004010160016801F084
:102F100004011191016841F0080101600068022676
:102F200000F0080011904FF48060CDE90006CDE973
:102F300002540E27694604972D48FFF759FD41F6C4
:102F40005800CDE90006CDE90254694604972948A6
:102F5000FFF74EFDCDE90046DFF89CA0CDE9025415
:102F60004FF0090969465046CDF81090FFF740FD33
:102F70004FF47060CDE90006CDE90254694604972C
:102F8000504600E02DE0FFF733FD4FF40C60CDE933
:102F90000006DFF868A0CDE9025469460497504660
:102FA000FFF726FDC020CDE90006CDE902546946B1
:102FB00004971348FFF71CFDCDE90254CDE90086C4
:102FC000694610480497FFF713FD4FF4A050CDE970
:102FD0000006CDE902546946CDF810905046FFF73F
:102FE00007FD12B0BDE8F087006801404438024098
:102FF0000014024000000240000402400018024099
:1030000000080240000C024070B5044690F8A00091
:103010000E46012820D0012584F8A050022084F813
:10302000A10003EB830000EBC30004EB800141F837
:10303000386F886A3044C1E90102C86A1044C86028
:103040001A46204601F097F92068456284F8A1509D
:10305000002084F8A00070BD022070BD70B5044649
:1030600090F8A0000E46012820D0012584F8A05039
:10307000022084F8A10003EB830000EBC30004EB03
:10308000800151F8380F3044486088681044C860A7
:10309000C1E90A621A46204601F06DF920684562CE
:1030A00084F8A150002084F8A00070BD022070BDFB
:1030B0000C4882B0016841F480410160006800F46E
:1030C000804000900748001F016841F08051016076
:1030D0000068002200F0805000900F21901E02B086
:1030E00000F010B844380240002809DB00F01F024D
:1030F000012191404009800000F1E020C0F800115A
:1031000070470000F0B40E4B1B680C46C3F302235B
:10311000C3F10705042D00D90425191D072901D283
:10312000002300E0DB1E012606FA05F1491E2140BE
:1031300099409E40761E16403143F0BC02F0CABD55
:103140000CED00E0064900F0070208684FF6FF03A7
:10315000184040EA0220034A10430860704700000C
:103160000CED00E00000FA052DE9F843174801686E
:1031700041F0805101600068154F00F08050012639
:1031800000903E64FFF758FD05464FF47A78114CE5
:1031900005E000BFFFF750FD401B40450DD86068BB
:1031A000C003F7D57E64FFF747FD0546464607E0B6
:1031B000FFF742FD401BB04202D90320BDE8F8836F
:1031C00060688003F4D50020F8E700004038024032
:1031D00000000E42007000402DE9F84F04460068E0
:1031E000DFF824A2894F8A4DC1074FF001084FF044
:1031F000000603D1810701D4400648D5CAF86860AB
:10320000FFF71AFD814605E0FFF716FDA0EB090068
:1032100002287DD828680001F6D42078C1077D48AF
:1032200005D06168227A890141EA02710160217842
:10323000890711D501686268237B9201C1F302718D
:1032400042EA036242EA017101603968E26921F0F1
:103250001F01521E114339602178490608D5616863
:10326000227B890141EA0261227A41EA027101600E
:10327000CAF86880FFF7E0FC814605E0FFF7DCFC58
:10328000A0EB0900022843D828680001F6D5206881
:10329000410701D400074ED5CAF87060FFF7CCFC97
:1032A000814605E0FFF7C8FCA0EB090002282FD8F3
:1032B0002868C0438000F5D520784107564814D5CA
:1032C00001682269237D9201C1F3027142EA03621F
:1032D00042EA017101603968226A6FF0FF0321F44C
:1032E000F85103EB0222114339602178090712D506
:1032F00001682269C1F30361920142EA0161227E01
:1033000041EA027101603868616A20F4403000E0EF
:1033100051E008433860CAF87080FFF78DFC07461B
:1033200005E000BFFFF788FCC01B022843D82868CF
:10333000C0438000F6D42078800653D5344840300E
:10334000016841F0805101600068344D00F0805008
:103350000090286840F480702860FFF76DFC0746F5
:1033600005E000BFFFF768FCC01B022823D82868CF
:10337000C005F7D5274D143D286810F4407020D0C3
:10338000218D01F4407181421BD0286820F44071E6
:103390002348C0F80080066029602868C00710D064
:1033A000FFF74AFC064641F2883707E0FFF744FC86
:1033B000801BB84202D90320BDE8F88F2868800737
:1033C000F4D5A16A1248C1F301220830032A13D0B0
:1033D000016821F4F81101602868218DC1F30B0107
:1033E000084328602078C00604D50E4994F82C00C4
:1033F000C1F8E0010020DFE702680B4B22F4F8126D
:1034000019400A430260E7E7000047428C38024057
:103410000038024084380240883802400070004082
:10342000400E474200104742FFFCFF0F2DE9F047D6
:103430000E46050065D0DFF81481D8F80000F7B219
:1034400000F00F00B04207D288F80070D8F80000F2
:1034500000F00F00B04254D128683D4C810712D5CE
:10346000400703D5206840F4E0502060287800072A
:1034700003D5206840F4604020602068A96820F0EF
:10348000F000084320602878C0072DD030496868D4
:103490000839012812D0022813D0032811D0096856
:1034A000890700292DDA216821F0030101432160F9
:1034B000FFF7C2FB814641F2883A0EE009688903B2
:1034C000EFE709688901ECE7FFF7B6FBA0EB09011C
:1034D000514502D90320BDE8F0872068696800F0F3
:1034E0000C00B0EB810FEFD1D8F80010404601F08E
:1034F0000F01B14207D90770006800F00F00B04219
:1035000001D00120E7E72878400705D52068E96861
:1035100020F4E050084320602878000706D5206892
:10352000296920F4604040EAC100206000F058F8AA
:103530002168084AC1F30311515CC840064908607C
:1035400006480068FFF7A0FB0020C4E7003C0240EB
:10355000083802400C930308540000205C0000204F
:103560000F2202600C4A136803F0030343601368E0
:1035700003F0F0038360136803F4E053C360126840
:103580004FF4E05303EAD20202610448006800F0FD
:103590000F0008607047000008380240003C0240FD
:1035A0000448054900680968044AC1F38221515C56
:1035B000C840704754000020083802401C9303089C
:1035C0000448054900680968044AC1F34231515C66
:1035D000C840704754000020083802401C9303087C
:1035E000154810B5006810F00C02144813D04110B3
:1035F000042A0FD0082A0ED10F4C241F22682368FA
:1036000002F03F025B0207D52068C0F38810A0FBE0
:10361000010106E0084610BD2168C1F38811A1FB35
:1036200000010023FCF73EFE2168C1F30141491C63
:103630004900B0FBF1F010BD083802400024F4004E
:103640002DE9F84F04006ED02078DFF84C93C007C6
:10365000A9F104054AD009F104000168C1F3810110
:10366000012908D00068C0F3810002280AD1D9F8E6
:103670000000400206D52868800337D5606800281E
:10368000E1D033E06068B0F5803F10D0B0F5A02FF6
:10369000286810D020F480302860286820F480202A
:1036A00028606068A8B1FFF7C7FA06460DE02868F1
:1036B00040F48030F4E740F480202860F7E700BF52
:1036C000FFF7BAFA801B642873D828688003F7D5FF
:1036D0000CE0FFF7B1FA064605E000BFFFF7ACFAD1
:1036E000801B6428F0D828688003F7D42078DFF89E
:1036F000AC8280074FF0000A3ED5A748001D016844
:1037000011F00C0F08D00068C0F3810002280BD123
:10371000D9F80000400207D42868800716D5E06871
:10372000012800D112E033E1E068B8B10120C8F807
:103730000000FFF781FA064605E000BFFFF77CFABC
:10374000801B0228C0D828688007F7D5286821691F
:1037500020F0F80040EAC10028600DE0C8F800A0A1
:10376000FFF76AFA064604E0FFF766FA801B0228B4
:103770001FD828688007F7D42078000722D5864F05
:1037800087486169703771B101210160FFF754FA10
:10379000064604E0FFF750FA801B022809D8386873
:1037A0008007F7D50EE0C0F800A0FFF745FA0646FF
:1037B00005E082E0FFF740FA801B02287DD83868D8
:1037C0008007F7D42078400768D5DFF8CCB1002710
:1037D0000BF13C0BDBF80000C0000BD4DBF8001051
:1037E00041F08051CBF80010DBF80000012700F019
:1037F000805000906B4E3068C00510D4306840F4A3
:1038000080703060FFF718FA009005E0FFF714FAB7
:103810000099401A022850D83068C005F6D55E4E8F
:10382000A0686C3601280FD00528306810D020F031
:1038300001003060306820F004003060A068B8B14A
:10384000FFF7FAF900900FE0306840F00100F4E76C
:1038500040F004003060F7E7FFF7EEF90099411AF5
:1038600041F28830814266D830688007F4D50EE096
:10387000FFF7E2F9009007E0FFF7DEF90099411A3F
:1038800041F28830814256D830688007F4D42FB195
:10389000DBF8001021F08051CBF80010A069C8B30C
:1038A0003D49091D0968C1F3810102294AD0022856
:1038B000504607D0C8F8600000E03CE0FFF7BCF9D4
:1038C00004463BE04746C8F86000FFF7B5F90646F6
:1038D00005E000BFFFF7B0F9801B02282BD828684D
:1038E0008001F7D4D4E907010843A16A2E4A4908A8
:1038F00002EB0141626A41EA8211084394F82C10FC
:1039000040EA0161C9F8001001203866FFF794F918
:10391000044606E03EE000BFFFF78EF9001B0228D8
:1039200009D828688001F7D534E000BFFFF784F993
:10393000001B022802D90320BDE8F88F2868800107
:10394000F4D427E00128F7D0D9F80000E26900F4A8
:10395000800191421CD1226A00F03F01914217D1AF
:1039600047F6C071626A0140B1EB821F10D1A26AB2
:103970004FF0FF3300F4403103EB5202B1EB024F42
:1039800006D194F82C1000F07060B0EB016F01D0FC
:103990000120D1E70020CFE7043802400000474271
:1039A000800E4742007000400000FFFF70B50D46DA
:1039B000040003D094F82C0010B107E0012070BD82
:1039C000002084F82D00204600F011F8022084F831
:1039D0002C00211D2068FEF733FAD4E900022946A5
:1039E000FEF792FA012084F82C00002070BDFEF74B
:1039F00025BF10B5044690F82C00022804D094F896
:103A00002C00012801D0012010BD022084F82C00D8
:103A10002068FEF748FA012084F82C00002010BD31
:103A200070B5044690F82C000D46022804D00128F9
:103A300003D0052801D0012070BD022084F82C009D
:103A40002068FEF739FA2868022805D05FF00100E7
:103A500084F82C00002070BD0520F9E770477047FE
:103A600070B590F83C20012A32D0012480F83C4007
:103A7000022280F83D2003685A689D6822F0700693
:103A80000A6832435A60134B02689A4214D0B2F16A
:103A9000804F11D0104B9A420ED0104B9A420BD04F
:103AA0000F4B9A4208D00F4B9A4205D00E4B9A42C8
:103AB00002D00E4B9A4204D1496825F08003194385
:103AC000916080F83D40002180F83C10084670BDB0
:103AD000022070BD000001400004004000080040CA
:103AE000000C00400004014000400140001800406C
:103AF00010B5040003D094F83D0010B107E0012098
:103B000010BD002084F83C00204600F01FF8022081
:103B100084F83D00211D206801F078FD012084F823
:103B2000460084F83E0084F83F0084F8400084F8A2
:103B3000410084F8420084F8430084F8440084F88B
:103B4000450084F83D00002010BD000008B5026863
:103B50002B48B2F1804F0AD02A498A4216D1016817
:103B600041F002010160006800F0020018E0016805
:103B700041F0010101600068002200F001000090A6
:103B800005211C20FFF7BEFA1C2034E01E498A42A2
:103B900008D1016841F008010160006800F00800E8
:103BA000009008BD1649194B091D9A4207D10868B3
:103BB00040F002000860086800F0020014E0144BB6
:103BC0009A4207D1086840F480300860086800F421
:103BD0008030E5E70F498A42E3D1016841F04001B6
:103BE0000160006800F040000090002205212B20B9
:103BF000FFF788FA2B20BDE80840FFF775BA0000F0
:103C00004038024000040040000C00400004014025
:103C1000004001400018004090F83D10012901D0FB
:103C200001207047022180F83D1000681149884248
:103C300014D0B0F1804F11D00F4988420ED00F49F7
:103C400088420BD00E49884208D00E49884205D0E0
:103C50000D49884202D00D49884204D1816801F0A3
:103C60000701062903D0016841F00101016000202D
:103C700070470000000001400004004000080040C0
:103C8000000C0040000401400040014000180040CA
:103C900090F83D10012901D001207047022180F8E1
:103CA0003D100168CA6842F00102CA60006811490B
:103CB000884214D0B0F1804F11D00F4988420ED005
:103CC0000E4988420BD00E49884208D00D498842DF
:103CD00005D00D49884202D00C49884204D1816840
:103CE00001F00701062903D0016841F001010160DC
:103CF0000020704700000140000400400008004020
:103D0000000C004000040140004001400018004049
:103D100070B5044690F83C000025012817D0012614
:103D200084F83C60022084F83D002068826822F01C
:103D3000770222F47F4282600868502838D00DDC78
:103D400020284FD005DC90B3102811D14AE0022082
:103D500070BD302846D040280AD13BE060282FD0E3
:103D600070280DD0B0F5805F03D0B0F5005F12D0A1
:103D7000012584F83D60002084F83C00284670BD91
:103D8000CB68D1E90121206801F0B9FC2068816885
:103D900041F0770109E0CB68D1E90121206801F009
:103DA000AEFC2068816841F480418160E1E719E060
:103DB000CA684968206801F077FD5021206806E054
:103DC000CA684968206801F080FD6021206801F020
:103DD000A0FCCEE7CA684968206801F065FD402173
:103DE0002068F4E7226801461046F0E770472DE9A5
:103DF000F04104460068C66805694FF00007A9074E
:103E000013D5B10711D5F91E016101202077206873
:103E100080698007204602D0FFF7E8FF04E000F049
:103E2000E9F8204600F07BF92777680716D5700778
:103E300014D521686FF00400086102202077206803
:103E4000806910F4407F204602D0FFF7CFFF04E0E6
:103E500000F0D0F8204600F062F92777280715D542
:103E6000300713D521686FF008000861042020771F
:103E70002068C0698007204602D0FFF7B7FF04E042
:103E800000F0B8F8204600F04AF92777E80616D582
:103E9000F00614D521686FF0100008610820207723
:103EA0002068C06910F4407F204602D0FFF79EFFD3
:103EB00004E000F09FF8204600F031F92777E8078A
:103EC00008D0F00706D021686FF001000861204695
:103ED00000F08AF9280608D5300606D521686FF06B
:103EE000800008612046FFF7B9FD680608D5700616
:103EF00006D521686FF040000861204600F0D0F937
:103F0000A8060AD5B00608D521686FF02000086120
:103F10002046BDE8F041FFF7A2BDBDE8F0810000FA
:103F200030B587B0044614216846FCF705FA2468CA
:103F30000022294902232948B4F1804F11D0284D8D
:103F4000AC4221D1086840F0020008600868694668
:103F500000F00200059030200090CDE901322148A8
:103F600022E00C6844F001040C60096801F00101D2
:103F7000059101210091CDE90132CDE90321694686
:103F8000FEF736FD07B030BD174DAC420FD10C68BF
:103F900044F001040C60096801F00101059106215B
:103FA0000091CDE901326946CDE90323E8E70F48E6
:103FB0008442E7D1086840F010000860086869464C
:103FC00000F01000059040200090CDE90132032060
:103FD000CDE903200648D3E7303802400000024014
:103FE0000004004000040240000C0040004001407A
:103FF00000100240704770B5044690F83C0000265F
:104000000D4601280FD0012084F83C006AB1042A33
:104010001DD0082A2FD00C2A3FD00126002084F87A
:104020003C00304670BD022070BD206801F07AFB74
:104030002068816941F0080181612068816921F06F
:1040400004018161206881692A69114311E02068B7
:1040500001F098FB2068816941F40061816120686A
:10406000816921F480618161206881692A6941EA5E
:1040700002218161D2E7206801F0BAFB2068C169A2
:1040800041F00801C1612068C16921F00401C161EA
:104090002068C1692A69114311E0206801F0DCFB46
:1040A0002068C16941F40061C1612068C16921F4DF
:1040B0008061C1612068C1692A6941EA0221C16148
:1040C000ACE710B5040003D094F83D0010B107E050
:1040D000012010BD002084F83C00204600F01EF8AE
:1040E000022084F83D00211D206801F08FFA012094
:1040F00084F8460084F83E0084F83F0084F84000CD
:1041000084F8410084F8420084F8430084F84400B5
:1041100084F8450084F83D00002010BD70477047CA
:1041200010B50446022249B104290ED0082913D043
:1041300094F84100012816D0012010BD94F83E00EB
:104140000128F9D184F83E200FE094F83F000128BF
:10415000F2D184F83F2008E094F840000128EBD128
:1041600084F8402001E084F841200122206801F019
:10417000B9FA16492068164A884201D0904203D104
:10418000436C43F4004343642068884213D0B0F189
:10419000804F10D00F4988420DD00F4988420AD075
:1041A0000E49884207D0904205D00D49884202D07E
:1041B0000C49884204D1816801F00701062903D027
:1041C000016841F001010160002010BD00000140C4
:1041D000000401400004004000080040000C0040C2
:1041E000004001400018004010B504460068264910
:1041F000884201D1FEF726FD244A206824499042D6
:1042000039D14869401C48618868401C886048680A
:10421000401C48600869401C08618869401C88612E
:104220000A6A521C0A62CA69521CCA614A6A521C52
:104230004A628A6A521C8A62CA6A521CCA624A6B01
:10424000521C4A63134A1278042A08D0032A06D063
:1042500000228A63104A1278012A03D005E08A6B93
:10426000521CF6E70A6B521C0A6340F2DC52904281
:1042700001D901200870094A2068904202D1C8681B
:10428000401CC86010BD0000000800400004014050
:1042900000000020090300200C030020001800404B
:1042A000704770B5040004D094F84100002510B1A7
:1042B00006E0012070BD84F84050204600F024F84C
:1042C000242084F841002068C16821F40051C160B5
:1042D000204601F00DFB2068016921F49041016145
:1042E0002068416921F02A0141612068C16841F4D8
:1042F0000051C1606564202084F8410084F84200C8
:104300006563002070BD000010B586B0044614211E
:104310006846FCF711F814492068884221D11348F7
:104320000021026842F010020260006800F01000F4
:1043300005900E481438026842F0010202600068DD
:1043400000F0010005904FF4C06000900220CDE91C
:104350000101032003900720049069460448FEF7FA
:1043600047FB06B010BD0000001001404438024079
:1043700000000240FEE7F0B503688C88DD68C5F3F5
:104380000B452C442504882404EBC2141E5906F462
:1043900070461E5103680F68DE68C6F30B46761C34
:1043A0003E442E431E5104688B89E568C5F30A0517
:1043B0002B441D048C2303EBC213E65806F470460D
:1043C000E65004688F68E668C6F30A06761C3E4429
:1043D0002E43E6509423046803EBC213E55825F0FE
:1043E0000705E55005680C69EC5091F831300C7EFA
:1043F0001F0226069C24056804EBC21491F8323093
:1044000055F804C04FF0000C45F804C091F8305046
:1044100046EA03433D431D4303681D519823046846
:1044200003EBC213E55825F0FF05E55005684C691C
:10443000EC50A023046803EBC213E55840F2077662
:10444000B543E550D1E907452C430568EC50AC2352
:10445000046803EBC213E55844F803C005684C6ACE
:10446000EC500B698BB3012B32D0042B32D0022BD2
:1044700030D0032B2ED0072B2CD00123B02405687D
:1044800004EBC2142E5906F0E0262E51D1E9006546
:10449000AD1B0E8D5D435E43ED1C45EA064305688A
:1044A0002B51B423046803EBC213E5586FF30A05DC
:1044B000E5500468C96AE1500068842101EBC2112B
:1044C000425842F001024250F0BDFFE70423D5E715
:1044D0000323D3E70223D1E77FB5002415480094D6
:1044E000019402941249039401604FF48031C0E9B1
:1044F00001140461047680F820400F49C0E90A14D1
:104500000125C561C46080F830404561FDF703FEB8
:1045100008B1FDF76FFB0F20CDE900056946029455
:104520000448FDF743FD002801D0FDF763FB7FBD84
:1045300000200140A41C00200100000F0A4810B513
:10454000084901604FF4403141600221816000213F
:10455000C160FDF701FF002803D0BDE81040FDF762
:1045600049BB10BD00B002404C1D0020094808B5F1
:10457000016841F4800101600068002200F48000BD
:10458000009005213820FEF7BDFDBDE80840382029
:10459000FEF7AABD3038024000B587B01C2168463E
:1045A000FBF7CAFE1A481949012201600021C0E93F
:1045B00001120822C26010220261402242614FF4BF
:1045C000C072C0E906214FF40061016249004162F6
:1045D0004900816202200721CDE9000106210291F4
:1045E00003910421CDE90410069069460848FFF7BD
:1045F000DDF908B1FDF7FEFA25F0D7FF40F2DA2128
:104600000348FFF7F6F907B000BD0000400100A025
:104610008C1D002010B50B4A00210B4823F004FA32
:104620000A4C084A002160602432094823F0FCF952
:10463000044AA06048320021064823F0F5F9E06002
:1046400010BD0000A0920308D54E00083C000020D9
:10465000FD590008994C00082DE9F04F87B014214E
:104660006846FBF769FE80480024016841F01001AC
:104670000160016801F010010591016841F020011D
:104680000160016801F020010591016841F080019D
:104690000160016801F080010591016841F00401A9
:1046A0000160016801F004010591016841F0010118
:1046B0000160016801F001010591016841F002010A
:1046C0000160016801F002010591016841F04001BB
:1046D0000160016801F040010591016841F00801A5
:1046E00001600068DFF884A100F008000590002256
:1046F00010215046FEF79BFADFF874B14FF4207694
:10470000002231465846FEF792FA48F280170022FE
:1047100039465848FEF78BFA00224BF2CC01564836
:10472000FEF785FA00224FF486515448FEF77FFACF
:1047300000224FF4F0515248FEF779FA4FF4007915
:10474000002249464F48FEF772FA4FF0080801254B
:10475000CDF8008069465046CDE90145FEF748F99D
:1047600010200090CDE90154694650460394FEF7AD
:104770003FF90096CDE90154694658460394FEF787
:1047800037F90097CDE9015469463A480394FEF79A
:104790002FF90420CDE900050220CDE90204694685
:1047A0003548FEF725F94FF43040CDE900050326E2
:1047B000CDE9025669463048FEF71AF92803009001
:1047C000CDE9015469462D480394FEF711F96803B9
:1047D00000904FF44410CDE9010569462748FEF7E3
:1047E00007F94FF490500090CDE9015469462448F0
:1047F0000394FEF7FDF8B002CDE90005CDE90246CD
:1048000069461F48FEF7F4F8C02700970396CDE9E4
:10481000015469461948FEF7EBF8CDF80090CDE950
:104820000154694617480394FEF7E2F8CDF800807A
:10483000CDE90154694610480394FEF7D9F801AA5E
:104840001120009782E8610069460B48FEF7D0F816
:10485000002205212820FEF755FC2820FEF744FC05
:1048600007B0BDE8F08F0000303802400010024071
:10487000001402400000024000040240000C02400C
:10488000000802400018024010B58EB0342168467E
:10489000FBF752FD284827490024C0E900144FF0D7
:1048A00080518460C0E903410121416181611F2180
:1048B000C1611521016240F2FF11416240F23531C0
:1048C000816240F20921C16240F28531016380F8C2
:1048D000344080F8354080F83640FEF74BFA08B196
:1048E000FDF788F94FF4F070CDE900404FF44871BE
:1048F00002220294CDE90312FF22CDE905244FF4F0
:10490000C0620792072208924206CDE90A018DF89B
:10491000304009928DF831408DF8324000226946CE
:104920000548FEF7FDF9002801D0FDF763F90EB048
:1049300010BD000000680140C01D00201FB500210F
:1049400010480091019102910D4A03910260592291
:10495000C0E901216322C0E903218161FFF7C8F8A2
:1049600008B1FDF747F94FF48050009069460548BB
:10497000FFF7CEF9002801D0FDF73CF91FBD00007C
:1049800000180040D01F002010B58EB000240794FE
:10499000089409940A940B941C2168460C94FBF724
:1049A000CBFC1E484FF0804101605921C0E9011441
:1049B0004FF47A71C0E903148461FFF799F808B1E4
:1049C000FDF718F94FF48050079007A91348FFF737
:1049D0009FF908B1FDF70EF91048FFF772FB08B117
:1049E000FDF708F90B940BA90C480C94FFF738F865
:1049F00008B1FDF7FFF86020CDE900040294002221
:104A0000694606480494FFF7F6FA08B1FDF7F2F894
:104A10000248FFF785FA0EB010BD0000681E0020A6
:104A200010B58EB000240794089409940A940B944E
:104A30001C2168460C94FBF77FFC2248204901604A
:104A40005921C0E9011440F6C411C0E9031484617E
:104A5000FFF74EF808B1FDF7CDF84FF480500790FE
:104A600007A91848FFF754F908B1FDF7C3F815482E
:104A7000FFF727FB08B1FDF7BDF80B940BA9114810
:104A80000C94FEF7EDFF08B1FDF7B4F86020CDE916
:104A900000040294002269460A480494FFF7ABFA26
:104AA00008B1FDF7A7F8042269460648FFF7A3FA04
:104AB00008B1FDF79FF80348FFF732FA0EB010BDBA
:104AC00000040040B01E002010B58EB000240794F2
:104AD000089409940A940B941C2168460C94FBF7E3
:104AE0002BFC2248204901605921C0E9011441F200
:104AF0009F01C0E903148461FEF7FAFF08B1FDF7D6
:104B000079F84FF48050079007A91848FFF700F98B
:104B100008B1FDF76FF81548FFF7D3FA08B1FDF7B4
:104B200069F80B940BA911480C94FEF799FF08B192
:104B3000FDF760F86020CDE9000402940422694684
:104B40000A480494FFF757FA08B1FDF753F8082212
:104B500069460648FFF74FFA08B1FDF74BF80348DE
:104B6000FFF7DEF90EB010BD000C0040F81E00206B
:104B700010B586B000241748009401940294039461
:104B80000494134905940160B321C0E901144FF462
:104B90007A71C0E9031444618461FEF7A9FF08B18A
:104BA000FDF728F84FF48050009069460948FFF758
:104BB000AFF808B1FDF71EF8049404A90548059460
:104BC000FEF74EFF002801D0FDF714F806B010BD27
:104BD00000040140401F002010B58CB00024079451
:104BE000089409941C2168460A94FBF7A5FB1A480F
:104BF00018490160B321C0E901144FF4C871C0E93C
:104C000003148461FEF774FF08B1FCF7F3FF4FF45F
:104C10008050079007A91048FFF77AF808B1FCF711
:104C2000E9FF0D48FFF74DFA08B1FCF7E3FF6020FC
:104C3000CDE9000402940422694607480494FFF772
:104C4000DAF908B1FCF7D6FF0348FFF769F90CB0B1
:104C500010BD000000400140881F00200C4810B526
:104C60000A4901604FF416514160002181600C2215
:104C7000C160C0E904128161C161FFF712FB002825
:104C800003D0BDE81040FCF7B5BF10BD00100140D7
:104C900018200020FEE7FEE7044C2078012801D10F
:104CA00000F02EFC642022F084FEF6E73C00002099
:104CB0002DE9F05F214E07464FF4805B00225946F4
:104CC0003046FDF7B4FF4FF4005900224C464946E8
:104CD0003046FDF7ACFF4FF4004A00225146304603
:104CE000FDF7A5FF012221463046FDF7A0FF8025F4
:104CF000B04600244E462F424FF000023146404657
:104D000003D0FDF794FF012202E0FDF790FF00229F
:104D100051464046FDF78BFF012231464046FDF7E4
:104D200086FF641C6D08E4B2082CE4D35946404663
:104D3000BDE8F05F0122FDF77ABF000000040240E9
:104D40002DE9F05F214E07464FF4805B0022594663
:104D50003046FDF76CFF4FF4005900224C4649469F
:104D60003046FDF764FF4FF4004A012251463046B9
:104D7000FDF75DFF012221463046FDF758FF8025F3
:104D8000B04600244E462F424FF0000231464046C6
:104D900003D0FDF74CFF012202E0FDF748FF00229F
:104DA00051464046FDF743FF012231464046FDF79C
:104DB0003EFF641C6D08E4B2082CE4D3594640461B
:104DC000BDE8F05F0122FDF732BF000000040240A1
:104DD00070B51C4D1C4C86B02878012805D000F019
:104DE000C5F82878607106B070BD6079002501288B
:104DF0000FD00126CDE904561448CDE9000514482A
:104E000002950395027900F56273014632F0F8FFCE
:104E100066712078012801D100F0A0F90D480E49F3
:104E20000078A0710A68B2F5FA7FDCD90D600B49F1
:104E3000227851F822100029D5D006B0BDE8704084
:104E4000084700007F05002008030020FDDC020861
:104E5000983501207805002010000020B46409086E
:104E6000F0B5174B174A002519681748914200D929
:104E700005711649164F0E7813494A7A498901EB94
:104E800081014C003968042E03D00679012E10D020
:104E900013E00379012B07D0002B04D1002A02D0A4
:104EA00043720A204863F0BD012AFCD043724C6370
:104EB000F0BD012A01D046724C631D60F0BD0000B8
:104EC00030000020C0D40100080300205D05002050
:104ED000681E002086B019F0E7FB1E4D1E4C20789E
:104EE00010B101282CD02FE0286840F6AC51884240
:104EF0002AD21A494FF6FF72098801EB810102EAB2
:104F0000410140F2DC52904202D9154A12685163C5
:104F100040F67A51884217D9002001263221CDE986
:104F20000406CDE9020109210E48CDE900010E4831
:104F300000F56C730279014632F062FF267003E0DF
:104F4000FFF746FFFCF7ACFA21F01EF8052022F02F
:104F500030FDC4E7140000203C00002012030020B4
:104F6000681E0020FDDC020898350120F0B5754868
:104F7000734E0024007896F800C0734D87B0032864
:104F800013D0BCF1080F74D1308A401C80B230823B
:104F900078286ED93482F0796C49052875D80A785A
:104FA000904272D3411CF17171E0674A012302F50E
:104FB00061716420664F92F88823BCF10B0F1BD2FD
:104FC000DFE80CF01A060F1D263039431A4D590040
:104FD00005930290CDE90304CDE900742B1D5A48D6
:104FE00008E005930290CDE90304574BCDE9007426
:104FF000A033554832F004FF08203070C4E7059311
:105000000290CDE90304CDE90074524B4E48F1E71C
:1050100005930290CDE903044E4BCDE900748C3327
:105020004948E7E705930290CDE90304CDE9007410
:10503000494B4548DEE705930290CDE90304464B12
:10504000CDE90074843B4048D4E705930290CDE954
:105050000304414BCDE90074343B3B48CAE7059358
:105060000290CDE903043C4BCDE90074503336483F
:10507000C0E763E009E005930290CDE90304364BF5
:10508000CDE90074AC333048B4E70878F0710628F5
:1050900054D2DFE800F053031929353DD5F8A403B5
:1050A000012105F566751AF00DF80121A8681AF0BE
:1050B00009F8012168681AF005F8286807B001218D
:1050C000BDE8F04019F0FEBFD5F8A403012105F5B5
:1050D000667519F0F7FF0121A86819F0F3FF0121A7
:1050E000686819F0EFFF22E0D5F8A403012105F567
:1050F000667519F0E7FF0121A86819F0E3FF12E0D7
:10510000D5F8A403012105F5667519F0DBFF06E06B
:10511000D5F8A403012105F566751AF0D5FB012128
:10512000A8681AF0D1FB012168681AF0CDFB286845
:1051300007B00121BDE8F0401AF0C6BB07B0F0BDD2
:10514000080300205D050020983501207805002027
:1051500025A90208A8360120083801202DE9F05FB2
:10516000D94DDFF87483294668780222DFF85C9312
:10517000DFF85CB3DFF85CE389780026D74CD8F819
:1051800000304FF496674FF00C0A062850D2DFE843
:1051900000F00350D8F2F0EF302289B3EF81A8700D
:1051A000CFA0C8F800600068A8612A77A06E01212E
:1051B000183419F087FF0121A06E19F083FF012137
:1051C000E06E19F07FFF0121206F19F07BFF0121B4
:1051D000606F19F077FF0121A06F19F073FF0121B3
:1051E000E06F19F06FFF0121D4F8800019F06AFF19
:1051F000B5F90E10206A10F0A5FD54F8180913E057
:10520000FFE7B9482E72066040F2DC5083420FD3AC
:10521000EF81B3A0C8F800600068A8612A7739461A
:10522000A06B10F08FFDA069A749183118F0AAFFF4
:105230000FE1A870B3F5797F16D3E889401E00B25C
:10524000E881002802DAEE81032068700DF066FD27
:10525000B5F90E10A06B10F075FD9B49A0691831CF
:1052600018F090FFC8F800609F4F3868B0F5C87F0D
:10527000DED3287A06285BD2DFE800F05A030D243B
:10528000324454F8880F01211AF01EFB0121606896
:1052900019F018FF08E054F8880F01211AF014FBE8
:1052A000012160681AF010FB0121A06819F00AFFC3
:1052B0000121E06819F006FF20690121883C19F0FE
:1052C00001FF35E054F8880F01211AF0FDFA0121A1
:1052D00060681AF0F9FA0121A0681AF0F5FAE7E718
:1052E00054F8880F01211AF0EFFA012160681AF0D2
:1052F000EBFA0121A0681AF0E7FA0121E0681AF040
:10530000E3FAD9E754F8880F01211AF0DDFA0121F8
:1053100060681AF0D9FA0121A0681AF0D5FA0121C3
:10532000E0681AF0D1FA20690121883C1AF0CCFA21
:10533000287A052800D32E72287A401C28723E60F5
:1053400087E02E72A87054F8880F012119F0BAFE78
:105350000121606819F0B6FE0121A06819F0B2FEC3
:105360000121E06819F0AEFE01212069883C6CE063
:105370006EE01DE0FFE7032945D089F800208BF897
:1053800000A0A8708EF80060012258495848FCF728
:105390001FFB0121606D19F095FE0121A06D19F030
:1053A00091FE0121A06E1AF08FFAD4F880001BE064
:1053B000042928D089F800208BF800A0A8708EF866
:1053C0000060012249494A48FCF702FB0121606D57
:1053D00019F078FE0121A06D19F074FE0121A06E74
:1053E0001AF072FAD4F8840001211AF06DFA012142
:1053F000206E1AF069FA0221206E1AF065FA022175
:10540000A0681AF061FA3B480068B0F5FA6F20D93D
:105410006E7033A1A06918F0B5FE3946A06B10F08C
:1054200091FC0121A06E19F04DFE0121D4F88000FD
:1054300019F048FE0121D4F8840019F043FE02213E
:10544000206E19F03FFE0221A06819F03BFE00E03B
:10545000A870294F40F28F283878012812D00228EE
:105460002FD1A889143880B2A881462802D24620BC
:10547000A8813E70A9894246A06DBDE8F05F09B2DF
:105480001DF022BC1D480068B0F5FA7F19D9012132
:10549000606C1AF019FA0121E06B1AF015FA01217B
:1054A000206E19F00FFE0121606D19F00BFE012135
:1054B000A06D19F007FE42464621A06D1DF004FCC8
:1054C0003E70BDE8F09F0000080300205105002059
:1054D000500500205D0500200400002098350120C3
:1054E00032303A30300000003400002078050020CF
:1054F00000001C0838000020E802002028000020DE
:1055000010B500F0BDFBBDE81040FFF7A9BC10B519
:105510004FF0E020006933F0F1FC012803D0BDE832
:10552000104033F01FBA10BD30B593B0302168463B
:10553000FAF702FF14210CA8FAF7FEFE2048002516
:10554000016841F080510160006800F080501190C6
:105550001C48016841F4404101600068022400F4E5
:105560004040119001200090000401908001CDE99D
:105570000640082008904FF4B470CDE909040420D7
:105580000B906846FEF75CF808B172B6FEE7FDF7CF
:10559000EBFD08B172B6FEE70CA90F2081E83100DF
:1055A0004FF4A0500F904FF48050109005210CA89C
:1055B000FDF73CFF002801D072B6FEE713B030BD06
:1055C00040380240007000400248016841F4700118
:1055D0000160704788ED00E00148FEF708BC00005C
:1055E000681E00200148FEF702BC00006020002079
:1055F00010B50448FEF7FBFBBDE810400248FEF77B
:10560000F6BB0000401F0020D01F0020F0B502684C
:10561000294C2A4D2A4E2B4F2B4B4FF0804CA04249
:1056200009D0604507D0A84205D0B04203D0B842A7
:1056300001D0984204D122F0700E4A6842EA0E026C
:10564000A0421BD0604519D0A84217D0B04215D057
:10565000B84213D0984211D01C4DA8420ED01C4D18
:10566000A8420BD01B4DA84208D01B4DA84205D024
:105670001A4DA84202D01A4DA84203D122F4407517
:10568000CA682A434D6922F080022A4302608A6870
:10569000C2620A688262A04201D0984201D10969BF
:1056A0000163012141610169C90703D0016921F04A
:1056B00001010161F0BD0000000001400004004054
:1056C00000080040000C0040000401400040014080
:1056D000004401400048014000180040001C004008
:1056E0000020004010B501F01F030121046A994019
:1056F0008C430462016A9A401143016210BD10B5E7
:10570000846842EA032224F47F440A4322438260ED
:1057100010BD826822F070020A4342F007018160E6
:1057200070470000F0B5036A026A22F001020262CB
:1057300042688469124E24F073050C682C4323F0F0
:1057400002058B682B430D4DA84201D0B04205D114
:1057500023F00807CB683B4323F00403A84201D0A1
:10576000B04205D14D6922F4407215438A692A433B
:1057700042608461496841630362F0BD00000140FA
:1057800000040140F0B5026A036A23F010030362CB
:10579000436884690D6824F4E64444EA05248D686E
:1057A00022F0200242EA05120F4D104EA84201D00D
:1057B000B04206D1CF6822F0800242EA071222F0FE
:1057C0004002A84201D0B04207D14D6923F44063A2
:1057D00043EA85038D6943EA850343608461496830
:1057E00081630262F0BD000000000140000401403E
:1057F000F0B5026A036A23F4807303624368C469E4
:1058000022F4007224F073050C68124E2C438D684C
:1058100042EA05220E4DA84201D0B04206D1CF681F
:1058200022F4006242EA072222F48062A84201D0F8
:10583000B04207D14D6923F4405343EA05138D6903
:1058400043EA05134360C4614968C1630262F0BD65
:10585000000001400004014030B5046A026A22F4ED
:10586000805202624268C3690D6823F4E64343EA4A
:1058700005238D6824F4005444EA0534084DA842F9
:1058800002D0084DA84204D14D6922F4804242EA78
:1058900085124260C36149680164046230BD000042
:1058A000000001400004014010B5036A046A24F0BE
:1058B00001040462846924F0F00444EA021423F031
:1058C0000A020A438461026210BD10B5036A046AC9
:1058D00024F010040462846923F0A00324F47044CB
:1058E00044EA023243EA01118261016210BD000004
:1058F00070B5044600680169E26821F44051114323
:1059000001612169A068E2690843616911430843A4
:105910002168CA6849F20C639A430243CA6020684E
:105920004169A26921F44071114341613149206804
:10593000884202D03049884202D1FDF741FE01E0A1
:10594000FDF72EFEE2690023192164253226B2F507
:10595000004F626828D0A0FB0101930F9200FAF774
:10596000A1FC0146B0FBF5F06FF01802504301EBCB
:10597000800006EB0010B0FBF5F000F0F002B1FB88
:10598000F5F002EB0012B1FBF5F06FF0180358438D
:1059900001EB800006EB0010B0FBF5F000F00F000B
:1059A00021681044886070BDA0FB010192185B4122
:1059B000FAF778FC0146B0FBF5F00201B1FBF5F017
:1059C0006FF01803584301EB800006EBC000B0FBFA
:1059D000F5F000F0F80002EB4002B1FBF5F058439F
:1059E00001EB800006EBC000B0FBF5F000F0070013
:1059F000D6E700000010014000140140FCF78AF8CF
:105A0000FBF728FFFCF764F8FBF7B0FC094C00BF7C
:105A1000FBF774FF2078012807D1FBF7C1FBFBF7E8
:105A200023FEFCF755F800F0A5F8142021F0C1FF83
:105A3000EEE700003C0000202DE9F04122223F4922
:105A40003F48FBF7AFFF01223E493F48FBF7AAFF63
:105A50003C490122891E3D48FBF7A4FF37493948DC
:105A6000801C0C7804708A7842700B7983700C3833
:105A7000DD2C03D1EE2A01D1FF2B23D0542202705A
:105A800042700A228270324A0261426140F224422C
:105A90008261304BCC89304D1C80082205EB4207D7
:105AA00031F81260521CD2B227F8106C202AF5D3BC
:105AB0002A4A11F8405F2A4E157089783170FF2DFF
:105AC00016D017E08A7902700B7A43708C7A847052
:105AD0004FF4FA6502F2272212FB05F203F22723A4
