:020000040800F2
:10000000C0C000204D030008514F000815440008EF
:100010004D4F0008790C0008E5580008000000006A
:100020000000000000000000000000008D02000839
:10003000970D000800000000E90200085F4F00086B
:1000400067030008670300086703000867030008E8
:1000500067030008670300086703000867030008D8
:1000600067030008670300086703000867030008C8
:1000700067030008670300086703000867030008B8
:1000800067030008670300086703000867030008A8
:100090006703000867030008670300086703000898
:1000A0006703000867030008670300086703000888
:1000B000495000086703000859500008670300080A
:1000C0006703000867030008670300086703000868
:1000D0006703000867030008670300086703000858
:1000E0000913000867030008670300086950000847
:1000F0006703000867030008670300086703000838
:100100006703000867030008670300086703000827
:100110006703000867030008670300086703000817
:100120007D0C0008670300086703000867030008E8
:1001300067030008670300086703000867030008F7
:1001400067030008670300086703000867030008E7
:1001500067030008670300086703000867030008D7
:1001600067030008670300086703000867030008C7
:100170006703000867030008670300080000000029
:1001800067030008670300086703000867030008A7
:100190006703000867030008670300086703000897
:1001A00067030008670300086703000800F002F80F
:1001B00000F05CF80AA090E8000C82448344AAF1A5
:1001C0000107DA4501D100F051F8AFF2090EBAE8A3
:1001D0000F0013F0010F18BFFB1A43F0010318477B
:1001E00088800000A88000000A444FF0000C10F83E
:1001F000013B13F0070408BF10F8014B1D1108BFA5
:1002000010F8015B641E05D010F8016B641E01F844
:10021000016BF9D113F0080F1EBF10F8014BAD1C94
:100220000C1B09D16D1E58BF01F801CBFAD505E0B2
:1002300014F8016B01F8016B6D1EF9D59142D6D30C
:10024000704700000023002400250026103A28BF34
:1002500078C1FBD8520728BF30C148BF0B60704738
:100260001FB507F070FF1FBD10B510BD00F0D0F92D
:100270001146FFF7F5FF05F057FB00F0EEF903B468
:10028000FFF7F2FF03BC00F0F5F900002C4B1968F2
:100290000868B0E8F04F80F30988BFF36F8F4FF024
:1002A000000080F3118870470000000008480068D3
:1002B000006880F308884FF0000080F3148862B66D
:1002C00061B6BFF34F8FBFF36F8F00DF00BF00BF7A
:1002D00008ED00E0DFF80C00016841F470010160F6
:1002E000704700BF88ED00E0EFF30980BFF36F8F28
:1002F000134B1A681EF0100F08BF20ED108A20E97A
:10030000F04F106009B44FF0500080F31188BFF334
:100310004F8FBFF36F8F06F0D7FC4FF0000080F3D4
:10032000118809BC19680868B0E8F04F1EF0100F7A
:1003300008BFB0EC108A80F30988BFF36F8F704755
:100340002C000020EFF3058070470000094880472B
:1003500009480047FEE7FEE7FEE7FEE7FEE7FEE7A7
:10036000FEE7FEE7FEE7FEE704480549054A064BBF
:100370007047000035500008AD010008C0BA0020E9
:10038000C0C00020C0BC0020C0BC002053EA020C4A
:1003900000F069802DE9F04B4FF00006002B1FBFE5
:1003A000B3FA83F503FA05F424FA05F65E4012BFAA
:1003B0001643B2FA82F502FA05F4C5F120051EBF14
:1003C00022FA05FC44EA0C04203556EA044C4FEAB4
:1003D000144418BF641C4FF000084FF0000990420D
:1003E00071EB030C39D3002919BFB1FA81F701FA77
:1003F00007F6B0FA80F700FA07F6C7F120071EBF2C
:1004000020FA07FC46EA0C062037B6FBF4FCA7EB03
:100410000507103F07F01F0BCBF120060CFA0BFB72
:100420002CFA06F644BFB3460026202FA4BF5E4632
:100430004FF0000B5BEA060C08BF4FF0010B19EB05
:100440000B09ABFB027C48EB0608C01B06FB02CC89
:100450000BFB03CC71EB0C01C1E70B460246414696
:100460004846BDE8F08B13B54FF000004FF0000197
:10047000AFF30080BDE81C407047032A40F2308093
:1004800010F0030C00F0158011F8013BBCF1020FD5
:10049000624498BF11F801CB00F8013B38BF11F856
:1004A000013BA2F1040298BF00F801CB38BF00F86D
:1004B000013B11F0030300F02580083AC0F00880EA
:1004C00051F8043B083A51F804CBA0E80810F5E7CE
:1004D000121D5CBF51F8043B40F8043BAFF30080B1
:1004E000D20724BF11F8013B11F801CB48BF11F826
:1004F000012B24BF00F8013B00F801CB48BF00F8F6
:10050000012B704710B5203AC0F00B80B1E81850AD
:10051000203AA0E81850B1E81850A0E81850BFF4ED
:10052000F5AF5FEA027C24BFB1E81850A0E818508C
:1005300044BF18C918C0BDE810405FEA827C24BFE0
:1005400051F8043B40F8043B08BF7047D20728BF6E
:1005500031F8023B48BF11F8012B28BF20F8023BBD
:1005600048BF00F8012B704702F0FF0343EA032263
:1005700042EA024200F02CB84FF0000200B51346E8
:1005800094469646203922BFA0E80C50A0E80C50B3
:10059000B1F12001BFF4F7AF090728BFA0E80C5064
:1005A00048BF0CC05DF804EB890028BF40F8042B5D
:1005B00008BF704748BF20F8022B11F0804F18BFCA
:1005C00000F8012B70477047704770474FF00002EA
:1005D0000429C0F0128010F0030C3FF4CFAFCCF12F
:1005E000040CBCF1020F18BF00F8012BA8BF20F8C3
:1005F000022BA1EB0C01FFF7C1BF5FEAC17C24BF56
:1006000000F8012B00F8012B48BF00F8012B7047C0
:10061000754600F02BF8AE4605006946534620F0BB
:100620000700854618B020B5FFF79EFEBDE82040C4
:100630004FF000064FF000074FF000084FF0000B9E
:1006400021F00701AC46ACE8C009ACE8C009ACE851
:10065000C009ACE8C0098D46704710B50446AFF339
:1006600000802046BDE81040FFF709BE00487047F3
:1006700060BA002001491820ABBEFEE72600020048
:100680007047002001E0411C88B20228FBDB704764
:1006900070B504460D46054A32F81410044A52F863
:1006A00024002A4602F014F870BD0000F800002073
:1006B0000401002010B5044601212046FFF7E8FFA1
:1006C0000121204600F006F80121204600F014F830
:1006D00010BD000070B504460D46054A32F81410EE
:1006E000044A52F824002A4601F0F2FF70BD0000CF
:1006F000FC0000200C01002070B504460D46054AA0
:1007000032F81410044A52F824002A4601F0E0FF9F
:1007100070BD0000000100201401002070B50646E5
:100720000C46002501213046FFF7D4FF0121304659
:10073000FFF7AEFF00213046FFF7AAFF00BF1AE027
:1007400004F4004020B101213046FFF7D5FF03E05B
:1007500000213046FFF7D0FFFFF793FF002130461E
:10076000FFF7B8FFFFF78DFF01213046FFF7B2FF1B
:100770006400681CC5B2102DE2DB01213046FFF792
:1007800087FF70BD2DE9F0412DED068B80460C46AC
:10079000B0EE408AF0EE608A9FED1C0BB0EE40AAEE
:1007A000F0EE60AAB0EE489AF0EE689A9FED190B51
:1007B00053EC102B51EC190B07F0BCF941EC190B61
:1007C00053EC1A2B51EC190B07F04EFB41EC190BB3
:1007D00051EC190B07F006FB06463746C7F30D0729
:1007E000B513C5F30D05274325434FF40451404687
:1007F000FFF794FF39464046FFF790FF29464046F1
:10080000FFF78CFFBDEC068BBDE8F081CE98ED784C
:10081000082677410000000080842E412DE9F04138
:1008200007460C46154626462E4331463846FFF706
:1008300075FFBDE8F0812DE9F04180460C46154674
:100840001E46002747EA0400284340EA06073946C7
:100850004046FFF763FFBDE8F0812DE9F0472DED3D
:10086000028B81460C46B0EE408AF0EE608A154657
:100870009846DDF828A04FF480714846FFF74EFFF8
:100880004FF404514846FFF749FFA1B2B0EE480AC1
:10089000F0EE680A4846FFF775FF1FFA88F2A9B222
:1008A0004846FFF7BBFFB4F5804F01D1002601E0B9
:1008B0004FF40066B5F5404F01D1002701E04FF439
:1008C00080673B46324651464846FFF7B4FFBDECD1
:1008D000028BBDE8F08770B50546AC6B206C00F06C
:1008E000500050BB206C40F4007020642068806889
:1008F00000F04050E8B9207ED8B92068C06A00F402
:10090000700020B12068806800F4806088B9206899
:10091000406820F0200021684860206C20F480703E
:100920002064206C00F4805018B9206C40F0010065
:100930002064204600F0EEFF0BE0206C00F0100079
:1009400018B1204600F0E8FF03E0A06BC16C284618
:10095000884770BD70B50546AC6B40202064606C64
:1009600040F004006064204600F0D6FF70BD70B512
:100970000446A56B284600F0CEFF70BD55494A6875
:1009800022F440324A604A6843681A434A60026867
:10099000526822F4807203685A60026853680269E0
:1009A00043EA022203685A600268526822F04072E9
:1009B00003685A600268526883681A4303685A6081
:1009C0000268926822F4006203689A600268926882
:1009D000C3681A4303689A603F4B826A9A4218D0F0
:1009E0000268926822F0706203689A6002689268F6
:1009F000836A1A4303689A600268926822F0405240
:100A000003689A6002689268C36A1A4303689A602E
:100A10000BE00268926822F0706203689A600268D4
:100A2000926822F0405203689A600268926822F04D
:100A3000020203689A6002689368027E43EA4202F7
:100A400003689A602022125CA2B10268526842F4E4
:100A5000006203685A600268526822F460420368C8
:100A60005A6002685368426A521E43EA423203687F
:100A70005A6005E00268526822F4006203685A6016
:100A80000268D26A22F470020368DA620268D36AEA
:100A9000828B521E43EA02520368DA62026892684D
:100AA00022F4007203689A600268936890F830201C
:100AB00043EA422203689A600268926822F48062E4
:100AC00003689A6002689368426943EA8222036875
:100AD0009A607047002301400100000F70B5024684
:100AE0000B460021002400260025DFED1D0AB0EE94
:100AF000600A032B01DA002070BD148816880121DA
:100B00000DE032F81100A04201DD32F8114032F858
:100B10001100B04201DA32F81160481CC1B29942AA
:100B2000EFDB002104E032F811000544481CC1B29B
:100B30009942F8DB281B001B00EE900AB8EE601A01
:100B4000981E00EE900AF8EEE00AC1EE201AB0EE10
:100B5000610AFCEEC00A10EE900A80B2CCE70000F9
:100B60000000000040480078012825D13F4991F954
:100B7000000000EBD0714910A0EB410121B9B42075
:100B80003B490968886303E00020394909688863A4
:100B900036480078401E40B234490870084690F943
:100BA000000000285FDA00203149096888632F4976
:100BB00008702D49087056E02B480078022852D161
:100BC0002A4991F90000C11700EB91718910A0EB3F
:100BD000810119BB27480078401C26490870084647
:100BE0000078032832DD00200870204991F90000C8
:100BF00000EBD0714910A0EB410121B9B4201C4990
:100C00000968886303E00020194909688863174868
:100C10000078401E40B21549087017E0134991F959
:100C2000000000EBD0714910A0EB410121B9B420C4
:100C30000F490968886303E000200D49096888634B
:100C40000A480078401E40B208490870074890F9E9
:100C50000000002807DA0020054909688863034975
:100C60000870014908707047250100202401002008
:100C70000C1900202601002000BFFEE710B5024835
:100C800001F006F810BD000070160020014608783B
:100C900010381823B0FBF3F20848805CC865032ABB
:100CA00005D908686FF30900001D886503E008682E
:100CB0006FF309008865886D70470000BC810008EB
:100CC000014600208A6A8B69CBB932B1012A0DD066
:100CD000022A03D0032A10D10EE000BFCB6A03F032
:100CE0008073B3F1807F00D1012007E0CB6AB3F1BC
:100CF000C07F00D1012001E000E000BF34E08B693B
:100D0000B3F5005F1AD132B1012A07D0022A03D00D
:100D1000032A11D10AE000BF01200EE0CB6A03F0E4
:100D20008073B3F1807F00D1012006E0CB6AB3F17C
:100D3000C07F00D1012000E000BF15E032B1012AE0
:100D400005D0022A04D0032A0CD103E000BF00BF63
:100D5000012008E0CB6A03F08073B3F1807F00D1FB
:100D6000012000E000BF00BF704730B50468246870
:100D700024F4802405682C60046863608468402C37
:100D800004D10468A2600468E16003E00468A16023
:100D90000468E26030BD704770B5002400BF57485A
:100DA0000078062811DA02205549087001F096FCF7
:100DB000044654480068201AB0F57A7F11D951488A
:100DC00004600120504908700BE04F48007801286A
:100DD00002D104204A49087001F080FC04464948C9
:100DE00004604A480078642110FB01F5444800780B
:100DF000052876D2DFE800F0032D545A76004448E7
:100E000000684AF6C871884205D904203C49087038
:100E100000203F4908600021052000F0A3F90021CF
:100E2000084600F09FF90021012000F09BF9002105
:100E3000022000F097F90020364909688863354997
:100E40000968C86334490968486333490968886395
:100E500052E032480078012801D131490870002061
:100E60002B4908600021052000F07CF9002108468C
:100E700000F078F90021012000F074F9002102202F
:100E800000F070F900202349096888632149096846
:100E9000C8632149096848631F49096888632BE0D2
:100EA00000201B49086000F037F925E001201B49AC
:100EB00008700020164908600121052000F052F951
:100EC0000121002000F04EF90121022000F04AF932
:100ED000114800684563134800680E490968886333
:100EE0000AE008E00121082000F03CF90121072078
:100EF00000F038F900E000BF00BF70BD5B010020CA
:100F00004D010020500100204E0100204C01002026
:100F1000400100207C1800203418002030010020FF
:100F2000310100203C01002010B501220249034894
:100F300000F08AFD10BD00001C01002028160020D2
:100F400010B52DED068B00249FED2D0AB0EE408AE2
:100F500001222C492C4800F077FD2A4890ED000A28
:100F6000B8EE400ADFED290A20EE200ADFED280A5C
:100F700080EE201AB0EE418A18EE100A07F072F8DF
:100F800041EC1A0B9FED230B53EC102B06F0D2FD16
:100F900041EC190B06F09CFD08EE100A1F48007882
:100FA00080B900BF08E0BCEEC80A10EE100A1C4968
:100FB00021F81400601CC4B20F2CF4DB0120174987
:100FC000087014E0BCEEC80A10EE100A81B2154891
:100FD00002780078401C134B1870114820F812104A
:100FE000184600780E2802DD0020194608700F21EF
:100FF0000B48FFF773FD0C490880BDEC068B10BD54
:10100000000000001C0100202816002000404E4572
:1010100000008045F2D24D621058E53F22010020C9
:1010200020BA002023010020200100202DE9F041FA
:1010300005460E4617460024A04601F0CBF8A84608
:1010400000BF07E0D8F8000026F8140008F10208F5
:10105000601CC4B2BC42F5DB01F066F8BDE8F0816B
:101060002DE9F04F87B005460F4690460024A34671
:10107000A146A246022627484068A84207D925482B
:101080008069A84203D2012007B0BDE8F08F01F0CB
:10109000A1F8002412E01F4800EB04104068A842A9
:1010A0000AD81C4800EB04108068A84204D31948F1
:1010B00000EB0410D0F800B0601CC4B2022CEADBD4
:1010C0000020019001200490CDF80CB00220059082
:1010D00006A901A800F0D0FF06460EB13046D3E7BE
:1010E000A94600240FE037F814A0524600234946D1
:1010F000012001F023F806460EB13046C4E709F19D
:101100000209601CC4B24445EDDB01F00DF8304625
:10111000BAE70000E881000810B50021072000F0C0
:1011200021F80121062000F01DF80021052000F023
:1011300019F80021084600F015F80021032000F0FE
:1011400011F80021042000F00DF80021082000F023
:1011500009F80021012000F005F80021022000F02C
:1011600001F810BD2DE9F04104460D46064850F83F
:10117000346000EBC40087882A463946304601F0C7
:10118000A7FABDE8F0810000088200080020344979
:101190000978334A5278914261D131494978304ACD
:1011A000927891425BD12E4989782D4AD27891422A
:1011B00055D12B490978802903D0294909788429F8
:1011C00003D1AA21274A117017E02549097801F0B7
:1011D000020161B92249097801F08001802906D114
:1011E0001F49097801F0F0011E4A117005E01C4901
:1011F000097801F070011B4A11701A490978802999
:1012000021D00BDC202916D003DC81B1102922D19A
:101210000FE0302911D070291DD110E0902914D091
:10122000A02914D0AA290CD0B02914D111E0012092
:1012300012E0022010E003200EE004200CE0052064
:101240000AE0062008E0072006E0082004E0092064
:1012500002E00A2000E000BF00BF034908707047A9
:1012600057010020600100205B010020002006499A
:101270000968886304490968C863044909684863C0
:1012800002490968886370477C18002034180020E0
:1012900000B52DED028B81B0FFF73EFFFFF7E6FFB3
:1012A0000020FFF707FA0120FFF704FA144800684E
:1012B00006F0C7FD41EC180B022083024FF4604298
:1012C000B0EE480AF0EE680A410300900020FFF7F4
:1012D000C4FA0C48006806F0B4FD41EC180B02207B
:1012E00083024FF46042B0EE480AF0EE680A410310
:1012F00000900120FFF7B1FA01B0BDEC028B00BDF8
:10130000340100203801002010B54FF4005001F0E6
:10131000C1F810BD72B600BFFEE7000010B5002294
:1013200001B909E0012901D10A0205E0022901D130
:101330000A0201E04FF440720B2800D9001D0E4B49
:101340001B6823F440730C4C236023461B68134333
:10135000236023461B6823F0F803236023461B68A1
:10136000022444EAC0042343034C236023461B6841
:1013700043F48033236010BD103C02401C480068D9
:1013800000F40070B0B11A48006820F400701849E9
:10139000086000BF0846006840F400600860084626
:1013A000006820F40060086000BF0846006840F450
:1013B000007008600E48006800F48060B0B10C480E
:1013C000006820F480600A49086000BF0846006891
:1013D00040F4805008600846006820F4805008609F
:1013E00000BF0846006840F4806008607047000055
:1013F000003C0240134A126822F44072114B1A60FA
:10140000032906D11A461268DB131A430D4B1A60E2
:101410000EE0012906D10B4A126842F00402094B82
:101420001A6005E0074A126842F40042054B1A6050
:10143000044A12684FF4803343EA00231A43014BF5
:101440001A607047103C0240074A126822F440724A
:10145000054B1A601A4612681A601A46126842F062
:1014600001021A6001707047103C024010B50A4931
:10147000096821F44071084C21602146096841F453
:10148000407121602146096841F00101216002603C
:10149000BFF36F8F436010BD103C0240084A1268D2
:1014A00022F44072064B1A601A46126842F48072A7
:1014B0001A601A46126842F001021A6001807047F1
:1014C000103C0240084A126822F44072064B1A602F
:1014D0001A46126842F400721A601A46126842F004
:1014E00001021A6001607047103C02402A480068FF
:1014F00000F0100040B12948C06940F010002749B1
:10150000C8611020244908602348006800F02000CA
:1015100040B12248C06940F008002049C86120203D
:101520001D4908601C48006800F0400040B11B489D
:10153000C06940F004001949C8614020164908609C
:101540001548006800F0800040B11448C06940F0C0
:1015500002001249C86180200F4908600E480068E7
:1015600000F4807048B10D48C06940F001000B499B
:10157000C8614FF48070084908600748006800F0AF
:10158000020040B10548C06940F020000349C8612D
:1015900002200149086070470C3C02402C1A0020D0
:1015A00070B50446002500201449C86101F096F882
:1015B000054609E0601C38B124B101F08FF8401BEA
:1015C000A04201D9032070BD0D48006800F48030AE
:1015D0000028EFD10A48006800F0010010B1012096
:1015E000074908600648006800F4F97018B1FFF771
:1015F0007DFF0120E7E70020E5E700002C1A00202E
:101600000C3C024002460868B0B9D1E90103184316
:10161000CB6818430B6918434B6918438B6918430F
:10162000CB6918430B6A18434B6A184313686FF36E
:101630000E031843106019E0D1E9070318434B6A01
:101640001843136823F4F84318431060D1E90103E9
:101650001843CB6818430B6918434B6918438B69CF
:10166000184353686FF30E0318435060002070470F
:101670000246506943F6FE73984340EA41005061C8
:10168000002070472DE9F04105460C46164600271C
:10169000D4E900010843A168491E40EA4110E1680D
:1016A00040EA412029696FF315010843286101F0E0
:1016B00015F807460AE0701C40B126B101F00EF89B
:1016C000C01BB04202D90320BDE8F081A86900F038
:1016D00020002028EFD00020F6E7000030B50346B8
:1016E000FAB90868401E4C68641E40EA0414886811
:1016F000401E44EA0024C868401E44EA0034088AB8
:10170000401E44EA0044888A401E44EA0054087E91
:10171000401E44EA00609C6804F0704420439860D6
:1017200022E0C868401E0403888A401E44EA005034
:101730009C680E4D2C40204398600868401E4C6801
:10174000641E40EA04148868401E44EA0024088AA3
:10175000401E44EA0044087E401E44EA0060DC6803
:1017600004F070442043D860002030BDFF0F0FFF0D
:1017700038B502460020009000BF92F83C000128D6
:1017800001D1022038BD012082F83C0000BF08686A
:10179000092816D91068C0680C780A3C04EB440587
:1017A0000724AC40A0431468E0600C780A3C04EBCA
:1017B00044048868A0401468E46820431468E0602A
:1017C00013E0106800690C7804EB44050724AC4072
:1017D000A043146820610C7804EB44048868A0409E
:1017E000146824692043146820614868072817D2C8
:1017F0001068406B0C79641E04EB84051F24AC4018
:10180000A04314686063088880B20C79641E04EBFE
:101810008404A0401468646B20431468606331E062
:1018200048680D2817D21068006B0C79E41F04EB90
:1018300084051F24AC40A04314682063088880B24C
:101840000C79E41F04EB8404A0401468246B20434B
:101850001468206316E01068C06A0C790D3C04EB34
:1018600084051F24AC40A0431468E062088880B25D
:101870000C790D3C04EB8404A0401468E46A204316
:101880001468E0621E4B1F4C1068A0420AD1086821
:10189000122807D1586820F400005860586840F4B6
:1018A00080005860174C1068A04222D1164C08687E
:1018B000A04202D0086811281BD1586820F480008B
:1018C0005860586840F4000058600F4C0868A04207
:1018D0000FD10E4800680E4CB0FBF4F000EB800016
:1018E0004000009002E00098401E00900098002800
:1018F000F9D100BF002082F83C0000BF00BF41E7E3
:101900000023014000200140120000101C000020B4
:1019100040420F00704770477047000070B50446A2
:1019200000250CB9012070BD1549A06A884200D07D
:1019300000BF206C30B9204600F024F8002060641D
:1019400084F83C00206C00F0100088B9206C20F472
:10195000885040F0020020642046FFF70FF8002076
:101960006064206C20F0020040F00100206400E080
:10197000012500BF002084F83C0000BF2846D2E7C4
:101980000100000F10B586B00446142101A8FEF72F
:10199000F3FD28492068884249D100BF002000900B
:1019A0002548006840F480702349086008460068B4
:1019B00000F48070009000BF00BF00BF00200090C6
:1019C0001D481438006840F004001B4914390860B1
:1019D0000846006800F00400009000BF00BF20200F
:1019E0000190032002900020039001A9134800F009
:1019F0005FFD13481349086000204860002111482A
:101A00008160C1604FF480610161490041618900DA
:101A100081610021C1610162416200F059FA08B19F
:101A2000FFF778FC00BF0748A063846300BF06B0DF
:101A300010BD000000200140443802400008024070
:101A40001064024070160020F8B504460D46164694
:101A50000020009000BF94F83C00012801D1022032
:101A6000F8BD012084F83C0000BF2068806800F0C9
:101A70000100A0B92068806840F0010021688860FA
:101A8000554800685549B0FBF1F000EB400000906C
:101A900002E00098401E009000980028F9D12068CC
:101AA000806800F48070B0F5807F05D12068806880
:101AB00020F48070216888602068806800F0010050
:101AC00000287ED0206C40F20161884340F4807091
:101AD00020642068406800F4806028B1206C20F405
:101AE000005040F480502064206C00F48050B0F529
:101AF000805F04D1606C20F00600606401E000208B
:101B0000606400BF002084F83C0000BF344F3548BB
:101B1000A16BC8633448A16B08643448A16BC864E6
:101B20006FF02200216808602068406840F0806003
:101B3000216848602068806840F48070216888606F
:101B4000226802F14C0133462A46A06B00F036FAB7
:101B5000786800F01F0018BB25492068884213D020
:101B600024492068884204D1381D006800F01F0015
:101B700050B12149206888422BD11948001D0068C6
:101B800000F01F00102824D22068806800F0405028
:101B9000F8B92068806840F080402168886018E0CB
:101BA00013492068884214D12068806800F04050B2
:101BB00078B92068806840F080402168886008E03B
:101BC000FFE7206C40F010002064606C40F00100E2
:101BD0006064002044E700001C00002040420F0029
:101BE00000230140D70800086F09000855090008C4
:101BF00000200140002101400022014010B50446B0
:101C00000CB9012010BD94F8390028B9002084F8DF
:101C10003800204600F022F8022084F839002068BD
:101C2000006820F44030616808432168086020683B
:101C3000406B20F00700A1680843216848632068D2
:101C4000006C6FF30D00E168084321680864002010
:101C5000E063012084F839000020D3E708B50A4A80
:101C6000016891420FD100BF002100910749096826
:101C700041F40001054A11601146096801F40001B0
:101C8000009100BF00BF08BD00B0024030380240E4
:101C9000F8B50446002000908C4800684FF41651B7
:101CA000B0FBF1F7A56D2E6894F85C100820884011
:101CB000304098B12068006800F0040070B12068DE
:101CC000006820F004002168086094F85C10082087
:101CD0008840A860606D40F00100606594F85C1079
:101CE00001208840304068B12068406900F08000E1
:101CF00040B194F85C1001208840A860606D40F00D
:101D00000200606594F85C1004208840304068B19F
:101D10002068006800F0020040B194F85C100420D4
:101D20008840A860606D40F00400606594F85C1025
:101D300010208840304078B32068006800F0080028
:101D400050B394F85C1010208840A86020680068A8
:101D500000F4802080B12068006800F4002028B9D9
:101D6000206CC8B12046216C884715E0A06C98B162
:101D70002046A16C88470FE02068006800F480705E
:101D800028B92068006820F0080021680860206CED
:101D900010B12046216C884794F85C1020208840C0
:101DA0003040002865D02068006800F0100000284E
:101DB0005FD094F85C1020208840A86094F835002B
:101DC000052828D12068006820F0160021680860E6
:101DD0002068406920F0800021684861206C08B9C3
:101DE000A06C28B12068006820F008002168086015
:101DF00094F85C103F208840A860012084F83500EA
:101E000000BF002084F8340000BF206D10B12046D0
:101E1000216D8847F8BD2068006800F4802080B1FB
:101E20002068006800F4002028B9606C10B12046DA
:101E3000616C88471DE0E06BD8B12046E16B8847B4
:101E400017E02068006800F4807068B920680068B6
:101E500020F0100021680860012084F8350000BFE0
:101E6000002084F8340000BFE06B10B12046E16B25
:101E70008847606D38B3606D00F00100F0B1052057
:101E800084F835002068006820F0010021680860AF
:101E900000BF0098401C0090B84200D905E02068BF
:101EA000006800F001000028F3D100BF012084F891
:101EB000350000BF002084F8340000BFE06C10B192
:101EC0002046E16C884700BFA4E700001C0000200A
:101ED0002DE9F0410446002500F000FC074614B946
:101EE0000120BDE8F081606A00B100BF022084F8E3
:101EF000350000BF002084F8340000BF206800686F
:101F000020F00100216808600AE000F0E7FBC01B38
:101F1000052805D920206065032084F83500E0E716
:101F20002068006800F001000028EED120680568F4
:101F300021480540D4E901010843E16808432169CB
:101F4000084361690843A1690843E1690843216ABC
:101F500008430543606A042803D1D4E90B01084310
:101F60000543206805602068456925F00705606A1B
:101F70000543606A04280DD1A06A0543E06A48B1B0
:101F80002046FEF79DFE28B140206065012084F8C0
:101F90003500A6E7206845612046FEF777FE064635
:101FA00094F85C103F208840B060002060650120FC
:101FB00084F83500002094E73F8010F02DE9F047C9
:101FC00004460D4616461F464FF00008D4F85890B8
:101FD00000BF94F83400012802D10220BDE8F08748
:101FE000012084F8340000BF94F83500012825D181
:101FF000022084F83500002060653B4632462946C1
:102000002046FEF7B2FE94F85C103F208840C9F8E5
:1020100008002068006840F0160021680860206C05
:1020200028B12068006840F0080021680860206836
:10203000006840F001002168086006E000BF002051
:1020400084F8340000BF4FF002084046C6E70000A5
:1020500070B5044600F042FB06462546681C10B1E8
:1020600004480078054400BF00F038FB801BA842FC
:10207000FAD370BD280000202DE9F04104460E4639
:102080000127002500BF2648007E012802D102203A
:10209000BDE8F08101202249087600BF4CF25030A3
:1020A000FFF77EFA0746002F32D1401E30602068CD
:1020B000012810D1207C6168FFF79CF94CF2503068
:1020C000FFF76EFA07461748006848F20401884394
:1020D000144908601AE0A56812E0217C2846FFF741
:1020E0001DF94CF25030FFF75BFA07460D480068C7
:1020F00020F0FA000B4908600FB1356005E06D1C57
:10210000D4E902100844A842E7D800BFFFF736F927
:1021100000BF00200249087600BF3846B8E700003B
:102120002C1A0020103C02400348006840F0004098
:102130000149086000207047103C02402DE9F04141
:1021400006460F4614461D464FF0010800BF1F48C3
:10215000007E012802D10220BDE8F08101201B4948
:10216000087600BF4CF25030FFF71AFA8046B8F1FB
:10217000000F23D126B9E1B23846FFF765F912E026
:10218000012E04D1A1B23846FFF788F90BE0022EE8
:1021900004D121463846FFF795F904E022462B4644
:1021A0003846FFF763F94CF25030FFF7F9F98046F3
:1021B0000748006820F001000549086000BF0020C2
:1021C0000249087600BF4046C6E700002C1A0020EE
:1021D000103C024000200949096801F0004159B152
:1021E0000749064A0C3A116006491160034909681B
:1021F00001F0004101B1012070470000103C024095
:1022000023016745AB89EFCD00B587B0142102A843
:10221000FEF7B2F93148006808B107B000BD0120EF
:102220002E49086000BF002001902D48006840F052
:1022300001002B4908600846006800F00100019089
:1022400000BF00BF4FF63F00029002200390002025
:102250000490032005900C20069002A9214800F06C
:1022600027F90D2002900220039000200490032003
:1022700005900C20069002A91B4800F019F948F2BD
:102280003710029002200390002004900320059054
:102290000C20069002A9154800F00AF94FF6837049
:1022A00002900220039000200490032005900C204F
:1022B000069002A90E4800F0FBF84CF20370029061
:1022C0000220039000200490032005900C2006902B
:1022D00002A9084800F0ECF800BF9EE714000020B7
:1022E0003838024000140240000802400018024042
:1022F00000100240000C024070B50546B5F5005FC5
:102300007ED15A48007830BB4FF40051584800F055
:10231000D7F920B1574800685749086045E055484B
:10232000006855490968401A26280ED951480068A6
:1023300051490968401A292807D801204B490870DB
:102340004C4800684C4908602FE000204A4908606A
:102350004849086029E04FF40051454800F0B0F9C1
:10236000F8B146480078401C444908704448007859
:102370004006000E424908703E4800683E49096820
:10238000401A032811D33B4800683B490968401AAA
:1023900004280AD83A48007840F00100384908700B
:1023A00003E034480068344908603448007807285E
:1023B0005AD1334800784006000E3149087008466B
:1023C00000783049304A127888542D48007800F05F
:1023D000020020B12A48007800F0800048B1284867
:1023E000007800F0800058BB2548007800F03000ED
:1023F00030B300F073F9044624480068201A00E066
:1024000032E0B0F5FA7F05D90120214908701F4854
:10241000046015E01E48007801280CD118480078A7
:102420001849087016480078487015480078887078
:1024300013480078C87000F051F90446134804604E
:1024400011480078401C104908700846007803289D
:1024500001DD002008700020084908700549086067
:10246000054908600149087070BD00005501002051
:10247000000C02405C010020680100206C0100207B
:1024800056010020570100206D010020640100204A
:102490005401002010B5044604480068204020B1D3
:1024A000024804602046FFF727FF10BD143C01409E
:1024B000F8B502460B460025002400200021E0E08C
:1024C000012606FA01F51E6806EA0504AC4274D13D
:1024D0001E7906F00306012E04D01E7906F00306CD
:1024E000022E13D190684F000326BE40B0434F0028
:1024F000DE68BE4030439060506801268E40B04395
:102500001E79C6F300168E40304350601E7906F0E7
:102510000306032E09D0D0684F000326BE40B04307
:102520004F009E68BE403043D0601E7906F003061F
:10253000022E13D1CF0802F1200656F827004E07CD
:10254000F70E0F26BE40B0434F07FF0E1E69BE4078
:102550003043CF0802F1200646F8270010684F00EC
:102560000326BE40B0431E7906F003064F00BE406E
:10257000304310605E6806F44036002E1DD000BF68
:1025800000260096414E366846F480463F4F3E6036
:102590003E46366806F48046009600BF00BF3C4EBB
:1025A0008F0856F827008E07370F0F26BE40B0431E
:1025B000384EB24202D100262EE061E0364EB242E1
:1025C00001D1012628E0354EB24201D1022623E096
:1025D000334EB24201D103261EE0324EB24201D147
:1025E000042619E0304EB24201D1052614E02F4EE8
:1025F000B24201D106260FE02D4EB24201D107268C
:102600000AE02C4EB24201D1082605E02A4EB24221
:1026100001D1092600E00A268F073F0FBE40304354
:102620001B4E8F0846F82700244E3068A0435E6892
:1026300006F4801606B12043204E3060361D306807
:10264000A0435E6806F4001606B120431B4E361DFB
:1026500030601A4E361F3068A0435E6806F40036BC
:1026600006B12043154E361F3060361F3068A04338
:102670005E6806F4803606B12043104E083E306096
:10268000491C1029FFF41CAFF8BD0000443802407B
:1026900008380140000002400004024000080240E7
:1026A000000C0240001002400014024000180240DA
:1026B000001C02400020024000240240083C01406F
:1026C000024613690B400BB1012000E00020704767
:1026D0000AB1816101E00B04836170470148006821
:1026E0007047000020000020034800680349097873
:1026F000084401490860704720000020280000209D
:1027000010B50D48006840F400700B490860084699
:10271000006840F4806008600846006840F48070FB
:102720000860032000F0B0FA0F2000F007F800F076
:102730002FFA002010BD0000003C02402DE9F041BE
:1027400088B004460027B84600BF00200190234807
:10275000006840F00400214908600846006800F065
:102760000400019000BF00BF02A903A800F02AFDE9
:10277000069F1FB900F04EFD054602E000F04AFD3D
:1027800045001748B5FBF0F0A0F1010815481649BF
:10279000086040F2E7311448C160C0F804800021AD
:1027A00001618160816101F0BFF8064696B90E486B
:1027B00001F0E2F906466EB91E2000F013FA102C63
:1027C00007D2002221461E2000F020FA07480460AC
:1027D00000E00126304608B0BDE8F08140380240F4
:1027E00040420F0000080040E419002024000020AF
:1027F00070B504460E46154600BF94F8A0000128A7
:1028000001D1022070BD012084F8A00000BF022089
:1028100084F8A10005EB850101EBC50204F1380144
:1028200001EB820034223146FDF76CFE2A46314628
:10283000204601F0F1FD01202168486284F8A100E2
:1028400000BF002084F8A00000BF00BFDAE700004E
:1028500070B504460CB9012070BD94F8A10028B9E8
:10286000002084F8A000204600F07EF8022084F8C2
:10287000A1002068806920F0704021688861D4E957
:1028800001010843E1680843216908432168896917
:1028900008432168886120688068324908402168BF
:1028A0008860A08A050420688068A16929430843DC
:1028B000216888602068C0682A4908402168C8608B
:1028C000A08B05042068C068216A29430843216859
:1028D000C860206800692349084021680861A08C0D
:1028E000050420680069A16A29430843216808613A
:1028F000206840691B49084021684861A08D050493
:1029000020684069216B294308432168486194F895
:102910003500050294F8360006042068C06A00F00D
:102920007F402168C86246EA050094F834100843E5
:102930002168C96A08432168C8622068406B40F07A
:102940000600216848632068806940F00100216822
:1029500088610020C4F8A400012084F8A1000020B0
:102960007AE7000000F800F010B592B00446142198
:102970000DA8FDF701FE302101A8FDF7FDFD7C4902
:10298000206888427ED1082001904FF4A8700590FD
:10299000032107914FF480300A9001A800F0CEF98E
:1029A00008B1FEF7B7FC00BF002000907148006836
:1029B00040F080606F4908600846006800F0806061
:1029C000009000BF00BF00BF00200090694814388D
:1029D000006840F020006749143908600846006824
:1029E00000F02000009000BF00BF00BF002000905A
:1029F0000846006840F0010008600846006800F0E2
:102A00000100009000BF00BF00BF002000900846FA
:102A1000006840F0020008600846006800F002000C
:102A2000009000BF00BF00BF002000900846006873
:102A300040F0400008600846006800F04000009048
:102A400000BF00BF00BF002000900846006840F0B3
:102A5000040008600846006800F00400009000BF11
:102A600000BF00BF002000900846006840F008004A
:102A700008600846006800F00800009000BF00BF32
:102A8000081500E072E00D9002200E9000200F90DB
:102A9000032010900E2011900DA93748FFF708FD74
:102AA00041F658000D9002200E9000200F90032058
:102AB00010900E2011900DA93048FFF7F9FC03206B
:102AC0000D9002200E9000200F90032010900920FE
:102AD00011900DA92A48FFF7EBFC4FF470600D90A0
:102AE00002200E9000200F90032010900E201190D5
:102AF0000DA92348FFF7DCFC4FF40C600D90022079
:102B00000E9000200F90032010900E2011900DA920
:102B10001C48FFF7CDFCC0200D9002200E90002035
:102B20000F90032010900E2011900DA91648FFF76A
:102B3000BFFC08200D9002200E9000200F90032073
:102B400010900E2011900DA91048FFF7B1FC4FF422
:102B5000A0500D9002200E9000200F9003201090A6
:102B6000092011900DA90748FFF7A2FC12B010BD73
:102B70000068014044380240001402400000024056
:102B8000000402400018024000080240000C02400D
:102B900008B500BF002000901148006840F4804054
:102BA0000F4908600846006800F48040009000BFAC
:102BB00000BF00BF00200090081F006840F0805058
:102BC000091F08600846006800F08050009000BFB0
:102BD00000BF00220F21901E00F018F808BD000071
:102BE000443802400146084600280DDB00BF00BF04
:102BF00000F01F0301229A4043099B0003F1E023E8
:102C0000C3F8002100BF00BF00BF70472DE9F05F8F
:102C100080460D461646002702F066FE07463946F6
:102C20002A46334601F00700C0F1070ABAF1040F43
:102C300002D94FF0040A01E0C0F1070AD14600F1C1
:102C4000040ABAF1070F02D24FF0000A01E0A0F126
:102C5000030AD4464FF0010A0AFA09FAAAF1010A56
:102C60000AEA020A0AFA0CFA4FF0010B0BFA0CFB03
:102C7000ABF1010B0BEA030B4AEA0B042146404679
:102C800002F03AFEBDE8F09F00BF00F00702064BDD
:102C900019684FF6FF031940044B0B4343EA022126
:102CA000014B196000BF70470CED00E00000FA0511
:102CB00038B5002400BF002000901D48006840F097
:102CC00080501B4908600846006800F08050009062
:102CD00000BF00BF012017490864FFF7FFFC04464E
:102CE00007E0FFF7FBFC001BB0F57A7F01D903205A
:102CF00038BD1148406800F48030B0F5803FF0D115
:102D000001200C494864FFF7E9FC044607E0FFF79F
:102D1000E5FC001BB0F57A7F01D90320E8E70648FF
:102D2000406800F40030B0F5003FF0D10020DFE74C
:102D30004038024000000E4200700040F8B50446E2
:102D400000250026207800F0010048B9207800F026
:102D50000200022804D0207800F04000402862D110
:102D60000020B1498866FFF7B9FC054606E0FFF789
:102D7000B5FC401B022801D90320F8BDAB48006810
:102D8000C0F3C0600028F2D1207800F0010038B113
:102D900060688101207A41EA0070A44984310860AA
:102DA000207800F00200022819D1A0488430006881
:102DB000C0F3027660688101207B41EA006040EA4E
:102DC00006709A498431086098488C30006820F079
:102DD0001F00E169491E084394498C31086020783E
:102DE00000F0400040280AD160688101207B41EA60
:102DF0000061207A41EA00708C498431086001202A
:102E000089498866FFF76AFC054606E0FFF766FC1D
:102E1000401B022801D90320AFE784480068C0F3B3
:102E2000C0600028F2D0207800F00400042804D00C
:102E3000207800F00800082863D100207A4908674C
:102E4000FFF74CFC054606E0FFF748FC401B022854
:102E500001D9032091E775480068C0F3407000284D
:102E6000F2D1207800F00400042819D16F4888308E
:102E70000068C0F3027620698101207D41EA00608C
:102E800040EA0670694988310860081D006820F42E
:102E9000F851206A401E41EA002064498C310860E4
:102EA000207800F00800082817D1604888300068B2
:102EB000C0F303662069800140EA0661207E41EA92
:102EC00000705A4988310860081D006820F44030BD
:102ED000616A084355498C310860012052490867EE
:102EE000FFF7FCFB054606E0FFF7F8FB401B022856
:102EF00001D9032041E74D480068C0F34070002825
:102F0000F2D0207800F0200020287DD100BF0020E2
:102F1000009046484030006840F0805043494031BE
:102F200008600846006800F08050009000BF00BFB5
:102F30003F48006840F480703D490860FFF7CEFBD1
:102F4000054606E0FFF7CAFB401B022801D9032013
:102F500013E73748006800F480700028F2D0334847
:102F60007030006800F440764EB3208D00F440705D
:102F7000B04224D02D487030006820F44076012003
:102F80002C490860002008602848703006600068FE
:102F900000F0010098B1FFF7A1FB054608E0FFF73C
:102FA0009DFB401B41F28831884201D90320E4E6B1
:102FB0001E4870300068C0F340000028EFD000BF0A
:102FC000208D00F44070B0F5407F0CD117480830D8
:102FD000006820F4F810184AA16A11400843134908
:102FE0000831086007E011480830006820F4F81044
:102FF0000E49083108600D4870300068218DC1F31A
:103000000B010843094900E002E07031086000BF8D
:10301000207800F01000102803D194F82C00074904
:1030200008600020A9E60000000047420038024086
:1030300000700040400E4742FFFCFF0FE011474286
:1030400070B504460D460CB9012070BD58480068A3
:1030500000F00F00A84209D255490D7008460068DB
:1030600000F00F00A84201D00120EEE7207800F028
:10307000020002281DD1207800F00400042805D1A8
:103080004C48006840F4E0504A490860207800F05D
:103090000800082805D14748006840F460404549C9
:1030A00008604448006820F0F000A16808434149E6
:1030B0000860207800F00100A8B36068012807D1FB
:1030C0003C4808380068C0F34040B8B90120BCE76C
:1030D0006068022802D06068032807D135480838A4
:1030E0000068C0F3406048B90120AEE731480838B5
:1030F0000068C0F3400008B90120A6E72D48006829
:1031000020F00300616808432A490860FFF7E6FAE7
:10311000064609E0FFF7E2FA801B41F28831884257
:1031200002D9032091E707E02248006800F00C0074
:103130006168B0EB810FEDD11D48006800F00F0011
:10314000A84209D91A490D700846006800F00F001E
:10315000A84201D0012078E7207800F0040004287C
:1031600007D11448006820F4E050E1680843114991
:103170000860207800F00800082808D10D48006891
:1031800020F46040216940EAC1000A49086000F06B
:1031900061F808490968C1F30311074A515CC84046
:1031A0000649086006480068FFF7C8FA00204CE7A7
:1031B000003C024008380240A48100081C000020A6
:1031C000240000200F2202600D4A126802F0030260
:1031D00042600B4A126802F0F0028260084A1268EC
:1031E00002F4E052C260064A126802F46042D20859
:1031F0000261044A126802F00F020A607047000080
:1032000008380240003C0240014800687047000056
:103210001C00002000B5FFF7F7FF04490968C1F35F
:103220008221034A515CC84000BD000008380240BA
:10323000B481000800B5FFF7E7FF04490968C1F34E
:103240004231034A515CC84000BD000008380240CA
:10325000B48100082DE9F047002400250026A1468E
:103260002548006800F00C0020B1042805D008288B
:103270003AD105E0DFF8849039E0DFF8849036E059
:103280001D48001F006800F03F041B48001F006835
:1032900000F4800078B11A481749091F0968C1F382
:1032A0008811A0FB01700146224600233846FDF735
:1032B0006DF805460EE011480F49091F0968C1F372
:1032C0008811A0FB01700146224600233846FDF715
:1032D0005DF805460848001F0068C0F30140401C27
:1032E0004600B5FBF6F902E0DFF8109000BF00BF22
:1032F0004846BDE8F0870000083802400024F4008A
:1033000000127A00F8B504460CB90120F8BD207807
:1033100000F00100002874D0F948006800F00C00AB
:1033200004280DD0F648006800F00C00082813D1DE
:10333000F348001F006800F48000B0F5800F0BD147
:10334000EF4808380068C0F34040002859D0606852
:10335000002856D10120D9E700BF6068B0F5803F52
:1033600008D1E7480838006840F48030E44908395B
:1033700008601EE06068B0F5A02F0DD1E048083865
:10338000006840F48020DE4908390860084600687B
:1033900040F4803008600CE0D9480838006820F418
:1033A0008030D749083908600846006820F480203A
:1033B000086000BF606890B1FFF790F9054606E02D
:1033C000FFF78CF9401B642801D903209EE7CC4805
:1033D00008380068C0F340400028F1D011E0FFF742
:1033E0007DF9054606E0FFF779F9401B642801D90D
:1033F00003208BE7C24808380068C0F3404000282B
:10340000F1D1207800F0020002285FD1BC480068AA
:1034100000F00C0058B1BA48006800F00C00082811
:103420001CD1B748001F006800F48000B0B9B44850
:1034300008380068C0F3400020B1E068012801D0DE
:10344000012063E7AE480838006820F0F8002169E1
:1034500040EAC100AA490839086037E0E06800B3D3
:103460000120A8490860FFF739F9054606E0FFF793
:1034700035F9401B022801D9032047E7A048083846
:103480000068C0F340000028F1D09D48083800686B
:1034900020F0F800216940EAC10099490839086024
:1034A00014E0002097490860FFF718F9054606E088
:1034B000FFF714F9401B022801D9032026E79048A2
:1034C00008380068C0F340000028F1D1207800F0EF
:1034D000080008282CD16069A8B101208A49086039
:1034E000FFF7FCF8054606E0FFF7F8F8401B022856
:1034F00001D903200AE782486C300068C0F340001D
:103500000028F1D014E000207F490860FFF7E6F8BA
:10351000054606E0FFF7E2F8401B022801D9032028
:10352000F4E677486C300068C0F340000028F1D121
:10353000207800F00400042870D10027704838304B
:10354000006800F0805090B900BF002000906C48E7
:103550003830006840F080506949383108600846CA
:10356000006800F08050009000BF00BF012767484E
:10357000006800F48070B0B96448006840F480705E
:1035800062490860FFF7AAF8054606E0FFF7A6F8CB
:10359000401B022801D90320B8E65C48006800F40B
:1035A00080700028F2D000BFA068012808D15448DC
:1035B0006830006840F001005149683108601DE042
:1035C000A06805280DD14E486830006840F004001E
:1035D0004B49683108600846006840F00100086007
:1035E0000CE047486830006820F001004449683129
:1035F00008600846006820F00400086000BFA0686A
:10360000A8B1FFF76BF8054609E0FFF767F8401B24
:1036100041F28831884202D9032077E626E0384813
:1036200068300068C0F340000028EED013E0FFF7D8
:1036300055F8054608E0FFF751F8401B41F2883184
:10364000884201D9032061E62D4868300068C0F344
:1036500040000028EFD1012F07D1294838300068F9
:1036600020F0805026493831086000BFA06900284A
:1036700045D02348006800F00C0008285DD0A06900
:10368000022845D100201F490866FFF727F80546A4
:1036900006E0FFF723F8401B022801D9032035E696
:1036A000174808380068C0F340600028F1D1D4E919
:1036B00007010843616A40EA81110122A06AC2EB56
:1036C000500041EA00412C20005D41EA00600C49B5
:1036D000091F086001200B490866FEF7FFFF054639
:1036E00006E0FEF7FBFF401B022801D903200DE690
:1036F000034808380068C0F340600028F1D049E072
:103700000838024000004742800E474200700040E7
:10371000002021490866FEF7E1FF054606E0FEF7B6
:10372000DDFF401B022801D90320EFE51B4800689C
:10373000C0F340600028F2D12CE0A069012800D13C
:10374000E4E51648001D0668A069012820D006F4AB
:103750008001E06981421BD106F03F01206A81426D
:1037600016D147F6C0703040616AB0EB811F0FD1AF
:1037700006F440310122A06AC2EB5000B1EB004FC9
:1037800006D106F070612C20005DB1EB006F01D016
:103790000120BBE50020B9E50000474200380240A7
:1037A00070B504460D460CB9012070BD94F82C008C
:1037B00028B9002084F82D00204600F011F80220DE
:1037C00084F82C00211D2068FDF71CFF2946D4E950
:1037D0000002FDF783FF012084F82C000020E4E7BD
:1037E00010B50446FEF710FD10BD70B504460D4639
:1037F00094F82C00022800D170BD94F82C00012808
:103800000AD1022084F82C0029462068FDF730FFF9
:10381000012084F82C0001E00120EDE70020EBE717
:103820002DE9F04104460E46174694F82C50022D1F
:1038300002D10220BDE8F081012D01D0052D12D169
:10384000022084F82C003A4631462068FDF71AFF22
:103850003068022803D1052084F82C0005E00120FF
:1038600084F82C0001E00120E4E70020E2E7704743
:103870007047000030B502460B4600BF92F83C008E
:10388000012801D1022030BD012082F83C0000BF98
:10389000022082F83D00106844681068816824F0B6
:1038A00070041868044310684460184D1068A842FA
:1038B0001BD01068B0F1804F17D0154D1068A8428A
:1038C00013D0144D1068A8420FD0134D1068A842B1
:1038D0000BD0124D1068A84207D0114D1068A842B5
:1038E00003D0104D1068A84205D121F0800158681E
:1038F000014310688160012082F83D0000BF002074
:1039000082F83C0000BF00BFBDE70000000001409E
:103910000004004000080040000C0040000401408A
:10392000004001400018004010B504460CB90120C9
:1039300010BD94F83D0028B9002084F83C002046D2
:1039400000F026F8022084F83D00211D206801F0D7
:1039500097FB012084F8460000BF84F83E00012157
:103960003F200155402001554120015500BF00BFB7
:10397000012084F842004320015544200155452090
:10398000015500BF012084F83D000020D0E7000071
:1039900038B504462068B0F1804F18D100BF002030
:1039A00000904848006840F0010046490860084619
:1039B000006800F00100009000BF00BF0022052158
:1039C0001C20FFF723F91C20FFF70CF978E03E4993
:1039D000206888420FD100BF00200090394800685D
:1039E00040F00200374908600846006800F0020015
:1039F000009000BF64E03549206888420FD100BFC5
:103A0000002000902F48006840F008002D49086011
:103A10000846006800F00800009000BF50E02C4904
:103A2000206888421AD100BF002000902548001D60
:103A3000006840F002002349091D0860084600683C
:103A400000F00200009000BF00BF002205212B20E3
:103A5000FFF7DCF82B20FFF7C5F831E01D4920689F
:103A6000884211D100BF002000901648001D006858
:103A700040F480301349091D08600846006800F4CE
:103A80008030009000BF1BE013492068884217D1A6
:103A900000BF002000900B48006840F0400009493A
:103AA00008600846006800F04000009000BF00BFBA
:103AB000002205212B20FFF7A9F82B20FFF792F811
:103AC00038BD00004038024000040040000C0040B7
:103AD000000401400040014000180040014691F8F8
:103AE0003D00012801D001207047022081F83D00EF
:103AF0001A4B086898421BD00868B0F1804F17D065
:103B0000174B0868984213D0164B086898420FD09C
:103B1000154B086898420BD0144B0868984207D0A0
:103B2000134B0868984203D0124B086898420CD196
:103B30000868806800F00702062A0CD00868006850
:103B400040F001000B68186005E00868006840F06C
:103B500001000B6818600020C6E70000000001406B
:103B60000004004000080040000C00400004014038
:103B70000040014000180040014691F83D00012836
:103B800001D001207047022081F83D000868C0681C
:103B900040F001000B68D8601A4B086898421BD0AF
:103BA0000868B0F1804F17D0174B0868984213D0BF
:103BB000164B086898420FD0154B086898420BD0F6
:103BC000144B0868984207D0134B0868984203D0FA
:103BD000124B086898420CD10868806800F0070210
:103BE000062A0CD00868006840F001000B681860D5
:103BF00005E00868006840F001000B6818600020CC
:103C0000C0E7000000000140000400400008004040
:103C1000000C00400004014000400140001800403A
:103C20002DE9F04104460D46002700BF94F83C0002
:103C3000012802D10220BDE8F081012084F83C0077
:103C400000BF022084F83D002068866826F07706D1
:103C500026F47F46206886602868502833D00CDC24
:103C6000202850D004DC00284BD0102851D149E046
:103C7000302849D040284CD139E060282DD0702818
:103C800007D0B0F5805F03D0B0F5005F41D10DE003
:103C900041E0D5E902136A68206801F076FA2068ED
:103CA000866846F077062068866034E0D5E902131E
:103CB0006A68206801F069FA2068806840F48040F2
:103CC0002168886027E0EA686968206801F04EFB97
:103CD0005021206801F064FA1DE0EA6869682068F4
:103CE00001F057FB6021206801F05AFA13E0EA68FE
:103CF0006968206801F03AFB4021206801F050FA21
:103D000009E000BF00BF00BF2968206801F048FA41
:103D100001E0012700BF00BF012084F83D0000BF83
:103D2000002084F83C0000BF384684E7704770B537
:103D300004462068C5682068066906F0020002286B
:103D400019D105F00200022815D1401F2168086131
:103D5000012020772068806900F0030018B1204618
:103D6000FFF7E4FF05E0204600F036F9204600F0BA
:103D7000EAF90020207706F00400042819D105F0A4
:103D80000400042815D1C04321680861022020776F
:103D90002068806900F4407018B12046FFF7C6FF24
:103DA00005E0204600F018F9204600F0CCF900208C
:103DB000207706F00800082819D105F00800082827
:103DC00015D1C04321680861042020772068C069AC
:103DD00000F0030018B12046FFF7A8FF05E02046D9
:103DE00000F0FAF8204600F0AEF90020207706F047
:103DF0001000102819D105F01000102815D1C0436B
:103E000021680861082020772068C06900F44070AC
:103E100018B12046FFF78AFF05E0204600F0DCF8E5
:103E2000204600F090F90020207706F0010048B10C
:103E300005F0010030B16FF00100216808612046F3
:103E400000F008FA06F08000802809D105F0800013
:103E5000802805D1C043216808612046FFF707FD8F
:103E600006F04000402809D105F04000402805D167
:103E7000C04321680861204600F04CFA06F020009B
:103E8000202809D105F02000202805D1C043216851
:103E900008612046FFF7ECFC70BD000010B586B04D
:103EA0000446142101A8FCF767FB2068B0F1804F9D
:103EB0001DD100BF002000904048006840F0010084
:103EC0003E4908600846006800F00100009000BF0D
:103ED00000BF012001900220029000200390049076
:103EE0000120059001A93648FEF7E2FA64E0354961
:103EF000206888421DD100BF002000902F48006834
:103F000040F002002D4908600846006800F00200F9
:103F1000009000BF00BF30200190022002900020DE
:103F2000039004900220059001A92748FEF7C0FAEB
:103F300042E02649206888421DD100BF0020009041
:103F40001E48006840F001001C49086008460068EF
:103F500000F00100009000BF00BF06200190022089
:103F600002900020039004900220059001A91448BB
:103F7000FEF79EFA20E01649206888421CD100BF57
:103F8000002000900D48006840F010000B490860C8
:103F90000846006800F01000009000BF00BF4020FD
:103FA00001900220029000200390049003200590CD
:103FB00001A90848FEF77CFA06B010BD303802406F
:103FC000000002400004004000040240000C0040D9
:103FD000004001400010024070472DE9F0410446C6
:103FE0000D461646002700BF94F83C00012802D178
:103FF0000220BDE8F081012084F83C0000BF36B10A
:10400000042E1BD0082E31D00C2E5ED145E029465F
:10401000206801F0CFF82068806940F0080021682E
:1040200088612068806920F0040021688861206828
:104030008069296908432168886148E02946206829
:1040400001F0F0F82068806940F400602168886120
:104050002068806920F48060216888612068806918
:10406000296940EA01202168886130E029462068FA
:1040700001F016F92068C06940F008002168C861A5
:104080002068C06920F004002168C8612068C06908
:10409000296908432168C86119E02946206801F0B0
:1040A0003BF92068C06940F400602168C86120685D
:1040B000C06920F480602168C8612068C0692969EE
:1040C00040EA01202168C86101E0012700BF00BF6C
:1040D00000BF002084F83C0000BF384689E710B5D7
:1040E00004460CB9012010BD94F83D0028B9002009
:1040F00084F83C00204600F025F8022084F83D00BA
:10410000211D206800F0BCFF012084F8460000BF9C
:1041100084F83E0001213F200155402001554120F7
:10412000015500BF00BF012084F842004320015523
:10413000442001554520015500BF012084F83D0071
:104140000020D0E77047704770B504460D4615B99A
:1041500094F83E000BE0042D02D13F20005D06E004
:10416000082D02D14020005D01E04120005D0128C2
:1041700001D0012070BD1DB9022084F83E000EE080
:10418000042D03D102213F20015508E0082D03D161
:1041900002214020015502E0022141200155012267
:1041A0002946206800F0E0FF23492068884203D0B8
:1041B00022492068884201D1012000E0002028B176
:1041C0002068406C40F40040216848641A49206827
:1041D00088421BD02068B0F1804F17D01849206862
:1041E000884213D01749206888420FD016492068AA
:1041F00088420BD011492068884207D013492068B3
:10420000884203D01249206888420CD12068806817
:1042100000F00706062E0CD02068006840F0010070
:104220002168086005E02068006840F0010021680E
:10423000086000209EE700000000014000040140EB
:104240000004004000080040000C00400040014015
:104250000018004010B5044621492068884201D169
:10426000FEF742FA1F49206888422ED11E48006896
:10427000401C1D4908601D480068401C1B4908601F
:104280001B480068401C1A4908601A480068401C16
:104290001849086018480068401C1749086008461B
:1042A000006840F2DC51884202D9012013490870AD
:1042B00013480088012808D112480078062804DA3B
:1042C00011480068401C1049086010492068884265
:1042D00004D10F480068401C0D49086010BD000063
:1042E00000080040000401400000002040010020C0
:1042F000C4000020C8000020040000204401002069
:104300002E0100205B010020480100200018004021
:104310005C010020704710B504460CB9012010BDA7
:10432000A06900B100E000BF94F8410028B9002066
:1043300084F84000204600F029F8242084F8410049
:104340002068C06820F400502168C860204601F051
:1043500035F82068006920F49040216808612068E1
:10436000406920F02A00216848612068C06840F454
:1043700000502168C86000206064202084F841005B
:1043800084F842000020606300BFC8E710B586B023
:104390000446142101A8FCF7EFF81B492068884265
:1043A00030D100BF002000901848006840F0100095
:1043B000164908600846006800F01000009000BF31
:1043C00000BF00BF0020009010481438006840F083
:1043D00001000E49143908600846006800F0010029
:1043E000009000BF00BF4FF4C06001900220029017
:1043F00000200390032004900720059001A90448A1
:10440000FEF756F806B010BD0010014044380240D7
:104410000000024000BFFEE7F0B58E880768FF6825
:10442000C7F30B473E44330406688436802707FBF6
:104430000266766806F47047066884364FF0800C92
:104440000CFB026677600E680768FF68C7F30B47CE
:104450003E44761C1E43076884370CFB02777E605F
:104460008E890768FF68C7F30A073E44330406686D
:104470008436802707FB0266B66806F47047066834
:1044800084360CFB0266B7608E680768FF68C7F366
:104490000A073E44761C46EA0307066884360CFB8E
:1044A0000266B76006688436802707FB02663669B5
:1044B00026F00707066884360CFB026637610F6931
:1044C000066884360CFB026637613126765C33025F
:1044D0003226765C34040E7E3506066884368027E4
:1044E00007FB0266B6690027066884360CFB026685
:1044F000B76191F830601E43264346EA0507066817
:1045000084360CFB0266B76106688436802707FB99
:104510000266766926F0FF07066884360CFB0266A1
:1045200077614F69066884360CFB0266776106681E
:104530008436802707FB0266F66940F20777BE43A0
:10454000076884370CFB0277FE61D1E907763743B1
:10455000066884360CFB0266F7610668843680279D
:1045600007FB0266B66A0027066884360CFB026603
:10457000B7624F6A066884360CFB0266B7620E6942
:104580000EB9042313E00E69012E01D103230EE0BE
:104590000E69042E08D00E69022E05D00E69032E76
:1045A00002D00E69072E01D1022300E00123066824
:1045B0008436802707FB0266F66A06F0E027066865
:1045C00084364FF0800C0CFB0266F762D1E900766E
:1045D000F61B5E43F61C0F8D5F4346EA07470668ED
:1045E00084360CFB0266F76206688436802707FB78
:1045F0000266366BF70AFF02066884360CFB026619
:104600003763CF6A066884360CFB02663763066838
:104610008436D701F65946F00107066884364FEA1A
:10462000C21C46F80C70F0BD10B516480078012881
:1046300012D115480078072803D0134800780628BF
:104640000AD112480088012806D001200F490880AD
:1046500001220F48FCF704FD0B480078072802DD13
:1046600000200A4908800B4800680B49884208D995
:104670000020084908600549088001220448FCF729
:10468000EFFC10BD440100205B0100202E01002042
:1046900000001C0848010020C0D401001FB5002004
:1046A00000900190029003901548164908604FF45D
:1046B000803048600021134881600161017680F8F4
:1046C0002010C162104981620021C1600121C161D5
:1046D000002180F8301001214161FDF71FF908B178
:1046E000FCF718FE0F20009001200190002002909E
:1046F00069460448FDF73CF808B1FCF70BFE1FBD06
:1047000000200140281600200100000F10B50848C5
:10471000084908604FF44030486002210548816034
:104720000021C160FDF76AFA08B1FCF7F3FD10BD86
:1047300000B00240D016002008B500BF0020009055
:104740000A48006840F4800008490860084600688C
:1047500000F48000009000BF00BF00220521382037
:10476000FEF754FA3820FEF73DFA08BD3038024013
:1047700000B587B01C216846FBF7FEFE1A481B49AE
:104780000860002048600121184881600821C1604C
:1047900010210161402141614FF4C071816100210C
:1047A000C1614FF4006101624900416249008162C8
:1047B0000220009007200190062002900390042020
:1047C000049002200590069069460848FEF7E8FF2D
:1047D00008B1FCF79FFD01F0CBFF40F2DA2103485E
:1047E000FFF703F807B000BD400100A0101700203C
:1047F00010B5074A0021074801F090F90649086002
:10480000064A0021064801F089F90649086010BDF2
:104810005C810008554F00080800002080810008D6
:10482000E95500080C00002000B587B0142102A84B
:10483000FBF7A2FE00BF00200190A748006840F0EF
:104840001000A54908600846006800F010000190BB
:1048500000BF00BF00BF002001900846006840F084
:10486000200008600846006800F02000019000BFAA
:1048700000BF00BF002001900846006840F08000A3
:1048800008600846006800F08000019000BF00BF8B
:1048900000BF002001900846006840F00400086056
:1048A0000846006800F00400019000BF00BF00BF90
:1048B000002001900846006840F0010008600846AA
:1048C000006800F00100019000BF00BF00BF0020A1
:1048D00001900846006840F0020008600846006841
:1048E00000F00200019000BF00BF00BF0020019057
:1048F0000846006840F0400008600846006800F084
:104900004000019000BF00BF00BF0020019008469A
:10491000006840F0080008600846006800F00800E1
:10492000019000BF00BF002210216C48FDF7D0FEAF
:1049300000224FF420716A48FDF7CAFE002248F2B7
:1049400080116848FDF7C4FE00224BF2CC01664896
:10495000FDF7BEFE00224FF486516448FDF7B8FE15
:1049600000224FF4F0516248FDF7B2FE00224FF4EE
:1049700000716048FDF7ACFE082002900020039013
:104980000120049002A95548FDF792FD10200290E5
:104990000120039000200490059002A94F48FDF7E4
:1049A00087FD4FF4207002900120039000200490B6
:1049B000059002A94A48FDF77BFD48F2801002905D
:1049C0000120039000200490059002A94548FDF7BE
:1049D0006FFD04200290012003900220049000202B
:1049E000059002A94048FDF763FD4FF43040029066
:1049F0000120039004900320059002A93A48FDF796
:104A000057FD4FF480500290012003900020049045
:104A1000059002A93548FDF74BFD4FF40050029078
:104A20004FF4441003900120049002A92F48FDF791
:104A30003FFD4FF49050029001200390002004901D
:104A4000059002A92A48FDF733FD4FF4406002901B
:104A500001200390002004900320059002A924481F
:104A6000FDF726FDC0200290012003900020049055
:104A70000320059002A91D48FDF71AFD4FF40070B0
:104A800002900120039000200490059002A919488B
:104A9000FDF70EFD082002900120039000200490F5
:104AA000059002A91048FDF703FDC02002901120D7
:104AB0000390012004900320059002A90A48FDF705
:104AC000F7FC002205212820FEF7A0F82820FEF799
:104AD00089F807B000BD00003038024000100240E5
:104AE000001402400000024000040240000C02409A
:104AF000000802400018024000B58DB0342168461D
:104B0000FBF73AFD2C482D49086000204860002141
:104B10002A488160C1604FF08051016101214161EB
:104B200081611F21C1611521016240F2FF114162C3
:104B300040F23531816240F20921C16240F2853193
:104B40000163002180F8341080F8351080F83610A9
:104B5000FDF77EFE08B1FCF7DDFB002000904FF46E
:104B6000F0700190002002904FF4487003900220F2
:104B70000490FF200590002006904FF4C06007903D
:104B800007200890800709904FF4F0700A904FF4C6
:104B900048700B9000208DF8300000218DF8311006
:104BA0008DF83210002269460448FDF721FE08B155
:104BB000FCF7B0FB0DB000BD0068014044170020B9
:104BC0001FB5002000900190029003900E480F49FD
:104BD00008605920486000210C4881606321C16051
:104BE000002101618161FEF79FFE08B1FCF792FB95
:104BF0004FF48050009069460448FFF711F808B15F
:104C0000FCF788FB1FBD000000180040541900206D
:104C100000B58DB0002009900A900B900C90079081
:104C200008901C216846FBF7A7FC4FF080401F4905
:104C300008605920486000211C4881604FF47A7157
:104C4000C160002101618161FEF76EFE08B1FCF7D1
:104C500061FB4FF48050099009A91448FEF7E0FF6A
:104C600008B1FCF757FB1148FFF739FA08B1FCF718
:104C700051FB00200790089007A90C48FEF7FAFDA9
:104C800008B1FCF747FB60200090002001900290E3
:104C90000490002269460548FFF79FF908B1FCF728
:104CA00039FB0248FFF7FAF80DB000BDEC17002001
:104CB00000B58DB0002009900A900B900C900790E1
:104CC00008901C216846FBF757FC244824490860DB
:104CD0005920486000212248816042F21071C16071
:104CE000002101618161FEF71FFE08B1FCF712FB94
:104CF0004FF48050099009A91948FEF791FF08B1B7
:104D0000FCF708FB1648FFF7EAF908B1FCF702FBCD
:104D100000200790089007A91148FEF7ABFD08B1E5
:104D2000FCF7F8FA602000900020019002900490B7
:104D3000002269460A48FFF750F908B1FCF7EAFA81
:104D4000042269460648FFF748F908B1FCF7E2FA81
:104D50000348FFF7A3F80DB000BD000000040040B9
:104D60003418002000B58DB0002009900A900B90F7
:104D70000C90079008901C216846FBF7FDFB244827
:104D8000244908605920486000212248816041F28E
:104D90009F01C160002101618161FEF7C5FD08B17D
:104DA000FCF7B8FA4FF48050099009A91948FEF7AA
:104DB00037FF08B1FCF7AEFA1648FFF790F908B1D3
:104DC000FCF7A8FA00200790089007A91148FEF701
:104DD00051FD08B1FCF79EFA602000900020019080
:104DE00002900490042269460A48FFF7F6F808B1D9
:104DF000FCF790FA082269460648FFF7EEF808B17A
:104E0000FCF788FA0348FFF749F80DB000BD000031
:104E1000000C00407C18002000B587B000200390F3
:104E2000049005900690019002901548154908607D
:104E3000B32048600021134881604FF47A71C1604B
:104E40000021016141618161FEF76EFD08B1FCF74F
:104E500061FA4FF48050039003A90A48FEF7E0FE80
:104E600008B1FCF757FA00200190029001A905480B
:104E7000FEF700FD08B1FCF74DFA07B000BD0000D9
:104E800000040140C418002000B58BB0002007903A
:104E9000089009900A901C216846FBF76DFB1B489F
:104EA0001B490860B32048600021194881604FF415
:104EB0008C71C160002101618161FEF735FD08B18F
:104EC000FCF728FA4FF48050079007A91048FEF726
:104ED000A7FE08B1FCF71EFA0D48FFF700F908B16C
:104EE000FCF718FA602000900020019002900490D6
:104EF000042269460648FFF770F808B1FCF70AFA81
:104F00000348FEF7CBFF0BB000BD0000004001409E
:104F10000C19002010B50B480B4908604FF4E12034
:104F20004860002108488160C16001610C21416135
:104F300000218161C161FFF7EEF908B1FCF7EAF9E0
:104F400010BD0000001001409C19002000BFFEE7CA
:104F500000BFFEE700BF052000F08AFDFBE710B5AB
:104F60004FF0E020006902F05DFB012801D001F064
:104F7000A7FF10BD00B593B0302107A8FBF7FCFADE
:104F8000142102A8FBF7F8FA00BF0020019027487F
:104F9000006840F08050254908600846006800F02D
:104FA0008050019000BF00BF00BF0020019020484A
:104FB000006840F440401E4908600846006800F45C
:104FC0004040019000BF00BF0120079000040890FE
:104FD00002200D9041050E9108210F914FF4B471FC
:104FE0001091022111910421129107A8FEF78AF96C
:104FF00008B1FCF78FF9FDF75BFE08B1FCF78AF901
:105000000F20029002200390002004904FF4A05043
:1050100005904FF480500690052102A8FEF710F885
:1050200008B1FCF777F913B000BD0000403802402A
:10503000007000400348006840F4700001490860B7
:105040007047000088ED00E010B50248FEF76FFEE3
:1050500010BD0000EC17002010B50248FEF767FEF7
:1050600010BD0000E419002010B50348FEF75FFEF4
:105070000248FEF75CFE10BDC41800205419002041
:1050800010B502682D4B98420ED0B0F1804F0BD076
:105090002B4B984208D02B4B984205D02A4B984274
:1050A00002D02A4B984203D122F070024B681A4377
:1050B000224B984220D0B0F1804F1DD0204B984217
:1050C0001AD0204B984217D01F4B984214D01F4B38
:1050D000984211D01E4B98420ED01E4B98420BD0D6
:1050E0001D4B984208D01D4B984205D01C4B98424E
:1050F00002D01C4B984203D122F44072CB681A4371
:1051000022F080034C6943EA040202608B68C362A8
:105110000B688362094B984202D00C4B984201D134
:105120000B69036301234361036903F001031BB1AE
:10513000036923F00103036110BD0000000001407A
:105140000004004000080040000C00400004014042
:105150000040014000440140004801400018004068
:10516000001C00400020004030B501F01F05012464
:1051700004FA05F3046A9C430462046A01F01F0503
:1051800002FA05F52C43046230BD30B50C46816847
:1051900021F47F4142EA032525432943816030BD44
:1051A0000A46816821F0700142F0070319438160CB
:1051B0007047000030B5026A056A25F001050562F6
:1051C0004368846924F0700424F003040D682C43C0
:1051D00022F002028D682A43104DA84200D103E05C
:1051E0000F4DA84206D100BF22F00802CD682A4325
:1051F00022F00402094DA84202D0094DA84207D16D
:1052000023F4807323F400734D692B438D692B4382
:10521000436084614D684563026230BD0000014017
:105220000004014030B5026A056A25F010050562E8
:105230004368846924F4E04424F440740D6844EA2B
:10524000052422F020028D6842EA0512124DA84280
:1052500000D103E0114DA84207D100BF22F0800227
:10526000CD6842EA051222F040020B4DA84202D05E
:105270000A4DA84209D123F4806323F400634D69E9
:1052800043EA85038D6943EA8503436084614D6881
:105290008563026230BD000000000140000401404F
:1052A00030B5026A056A25F4807505624368C469F1
:1052B00024F0700424F003040D682C4322F40072DF
:1052C0008D6842EA0522124DA84200D103E0114D3B
:1052D000A84207D100BF22F40062CD6842EA05224D
:1052E00022F480620A4DA84202D00A4DA84209D198
:1052F00023F4805323F400534D6943EA05138D6969
:1053000043EA05134360C4614D68C563026230BD62
:10531000000001400004014030B5036A056A25F42D
:10532000805505624468C26922F4E04222F440726A
:105330000D6842EA052223F400538D6843EA0533E1
:10534000084DA84202D0084DA84204D124F480445C
:105350004D6944EA85144460C2614D680564036286
:1053600030BD0000000001400004014030B50B4694
:105370001446026A056A25F001050562816921F07B
:10538000F00141EA041122F00A021A43816102622B
:1053900030BD30B50B461446026A056A25F010058B
:1053A0000562816921F4704141EA043122F0A002D2
:1053B00042EA03128161026230BD00002DE9F84F1C
:1053C00004462068006920F44050E16808432168E1
:1053D00008612169A068084361690843E1690843DD
:1053E00000902068C06849F20C6188430099084326
:1053F0002168C8602068406920F44070A1690843B2
:105400002168486176492068884203D07549206840
:10541000884203D1FDF70EFF814602E0FDF7FAFE58
:105420008146E069B0F5004F6CD102206168A0FBB5
:10543000015003461920A9FB007001462A46384650
:10544000FAF7A4FF6421B0FBF1F04FEA001A022042
:105450006168A0FB01510B461920A9FB00712A4687
:105460003846FAF793FF834602206168A0FB01509B
:1054700003461920A9FB00712A463846FAF786FF31
:105480006421B0FBF1F000EBC00101EB0010ABEBCD
:105490008000322101EBC0006421B0FBF1F000F08C
:1054A000F8000AEB400A02206168A0FB01500346A5
:1054B0001920A9FB007001462A463846FAF766FF14
:1054C000834602206168A0FB015003461920A9FB16
:1054D00000712A463846FAF759FF6421B0FBF1F013
:1054E00000EBC00101EB0010ABEB8000322101EBBF
:1054F000C0006421B0FBF1F000F0070050442168C7
:1055000088606AE004206168A0FB0150034619200E
:10551000A9FB007001462A463846FAF737FF824653
:1055200004206168A0FB015003461920A9FB00700C
:1055300001462A463846FAF729FF6421B0FBF1F00C
:1055400000EBC00101EB0010AAEB8000322101EB5F
:1055500000106421B0FBF1F000F0F00A0420616853
:10556000A0FB017003461920A9FB00513A462846CA
:10557000FAF70CFF6421B0FBF1F00AEB001A0420EB
:105580006168A0FB01510B461920A9FB00712A4656
:105590003846FAF7FBFE834604206168A0FB015001
:1055A00003461920A9FB007001462A463846FAF73F
:1055B000EDFE6421B0FBF1F000EBC00101EB001047
:1055C000ABEB8000322101EB00106421B0FBF1F065
:1055D00000F00F00504421688860BDE8F88F00009B
:1055E0000010014000140140FBF752FEFBF79CFC49
:1055F00000BFFBF7A5FCFBF7CFFBFBF7C7FD00F0F7
:10560000C5F8FFF711F808480078401C06490870F3
:10561000084600780C2803DD00200870FBF7A2FA8A
:10562000142000F025FAE4E71000002010B5002453
:10563000112247494748FBF7F9FC012246494748F0
:10564000FBF7F4FC424800784549087040488078F0
:1056500048703F480079887008460078DD282FD1CF
:1056600008464078EE282BD108468078FF2827D1BD
:10567000374880793B4908703548007A3A490870C4
:105680003348807A394908703648007800F227207C
:105690004FF4FA6110FB01F0354908603248007898
:1056A00000F227204FF4FA6110FB01F03149086045
:1056B0002E480078D42110FB01F02F49086022E029
:1056C000542028490870284908700A202749087082
:1056D0002448007800F227204FF4FA6110FB01F013
:1056E000234908602048007800F227204FF4FA612F
:1056F00010FB01F01F4908601C480078D42110FB02
:1057000001F01D4908601248C0891C49088008241E
:1057100009E00F4830F81410A4F10800184A22F8E4
:105720001010601CC4B2112CF3DB144800884FF633
:10573000FF71884202D13220104908800B4800785E
:1057400010490860074800780F49088010BD000024
:105750003EBA002000001E082E01002000001C0898
:10576000280100202B0100202C0100202D01002009
:1057700034010020380100203C010020BC00002042
:1057800020630020B4000020B800002010B52DEDEB
:10579000028B82B0002445480078012870D1002097
:1057A000424908704248007842490870084600782B
:1057B0004149087041480078414908703D480078E7
:1057C00000F227204FF4FA6110FB01F03D49086018
:1057D0003948007800F227204FF4FA6110FB01F0FD
:1057E0003949086036480078D42110FB01F0374968
:1057F0000860DD2036490870EE204870FF20887070
:105800003048006802F01DFB41EC180B02208302B7
:105810004FF46042B0EE480AF0EE680A410300908F
:105820000020FBF71AF82848006802F00AFB41EC58
:10583000180B022083024FF46042B0EE480AF0EEEB
:10584000680A410300900120FBF707F82048007820
:10585000204908801E48407848801D48807888800C
:1058600014480078C88014480078088114480078EB
:1058700048810020888118480088C88108240AE0EF
:1058800010E0A4F10800154931F81000114921F881
:105890001400601CC4B2112CF3DB11220D49104816
:1058A000FBF7DEFB02B0BDEC028B10BDBA0000209E
:1058B000B80000202B0100202C010020B4000020A3
:1058C0002D01002034010020380100203C0100207F
:1058D000280100203EBA0020BC00002020630020E8
:1058E00000001E0800BFFEE702480068C0F3022067
:1058F000704700000CED00E010B5002804DB0A073B
:10590000130E054A135406E00A07140E034A00F06A
:105910000F031B1FD45410BD00E400E018ED00E09D
:10592000EFF3058070470000FCF7EAFEFFF722FB6B
:10593000FEF77AFFFEF700FFFEF7E8FEFEF718FF1E
:10594000FFF766F9FFF7D8F8FEF7A8FEFFF70AFAA7
:10595000FFF79AFAFFF7DEFAFFF7AAF9FFF730F937
:10596000FFF75AFAFFF762FE002000F041F802202C
:1059700000F03EF81848FEF7B1F81848FEF7AEF808
:105980001748FEF7ABF81748FEF7A8F81648FEF7D9
:10599000F3F81648FEF7F0F800210F48FEF7D4FBA5
:1059A00000210E48FEF7D0FB04210C48FEF7CCFB8B
:1059B00004210B48FEF7C8FB08210948FEF7C4FB89
:1059C00004210848FEF7C0FB00F062F8FEF710FF64
:1059D00000F074F800BFFEE7EC1700203418002038
:1059E0007C1800200C190020C41800205419002035
:1059F00010B50446074951F824108A00064951F8A9
:105A00002400002100F02AF8012103480C30015540
:105A100010BD0000C4810008E800002010B5014658
:105A20000023002207E00B4850F8210050F8220024
:105A300000B15B1C521C084850F821009042F2D87B
:105A40004FF47A705843044C54F82140B0FBF4F002
:105A500080B210BDE8000020C481000830B50346C4
:105A600001E003F8011B141EA2F10102F9D130BDBF
:105A700070B50546FFF754FF10B16FF0050404E060
:105A8000002415B1284601F03FF8204670BD000003
:105A900010B5FFF745FF10B16FF0050409E00648A7
:105AA000006820B9012004490860002401E04FF09B
:105AB000FF34204610BD00007C00002070B5FFF7C9
:105AC0002FFF10B16FF005041FE011480068012896
:105AD00019D100BF801F0021002804DB0A07130E24
