:020000040800F2
:10000000E08C01204D0300080B2F0008BD270008DD
:10001000092F0008B5080008F134000800000000AE
:100020000000000000000000000000008D02000839
:100030004109000800000000E90200083D30000806
:1000400067030008670300086703000867030008E8
:1000500067030008670300086703000867030008D8
:1000600067030008670300086703000867030008C8
:1000700067030008670300086703000867030008B8
:1000800067030008670300086703000867030008A8
:100090006703000867030008670300086703000898
:1000A0006703000867030008670300086703000888
:1000B00067030008670300080931000867030008A8
:1000C0006703000867030008670300086703000868
:1000D0006703000867030008670300086703000858
:1000E0006703000867030008670300086703000848
:1000F0006703000867030008670300086703000838
:100100006703000867030008670300086703000827
:100110006703000867030008670300086703000817
:10012000B9080008670300086703000867030008B0
:1001300067030008670300086703000867030008F7
:1001400067030008670300086703000867030008E7
:1001500067030008670300086703000867030008D7
:1001600067030008670300086703000867030008C7
:100170006703000867030008670300080000000029
:1001800067030008670300086703000867030008A7
:100190006703000867030008670300086703000897
:1001A00067030008670300086703000800F002F80F
:1001B00000F05CF80AA090E8000C82448344AAF1A5
:1001C0000107DA4501D100F051F8AFF2090EBAE8A3
:1001D0000F0013F0010F18BFFB1A43F0010318477B
:1001E0002C7D04004C7D04000A444FF0000C10F8F4
:1001F000013B13F0070408BF10F8014B1D1108BFA5
:1002000010F8015B641E05D010F8016B641E01F844
:10021000016BF9D113F0080F1EBF10F8014BAD1C94
:100220000C1B09D16D1E58BF01F801CBFAD505E0B2
:1002300014F8016B01F8016B6D1EF9D59142D6D30C
:10024000704700000023002400250026103A28BF34
:1002500078C1FBD8520728BF30C148BF0B60704738
:100260001FB52CF073FE1FBD10B510BD00F053FA82
:100270001146FFF7F5FF23F0C5FA00F071FA03B459
:10028000FFF7F2FF03BC00F079FA00002C4B19686D
:100290000868B0E8F04F80F30988BFF36F8F4FF024
:1002A000000080F3118870470000000008480068D3
:1002B000006880F308884FF0000080F3148862B66D
:1002C00061B6BFF34F8FBFF36F8F00DF00BF00BF7A
:1002D00008ED00E0DFF80C00016841F470010160F6
:1002E000704700BF88ED00E0EFF30980BFF36F8F28
:1002F000134B1A681EF0100F08BF20ED108A20E97A
:10030000F04F106009B44FF0500080F31188BFF334
:100310004F8FBFF36F8F2CF007F84FF0000080F382
:10032000118809BC19680868B0E8F04F1EF0100F7A
:1003300008BFB0EC108A80F30988BFF36F8F704755
:1003400020000020EFF30580704700000948804737
:1003500009480047FEE7FEE7FEE7FEE7FEE7FEE7A7
:10036000FEE7FEE7FEE7FEE704480549054A064BBF
:1003700070470000F9300008AD010008E086012058
:10038000E08C0120E0880120E088012053EA020C83
:1003900000F069802DE9F04B4FF00006002B1FBFE5
:1003A000B3FA83F503FA05F424FA05F65E4012BFAA
:1003B0001643B2FA82F502FA05F4C5F120051EBF14
:1003C00022FA05FC44EA0C04203556EA044C4FEAB4
:1003D000144418BF641C4FF000084FF0000990420D
:1003E00071EB030C39D3002919BFB1FA81F701FA77
:1003F00007F6B0FA80F700FA07F6C7F120071EBF2C
:1004000020FA07FC46EA0C062037B6FBF4FCA7EB03
:100410000507103F07F01F0BCBF120060CFA0BFB72
:100420002CFA06F644BFB3460026202FA4BF5E4632
:100430004FF0000B5BEA060C08BF4FF0010B19EB05
:100440000B09ABFB027C48EB0608C01B06FB02CC89
:100450000BFB03CC71EB0C01C1E70B460246414696
:100460004846BDE8F08B13B54FF000004FF0000197
:10047000AFF30080BDE81C40704740EA010302462C
:1004800030B59B0710D14FF0013400E008C208C915
:100490001D1B9D4315EAC41FF8D013F0FF0102F89D
:1004A000011B0DD01B0AF8E711F8013B002B02F8E5
:1004B000013B05D011F8013B002B02F8013BF3D1C1
:1004C00030BD10B5431C02E010F8011B71B181076B
:1004D000FAD14FF0013202C88C1A8C4314EAC211CF
:1004E000F9D0C01A0A0603D0C01E10BDC01A10BD34
:1004F0000A0401D0801E10BD0902FCD0401E10BDB0
:10050000032A40F2308010F0030C00F0158011F83F
:10051000013BBCF1020F624498BF11F801CB00F817
:10052000013B38BF11F8013BA2F1040298BF00F86B
:1005300001CB38BF00F8013B11F0030300F0258028
:10054000083AC0F0088051F8043B083A51F804CB4F
:10055000A0E80810F5E7121D5CBF51F8043B40F815
:10056000043BAFF30080D20724BF11F8013B11F820
:1005700001CB48BF11F8012B24BF00F8013B00F864
:1005800001CB48BF00F8012B704710B5203AC0F0EE
:100590000B80B1E81850203AA0E81850B1E8185084
:1005A000A0E81850BFF4F5AF5FEA027C24BFB1E8C1
:1005B0001850A0E8185044BF18C918C0BDE8104032
:1005C0005FEA827C24BF51F8043B40F8043B08BF3B
:1005D0007047D20728BF31F8023B48BF11F8012B02
:1005E00028BF20F8023B48BF00F8012B704702F0FB
:1005F000FF0343EA032242EA024200F06CB84FF0E4
:10060000000200B5134694469646203922BFA0E862
:100610000C50A0E80C50B1F12001BFF4F7AF09076E
:1006200028BFA0E80C5048BF0CC05DF804EB89005F
:1006300028BF40F8042B08BF704748BF20F8022BA2
:1006400011F0804F18BF00F8012B70474FF0013CAC
:1006500050F8042B51F8043B9A4221D1A2EB0C0331
:10066000934313EACC1317D150F8042B51F8043BF1
:100670009A4215D1A2EB0C03934313EACC130BD18E
:1006800050F8042B51F8043B9A4209D1A2EB0C0319
:10069000934313EACC13DBD04FF00000704700BF48
:1006A000D01A01BAB1FA81F101F0180122FA01F071
:1006B000CB40C1F12001DBB2C0B2C01A2CFA01F369
:1006C000D11A914311EAC311E6D1704770477047C0
:1006D00070474FF000020429C0F0128010F0030CA4
:1006E0003FF48FAFCCF1040CBCF1020F18BF00F83F
:1006F000012BA8BF20F8022BA1EB0C01FFF781BF53
:100700005FEAC17C24BF00F8012B00F8012B48BF31
:1007100000F8012B7047754600F02CF8AE46050036
:100720006946534620F00700854618B020B5FFF70C
:100730001BFEBDE820404FF000064FF000074FF0D1
:1007400000084FF0000B21F00701AC46ACE8C009EF
:10075000ACE8C009ACE8C009ACE8C0098D467047F8
:1007600010B50446AFF300802046BDE81040FFF707
:1007700086BD00000048704780860120014918208E
:10078000ABBEFEE72600020070470000464910B5E8
:100790004A6822F440324A604A6843681A434A6011
:1007A00001684A6822F480724A6001684A680369F5
:1007B00042EA03224A6001684A6822F040724A60B5
:1007C00001684A6883681A434A6001688A6822F4AB
:1007D00000628A6001688A68C3681A438A60816A15
:1007E0006FF07062D14201688A6822F070628A609C
:1007F00001688A680CD0836A1A438A6001688A6833
:1008000022F040528A6001688A68C36A1A4301E094
:1008100022F040528A6001688A6822F002028A60EF
:1008200001688A68037E42EA43028A6090F82010D9
:10083000002901684A680FD042F400624A600168EA
:100840004A6822F460424A6001684A68174C436A69
:1008500004EB43331A4301E022F400624A6001686A
:10086000CA6A22F47002CA620168CA6A838B104C99
:1008700004EB03531A43CA6201688A6822F40072C7
:100880008A6001688A6890F8303042EA43228A60C0
:1008900001688A6822F480628A6001688A68406917
:1008A00042EA8020886010BD0023014000E0FFFF85
:1008B0000000F0FFFEE70000014800F063BA00000E
:1008C0008C18002001681823CAB2103AB2FBF3F268
:1008D000054B6FF30901032A9B5CC36500D9091D11
:1008E0008165084670470000B8CF020810B5014680
:1008F00000208B698A6A4FF0C07453B1B3F5005F72
:1009000015D072B1012A0CD0022A0AD0032A09D1CB
:1009100004E01AB1012A06D0022A03D1C96AC9012A
:1009200000D5012010BDC96AA142FAD010BD002A2D
:10093000F7D0012AF2D0022AF3D0032AF3D010BD57
:10094000704772B6FEE7F0B5D1E907354C6A0A6820
:10095000C2B102682B4322F4F842144323430360DC
:10096000D1E901231A43D1E9033423431A434B69E4
:1009700089691A430A4341686FF30E010A434260D2
:100980000020F0BDD1E901263243D1E903673E439F
:1009900032434E69896932430A431A432A43016844
:1009A00022436FF30E010A430260E9E7426943F60E
:1009B000FE739A4342EA410141610020704770B5DD
:1009C00014460546D1E9000210438A686FF01F0300
:1009D000C96803EB421242EA4121084329696FF3D7
:1009E00015010843286100F09DFC064609E0601CE3
:1009F00007D024B100F096FC801BA04201D903204F
:100A000070BDA8698006F2D4002070BDF0B56FF00B
:100A10000F058C8A2E014FEA054ECB682F034FF04D
:100A20007F4C0EEB04540AB31A03A2F5805283687C
:100A300022431D4C23401A438260D1E9002305EB79
:100A40000313521E1A438B6806EB03231A430B8AC7
:100A5000097E07EB03431A430CEB01610A43C168AB
:100A600001F070410A43C2600020F0BDD1E9002EC0
:100A700005EB0E15521E2A438D6806EB05252A4309
:100A80000A4D05EB03331A430B8A097E07EB034338
:100A90001A4322430CEB01610A43816801F0704163
:100AA0000A438260E0E70000FF0F0FFF00F0FFFF46
:100AB00078B50024009490F83C20012A19D0012236
:100AC00080F83C200A6807230568092A13D9EE68D4
:100AD0000A3A02EB420293409E43EE600B788A682A
:100AE0000A3B03EB43039A400368DD682A43DA605C
:100AF00010E0022078BD2E6902EB420293409E4333
:100B00002E610B788A6803EB43039A4003681D69E2
:100B10002A431A614A681F23072A13D205686E6B9D
:100B2000521E02EB820293409E436E630A8893B288
:100B30000A79521E02EB820293400268556B2B43E6
:100B4000536327E005680D2A12D22E6BD21F02EBE9
:100B5000820293409E432E630B790A88DB1F92B278
:100B600003EB83039A4003681D6B2A431A6311E069
:100B7000EE6A0D3A02EB820293409E43EE620B79DD
:100B80000A880D3B92B203EB83039A400368DD6A47
:100B90002A43DA621B4B0568194A9D420AD10D6847
:100BA000122D07D1556825F400055560556845F4A8
:100BB0008005556005689D421DD1134D0B68AB4201
:100BC00001D0112B17D1536823F48003536053686D
:100BD00043F4000353600968A9420CD10B490C4A45
:100BE0000968B1FBF2F101EB8101490000E0491E07
:100BF00000910029FBD180F83C40002078BD000026
:100C000000230140002001401200001010000020CD
:100C100040420F0070B504004FF0000503D0206C77
:100C2000002610B107E0012070BD204600F01CF83E
:100C3000666484F83C60206CC00610D4206C20F4FC
:100C4000885040F0020020642046FFF79FFD666454
:100C5000206C20F0020040F00100206400E001253B
:100C600084F83C60284670BD70B586B006461421F5
:100C70006846FFF7C4FC1D493068884233D11C48E0
:100C80000025016841F480710160006800F4807003
:100C9000059017481438016841F0040101600068AC
:100CA000694600F004000590202000900320CDE963
:100CB0000105104800F012FA104C0F48C4E9000575
:100CC0000015A560C4E90350400060618000C4E9DC
:100CD000060525622046656200F024F908B1FFF799
:100CE00030FEB463A66306B070BD00000020014072
:100CF0004438024000080240106402408C18002072
:100D000070B5040004D094F83900002510B106E055
:100D1000012070BD84F83850204600F01FF80220F2
:100D200084F8390020680168626821F44031114379
:100D300001602068416BA26821F007011143416303
:100D40002068016CE2686FF30D0111430164E563F3
:100D5000012084F83900002070BD000008B500684B
:100D60000649884208D10648016841F40001016043
:100D7000006800F40000009008BD000000B00240D0
:100D8000303802402DE9F84304464FF00009CDF811
:100D9000009063484FF41651A56D0068B0FBF1F761
:100DA0002E6894F85C10082000FA01F131420FD04F
:100DB00021680A6852070BD50A6822F004020A600B
:100DC00094F85C108840A860606D40F00100606598
:100DD00094F85C104FF0010808FA01F0304208D096
:100DE00021684969090604D5A860606D40F00200D9
:100DF000606594F85C1004208840304208D0216877
:100E00000968890704D5A860606D40F0040060653A
:100E100094F85C1010208840304218D0216809688E
:100E2000090714D5A86020680168490304D5006843
:100E3000000308D5A16C07E00168C90503D4016867
:100E400021F008010160216C09B12046884794F81F
:100E50005C1020208840304231D021680968C906E2
:100E60002DD5A86094F8350005282068016806D0C3
:100E7000490347D5006800031DD4616C1CE021F0D4
:100E8000160101602068416921F080014161206CF8
:100E900008B9A06C20B12068016821F00801016048
:100EA00094F85C103F208840A86084F8358084F86E
:100EB0003490216D1FE0E16B09B120468847606DD9
:100EC00000282BD0606DC00714D0052084F83500B1
:100ED0002068016821F0010101600098401C009029
:100EE000B84203D820680068C007F6D184F835807E
:100EF00084F83490E16C002910D001B02046BDE8A0
:100F0000F04308470168C905D5D4016821F01001F4
:100F1000016084F8358084F83490CCE7BDE8F8832C
:100F2000100000202DE9F041044600F0FBF90646D0
:100F30005CB1022084F83500002584F83450206824
:100F4000016821F0010101600DE00120BDE8F081A0
:100F500000F0E8F9801B052805D9202060650320F2
:100F600084F83500F2E720680068C007F0D12268F5
:100F7000116820480140D4E901031843D4E903363D
:100F80003343184363691843A3691843E36918435B
:100F9000236A18430843616A042903D1D4E90B1377
:100FA00019430843106020684069666A20F0070111
:100FB00030460E43012704280CD1A06A0643E06A9C
:100FC00040B12046FFF792FC20B14020606584F8D4
:100FD0003570BAE7206846612046FFF773FC94F845
:100FE0005C203F2191408160656584F83570002068
:100FF000ACE700003F8010F070B5044600F092F9B5
:101000000546601C02D004480078044400F08AF9C8
:10101000401BA042FAD370BD14000020F0B587B089
:1010200014216846FFF7EBFA25480168002944D1EE
:101030000121016023480024016841F001010160A1
:101040000068022500F0010005904FF63F00CDE951
:10105000000502AA03260C2782E8D00069461A4838
:1010600000F03CF80D20CDE9000502AA694682E8AF
:10107000D000164800F032F848F23710CDE90005EC
:1010800002AA694682E8D000114800F027F84FF61E
:101090008370CDE9000502AA694682E8D0000D48B8
:1010A00000F01CF84CF20370CDE9000502AA694675
:1010B00082E8D000084800F011F807B0F0BD000049
:1010C00008000020383802400014024000080240A6
:1010D0000018024000100240000C02402DE9F84FB9
:1010E000DFF8F8A10022012403254FF00F090AF1CF
:1010F000040BAAF1040E00BF0B6804FA02F6334099
:10110000B34270D10F7907F00307012F01D0022FEE
:1011100016D187684FEA420805FA08FC27EA0C074F
:10112000D1F80CC00CFA08FC4CEA070CC0F808C057
:101130004768B7430E79C6F3001696403E434660B3
:101140000E79F643B6070AD0C7684FEA420C05FA93
:101150000CF6B7438E6806FA0CF63E43C6600E796D
:1011600006F00306022E10D1D60800EB8608D8F848
:10117000206057074FEAD76C09FA0CF7BE430F6996
:1011800007FA0CF73743C8F8207006684FEA420C9C
:1011900005FA0CF7BE430F7907F0030707FA0CF7BF
:1011A000374307604E6816F4403F1CD04C4E3768FA
:1011B00047F480473760366822F0030706F480461C
:1011C0000096484E07EB060CDCF8086897073F0FBF
:1011D00009FA07F826EA0806DFF80C81404503D132
:1011E0004FF0000841E072E0DFF80081404502D195
:1011F0004FF0010839E0DFF8F880404502D14FF0A8
:10120000020832E0DFF8EC80404502D14FF00308DD
:101210002BE0DFF8E480404502D14FF0040824E0E1
:10122000DFF8D880404502D14FF005081DE0DFF817
:10123000D080404502D14FF0060816E0DFF8C480A8
:10124000404502D14FF007080FE0DFF8BC80404571
:1012500002D14FF0080808E0DFF8B080404502D125
:101260004FF0090801E04FF00A0808FA07F848EAC9
:101270000608CCF80888DAF800605746D1F804C0B0
:101280009E435FEACC2C00D51E433E60DBF8006035
:101290005F46D1F804C09E435FEA8C2C00D51E4304
:1012A0003E60DEF800607746D1F804C09E435FEAF6
:1012B0008C3C00D51E433E60084F083F3E68D1F885
:1012C00004C09E435FEACC3C00D51E433E60521CE6
:1012D000102AFFF411AFBDE8F88F0000083C014070
:1012E0004438024000300140000002400004024047
:1012F00000080240000C02400010024000140240AE
:1013000000180240001C024000200240002402405D
:101310000069084000D0012070470AB18161704720
:101320000904FBE7014880687047000014000020B2
:1013300002488168027811448160704714000020DF
:101340000B4810B5016841F400710160016841F477
:1013500080610160016841F480710160032000F048
:1013600067FA0F2000F006F800F018FA002010BD10
:10137000003C024030B505461F4887B00024016894
:1013800041F004010160006806A900F0040000902B
:1013900001A800F05BFC0498A8B100F077FC4000C5
:1013A0001649174AB0FBF1F11648491E026040F297
:1013B000E732C0E90324C0E90114846100F00EFFA4
:1013C000040003D015E000F061FCE9E70D4800F0EF
:1013D00061FF04000DD11E2000F0FCF9102D07D292
:1013E000002229461E2000F003FA0748056000E0AD
:1013F000012407B0204630BD4038024040420F0073
:1014000000080040281B0020180000202DE9F041B2
:10141000044690F8A00016460F4601281DD001256D
:1014200084F8A050022084F8A10006EB860000EBAF
:10143000C60004EB800034223830FFF7A6F83246AD
:101440003946204601F0BBF92068456284F8A15076
:10145000002084F8A000BDE8F0810220FBE7000036
:1014600070B5040004D094F8A100002510B106E086
:10147000012070BD84F8A050204600F06BF80220D7
:1014800084F8A1002068816921F070418161D4E96C
:1014900001010843D4E903121143084321688A6912
:1014A0001043886121688A68294802408A60A18ABD
:1014B0000A0421688B68A669334313438B60216853
:1014C000CA680240CA60A18B0B042168CA68266AF8
:1014D00032431A43CA6021680A6902400A61A18C3A
:1014E00022680B041169A66A31431943116121680E
:1014F0004A6902404A61A08D010420684269236B59
:101500001A430A43426194F835002168020294F8B4
:101510003600CB6A03F07F43CB622168CB6A94F834
:10152000346042EA004033430343CB622068416B9E
:1015300041F0060141632068816941F00101816148
:10154000C4F8A450012084F8A100002070BD000060
:1015500000F800F02DE9F04792B0044614216846E7
:10156000FFF74DF8302105A8FFF749F859492068E1
:1015700088427DD14FF4967009904FF480304FF03F
:10158000080803240E90CDF814800B9405A800F0F1
:1015900099F908B1FFF7D5F94F480025016841F0E6
:1015A00080610160006800F0806011904A48143842
:1015B000016841F020010160016801F020011191F2
:1015C000016841F001010160016801F00101119120
:1015D000016841F002010160016801F0020111910E
:1015E000016841F040010160016801F04001119182
:1015F000016841F004010160016801F004011191EA
:10160000016841F0080101600068022600F008004E
:1016100011904FF48060CDE90006CDE902540E2709
:10162000694604972D48FFF759FD41F65800CDE96A
:101630000006CDE90254694604972948FFF74EFD9C
:10164000CDE90046DFF89CA0CDE902544FF009092E
:1016500069465046CDF81090FFF740FD4FF470609A
:10166000CDE90006CDE9025469460497504600E0F2
:101670002DE0FFF733FD4FF40C60CDE90006DFF8F5
:1016800068A0CDE90254694604975046FFF726FD4D
:10169000C020CDE90006CDE90254694604971348FD
:1016A000FFF71CFDCDE90254CDE9008669461048DC
:1016B0000497FFF713FD4FF4A050CDE90006CDE9E4
:1016C00002546946CDF810905046FFF707FD12B05E
:1016D000BDE8F08700680140443802400014024031
:1016E00000000240000402400018024000080240CE
:1016F000000C024070B5044690F8A0000E46012888
:1017000020D0012584F8A050022084F8A10003EB2A
:10171000830000EBC30004EB800141F8386F886A56
:101720003044C1E90102C86A1044C8601A46204624
:1017300001F045F82068456284F8A150002084F843
:10174000A00070BD022070BD70B5044690F8A000E6
:101750000E46012820D0012584F8A050022084F8EC
:10176000A10003EB830000EBC30004EB800151F800
:10177000380F3044486088681044C860C1E90A6284
:101780001A46204601F01BF82068456284F8A150F3
:10179000002084F8A00070BD022070BD0C4882B00B
:1017A000016841F480410160006800F480400090CD
:1017B0000748001F016841F0805101600068002265
:1017C00000F0805000900F21901E02B000F010B881
:1017D00044380240002809DB00F01F02012191403B
:1017E0004009800000F1E020C0F8001170470000BF
:1017F000F0B40E4B1B680C46C3F30223C3F107057C
:10180000042D00D90425191D072901D2002300E069
:10181000DB1E012606FA05F1491E214099409E4033
:10182000761E16403143F0BC01F063BE0CED00E0C3
:10183000064900F0070208684FF6FF03184040EA27
:101840000220034A10430860704700000CED00E0DE
:101850000000FA052DE9F8431748016841F080516E
:1018600001600068154F00F08050012600903E6432
:10187000FFF758FD05464FF47A78114C05E000BF9C
:10188000FFF750FD401B40450DD86068C003F7D5F9
:101890007E64FFF747FD0546464607E0FFF742FD39
:1018A000401BB04202D90320BDE8F8836068800382
:1018B000F4D50020F8E700004038024000000E4256
:1018C000007000402DE9F84F04460068DFF824A2BC
:1018D000894F8A4DC1074FF001084FF0000603D130
:1018E000810701D4400648D5CAF86860FFF71AFDA1
:1018F000814605E0FFF716FDA0EB090002287DD820
:1019000028680001F6D42078C1077D4805D06168B9
:10191000227A890141EA027101602178890711D593
:1019200001686268237B9201C1F3027142EA03629B
:1019300042EA017101603968E26921F01F01521E1B
:10194000114339602178490608D56168227B8901F5
:1019500041EA0261227A41EA02710160CAF86880B4
:10196000FFF7E0FC814605E0FFF7DCFCA0EB090097
:10197000022843D828680001F6D52068410701D421
:1019800000074ED5CAF87060FFF7CCFC814605E031
:10199000FFF7C8FCA0EB090002282FD82868C04335
:1019A0008000F5D520784107564814D50168226992
:1019B000237D9201C1F3027142EA036242EA01719E
:1019C00001603968226A6FF0FF0321F4F85103EBDC
:1019D0000222114339602178090712D50168226972
:1019E000C1F30361920142EA0161227E41EA027180
:1019F00001603868616A20F4403000E051E008433B
:101A00003860CAF87080FFF78DFC074605E000BF1C
:101A1000FFF788FCC01B022843D82868C043800019
:101A2000F6D42078800653D534484030016841F020
:101A3000805101600068344D00F0805000902868AB
:101A400040F480702860FFF76DFC074605E000BF9A
:101A5000FFF768FCC01B022823D82868C005F7D50B
:101A6000274D143D286810F4407020D0218D01F4DA
:101A7000407181421BD0286820F440712348C0F88F
:101A80000080066029602868C00710D0FFF74AFC74
:101A9000064641F2883707E0FFF744FC801BB84256
:101AA00002D90320BDE8F88F28688007F4D5A16A21
:101AB0001248C1F301220830032A13D0016821F42F
:101AC000F81101602868218DC1F30B0108432860DB
:101AD0002078C00604D50E4994F82C00C1F8E00126
:101AE0000020DFE702680B4B22F4F81219400A438A
:101AF0000260E7E7000047428C38024000380240AD
:101B0000843802408838024000700040400E47424E
:101B100000104742FFFCFF0F2DE9F0470E4605007D
:101B200065D0DFF81481D8F80000F7B200F00F009C
:101B3000B04207D288F80070D8F8000000F00F001B
:101B4000B04254D128683D4C810712D5400703D5D7
:101B5000206840F4E05020602878000703D5206812
:101B600040F4604020602068A96820F0F00008433D
:101B700020602878C0072DD03049686808390128CE
:101B800012D0022813D0032811D009688907002930
:101B90002DDA216821F0030101432160FFF7C2FB28
:101BA000814641F2883A0EE009688903EFE7096847
:101BB0008901ECE7FFF7B6FBA0EB0901514502D91B
:101BC0000320BDE8F0872068696800F00C00B0EBE6
:101BD000810FEFD1D8F80010404601F00F01B1425B
:101BE00007D90770006800F00F00B04201D0012053
:101BF000E7E72878400705D52068E96820F4E05039
:101C0000084320602878000706D52068296920F459
:101C1000604040EAC100206000F058F82168084A9E
:101C2000C1F30311515CC8400649086006480068CA
:101C3000FFF7A0FB0020C4E7003C02400838024048
:101C4000A0CF020810000020180000200F22026020
:101C50000C4A136803F003034360136803F0F003B6
:101C60008360136803F4E053C36012684FF4E053D9
:101C700003EAD20202610448006800F00F00086025
:101C80007047000008380240003C02400448054903
:101C900000680968044AC1F38221515CC84070475A
:101CA0001000002008380240B0CF0208044805495F
:101CB00000680968044AC1F34231515CC84070476A
:101CC0001000002008380240B0CF0208154810B5B7
:101CD000006810F00C02144813D04110042A0FD0F1
:101CE000082A0ED10F4C241F2268236802F03F02FD
:101CF0005B0207D52068C0F38810A0FB010106E055
:101D0000084610BD2168C1F38811A1FB0001002322
:101D1000FEF73CFB2168C1F30141491C4900B0FBBF
:101D2000F1F010BD083802400024F4002DE9F84F0E
:101D300004006ED02078DFF84C93C007A9F10405A9
:101D40004AD009F104000168C1F38101012908D0DA
:101D50000068C0F3810002280AD1D9F800004002CF
:101D600006D52868800337D560680028E1D033E0C5
:101D70006068B0F5803F10D0B0F5A02F286810D073
:101D800020F480302860286820F480202860606873
:101D9000A8B1FFF7C7FA06460DE0286840F4803086
:101DA000F4E740F480202860F7E700BFFFF7BAFAB5
:101DB000801B642873D828688003F7D50CE0FFF7F0
:101DC000B1FA064605E000BFFFF7ACFA801B6428B5
:101DD000F0D828688003F7D42078DFF8AC82800739
:101DE0004FF0000A3ED5A748001D016811F00C0F06
:101DF00008D00068C0F3810002280BD1D9F8000098
:101E0000400207D42868800716D5E068012800D171
:101E100012E033E1E068B8B10120C8F80000FFF734
:101E200081FA064605E000BFFFF77CFA801B022816
:101E3000C0D828688007F7D52868216920F0F80005
:101E400040EAC10028600DE0C8F800A0FFF76AFA78
:101E5000064604E0FFF766FA801B02281FD82868B0
:101E60008007F7D42078000722D5864F874861691C
:101E7000703771B101210160FFF754FA064604E0A2
:101E8000FFF750FA801B022809D838688007F7D579
:101E90000EE0C0F800A0FFF745FA064605E082E034
:101EA000FFF740FA801B02287DD838688007F7D4F6
:101EB0002078400768D5DFF8CCB100270BF13C0B48
:101EC000DBF80000C0000BD4DBF8001041F08051BB
:101ED000CBF80010DBF80000012700F080500090E4
:101EE0006B4E3068C00510D4306840F480703060AC
:101EF000FFF718FA009005E0FFF714FA0099401A6E
:101F0000022850D83068C005F6D55E4EA0686C3601
:101F100001280FD00528306810D020F00100306073
:101F2000306820F004003060A068B8B1FFF7FAF91B
:101F300000900FE0306840F00100F4E740F004004A
:101F40003060F7E7FFF7EEF90099411A41F2883067
:101F5000814266D830688007F4D50EE0FFF7E2F9D9
:101F6000009007E0FFF7DEF90099411A41F288304E
:101F7000814256D830688007F4D42FB1DBF80010C6
:101F800021F08051CBF80010A069C8B33D49091D6C
:101F90000968C1F3810102294AD00228504607D0BE
:101FA000C8F8600000E03CE0FFF7BCF904463BE005
:101FB0004746C8F86000FFF7B5F9064605E000BFE0
:101FC000FFF7B0F9801B02282BD828688001F7D4CE
:101FD000D4E907010843A16A2E4A490802EB0141EE
:101FE000626A41EA8211084394F82C1040EA0161C8
:101FF000C9F8001001203866FFF794F9044606E09E
:102000003EE000BFFFF78EF9001B022809D82868C0
:102010008001F7D534E000BFFFF784F9001B0228E8
:1020200002D90320BDE8F88F28688001F4D427E0A6
:102030000128F7D0D9F80000E26900F4800191424C
:102040001CD1226A00F03F01914217D147F6C071BE
:10205000626A0140B1EB821F10D1A26A4FF0FF33D8
:1020600000F4403103EB5202B1EB024F06D194F879
:102070002C1000F07060B0EB016F01D00120D1E7AF
:102080000020CFE70438024000004742800E47425C
:10209000007000400000FFFF70B50D46040003D043
:1020A00094F82C0010B107E0012070BD002084F8E6
:1020B0002D00204600F011F8022084F82C00211D8C
:1020C0002068FEF740FCD4E900022946FEF79EFC9A
:1020D000012084F82C00002070BDFEF79FBF10B5D2
:1020E000044690F82C00022804D094F82C00012813
:1020F00001D0012010BD022084F82C002068FEF7DA
:1021000055FC012084F82C00002010BD70B5044659
:1021100090F82C000D46022804D0012803D0052891
:1021200001D0012070BD022084F82C002068FEF749
:1021300046FC2868022805D05FF0010084F82C00D6
:10214000002070BD0520F9E77047704770B590F822
:102150003C20012A32D0012480F83C40022280F841
:102160003D2003685A689D6822F070060A68324371
:102170005A60134B02689A4214D0B2F1804F11D0CA
:10218000104B9A420ED0104B9A420BD00F4B9A42F2
:1021900008D00F4B9A4205D00E4B9A4202D00E4BFC
:1021A0009A4204D1496825F080031943916080F870
:1021B0003D40002180F83C10084670BD022070BDF3
:1021C000000001400004004000080040000C0040F6
:1021D00000040140004001400018004010B5040018
:1021E00003D094F83D0010B107E0012010BD00209D
:1021F00084F83C00204600F01FF8022084F83D00DF
:10220000211D206800F086FF012084F8460084F834
:102210003E0084F83F0084F8400084F8410084F8D0
:10222000420084F8430084F8440084F8450084F8B0
:102230003D00002010BD000008B501681248B1F152
:10224000804F0BD0114A914210D1016841F0080132
:102250000160006800F00800009008BD016841F0CE
:1022600001010160006800F00100F5E708488142C3
:10227000F3D10548001D016841F480310160006818
:1022800000F48030E8E7000040380240000C0040D5
:102290000040014090F83D10012901D00120704715
:1022A000022180F83D100168CA6842F00102CA604C
:1022B00000681149884214D0B0F1804F11D00F4905
:1022C00088420ED00E4988420BD00E49884208D071
:1022D0000D49884205D00D49884202D00C498842F8
:1022E00004D1816801F00701062903D0016841F09B
:1022F000010101600020704700000140000400401F
:1023000000080040000C0040000401400040014073
:102310000018004070B5044690F83C0000250128E4
:1023200017D0012684F83C60022084F83D00206824
:10233000826822F0770222F47F4282600868502887
:1023400038D00DDC20284FD005DC90B3102811D1F7
:102350004AE0022070BD302846D040280AD13BE038
:1023600060282FD070280DD0B0F5805F03D0B0F575
:10237000005F12D0012584F83D60002084F83C0005
:10238000284670BDCB68D1E90121206800F02EFFFE
:102390002068816841F0770109E0CB68D1E901212B
:1023A000206800F023FF2068816841F4804181604B
:1023B000E1E719E0CA684968206800F0EBFF5021A6
:1023C000206806E0CA684968206800F0F4FF6021D0
:1023D000206800F015FFCEE7CA684968206800F061
:1023E000D9FF40212068F4E7226801461046F0E753
:1023F00070472DE9F04104460068C66805694FF052
:102400000007A90713D5B10711D5F91E01610120F5
:102410002077206880698007204602D0FFF7E8FF18
:1024200004E000F0C1F8204600F053F92777680770
:1024300016D5700714D521686FF0040008610220DA
:1024400020772068806910F4407F204602D0FFF793
:10245000CFFF04E000F0A8F8204600F03AF9277713
:10246000280715D5300713D521686FF008000861DB
:10247000042020772068C0698007204602D0FFF73B
:10248000B7FF04E000F090F8204600F022F927772B
:10249000E80616D5F00614D521686FF01000086123
:1024A000082020772068C06910F4407F204602D0C1
:1024B000FFF79EFF04E000F077F8204600F009F9EE
:1024C0002777E80708D0F00706D021686FF00100F1
:1024D0000861204600F0FEF8280608D5300606D52B
:1024E00021686FF0800008612046FFF72DFE680626
:1024F00008D5700606D521686FF0400008612046B7
:1025000000F0F2F8A8060AD5B00608D521686FF0E9
:10251000200008612046BDE8F041FFF716BEBDE887
:10252000F081000010B586B0044614216846FEF71D
:1025300066F82368174C002117480222A34210D1E5
:10254000036843F001030360006800F00100059098
:1025500006200090CDE90121CDE9031269460F481C
:1025600013E00F4CA34212D1036843F01003036041
:10257000006800F01000059040200090CDE9012196
:102580000320CDE9031069460648FEF7A7FD06B013
:1025900010BD0000000C0040303802400000024036
:1025A0000040014000100240704770B5044690F8AA
:1025B0003C0000260D4601280FD0012084F83C0085
:1025C0006AB1042A1DD0082A2FD00C2A3FD0012638
:1025D000002084F83C00304670BD022070BD2068A9
:1025E00000F016FE2068816941F0080181612068D1
:1025F000816921F004018161206881692A691143A0
:1026000011E0206800F034FE2068816941F4006127
:1026100081612068816921F480618161206881691C
:102620002A6941EA02218161D2E7206800F056FE62
:102630002068C16941F00801C1612068C16921F0C9
:102640000401C1612068C1692A69114311E0206851
:1026500000F078FE2068C16941F40061C161206822
:10266000C16921F48061C1612068C1692A6941EAB8
:102670000221C161ACE710B5040003D094F83D001D
:1026800010B107E0012010BD002084F83C00204676
:1026900000F01EF8022084F83D00211D206800F0A3
:1026A00039FD012084F8460084F83E0084F83F009C
:1026B00084F8400084F8410084F8420084F8430024
:1026C00084F8440084F8450084F83D00002010BDE3
:1026D0007047704700680349884201D1FEF728BE61
:1026E0007047000000080040704770B5040004D037
:1026F00094F84100002510B106E0012070BD84F877
:102700004050204600F024F8242084F8410020683E
:10271000C16821F40051C160204600F05FFE2068CE
:10272000016921F4904101612068416921F02A0189
:1027300041612068C16841F40051C1606564202096
:1027400084F8410084F842006563002070BD0000F9
:1027500010B586B0044614216846FDF750FF1449B1
:102760002068884221D113480021026842F01002FB
:102770000260006800F0100005900E4814380268EE
:1027800042F001020260006800F0010005904FF481
:10279000C06000900220CDE90101032003900720D2
:1027A000049069460448FEF799FC06B010BD00008D
:1027B000001001404438024000000240FEE7F0B53E
:1027C00003688C88DD68C5F30B452C4425048824F8
:1027D00004EBC2141E5906F470461E5103680F68BC
:1027E000DE68C6F30B46761C3E442E431E51046839
:1027F0008B89E568C5F30A052B441D048C2303EB84
:10280000C213E65806F47046E65004688F68E6681E
:10281000C6F30A06761C3E442E43E6509423046811
:1028200003EBC213E55825F00705E55005680C6970
:10283000EC5091F831300C7E1F0226069C2405686E
:1028400004EBC21491F8323055F804C04FF0000C7C
:1028500045F804C091F8305046EA03433D431D4318
:1028600003681D519823046803EBC213E55825F053
:10287000FF05E55005684C69EC50A023046803EBA4
:10288000C213E55840F20776B543E550D1E9074554
:102890002C430568EC50AC23046803EBC213E558E5
:1028A00044F803C005684C6AEC500B698BB3012BEC
:1028B00032D0042B32D0022B30D0032B2ED0072B5A
:1028C0002CD00123B024056804EBC2142E5906F065
:1028D000E0262E51D1E90065AD1B0E8D5D435E43B0
:1028E000ED1C45EA064305682B51B423046803EB4D
:1028F000C213E5586FF30A05E5500468C96AE15050
:102900000068842101EBC211425842F0010242509A
:10291000F0BDFFE70423D5E70323D3E70223D1E784
:102920007FB5002415480094019402941249039441
:1029300001604FF48031C0E901140461047680F82D
:1029400020400F49C0E90A140125C561C46080F820
:1029500030404561FEF75EF908B1FDF7F2FF0F2048
:10296000CDE90005694602940448FEF7A1F8002865
:1029700001D0FDF7E6FF7FBD002001404418002094
:102980000100000F0A4810B5084901604FF44031BA
:102990004160022181600021C160FEF7B1F9002889
:1029A00003D0BDE81040FDF7CCBF10BD00B0024021
:1029B000EC180020094808B5016841F48001016065
:1029C0000068002200F48000009005213820FEF706
:1029D0000FFFBDE808403820FEF7FCBE303802404B
:1029E00000B587B01C216846FDF709FE1A48194951
:1029F000012201600021C0E901120822C2601022F8
:102A00000261402242614FF4C072C0E906214FF4D6
:102A10000061016249004162490081620220072190
:102A2000CDE900010621029103910421CDE90410B2
:102A3000069069460848FFF72FFB08B1FDF781FFB4
:102A400023F06FFD40F2DA210348FFF748FB07B09F
:102A500000BD0000400100A02C19002010B5074A5D
:102A60000021074821F0D2FD064C044A00212060D5
:102A70002432054821F0CAFD606010BD58CF02081D
:102A80002D30000800000020E93400082DE9F04F47
:102A900087B014216846FDF7B2FD7648002401682E
:102AA00041F010010160016801F010010591016819
:102AB00041F020010160016801F0200105910168E9
:102AC00041F080010160016801F080010591016819
:102AD00041F004010160016801F004010591016801
:102AE00041F001010160016801F0010105910168F7
:102AF00041F002010160016801F0020105910168E5
:102B000041F040010160016801F040010591016858
:102B100041F0080101600068DFF85C9100F00800F6
:102B20000590002210214846FEF7F7FBDFF84CA184
:102B30004FF42076002231465046FEF7EEFBDFF8D8
:102B400040B148F28117002239465846FEF7E5FBAE
:102B500000224BF2F8014B48FEF7DFFB00224FF456
:102B600086514948FEF7D9FB00224FF4F0514748FF
:102B7000FEF7D3FB4FF40078002241464448FEF7AD
:102B8000CCFB082001258DE8310069464846FEF758
:102B9000A5FA10200090CDE90154694648460394F7
:102BA000FEF79CFA0096CDE901546946504603941D
:102BB000FEF794FA0097CDE901546946584603940C
:102BC000FEF78CFA4FF43040CDE900050326CDE93D
:102BD000025669462B48FEF781FA28030090CDE99A
:102BE0000154694628480394FEF778FA6803009078
:102BF0004FF48810CDE9010569462348FEF76EFAC7
:102C00004FF490500090CDE9015469461F48039459
:102C1000FEF764FAB002CDE90005CDE90246694647
:102C20001A48FEF75BFAC02700970396CDE90154D6
:102C300069461548FEF752FACDF80080CDE90154F7
:102C4000694613480394FEF749FA38200090CDE90D
:102C5000015469460B480394FEF740FA01AA11207B
:102C6000009782E8610069460648FEF737FA07B028
:102C7000BDE8F08F303802400010024000140240DE
:102C80000000024000040240000C02400008024024
:102C90000018024010B58EB034216846FDF7AFFC35
:102CA000274826490024C0E9001484600121C4603B
:102CB000C0E9044181611F21C1611521016240F217
:102CC000FF11416240F23531816240F20921C16257
:102CD00040F28531016380F8344080F8354080F857
:102CE0003640FEF7BDFB08B1FDF72BFE4FF4F07048
:102CF000CDE900404FF4487102220294CDE903125D
:102D0000FF22CDE905244FF4806207920522089244
:102D10004206CDE90A018DF8304009928DF8314024
:102D20008DF83240002269460548FEF76FFB002807
:102D300001D0FDF706FE0EB010BD00000068014096
:102D40006019002010B586B0002416480094019444
:102D50000294039404944FF080410594016059213A
:102D6000C0E901144FF47A71C0E903148461FFF7DC
:102D700035FA08B1FDF7E5FD4FF480500090694643
:102D80000848FFF7C7FA08B1FDF7DBFD049404A972
:102D900004480594FFF7DAF9002801D0FDF7D1FDCA
:102DA00006B010BD081A002010B58EB0002407949C
:102DB000089409940A940B941C2168460C94FDF71E
:102DC0001EFC2248204901605921C0E9011441F24A
:102DD0009F01C0E903148461FFF700FA08B1FDF711
:102DE000B0FD4FF48050079007A91848FFF792FAFA
:102DF00008B1FDF7A6FD1548FFF73DFC08B1FDF74A
:102E0000A0FD0B940BA911480C94FFF79FF908B192
:102E1000FDF797FD6020CDE9000402940422694685
:102E20000A480494FFF7C1FB08B1FDF78AFD0822A8
:102E300069460648FFF7B9FB08B1FDF782FD034874
:102E4000FFF770FB0EB010BD000C0040501A0020C0
:102E500010B58CB000240794089409941C2168468E
:102E60000A94FDF7CCFB194817490160B321C0E96A
:102E70000114FA21C0E903148461FFF7AFF908B126
:102E8000FDF75FFD4FF48050079007A90F48FFF74B
:102E900041FA08B1FDF755FD0C48FFF7ECFB08B10E
:102EA000FDF74FFD6020CDE900040294042269463D
:102EB00006480494FFF779FB08B1FDF742FD03488B
:102EC000FFF730FB0CB010BD00400140981A002005
:102ED0000C4810B50A4901604FF4E121416000211E
:102EE00081600C22C160C0E904128161C161FFF7F9
:102EF000FCFB002803D0BDE81040FDF722BD10BD4B
:102F000000100140E01A0020FEE7FEE72DE9F05F27
:102F1000214E07464FF4805B002259463046FEF7AB
:102F2000FCF94FF4005900224C4649463046FEF762
:102F3000F4F94FF4004A002251463046FEF7EDF90D
:102F4000012221463046FEF7E8F98025B0460024EC
:102F50004E462F424FF000023146404603D0FEF766
:102F6000DCF9012202E0FEF7D8F900225146404682
:102F7000FEF7D3F9012231464046FEF7CEF9641C34
:102F80006D08E4B2082CE4D359464046BDE8F05F32
:102F90000122FEF7C2B90000000402402DE9F05FF3
:102FA000214E07464FF4805B002259463046FEF71B
:102FB000B4F94FF4005900224C4649463046FEF71A
:102FC000ACF94FF4004A012251463046FEF7A5F90C
:102FD000012221463046FEF7A0F98025B0460024A4
:102FE0004E462F424FF000023146404603D0FEF7D6
:102FF00094F9012202E0FEF790F900225146404682
:10300000FEF78BF9012231464046FEF786F9641C33
:103010006D08E4B2082CE4D359464046BDE8F05FA1
:103020000122FEF77AB900000004024018F0ACFB60
:103030001FF078FF052021F0AEFAF9E710B54FF048
:10304000E020006929F0B0FD012803D0BDE8104060
:1030500029F0DEBA10BD000030B593B030216846CB
:10306000FDF7CDFA14210CA8FDF7C9FA2048002578
:10307000016841F080510160006800F080501190BB
:103080001C48016841F4404101600068022400F4DA
:103090004040119001200090000401908001CDE992
:1030A0000640082008904FF4B470CDE909040420CC
:1030B0000B906846FEF73AFE08B172B6FEE7FEF7DF
:1030C000C9FB08B172B6FEE70CA90F2081E83100F8
:1030D0004FF4A0500F904FF48050109005210CA891
:1030E000FEF71AFD002801D072B6FEE713B030BD1E
:1030F00040380240007000400248016841F470010D
:103100000160704788ED00E00148FFF772B90000E8
:10311000281B0020F0B50268294C2A4D2A4E2B4F5F
:103120002B4B4FF0804CA04209D0604507D0A842FD
:1031300005D0B04203D0B84201D0984204D122F069
:10314000700E4A6842EA0E02A0421BD0604519D0B8
:10315000A84217D0B04215D0B84213D0984211D02F
:103160001C4DA8420ED01C4DA8420BD01B4DA842AE
:1031700008D01B4DA84205D01A4DA84202D01A4DC6
:10318000A84203D122F44075CA682A434D6922F04F
:1031900080022A4302608A68C2620A688262A04290
:1031A00001D0984201D1096901630121416101699E
:1031B000C90703D0016921F001010161F0BD0000E0
:1031C000000001400004004000080040000C0040E6
:1031D000000401400040014000440140004801401B
:1031E00000180040001C00400020004010B584681A
:1031F00042EA032224F47F440A432243826010BD42
:10320000826822F070020A4342F007018160704731
:10321000F0B5036A026A22F0010202624268846920
:10322000124E24F073050C682C4323F002058B68C2
:103230002B430D4DA84201D0B04205D123F0080721
:10324000CB683B4323F00403A84201D0B04205D130
:103250004D6922F4407215438A692A4342608461B1
:10326000496841630362F0BD000001400004014071
:10327000F0B5026A036A23F01003036243688469AD
:103280000D6824F4E64444EA05248D6822F0200207
:1032900042EA05120F4D104EA84201D0B04206D1AD
:1032A000CF6822F0800242EA071222F04002A842D0
:1032B00001D0B04207D14D6923F4406343EA85034E
:1032C0008D6943EA850343608461496881630262D2
:1032D000F0BD00000000014000040140F0B5026AAA
:1032E000036A23F4807303624368C46922F40072A2
:1032F00024F073050C68124E2C438D6842EA0522B7
:103300000E4DA84201D0B04206D1CF6822F400622F
:1033100042EA072222F48062A84201D0B04207D1DB
:103320004D6923F4405343EA05138D6943EA0513BD
:103330004360C4614968C1630262F0BD000001409E
:103340000004014030B5046A026A22F4805202622D
:103350004268C3690D6823F4E64343EA05238D6898
:1033600024F4005444EA0534084DA84202D0084D24
:10337000A84204D14D6922F4804242EA851242609B
:10338000C36149680164046230BD0000000001406F
:103390000004014010B5036A046A24F001040462C9
:1033A000846924F0F00444EA021423F00A020A4378
:1033B0008461026210BD10B5036A046A24F010042F
:1033C0000462846923F0A00324F4704444EA0232C6
:1033D00043EA01118261016210BD000070B504462C
:1033E00000680169E26821F44051114301612169DB
:1033F000A068E26908436169114308432168CA680B
:1034000049F20C639A430243CA6020684169A26989
:1034100021F440711143416131492068884202D052
:103420003049884202D1FEF741FC01E0FEF72EFC54
:10343000E2690023192164253226B2F5004F626843
:1034400028D0A0FB0101930F9200FCF79FFF0146DB
:10345000B0FBF5F06FF01802504301EB800006EB73
:103460000010B0FBF5F000F0F002B1FBF5F002EB5C
:103470000012B1FBF5F06FF01803584301EB800028
:1034800006EB0010B0FBF5F000F00F0021681044CF
:10349000886070BDA0FB010192185B41FCF776FFCC
:1034A0000146B0FBF5F00201B1FBF5F06FF0180337
:1034B000584301EB800006EBC000B0FBF5F000F0D4
:1034C000F80002EB4002B1FBF5F0584301EB80003D
:1034D00006EBC000B0FBF5F000F00700D6E70000F7
:1034E0000010014000140140012021F054F8FBE7D6
:1034F000FEE70907090E002804DB00F1E02080F850
:103500000014704700F00F0000F1E02080F8141D57
:10351000704770B5044600256FF02F0608E020685C
:10352000411C2160007805EB850106EB410145183F
:103530002068007800F004F80028F0D1284670BD1B
:103540003038092801D8012070470020704700005A
:1035500010B54421074800F027FF0022102106483B
:103560001FF0A8FC054CA06001F0F8FF00202070BF
:1035700010BD000064660020115600080C020020F7
:103580002DE9F0470E46814617461146304600F0B9
:103590001CF94FF0FF3A00287DD000223946304612
:1035A00000F0BFF800284FF0000075D1B6F9048094
:1035B000B6F900305246A8EB0301491C0AFA81F122
:1035C0000FFA81FAB6F906C0B6F90210ACEB010C9D
:1035D0000CF1010C02FA8CF2B7F802C012B2ACEB9B
:1035E000010C0FFA8CFCBCF1000F0EDD63F30F042D
:1035F00068F30F0501EB0C0061F31F4460F31F45F6
:10360000C9F800400120C9F80450B7F906107388C2
:10361000CB1AD21A12B2002A13DDB6F9063099423B
:103620000FDA338863F30F04B38861F31F4463F345
:103630000F05114461F31F4509EBC001401C0C60EC
:103640004D60B7F90220B6F902108A4200DD11463A
:10365000B7F90630B6F90620934200DA1A463B88DD
:10366000B6F900C0521AA3EB0C031BB212B2002B26
:1036700010DD002A0EDD634463F30F058B1863F33E
:103680001F456CF30F0409EBC00361F31F441C607A
:103690005D60401C01E01AE017E0B7F9043036889D
:1036A0009F1BAAEB070636B2002E0EDD63F30F0454
:1036B00061F31F44334463F30F05114461F31F4565
:1036C00009EBC001401C0C604D60BDE8F08750461E
:1036D000FBE770B5B1F90030B2F90040A34200DC5D
:1036E00023460380B1F90250B2F90240A54200DD41
:1036F0002C464480B1F90460B2F90450AE4200DABD
:1037000035468580B1F90610B2F90620914200DBFA
:103710001146C1800120AB4201DC8C4200DD00205B
:1037200070BDF8B50D460446B0F90000B1F90010BF
:103730001646884247DBB4F90210B5F902209142DF
:1037400041DBB4F90410B5F9042091423BDCB4F933
:103750000610B5F90620914235DC96B3ADF80000AD
:103760006088ADF8020032466946284600F099F8B4
:10377000002827D0A088ADF800006088ADF80200CE
:1037800032466946284600F08CF800281AD0208876
:10379000ADF80000E088ADF80200324669462846E0
:1037A00000F07FF800280DD0A088ADF80000E08878
:1037B000ADF8020032466946284600F072F800284B
:1037C00000D00120F8BD0020F8BDB0F90020B1F90B
:1037D00004309A4213DCB0F90420B1F900309A4267
:1037E0000DDBB0F90220B1F906309A4207DCB0F9DE
:1037F0000600B1F90210884201DB01207047002069
:103800007047F8B50D460446B0F90400B1F9001050
:103810001646884243DBB4F90600B5F90210884227
:103820003DDBB4F90000B5F90410884237DCB4F987
:103830000210B5F90620914231DC76B3ADF80000F4
:103840006088ADF8020032466946284600F029F843
:1038500018BBA088ADF800006088ADF802003246C1
:103860006946284600F01DF8B8B92088ADF8000078
:10387000E088ADF8020032466946284600F011F8AB
:1038800058B9A088ADF80000E088ADF802003246D3
:103890006946284600F005F808B10020F8BD01206F
:1038A000F8BD2DE9FC4114460E46B1F90020B0F9EF
:1038B000001005468A423ADBB5F90400824236DC44
:1038C000B6F90270B5F90220974230DBB5F906303F
:1038D0009F422CDC002C75DD401A9A1A401C521CA9
:1038E00000B212B200EBD07002EBD2724010521054
:1038F000904200DB1046844200DD0446ADF8001023
:10390000288800222044ADF804006888ADF8020041
:10391000688831462044ADF806006846FFF7C1FFCD
:1039200040B1BDF804002044ADF804003FE00020A1
:10393000BDE8FC81E8880022001BADF80200E888A1
:10394000ADF8060031466846FFF7ABFF28B1BDF879
:1039500004002044ADF8040011E0A8880022001BF8
:10396000ADF80000A888ADF8040031466846FFF7BE
:1039700098FF50B1BDF80000001BADF80000BDF885
:103980000200001BADF8020016E06888ADF80200E6
:10399000688800222044ADF8060031466846FFF7EB
:1039A00080FF70B1BDF80000001BADF80000BDF84D
:1039B00006002044ADF80600314668461CF0F0FDD4
:1039C000B6E7FFE70120B3E710B5B1F90040B2F95F
:1039D00000309C4200DA23460380B1F90240B2F97C
:1039E00002309C4200DA23464380B1F90440B2F928
:1039F00004309C4200DD23468380B1F90610B2F901
:103A00000620914200DC1146C18010BD2DE9FC4129
:103A100005461FF0FDF900267D4C074600960DB1C6
:103A2000E86801E011F0EEFD606000691CF0B4FC94
:103A30006068406908B11CF0AFFC6068C0691CF0A8
:103A4000ABFC6068006A1CF0A7FC6068016991B17A
:103A50001CF05AFE22F0CAF821F0F0FD6068B0F8C0
:103A60005011E1B30068017CC9071ED0C0684068EE
:103A7000D8B1002514E0A0F85061BDE8FC814119DF
:103A800091F8301151B900F5AC7000F0E4FC6168B8
:103A900001EBC5010A6B0260496B41606D1CADB260
:103AA0006068B0F85011A942E9D860684FF480719D
:103AB000303018F02DF86068202100F5987018F06B
:103AC00027F86068A0F8506138461FF09BF9009015
:103AD00060680068436A13B122680099984717F03C
:103AE00095FE00F0CFF800F0A1F84A4D6F69EFBBEA
:103AF00011F088FD11F0B4FD16F02EFD07460022EE
:103B00007F211CF0ADFA00221146104610F0F5FF9F
:103B10000190BDF80410002238461CF08BFAFF22F9
:103B20001146104610F0E9FF0190BDF80410002284
:103B300038461CF08CFB0022032138461CF073FB36
:103B40000022032138461CF05FFB00220321384687
:103B50001CF05FFB0022032138461CF05FFB0022B3
:103B6000032138461CF06EFB2BA100E009E038462B
:103B700017F078FB00231A460621384618F0B4FBEC
:103B80006F6128681FF03EF9B0F5967F0DD220686E
:103B900041F2883188427FF670AF68680099084426
:103BA0006860A868401CA86067E71FF031F92860CA
:103BB0006068406828B100684FF47A71B1FBF0F09A
:103BC00000E03E20696809B901216960A968E1B196
:103BD0004FF47A7251436A68B1FBF2F46E60AE60E2
:103BE000844200D90446286920442861E868401CC2
:103BF000E8601FF091F9C0F1640302B02246384634
:103C0000BDE8F04105A117F064BB0446E6E70000FB
:103C1000D4000020D06400203F000000257520461D
:103C200050530A25752525204350550070B50A4D7F
:103C3000002400BFC4EBC40655F8260008B117F0F5
:103C400059FE05EB86001C2117F062FF641CE4B2EC
:103C5000042CEFD370BD000040670020084949687C
:103C60000AE04A68824202D00A68824203D10A7E90
:103C700042F001020A7649690029F2D1704700003A
:103C8000A8000020704700000421014800F08CBB10
:103C9000586600202021014800F086BB7066002095
:103CA0002DE9FF410446DDE90A671D004FF00000E1
:103CB00002D1B6F5807F2BD0039001900290ADF831
:103CC0000C100090ADF80410ADF80A20ADF80E20ED
:103CD0003B463246294668461CF0C2FB3B4632460C
:103CE000294601A81CF0BCFB3B463246294602A8E7
:103CF0001CF0B6FB3B463246294603A81CF0B0FB3D
:103D0000BDF90000BDF90430984209DA054608E023
:103D10002080491E6080A180521EE280BDE8FF81A4
:103D20001D46BDF90820BDF90C108A4201DA16467D
:103D300000E00E46B54203DA984206DB184604E07E
:103D40008A4201DA104600E00846801E2080BDF954
:103D50000030BDF90420934201DD1D4600E0154608
:103D6000BDF90800BDF90C10884201DD064600E0EF
:103D70000E46B54205DD934201DD194604E01146C9
:103D800002E0884200DD0146891CA180BDF90230B5
:103D9000BDF90620934201DA1D4600E01546BDF943
:103DA0000A00BDF90E10884201DA064600E00E4610
:103DB000B54205DA934201DA194604E0114602E001
:103DC000884200DA0146891E6180BDF90230BDF9E2
:103DD0000620934201DD1D4600E01546BDF90A00AC
:103DE000BDF90E10884201DD064600E00E46B542E0
:103DF00005DD934201DD194604E0114602E08842E8
:103E000000DD0146891CE18088E700002DE9F041D2
:103E100015460E460746114C1EF0FAFF80462B460B
:103E200032463946204615F0D7FD20B10020A06269
:103E3000E06950B110E02C21204617F069FE4FF0E8
:103E40000040A0620020BDE8F08140461EF0DAFF8D
:103E5000E06108B90120E0612046F4E794660020A3
:103E600010B51421074800F09FFA15F07BFD40B112
:103E70000549016005494160054981600549C16006
:103E800010BDFEE77C66002039930108B596010855
:103E9000859801080593010870B50D460446102168
:103EA000284617F035FE20680078012804D0022843
:103EB00007D0042807D008E0A08A2880E08A68801C
:103EC00003E0E06800E00A20686020684268002A99
:103ED00003D02946BDE87040104770BD2DE9FE4370
:103EE0000446808A10B9E08A002874D0D4F82C8067
:103EF0005FEA080010D120460AF0E5FC5FEA0008FE
:103F000069D020460DF064FA00220921404614F0E1
:103F10005DFC607880075ED44FF4807900274E46C0
:103F20004546002128461AF071FA384407B20021AC
:103F300028461AF089FAC11700EB1160001210FB35
:103F400006F006B2284619F05DFA0500E9D10FB96E
:103F50004E450CD0784201B24FF4803090FBF6F021
:103F600002B26B4604F1140000951CF079FAADF82A
:103F70000450ADF8085094F8400000F00F000328FA
:103F8000404616D019F090FB0646404619F046FA16
:103F900003460C200090B4F916103246404609F052
:103FA000B7FFADF80800404619F08AFAC10713D0F0
:103FB00018E019F00DFB0646404619F0A9FA024632
:103FC00003200090B4F914103346404609F0A0FFD6
:103FD000ADF80400E7E736E0BDF90410002901DD83
:103FE000ADF80450810705D4BDF90410002901DAA9
:103FF000ADF80450410705D4BDF90810002901DDD2
:10400000ADF80850000705D4BDF90800002801DA12
:10401000ADF8085002AA01A9204622F081F9BDF9A5
:104020000820BDF90410404600F08AFA6078800745
:1040300009D4208BBDF8041008442083608BBDF8A0
:10404000081008446083BDE8FE832DE9FC5F044648
:10405000C06A5FEA000B71D094F8400000076DD091
:1040600015F04CFF019000684021457E58461AF03B
:1040700017FB4FF0000818B9A4F81E80A4F81C80A4
:10408000584619F003FB8246584619F006FB0646CF
:1040900094F840004FF0640900F00F000C2802D0A3
:1040A00003284CD09AE0A4F81C8056B1B4F91E50F5
:1040B000002715F023FF00684946407EC0F16400E8
:1040C00022E0E08BC5F1640110FB01F191FBF9F0F6
:1040D000E083584619F0A2F90546584619F0E4FA6B
:1040E00002460C200090B4F91E102B46584609F0E9
:1040F0000FFFE083024600231EE07A1917B210FB7F
:1041000005F292FBF1F215B2002DF6D1ADF8007078
:10411000A4F81E806A460021204622F001F941F6EB
:10412000FF72BDF90030514258460AF063FDBDF8F8
:1041300000100123084402B200214CE09AE0A4F8E8
:104140001E80BAF1000F0AD0B4F91C50002715F0F8
:10415000D5FE00684946407EC0F1640022E0A08B95
:10416000C5F1640110FB01F191FBF9F0A083584601
:1041700019F0CEF90546584619F02AFA03460320ED
:104180000090B4F91C102A46584609F0C1FEA083DD
:10419000014600231EE07A1917B210FB05F292FBCC
:1041A000F1F215B2002DF6D1ADF80070A4F81C8024
:1041B00000226946204622F0B3F841F6FF72BDF9AD
:1041C0000030514258460AF08DFCBDF80010012322
:1041D000084401B2002258461BF088FBA08B00283F
:1041E00048D1E08B002845D1C6B9584619F05CFA91
:1041F0000546584619F012F9002D06DC00280DDDA1
:10420000002D02DA01232A4604E0002806DA012301
:10421000404202B2002158461BF068FBBAF1000F81
:1042200019D1584619F074F90546584619F0D0F9D5
:10423000002D07DC00280EDD002D03DA012300220B
:10424000294605E0002806DA01230022404201B297
:1042500058461BF04BFB0A215846019A14F0B6FA57
:104260006078800706D414F8400F20F00F0020700B
:1042700044F8148CBDE8FC9F7FB50E46040003D1C2
:1042800011F0C0F904002CD011F030FA002828D029
:1042900094F82800400724D4002506B3ADF8005058
:1042A000ADF80250204611F0C5F9401EADF80400EB
:1042B000204611F005FA401EADF806006A46314668
:1042C00002A8FFF706FA00280BD02068017C8907B6
:1042D00008D5DDE90001C4E90C01012029E0A4F8BA
:1042E00050517FBD82690AB102A9904700260AE0B9
:1042F00004EBC601002202A83031FFF712FA0028B1
:10430000EFD1761CB6B2B4F85001B042F0D880B20A
:10431000202804D204EBC00002A9303004E0A4F845
:10432000505104F1300069460EF0F0FDB4F8500130
:10433000401CA4F8500160680028D2D01EF09AFEFC
:104340007FBD70B5054600F012F804460CE021462A
:10435000284600F01EF806462146284600F0A2F83E
:10436000204617F0C7FA3446002CF0D170BD002863
:1043700000D04068704700B503460022FFF7F7FF02
:1043800003E01846521C00F004F80100F9D1104671
:1043900000BD0068091D40587047006840587047CC
:1043A000002800D08068704700224260C91C21F0BC
:1043B000030182600160704770B5044600680830F0
:1043C00017F00CFA050013D001460022204620F019
:1043D00045F829462046626820F03AF8616819B12C
:1043E0002A46204620F03AF86560A06800B9A5602A
:1043F000284670BD2DE9F0410C4606000AD04CB1AC
:10440000FFF7B5FFA04208D13046FFF7D5FF051EE4
:1044100001D01EE00020BDE8F0813068083017F0C0
:10442000DDF9051EF7D030682A460759304639466F
:1044300020F00EF83A462946304620F00FF82A467A
:104440002146304620F00AF82246294630461FF021
:10445000FFFF2846DFE770B504460068083017F014
:10446000BDF9050013D00146002220461FF0F0FFE1
:1044700029462046A2681FF0F1FFA16819B12A461B
:1044800020461FF0E5FFA560606800B9656028461A
:1044900070BD28B1416809B9806808B10020704733
:1044A0000120704770B504000DD0FFF760FF0022B7
:1044B0008842204608D1FFF76CFF6060011E01D0E2
:1044C00000221EE0A26070BDFFF76AFF88422068EC
:1044D00008440AD10168A16029B12046BDE87040B6
:1044E00000221FF0B5BF626070BD05682046FFF76F
:1044F00050FF06460246294620461FF0A9FF2A46DD
:1045000031462046BDE870401FF0A8BF10B50446F4
:10451000006882680AB12146904720680068002838
:1045200001D02060F5E710BD8068002801D0B0F907
:10453000160070478068002801D0807E800970478F
:1045400070B5164605460C4651EA06001AD02846B4
:1045500018F044F8A86801233246018A21440182F8
:10456000A868418A31444182214628461AF016FC47
:1045700000220B21284614F029F9012803D12846EE
:104580001AF065FB012070BD77B581B00E460500BD
:1045900017D0622219F068FE040012D0206880B1A2
:1045A00028463146632219F05FFE10F0FF0208D062
:1045B00023682046039998470090BDF80000ADF8A5
:1045C0000C00039804B070BD2DE9F047074692B087
:1045D000408C1A9E40F00400788490463A849946B4
:1045E0008A463289384619F03FFE0546A7F82090E2
:1045F00032895146384619F037FE0446788CA54278
:1046000020F00400788403D12904B1EB044F68D072
:10461000A7F8208032895146384619F025FE054614
:104620008046A7F82090514638460BF057FD318957
:1046300000682A461DF042FB30890B2823D147F63B
:10464000FF794D4501D04C451DD1384619F0DFFFAB
:1046500000EBD0704510384618F093FE00EBD07098
:104660004010C84506D1691C431C994200DA00E09D
:10467000194688464C4506D1691C421C914201DA14
:104680006C1C00E014461948FFF796FE05002BD07D
:104690002F60C5E903843089A8806846C5F808A062
:1046A0000DF0F2FE1248FF21CDE9005011480290B2
:1046B0001148039000200890CDE9090130880B9043
:1046C00070889DF8421040420C90F06807900020DE
:1046D00060F300018DF842103069069068460DF0D5
:1046E00047FF12B0BDE8F087FEE7000088660020B3
:1046F000E9B8020821BB02087DBA0208142101486A
:10470000FFF752BE886600202DE9F84F002590463D
:10471000894606462C460427E5E000BFF16807EB12
:10472000C400085882017AD480B230EA090211D05C
:104730005FF0000230EA08000ED0002082426ED006
:1047400051F834A06A46102150461DF019F800288F
:1047500071D103E00122EDE70120EFE76A46112164
:1047600050461DF00DF8002865D16A4612215046CA
:104770001DF006F800285ED16A46132150461CF051
:10478000FFFF002857D16A46152150461CF0F8FF5C
:10479000002850D16A46142150461CF0F1FFE8BBB6
:1047A0006A460A2150461CF0EBFFB8BB6A466B21F3
:1047B00050461CF0E5FF88BB6A466C2150461CF051
:1047C000DFFF58BB6A46012150461CF0D9FF28BBC9
:1047D0006A46042150461CF0D3FFF8B96A4602210C
:1047E00050461CF0CDFFC8B96A46032150461CF064
:1047F000C7FF98B96A46052150461CF0C1FF68B949
:104800006A46062150461CF0BBFF38B96A46322181
:1048100050461CF0B5FF08B96A4601E00BE061E0C4
:104820006E2150461CF0ACFF28B96A466D215046F7
:104830001CF0A6FF10B10320BDE8F88F6A4669217D
:1048400050461CF09DFFE8BB6A466A2150461CF0AA
:1048500097FFB8BB6A466E2150461CF091FF88BB9B
:104860006A466D2150461CF08BFF58BB6A463721C3
:1048700050461CF085FF28BB6A46382150461CF084
:104880007FFFF8B96A46352150461CF079FFC8B958
:104890006A46402150461CF073FF98B96A4645218C
:1048A00050461CF06DFF68B96A46412150461CF025
:1048B00067FF38B96A46422150461CF061FF08B9CB
:1048C0006A4600E00AE0432150461CF059FF28B92F
:1048D0006A46492150461CF053FF08B1022501E009
:1048E00005B90125641C708CC0F3C500A0423FF6D9
:1048F00015AF2846A0E70000014840687047000057
:10490000D40000200448002141600161C160816041
:104910000160416170470000D0640020C0F30410C2
:10492000072800D907207047A0F57F41FF3905D03F
:10493000002804D0712803D208490AE01F207047DC
:104940000749713880B2096829B1064A5268904215
:1049500001D2085C70470020704700005C0F03081C
:10496000380200204C02002010B518210348FFF740
:104970001BFD03490120087010BD000034660020B3
:10498000540200202DE9F04190460C46050015D058
:10499000FBF797FD0A4F06462146BA68284690471E
:1049A0000446BA682819414690470146701A03E048
:1049B0006218AA5C2A55641CA042F9D2BDE8F081B5
:1049C000680200202DE9F041094D90460E466A68C4
:1049D0001C46074619469047306020B120686A6837
:1049E000384400219047C8F80000BDE8F08100007D
:1049F000680200202DE9F04F87B08A46DDE91058A3
:104A00001F4693460446002105B129805CB12078F9
:104A1000002809D0BAF1000F05D0002618F0060FC3
:104A200015D0002004E0002007B0BDE8F08F401C46
:104A3000215C0A2904D00D2902D00029F7D100E019
:104A4000401C002DF0D04FF0FF312980ECE75FEAE9
:104A5000887001D541F6FF77894608468DF8141015
:104A6000049127E00498CDF8189068B34FF0000C3B
:104A700005AA06ABCDF80CC0CDF80080CDE9013217
:104A800020443B465A4651461EF036FC06997A1A97
:104A9000314417B20EB288B10499014404912078D0
:104AA0000A280BD00D2809D0605C0A280FD00D28E9
:104AB0000DD00846205C08B1002FD3DC049848B123
:104AC00005B12E800498AFE74FF0010CD0E7481CE9
:104AD0000490F3E7064A04A9204652689047002D47
:104AE000F0D001460022504613F084FF06B2E8E7FA
:104AF000680200202DE9F0411746884606001ED0C6
:104B0000002F1CD0FBF7DDFC04463846FBF7D9FC30
:104B1000050014D00B4A2C44414692683046904719
:104B2000411903E0621BB25C3255641EA142F9D9FF
:104B300030442A463946BDE8F04116F0ABBFBDE827
:104B4000F08100006802002000230278232902D0AF
:104B5000012A0DD00FE02AB10021012A04D0022A37
:104B600004D008E0012101E0017004E0017001E0DF
:104B7000202902D00123184670470221F6E72DE9CB
:104B8000F0410E46804602460021334608461EF09C
:104B9000F1FD04460027401C16F020FE050008D059
:104BA0002F5533464246611C1EF0E4FD2846BDE801
:104BB000F081FEE72DE9F0471E4614460D46824679
:104BC000DDF8209015E000BF4FEA540808FB0657B7
:104BD000394650464A469047002808DD44F3000015
:104BE000C0EB540407EB0605A4F1010401E005DA6B
:104BF0004446002CE8D12046BDE8F0873846FBE764
:104C00002DE9FC5F9B460CAB8A468146DDE91160CD
:104C100093E81210DDE90F575FEA80784FF0300318
:104C20001AD45EB15FEAC07808D000F00C0858EAE8
:104C30000C0803D0761E01E00B55641CBC4204D264
:104C4000202CF9D301E00B55641C5FEAC07803D037
:104C5000B44201D2202CF6D35FEAC06825D55FEAC2
:104C600040580AD44CB1BC4201D0B44205D1641EB4
:104C700003D0102D03D1641E04E0102D02D0022DAC
:104C80000AD00EE0850603D4202C1ED2782506E03B
:104C9000202C1AD2582502E0202C16D262250D5560
:104CA000641C202C11D20B55641C202C0DD2BCF19D
:104CB000000F01D02D2306E0430701D52B2302E08E
:104CC000030702D520230B55641CCDE900BAC84662
:104CD000154681468B46AA46800714D1274607E031
:104CE0002A46DDE900316D1C2020C446E0477F1CC8
:104CF000B742F5D307E02A466D1C641EDDE900319A
:104D00001BF80400C047002CF5D15FEA897006D477
:104D100009E02A46DDE900316D1C2020C047A5EBE3
:104D20000A00B042F5D32846BDE8FC9F2DE9F04FBC
:104D30008FB099468B46DDE91818DDE91C63DDE983
:104D40001A4792468646002209B923F010035805F7
:104D500007AD00D5C9B1B1FBF4F004FB1010C0B22F
:104D60000A2801D2303009E05FEA836C02D54FF0A7
:104D7000410C01E04FF0610C60440A38B1FBF4F1E2
:104D8000A854521C09B1202AE5D3CDF80880CDE9FA
:104D90000563CDE90052CDE903474B4652465946DB
:104DA0007046FFF72DFF0FB0BDE8F08F2DE9FF4FE4
:104DB0008FB01CACDDE9239594E8030820AC94E89F
:104DC000C004002450EA010201D125F010056A0553
:104DD0000DF11C0802D550EA010217D032463B46BD
:104DE000FBF7D4FAD2B20A2A01D2303206E0AB067F
:104DF00001D5412300E061231A440A3A08F804204F
:104E0000641C50EA010201D0202CE7D3CDE90084D4
:104E1000CDF808B0CDE90595CDE9036A0FAF97E865
:104E20000F00FFF7EDFE13B0BDE8F08F9A4200D2FD
:104E300088547047704700002DE9FF4F89B0054640
:104E40000A9800249246002800D1FE4D8FE12528C3
:104E500004D02246641C53460A990BE2491C4FF0C9
:104E6000000808460C9101782B2919D004DC202970
:104E700019D0232904D119E02D290ED0302909D0C9
:104E80000026C8B2FEF75CFBB0B10CA8FEF741FBF0
:104E900006461FE048F001010AE048F0020107E081
:104EA00048F0040104E048F0080101E048F0100176
:104EB000401C88460C90D6E70C9908782A2809D11E
:104EC000169840C81690002E02DA48F00208764282
:104ED000491C0C910C984FF0000B01782E2919D128
:104EE000401C0C9048F480680078FEF729FB20B144
:104EF0000CA8FEF70EFB83460CE00C9A10782A28CB
:104F000008D1169802C81690002900DC0021521C16
:104F10008B460C920C9801786C290AD004DC682925
:104F20000FD06A2919D128E0742929D07A2914D1FF
:104F300026E0401C0C90017848F480786C291CD045
:104F40000BE0401C0C90017848F08008682904D1DF
:104F500048F04001401C88460C90024600786928C1
:104F600022D015DC62281FD00DDC252871D05028F6
:104F70001AD058287FF46DAF16E048F40071E9E7C5
:104F800048F48071E6E7632878D06428F2D10BE01A
:104F9000732874D004DC6F2806D07028EAD103E0AF
:104FA000752801D07828E5D178280DD058280BD065
:104FB00070280BD0502809D06F2816D0622816D040
:104FC0000A2128F0100016E0102107E05078102187
:104FD00048F48878562804D1521C0C92107858282E
:104FE00007D01078502804D006E0082109E00221FB
:104FF00007E048F0200080461078692803D0642834
:1050000001D028F00C085FEA485001D528F00108CB
:10501000107869281ED064281CD0562864D05FEA16
:10502000885072D5169804ABC01D002283E806088C
:105030000292CDE9076820F007005346F0E802121B
:10504000CDE900121690224628460A99FFF7AEFED7
:1050500089E00AE15FEA885024D5169804AFC01DA4
:1050600020F00703F3E802021693002387E80A08FA
:10507000CDE90768002A03DA012102E080E0A6E01A
:1050800000210023029119461B1A914101DA1146B1
:1050900003E00021404261EB020153462246CDE984
:1050A0000001D1E75FEAC85004D5169804C80FE0A4
:1050B000524215E05FEA486003D5169810F8042BB9
:1050C00006E05FEA0860F0D5169830F8042B12B2BB
:1050D0001690CDE9021BCDE90468D00F002AE7DD68
:1050E000CDE9002053461EE01698AAEB040202C840
:1050F00016904868006800900A980B6801192846C5
:10510000FFF79AFE04442FE0FFE75FEAC8500CD592
:10511000CDE9021BCDE9046816980021534604C866
:10512000CDE900211690224619E05FEA486003D5D8
:10513000169810F8042B08E05FEA0860169803D56B
:1051400030F8042B92B200E004C816900020CDE99C
:105150000020CDE9021BCDE90468534622462846CB
:105160000A99FFF7E3FD04460C98401C0C900C993B
:10517000087800287FF46BAE54457DD222467DE04E
:1051800001275FEA887006D509E02246641C534671
:1051900020200A99A84738467F1CB042F5D31699BB
:1051A0002246641C11F8040B169153460A99A8472D
:1051B0005FEA887006D4D7E72246641C5346202055
:1051C0000A99A84738467F1CB042F5D3CCE7169819
:1051D00050F8049B16904B46BBF1000001D00146ED
:1051E00001E04FF0FF31484600E0401C02780AB170
:1051F000491EFAD2C71A5FEA485003D558465F45A0
:1052000000D307465FEA887006D512E02246641C88
:10521000534620200A99A84738467F1CB042F5D350
:1052200007E000BF224609F10109641C53460A99B0
:10523000A84799F8000040B15FEA4851F2D5BBF1A8
:10524000010B01E0354E0008ECD25FEA887006D40D
:105250008AE72246641C534620200A99A84738460C
:105260007F1CB042F5D37FE706E02246641C53461C
:1052700025200A99A84777E7AAF1010253460020A2
:105280000A99A8470DB02046BDE8F08F10B502007E
:105290004FF000000CD04B1E194200D0FEE70A442C
:1052A000521E9A43B2F5803F02D20C2A01D9104611
:1052B00010BD0C2010BD08444A1E401E90431142F0
:1052C00000D0FEE7704700002DE9F0410F460121B4
:1052D0000025044641862E460BE01B49FBF7B6F934
:1052E00010B16D1CADB202E0608E401C6086761C71
:1052F000B6B257F8260010B101780029EDD1208E02
:10530000A8421ED0A06A002610B116F0F3FAA662D9
:10531000E06A10B116F0EEFAE662E80016F05EFA06
:10532000A06238B1680016F059FAE06218B1A16ABB
:1053300011B102E0FEE7FEE70025690016F0E8FB88
:105340002586BDE8F0810000743901082DE9F84F89
:105350008146407A0F4600F00700022819D0104617
:105360008046974200DD3A46164603202A4C2B4AD7
:1053700000EB460020F00305A06811681035411AC3
:10538000636805EB010C9C4505D2416821F00041A2
:1053900024E00846E4E79D4219D892464FF0FF3BCF
:1053A00048196168884210D9002269461C48CDF826
:1053B00000B00CF0E7FB002269461A480CF0E2FB53
:1053C000A168DAF80000091AEAE7A068DDE72846D4
:1053D00016F004FAC0B1416841F0004188EA670262
:1053E000416089EA02010160416801F04041491CC5
:1053F00031F0804141608681A0F80E8005D500F132
:1054000010018160BDE8F88FFEE7A16801F110028C
:1054100029448260A160F5E7DC000020340200200E
:10542000B5E80008E51B010870B586B000224A4CBB
:105430008DF808208DF80C208DF81020E2888A4223
:1054400001D0FF22A270E18090F83C20142302F0EA
:1054500003024FF4B475012A24D0022A5ED0A57845
:10546000AA4211D010F8265F05EB051505EB45059E
:10547000B5FBF3F52570407800EB001000EB400021
:10548000B0FBF3F06070A27004AA03A8CDE900029B
:1054900001EB41004FF6FF7101EA400002AB627878
:1054A00021781BE0A678B24210D0868C06EB460627
:1054B0007602B6FBF5F5A58090F8270000EB00100A
:1054C00000EB4000B0FBF3F06070A27004AA03A8E8
:1054D000CDE90002C9B202AB62783AE008F000FF01
:1054E0009DF810109DF80C00CB08BDF800109DF839
:1054F000082063F30401ADF800108108BDF8000036
:1055000061F34A10D10880B261F3CF20ADF80000FA
:1055100080B20090BDF8000006B070BDA678B2421F
:1055200010D0868C06EB46067602B6FBF5F5A58014
:1055300090F8260000EB001000EB4000B0FBF3F009
:105540002070A27004AA03A8CDE90002CAB2217893
:1055500002ABA088C2E700008801002010B5084C0B
:10556000012020700748FEF702FF0028A06803D042
:10557000BDE810401DF07EBDBDE810401DF06EBDC1
:105580000C0200206466002010B5044690F842002A
:10559000A16B820709D4B4F840204AB1A2F57F4339
:1055A000FF3B1BD0521EA4F84020B4F84020AAB9FB
:1055B00009B1820712D521461448FEF773FFFFF7A1
:1055C000CDFFE16809B120468847216909B120462D
:1055D00088472046BDE8104016F08CB9E26B524275
:1055E0002263002911D0820702D4626B52422263E7
:1055F0004210521C62F3410084F84200A26A206A01
:105600002262A062E06AE162A06310BD64660020CD
:1056100070B5304D68681DF0F5FB0646687880F07F
:105620000100687047E00020287094F84200697813
:10563000C0F380028A4242D061F3820084F84200C3
:10564000216B8A19030719D4002917DC002A15DBFE
:10565000C00709D1616939B120468847216A0144F0
:105660002162A16A0844A062A16809B12046884766
:1056700094F8420040F0080084F84200206B801942
:10568000206316D4E16A884200DD2163E169204687
:1056900088470146606A884204D0616262680AB144
:1056A00020689047D4E90B01814202DB2046FFF7D6
:1056B0006BFF287818B10848FEF759FE03E0214631
:1056C0000548FEF766FE0400ADD11DF0A1FB686041
:1056D00070BD00000C0200206466002070B5044616
:1056E00040680D4608B1FFF7F9FF2268002A04D090
:1056F00029462046BDE87040104770BD89B20DF0C4
:1057000020BB89B20DF0A3BB2DE9FF4F99B098469D
:10571000DDE926B12D9816468A464FF00009042887
:1057200011D0052811D0062812D0142870D10127D5
:105730000225002418FB06F00E901A98401E0D90CA
:10574000701E069051E10027F2E701270325F0E7DC
:1057500001270225FFF7D0F80068D0F83890E8E775
:10576000289860430BEB2022299860430AEB202104
:1057700010124FEA212E7DD41A9B98427ADABEF19C
:10578000000F77DBB64575DAD2B2CBB2802A05DAE4
:10579000C2F17F024FF0FF31520003E001215200BD
:1057A000A2F580720992802B05DAC3F17F034FF0D6
:1057B000FF325B0003E001225B00A3F580730A93D4
:1057C0000EFB080C199B0CFB053307934318119330
:1057D00072D4DDF834C063456EDC1EEB02036BD47B
:1057E000DDF818C0634567DCDDF81CC011FB05C19E
:1057F000CDE915C112FB08F101FB05C10C91D7B32E
:105800002D99052905D014290BD0062955D066E01D
:10581000EFE01598807807900C988178169880783A
:1058200010E0199A0E990EFB08FC02EB41010A18D0
:105830000EFB08111CF802000790119803FB08F3F7
:10584000085C995C079A91420AD00A9A11FB02F20D
:105850000A99C1F58073079911FB0321C1F3072150
:10586000079A90420DD0099A10FB02F20998C0F5F0
:10587000807301E02FE035E0079810FB0320C0F3B0
:10588000072008442C994008085527D0159801781E
:10589000407801EB0020ADF80C000C9801784078BE
:1058A00001EB0020ADF8100016980178407801EB6C
:1058B0000020ADF8080023E04CE0159801881FFA9D
:1058C00089F0814207D00C990988814203D016994A
:1058D0000988814203D12C990020085583E0FF21DB
:1058E0000846CEE715980088ADF80C001698008899
:1058F000ADF808000888ADF810002C98FF2101557C
:10590000BDF80C00BDF81010884209D1BDF8081090
:10591000884205D12B98BDF80C1000EB440017E02D
:105920000A98C2B2DDE903100FF0CBF90490099890
:10593000C2B2DDE902010FF0C4F97F22029004999E
:105940000FF0BFF900902B98BDF8001000EB440059
:10595000018048E0079B93F800C05B780CEB0323C1
:10596000DDF8ACC09BB22CF81430DDF8B4C0BCF14B
:10597000050F06D0BCF1060F06D0BCF1140F09D1FB
:105980000AE0079B9B780FE01FFA89FC634501D171
:10599000002309E0FF2307E0199B0EFB083C0E9B48
:1059A00000EB43031CF8033008B9002905DBDDF8E0
:1059B00034C0604503D1002901DD09980AE0BEF139
:1059C000000F01D1002A04DB06998E4508D1002A78
:1059D00006DD0A98C0F1FF0010FB03F0010A00E0A9
:1059E00000212C980155641C24B22A988442FFF6A9
:1059F000B7AE1DB0BDE8F08F10B5818F92B00446F0
:105A0000A9B168460CF040FD0B480121CDE90040EA
:105A1000A08F0B9000200890CDE90901074807905E
:105A20000748039068460CF0A3FD12B010BD12B0F9
:105A3000BDE810401FF03CBB295102084725010872
:105A40002B51020810B50446406882080AD0496804
:105A500021F00301091D08446060204600F042F86F
:105A6000204610BDFEE74068103120F00300884258
:105A700001D301207047002070472DE9FC470546FF
:105A800048680C4620F0030001AA69461EF0F8FAA7
:105A9000DDE9007005EBC71101EB80098046D9F8FC
:105AA0003C0060B164B1C4E9020504F10806C460B9
:105AB00030460421FFF7FFFB864202D0FEE7FEE7F7
:105AC000FEE7C9F83C400120296900FA07F21143BA
:105AD000296105EB870100FA08F04A6902434A612F
