:020000040800F2
:10000000C09101204D03000815550008D94900088A
:10001000115500089D0E000819620008000000003C
:100020000000000000000000000000008D02000839
:10003000BB0F000800000000E90200087558000826
:1000400067030008670300086703000867030008E8
:1000500067030008670300086703000867030008D8
:1000600067030008670300086703000867030008C8
:1000700067030008670300086703000867030008B8
:1000800067030008670300086703000867030008A8
:100090006703000867030008670300086703000898
:1000A0006703000867030008670300086703000888
:1000B00061590008670300087159000867030008C8
:1000C0006703000867030008670300086703000868
:1000D0006703000867030008670300086703000858
:1000E00039160008670300086703000881590008F3
:1000F0006703000867030008670300086703000838
:100100006703000867030008670300086703000827
:100110006703000867030008670300086703000817
:10012000A10E0008670300086703000867030008C2
:1001300067030008670300086703000867030008F7
:1001400067030008670300086703000867030008E7
:1001500067030008670300086703000867030008D7
:1001600067030008670300086703000867030008C7
:100170006703000867030008670300080000000029
:1001800067030008670300086703000867030008A7
:100190006703000867030008670300086703000897
:1001A00067030008670300086703000800F002F80F
:1001B00000F05CF80AA090E8000C82448344AAF1A5
:1001C0000107DA4501D100F051F8AFF2090EBAE8A3
:1001D0000F0013F0010F18BFFB1A43F0010318477B
:1001E0002CDD08004CDD08000A444FF0000C10F82C
:1001F000013B13F0070408BF10F8014B1D1108BFA5
:1002000010F8015B641E05D010F8016B641E01F844
:10021000016BF9D113F0080F1EBF10F8014BAD1C94
:100220000C1B09D16D1E58BF01F801CBFAD505E0B2
:1002300014F8016B01F8016B6D1EF9D59142D6D30C
:10024000704700000023002400250026103A28BF34
:1002500078C1FBD8520728BF30C148BF0B60704738
:100260001FB53DF0A6FD1FBD10B510BD00F053FA3F
:100270001146FFF7F5FF2FF0ADFD00F071FA03B462
:10028000FFF7F2FF03BC00F079FA00002C4B19686D
:100290000868B0E8F04F80F30988BFF36F8F4FF024
:1002A000000080F3118870470000000008480068D3
:1002B000006880F308884FF0000080F3148862B66D
:1002C00061B6BFF34F8FBFF36F8F00DF00BF00BF7A
:1002D00008ED00E0DFF80C00016841F470010160F6
:1002E000704700BF88ED00E0EFF30980BFF36F8F28
:1002F000134B1A681EF0100F08BF20ED108A20E97A
:10030000F04F106009B44FF0500080F31188BFF334
:100310004F8FBFF36F8F3CF07FF84FF0000080F3FA
:10032000118809BC19680868B0E8F04F1EF0100F7A
:1003300008BFB0EC108A80F30988BFF36F8F704755
:100340005C000020EFF305807047000009488047FB
:1003500009480047FEE7FEE7FEE7FEE7FEE7FEE7A7
:10036000FEE7FEE7FEE7FEE704480549054A064BBF
:10037000704700004D590008AD010008C08B0120F6
:10038000C0910120C08D0120C08D012053EA020CD4
:1003900000F069802DE9F04B4FF00006002B1FBFE5
:1003A000B3FA83F503FA05F424FA05F65E4012BFAA
:1003B0001643B2FA82F502FA05F4C5F120051EBF14
:1003C00022FA05FC44EA0C04203556EA044C4FEAB4
:1003D000144418BF641C4FF000084FF0000990420D
:1003E00071EB030C39D3002919BFB1FA81F701FA77
:1003F00007F6B0FA80F700FA07F6C7F120071EBF2C
:1004000020FA07FC46EA0C062037B6FBF4FCA7EB03
:100410000507103F07F01F0BCBF120060CFA0BFB72
:100420002CFA06F644BFB3460026202FA4BF5E4632
:100430004FF0000B5BEA060C08BF4FF0010B19EB05
:100440000B09ABFB027C48EB0608C01B06FB02CC89
:100450000BFB03CC71EB0C01C1E70B460246414696
:100460004846BDE8F08B13B54FF000004FF0000197
:10047000AFF30080BDE81C40704740EA010302462C
:1004800030B59B0710D14FF0013400E008C208C915
:100490001D1B9D4315EAC41FF8D013F0FF0102F89D
:1004A000011B0DD01B0AF8E711F8013B002B02F8E5
:1004B000013B05D011F8013B002B02F8013BF3D1C1
:1004C00030BD10B5431C02E010F8011B71B181076B
:1004D000FAD14FF0013202C88C1A8C4314EAC211CF
:1004E000F9D0C01A0A0603D0C01E10BDC01A10BD34
:1004F0000A0401D0801E10BD0902FCD0401E10BDB0
:10050000032A40F2308010F0030C00F0158011F83F
:10051000013BBCF1020F624498BF11F801CB00F817
:10052000013B38BF11F8013BA2F1040298BF00F86B
:1005300001CB38BF00F8013B11F0030300F0258028
:10054000083AC0F0088051F8043B083A51F804CB4F
:10055000A0E80810F5E7121D5CBF51F8043B40F815
:10056000043BAFF30080D20724BF11F8013B11F820
:1005700001CB48BF11F8012B24BF00F8013B00F864
:1005800001CB48BF00F8012B704710B5203AC0F0EE
:100590000B80B1E81850203AA0E81850B1E8185084
:1005A000A0E81850BFF4F5AF5FEA027C24BFB1E8C1
:1005B0001850A0E8185044BF18C918C0BDE8104032
:1005C0005FEA827C24BF51F8043B40F8043B08BF3B
:1005D0007047D20728BF31F8023B48BF11F8012B02
:1005E00028BF20F8023B48BF00F8012B704702F0FB
:1005F000FF0343EA032242EA024200F06CB84FF0E4
:10060000000200B5134694469646203922BFA0E862
:100610000C50A0E80C50B1F12001BFF4F7AF09076E
:1006200028BFA0E80C5048BF0CC05DF804EB89005F
:1006300028BF40F8042B08BF704748BF20F8022BA2
:1006400011F0804F18BF00F8012B70474FF0013CAC
:1006500050F8042B51F8043B9A4221D1A2EB0C0331
:10066000934313EACC1317D150F8042B51F8043BF1
:100670009A4215D1A2EB0C03934313EACC130BD18E
:1006800050F8042B51F8043B9A4209D1A2EB0C0319
:10069000934313EACC13DBD04FF00000704700BF48
:1006A000D01A01BAB1FA81F101F0180122FA01F071
:1006B000CB40C1F12001DBB2C0B2C01A2CFA01F369
:1006C000D11A914311EAC311E6D1704770477047C0
:1006D00070474FF000020429C0F0128010F0030CA4
:1006E0003FF48FAFCCF1040CBCF1020F18BF00F83F
:1006F000012BA8BF20F8022BA1EB0C01FFF781BF53
:100700005FEAC17C24BF00F8012B00F8012B48BF31
:1007100000F8012B7047754600F02CF8AE46050036
:100720006946534620F00700854618B020B5FFF70C
:100730001BFEBDE820404FF000064FF000074FF0D1
:1007400000084FF0000B21F00701AC46ACE8C009EF
:10075000ACE8C009ACE8C009ACE8C0098D467047F8
:1007600010B50446AFF300802046BDE81040FFF707
:1007700086BD000000487047608B012001491820A9
:10078000ABBEFEE7260002007047002001E0411CDE
:1007900088B20228FBDB704770B504460D46054A57
:1007A00032F81410044A52F824002A4602F0EAF9FA
:1007B00070BD0000480400205404002010B5044619
:1007C00001212046FFF7E8FF0121204600F006F84E
:1007D0000121204600F014F810BD000070B5044659
:1007E0000D46054A32F81410044A52F824002A46ED
:1007F00002F0C8F970BD00004C0400205C04002029
:1008000070B504460D46054A32F81410044A52F8F1
:1008100024002A4602F0B6F970BD00005004002002
:100820006404002070B506460C46002501213046C0
:10083000FFF7D4FF01213046FFF7AEFF002130461D
:10084000FFF7AAFF00BF1AE004F4004020B1012125
:100850003046FFF7D5FF03E000213046FFF7D0FF19
:10086000FFF793FF00213046FFF7B8FFFFF78DFF3A
:1008700001213046FFF7B2FF6400681CC5B2102D9D
:10088000E2DB01213046FFF787FF70BD2DE9F04123
:100890002DED068B80460C46B0EE408AF0EE608A65
:1008A0009FED1C0BB0EE40AAF0EE60AAB0EE489AA5
:1008B000F0EE689A9FED190B53EC102B51EC190BCD
:1008C0003CF084FE41EC190B53EC1A2B51EC190B44
:1008D0003DF016F841EC190B51EC190B3CF0CEFF32
:1008E00006463746C7F30D07B513C5F30D05274375
:1008F00025434FF404514046FFF794FF39464046E4
:10090000FFF790FF29464046FFF78CFFBDEC068BB2
:10091000BDE8F081CE98ED78082677410000000010
:1009200080842E412DE9F04107460C4615462646A7
:100930002E4331463846FFF775FFBDE8F0812DE9BB
:10094000F04180460C4615461E46002747EA040043
:10095000284340EA060739464046FFF763FFBDE8F3
:10096000F0812DE9F0472DED028B81460C46B0EE6B
:10097000408AF0EE608A15469846DDF828A04FF4CC
:1009800080714846FFF74EFF4FF404514846FFF789
:1009900049FFA1B2B0EE480AF0EE680A4846FFF7F8
:1009A00075FF1FFA88F2A9B24846FFF7BBFFB4F5FE
:1009B000804F01D1002601E04FF40066B5F5404FAD
:1009C00001D1002701E04FF480673B463246514693
:1009D0004846FFF7B4FFBDEC028BBDE8F08770B569
:1009E0000546AC6B206C00F0500050BB206C40F40E
:1009F000007020642068806800F04050E8B9207ED4
:100A0000D8B92068C06A00F4700020B120688068FE
:100A100000F4806088B92068406820F020002168D8
:100A20004860206C20F480702064206C00F48050BA
:100A300018B9206C40F001002064204601F0C4F990
:100A40000BE0206C00F0100018B1204601F0BEF958
:100A500003E0A06BC16C2846884770BD70B50546A1
:100A6000AC6B40202064606C40F004006064204661
:100A700001F0ACF970BD70B50446A56B284601F0D5
:100A8000A4F970BD55494A6822F440324A604A6868
:100A900043681A434A600268526822F4807203680D
:100AA0005A6002685368026943EA022203685A6086
:100AB0000268526822F0407203685A600268526805
:100AC00083681A4303685A600268926822F40062DD
:100AD00003689A6002689268C3681A4303689A6060
:100AE0003F4B826A9A4218D00268926822F0706284
:100AF00003689A6002689268836A1A4303689A607E
:100B00000268926822F0405203689A600268926814
:100B1000C36A1A4303689A600BE00268926822F085
:100B2000706203689A600268926822F0405203681B
:100B30009A600268926822F0020203689A60026872
:100B40009368027E43EA420203689A602022125CA4
:100B5000A2B10268526842F4006203685A600268F7
:100B6000526822F4604203685A6002685368426A1D
:100B7000521E43EA423203685A6005E00268526836
:100B800022F4006203685A600268D26A22F470029A
:100B90000368DA620268D36A828B521E43EA025209
:100BA0000368DA620268926822F4007203689A604D
:100BB0000268936890F8302043EA422203689A6002
:100BC0000268926822F4806203689A6002689368FF
:100BD000426943EA822203689A6070470023014019
:100BE0000100000F70B502460B46002100240026CC
:100BF0000025DFED1D0AB0EE600A032B01DA0020AC
:100C000070BD1488168801210DE032F81100A04251
:100C100001DD32F8114032F81100B04201DA32F849
:100C20001160481CC1B29942EFDB002104E032F8A8
:100C300011000544481CC1B29942F8DB281B001B77
:100C400000EE900AB8EE601A981E00EE900AF8EED8
:100C5000E00AC1EE201AB0EE610AFCEEC00A10EE06
:100C6000900A80B2CCE700000000000084480078C1
:100C7000012851D183490870834991F9000000EBA4
:100C8000D0714910A0EB4101C1B980480078401EE5
:100C90007E490870B4207E49096888637B480078E3
:100CA00020BB79480078401E40B277490870182070
:100CB0007649087020207749087017E07548007859
:100CC000401E7449087000207149096888637148A2
:100CD000007858B96C480078401E40B26A490870E4
:100CE00018206A49087020206A490870664890F9FF
:100CF000000000280FDC002065490968886362490C
:100D000008705F4908705F49087018205F490870D3
:100D1000202060490870B2E05948007802280AD1C2
:100D200058480078012806D10020564908705849D3
:100D300009688863A3E0524800780228EBD1524842
:100D400090F90000062190FBF1F201FB120000284F
:100D500048D151480078401C4F4908700846007837
:100D6000402879DD484991F9000000EBD071491025
:100D7000A0EB4101E1B945480078401E43490870A5
:100D8000B42043490968886340480078002863D14B
:100D90003D480078401E40B23B49087000203E4963
:100DA000087018203949087020203A49087053E02B
:100DB00038480078401E37490870002034490968D7
:100DC000886334480078002846D12F480078401EB8
:100DD00040B22D49087018202C49087020202D4958
:100DE000087039E0284991F9000000EBD0714910F2
:100DF000A0EB4101C1B925480078401E2349087085
:100E0000B4202349096888632048007820BB1E4825
:100E10000078401E40B21C49087018201B49087019
:100E200020201C49087017E01A480078401E194914
:100E3000087000201649096888631648007858B978
:100E400011480078401E40B20F49087018200F4921
:100E5000087020200F4908700B4890F90000002806
:100E60000DDC00200A4909688863074908700449B5
:100E7000087018200549087020200649087070473E
:100E80008D0400208E0400208C0400208F0400209C
:100E9000681C0020900400209104002000BFFEE7A1
:100EA00010B5024801F04EF910BD0000CC19002029
:100EB0000146087810381823B0FBF3F20848805C2C
:100EC000C865032A05D908686FF30900001D886505
:100ED00003E008686FF309008865886D70470000BB
:100EE00028DE0308014600208A6A8B69CBB932B13B
:100EF000012A0DD0022A03D0032A10D10EE000BF30
:100F0000CB6A03F08073B3F1807F00D1012007E04A
:100F1000CB6AB3F1C07F00D1012001E000E000BF47
:100F200034E08B69B3F5005F1AD132B1012A07D0E2
:100F3000022A03D0032A11D10AE000BF01200EE0EB
:100F4000CB6A03F08073B3F1807F00D1012006E00B
:100F5000CB6AB3F1C07F00D1012000E000BF15E0F3
:100F600032B1012A05D0022A04D0032A0CD103E0B1
:100F700000BF00BF012008E0CB6A03F08073B3F12B
:100F8000807F00D1012000E000BF00BF704730B576
:100F90000468246824F4802405682C600468636075
:100FA0008468402C04D10468A2600468E16003E016
:100FB0000468A1600468E26030BD704770B5002429
:100FC00000BF7748007806281FDA022075490870AC
:100FD00001F0DEFD044674480068201AB0F57A7FFF
:100FE00004D9714804600120704908706F48007886
:100FF000012816D16E48008898B901206C490880F4
:1010000001226C4800F0C4F90BE068480078012820
:1010100002D104206349087001F0BAFD0446624819
:1010200004606548007800EBC00101EB00155D48E5
:10103000007805287ED2DFE800F0032C5359950094
:101040005E4800685E49884205D904205549087009
:1010500000205A4908600121052000F01BFA0021F8
:10106000084600F017FA0021012000F013FA0021D1
:10107000022000F00FFA00205249096888635149A4
:101080000968C8635049096848634F49096888631B
:1010900083E04E480078012801D14D4908700020B6
:1010A000464908600121052000F0F4F900210846B6
:1010B00000F0F0F90021012000F0ECF900210220FD
:1010C00000F0E8F900203F49096888633D49096854
:1010D000C8633D49096848633B49096888635CE027
:1010E00000203649086000F0AFF956E0012037498A
:1010F00008700020314908600121052000F0CAF97C
:101100000121002000F0C6F92F4800684563012145
:10111000022000F0BFF92848007800EB80002D493C
:101120000968B1EB400F06D22B48006825490968D1
:10113000886316E030E02048007800EB8000254905
:101140000968B1EB400F09D322480068B0F57A7FF7
:1011500004D264201B490968886302E000201D490D
:1011600008601AE01D48006840F2145188420AD90C
:101170000F480088012806D100200D49088001226F
:101180000C4800F005F90121082000F083F9012145
:10119000072000F07FF900E000BF00BF70BD000035
:1011A000B4040020AE040020B0040020AF040020EE
:1011B000AA04002000001A08F50200200400002004
:1011C000C0D40100D81B0020901B0020A8040020E0
:1011D000A904002020000020A40400201C000020FE
:1011E00010B501220249034800F088FE10BD00003E
:1011F000740400208419002010B52DED068B9FED9E
:10120000450AF0EE408A00249FED430AB0EE408A82
:1012100001224249424800F071FE404890ED000A28
:10122000B8EE400ADFED3F0A20EE200ADFED3E0A6D
:1012300080EE201AB0EE418A18EE100A3CF048FD0C
:1012400041EC1A0B9FED390B53EC102B3CF0BEF91F
:1012500041EC190B3CF0E0F808EE100A18EE100A09
:101260003CF036FD41EC1A0B9FED320B53EC102B8A
:101270003CF0ACF941EC190B3CF0CEF808EE100A4A
:101280002E48007880B900BF08E0BCEEC80A10EE16
:10129000100A2B4921F81400601CC4B20F2CF4DB97
:1012A00001202649087014E0BCEEC80A10EE100AAE
:1012B00081B2244802780078401C224B18702048E4
:1012C00020F81210184600780E2802DD002019467A
:1012D00008700F211A48FFF785FC1B490880084653
:1012E000008800EE100AB8EE400ADFED180A80EE22
:1012F000201AF0EE418A142215491648B0EE680A09
:1013000017F0D2FC144880ED000A00F09BF9BDEC08
:10131000068B10BD66668640000000007404002045
:101320008419002000404E45000080457AC7293AC4
:1013300092CBEF3F2063EE5A423EE53F7D04002012
:10134000208B01207E0400206C04002000007A44E1
:101350000CD90808B8D80808700400202DE9F0411D
:1013600005460E4617460024A04601F08DF9A84612
:1013700000BF07E0D8F8000026F8140008F10208C2
:10138000601CC4B2BC42F5DB01F028F9BDE8F08175
:101390002DE9F04F87B005460F4690460024A3463E
:1013A000A146A246022627484068A84207D92548F8
:1013B000806AA84203D2012007B0BDE8F08F01F097
:1013C00063F9002412E01F4800EB04104068A842B3
:1013D0000AD81C4800EB04108068A84204D31948BE
:1013E00000EB0410D0F800B0601CC4B2032CEADBA0
:1013F0000020019001200490CDF80CB0022005904F
:1014000006A901A801F092F806460EB13046D3E7CE
:10141000A94600240FE037F814A05246002349469D
:10142000012001F0E5F806460EB13046C4E709F1A7
:101430000209601CC4B24445EDDB01F0CFF8304630
:10144000BAE7000060D9080810B50021072000F0B5
:1014500021F80121062000F01DF80121052000F0EF
:1014600019F80021084600F015F80021032000F0CB
:1014700011F80021042000F00DF80021082000F0F0
:1014800009F80021012000F005F80021022000F0F9
:1014900001F810BD2DE9F04104460D46064850F80C
:1014A000346000EBC40087882A463946304601F094
:1014B00069FBBDE8F081000090D90808002034499C
:1014C0000978334A5278914261D131494978304A9A
:1014D000927891425BD12E4989782D4AD2789142F7
:1014E00055D12B490978802903D0294909788429C5
:1014F00003D1AA21274A117017E02549097801F084
:10150000020161B92249097801F08001802906D1E0
:101510001F49097801F0F0011E4A117005E01C49CD
:10152000097801F070011B4A11701A490978802965
:1015300021D00BDC202916D003DC81B1102922D167
:101540000FE0302911D070291DD110E0902914D05E
:10155000A02914D0AA290CD0B02914D111E001205F
:1015600012E0022010E003200EE004200CE0052031
:101570000AE0062008E0072006E0082004E0092031
:1015800002E00A2000E000BF00BF03490870704776
:10159000B8040020BC040020B40400200020064948
:1015A0000968886304490968C8630449096848638D
:1015B0000249096888637047D81B0020901B0020EF
:1015C00000B52DED028B81B0FFF73EFFFFF7E6FF80
:1015D0000020FFF7F3F80120FFF7F0F81448006847
:1015E0003CF07BF941EC180B022083024FF460427F
:1015F000B0EE480AF0EE680A410300900020FFF7C1
:10160000B0F90C4800683CF068F941EC180B022076
:1016100083024FF46042B0EE480AF0EE680A4103DC
:1016200000900120FFF79DF901B0BDEC028B00BDD9
:101630009C040020A004002010B54FF4005001F0DD
:1016400083F910BD10B52DED088B4E4800780328A6
:1016500060D14D4890ED000A4C48D0ED000AB4EE40
:10166000E00AF1EE10FA05D2474890ED000A47482B
:1016700080ED000A444890ED000A4548D0ED000A8C
:10168000B4EEE00AF1EE10FA05DD3F4890ED000AF5
:101690003F4880ED000A3F4800683F4988426DD9C5
:1016A0003E480078002869D101203C49087038483C
:1016B00090ED000A3548D0ED000A30EE600AF0EEF9
:1016C000000A20EE200A364880ED000A354890EDE9
:1016D000000AF1EE040A30EE200A3148D0ED000A8B
:1016E000B4EEE00AF1EE10FA0ED32E4890ED000AA7
:1016F000F1EE040A30EE600A2948D0ED000AB4EE9B
:10170000E00AF1EE10FA39DD264890ED000A80ED8E
:10171000000A33E000201F490860224800683CF0BE
:10172000D7FA41EC1B0B9FED200B53EC102B3CF038
:10173000E7F841EC1A0B9FED1E0B53EC102B3BF01E
:101740009DFE41EC190B3BF067FE08EE900A142257
:1017500019491A48B0EE680A17F0A6FAB0EE408AA6
:101760001748008800EE100AB8EE400AB4EEC80A26
:10177000F1EE10FA02D2012012490870BDEC088B7C
:1017800010BD0000AE04002070040020840400207E
:101790008004002028000020A0BB0D007F04002052
:1017A0008804002078040020333333333333F33F8D
:1017B000000000000000F03FB8D808080CD9080865
:1017C0006C0400207C04002072B600BFFEE700001D
:1017D00010B5002201B909E0012901D10A0205E092
:1017E000022901D10A0201E04FF440720B2800D90E
:1017F000001D0E4B1B6823F440730C4C23602346E2
:101800001B681343236023461B6823F0F8032360FF
:1018100023461B68022444EAC0042343034C23608C
:1018200023461B6843F48033236010BD103C024004
:101830001C48006800F40070B0B11A48006820F439
:1018400000701849086000BF0846006840F4006056
:1018500008600846006820F40060086000BF084681
:10186000006840F4007008600E48006800F4806072
:10187000B0B10C48006820F480600A49086000BFDD
:101880000846006840F4805008600846006820F46C
:101890008050086000BF0846006840F4806008601F
:1018A00070470000003C0240134A126822F4407264
:1018B000114B1A60032906D11A461268DB131A432A
:1018C0000D4B1A600EE0012906D10B4A126842F056
:1018D0000402094B1A6005E0074A126842F400420C
:1018E000054B1A60044A12684FF4803343EA002320
:1018F0001A43014B1A607047103C0240074A1268B5
:1019000022F44072054B1A601A4612681A601A4691
:10191000126842F001021A6001707047103C0240E8
:1019200010B50A49096821F44071084C216021462C
:10193000096841F4407121602146096841F00101C4
:1019400021600260BFF36F8F436010BD103C024006
:10195000084A126822F44072064B1A601A4612684E
:1019600042F480721A601A46126842F001021A604C
:1019700001807047103C0240084A126822F440720D
:10198000064B1A601A46126842F400721A601A4630
:10199000126842F001021A6001607047103C024078
:1019A0002A48006800F0100040B12948C06940F0A2
:1019B00010002749C86110202449086023480068A6
:1019C00000F0200040B12248C06940F008002049E2
:1019D000C86120201D4908601C48006800F04000D4
:1019E00040B11B48C06940F004001949C86140205B
:1019F000164908601548006800F0800040B114489E
:101A0000C06940F002001249C86180200F49086097
:101A10000E48006800F4807048B10D48C06940F07D
:101A200001000B49C8614FF48070084908600748FD
:101A3000006800F0020040B10548C06940F0200095
:101A40000349C86102200149086070470C3C02400C
:101A5000881D002070B50446002500201449C86187
:101A600001F096F8054609E0601C38B124B101F098
:101A70008FF8401BA04201D9032070BD0D480068BB
:101A800000F480300028EFD10A48006800F001001F
:101A900010B10120074908600648006800F4F97099
:101AA00018B1FFF77DFF0120E7E70020E5E7000020
:101AB000881D00200C3C024002460868B0B9D1E9FC
:101AC00001031843CB6818430B6918434B6918434B
:101AD0008B691843CB6918430B6A18434B6A184348
:101AE00013686FF30E031843106019E0D1E9070380
:101AF00018434B6A1843136823F4F84318431060E3
:101B0000D1E901031843CB6818430B6918434B69AB
:101B100018438B69184353686FF30E0318435060E2
:101B2000002070470246506943F6FE73984340EA2E
:101B300041005061002070472DE9F04105460C46F8
:101B400016460027D4E900010843A168491E40EA6F
:101B50004110E16840EA412029696FF3150108430B
:101B6000286101F015F807460AE0701C40B126B163
:101B700001F00EF8C01BB04202D90320BDE8F0818D
:101B8000A86900F020002028EFD00020F6E7000030
:101B900030B50346FAB90868401E4C68641E40EA36
:101BA00004148868401E44EA0024C868401E44EAC1
:101BB0000034088A401E44EA0044888A401E44EAF1
:101BC0000054087E401E44EA00609C6804F07044A3
:101BD0002043986022E0C868401E0403888A401EA3
:101BE00044EA00509C680E4D2C40204398600868E1
:101BF000401E4C68641E40EA04148868401E44EA93
:101C00000024088A401E44EA0044087E401E44EA3C
:101C10000060DC6804F070442043D860002030BDD0
:101C2000FF0F0FFF38B502460020009000BF92F86A
:101C30003C00012801D1022038BD012082F83C007F
:101C400000BF0868092816D91068C0680C780A3CDB
:101C500004EB44050724AC40A0431468E0600C7812
:101C60000A3C04EB44048868A0401468E4682043FC
:101C70001468E06013E0106800690C7804EB440518
:101C80000724AC40A043146820610C7804EB4404A2
:101C90008868A0401468246920431468206148685B
:101CA000072817D21068406B0C79641E04EB84057A
:101CB0001F24AC40A04314686063088880B20C798C
:101CC000641E04EB8404A0401468646B2043146811
:101CD000606331E048680D2817D21068006B0C79FA
:101CE000E41F04EB84051F24AC40A0431468206368
:101CF000088880B20C79E41F04EB8404A0401468C7
:101D0000246B20431468206316E01068C06A0C79C5
:101D10000D3C04EB84051F24AC40A0431468E06232
:101D2000088880B20C790D3C04EB8404A040146850
:101D3000E46A20431468E0621E4B1F4C1068A04206
:101D40000AD10868122807D1586820F400005860AA
:101D5000586840F480005860174C1068A04222D1A7
:101D6000164C0868A04202D0086811281BD1586898
:101D700020F480005860586840F4000058600F4C10
:101D80000868A0420FD10E4800680E4CB0FBF4F07A
:101D900000EB80004000009002E00098401E0090A0
:101DA00000980028F9D100BF002082F83C0000BF55
:101DB00000BF41E700230140002001401200001055
:101DC0004C00002040420F007047704770470000F1
:101DD00070B5044600250CB9012070BD1549A06AF4
:101DE000884200D000BF206C30B9204600F024F8B3
:101DF0000020606484F83C00206C00F0100088B97A
:101E0000206C20F4885040F0020020642046FEF749
:101E100039FE00206064206C20F0020040F00100D8
:101E2000206400E0012500BF002084F83C0000BFD2
:101E30002846D2E70100000F10B586B004461421F1
:101E400001A8FEF7DCFB28492068884249D100BF81
:101E5000002000902548006840F480702349086005
:101E60000846006800F48070009000BF00BF00BF0B
:101E7000002000901D481438006840F004001B4901
:101E8000143908600846006800F00400009000BFA4
:101E900000BF20200190032002900020039001A9A0
:101EA000134800F05FFD13481349086000204860A4
:101EB000002111488160C1604FF4806101614900D7
:101EC0004161890081610021C1610162416200F0CC
:101ED00059FA08B1FFF778FC00BF0748A063846394
:101EE00000BF06B010BD0000002001404438024091
:101EF0000008024010640240CC190020F8B50446E6
:101F00000D4616460020009000BF94F83C000128C2
:101F100001D10220F8BD012084F83C0000BF2068F8
:101F2000806800F00100A0B92068806840F00100DE
:101F300021688860554800685549B0FBF1F000EB16
:101F40004000009002E00098401E00900098002899
:101F5000F9D12068806800F48070B0F5807F05D1E9
:101F60002068806820F4807021688860206880681C
:101F700000F0010000287ED0206C40F2016188430F
:101F800040F4807020642068406800F4806028B1CC
:101F9000206C20F4005040F480502064206C00F449
:101FA0008050B0F5805F04D1606C20F00600606462
:101FB00001E00020606400BF002084F83C0000BF06
:101FC000344F3548A16BC8633448A16B086434486A
:101FD000A16BC8646FF02200216808602068406827
:101FE00040F08060216848602068806840F480701C
:101FF00021688860226802F14C0133462A46A06BB2
:1020000000F036FA786800F01F0018BB25492068F8
:10201000884213D024492068884204D1381D0068C2
:1020200000F01F0050B12149206888422BD1194887
:10203000001D006800F01F00102824D2206880686E
:1020400000F04050F8B92068806840F08040216876
:10205000886018E013492068884214D1206880689D
:1020600000F0405078B92068806840F080402168D6
:10207000886008E0FFE7206C40F010002064606C8E
:1020800040F001006064002044E700004C000020A4
:1020900040420F0000230140DF090008770A0008D2
:1020A0005D0A00080020014000210140002201409B
:1020B00010B504460CB9012010BD94F8390028B9B8
:1020C000002084F83800204600F022F8022084F82E
:1020D00039002068006820F44030616808432168B6
:1020E00008602068406B20F00700A1680843216861
:1020F00048632068006C6FF30D00E16808432168B5
:1021000008640020E063012084F839000020D3E750
:1021100008B50A4A016891420FD100BF0021009121
:102120000749096841F40001054A11601146096830
:1021300001F40001009100BF00BF08BD00B00240E3
:1021400030380240F8B50446002000908C48006802
:102150004FF41651B0FBF1F7A56D2E6894F85C10A2
:1021600008208840304098B12068006800F00400E2
:1021700070B12068006820F004002168086094F8BD
:102180005C1008208840A860606D40F00100606528
:1021900094F85C1001208840304068B120684069A4
:1021A00000F0800040B194F85C1001208840A860E5
:1021B000606D40F00200606594F85C100420884077
:1021C000304068B12068006800F0020040B194F827
:1021D0005C1004208840A860606D40F004006065D9
:1021E00094F85C1010208840304078B32068006874
:1021F00000F0080050B394F85C1010208840A860EC
:102200002068006800F4802080B12068006800F435
:10221000002028B9206CC8B12046216C884715E001
:10222000A06C98B12046A16C88470FE02068006838
:1022300000F4807028B92068006820F00800216848
:102240000860206C10B12046216C884794F85C101F
:10225000202088403040002865D02068006800F0C9
:10226000100000285FD094F85C1020208840A860FF
:1022700094F83500052828D12068006820F0160061
:10228000216808602068406920F08000216848616A
:10229000206C08B9A06C28B12068006820F0080004
:1022A0002168086094F85C103F208840A8600120F5
:1022B00084F8350000BF002084F8340000BF206D92
:1022C00010B12046216D8847F8BD2068006800F4F1
:1022D000802080B12068006800F4002028B9606C7C
:1022E00010B12046616C88471DE0E06BD8B12046F4
:1022F000E16B884717E02068006800F4807068B9D7
:102300002068006820F0100021680860012084F82F
:10231000350000BF002084F8340000BFE06B10B12E
:102320002046E16B8847606D38B3606D00F00100B6
:10233000F0B1052084F835002068006820F0010025
:102340002168086000BF0098401C0090B84200D986
:1023500005E02068006800F001000028F3D100BF0C
:10236000012084F8350000BF002084F8340000BF4D
:10237000E06C10B12046E16C884700BFA4E7000084
:102380004C0000202DE9F0410446002500F000FC3F
:10239000074614B90120BDE8F081606A00B100BFB2
:1023A000022084F8350000BF002084F8340000BF0C
:1023B0002068006820F00100216808600AE000F051
:1023C000E7FBC01B052805D920206065032084F8A1
:1023D0003500E0E72068006800F001000028EED139
:1023E0002068056821480540D4E901010843E168F7
:1023F00008432169084361690843A1690843E16909
:102400000843216A08430543606A042803D1D4E9DC
:102410000B0108430543206805602068456925F0E5
:102420000705606A0543606A04280DD1A06A054368
:10243000E06A48B12046FEF755FD28B140206065AE
:10244000012084F83500A6E7206845612046FEF7A4
:102450002FFD064694F85C103F208840B0600020B5
:102460006065012084F83500002094E73F8010F07B
:102470002DE9F04704460D4616461F464FF000086A
:10248000D4F8589000BF94F83400012802D10220FB
:10249000BDE8F087012084F8340000BF94F83500CF
:1024A000012825D1022084F83500002060653B46D4
:1024B000324629462046FEF76AFD94F85C103F201C
:1024C0008840C9F808002068006840F016002168BC
:1024D0000860206C28B12068006840F0080021687E
:1024E00008602068006840F001002168086006E08C
:1024F00000BF002084F8340000BF4FF002084046BF
:10250000C6E7000070B5044600F042FB06462546CB
:10251000681C10B104480078054400BF00F038FB87
:10252000801BA842FAD370BD580000202DE9F0416D
:1025300004460E460127002500BF2648007E0128DC
:1025400002D10220BDE8F08101202249087600BFB7
:102550004CF25030FFF77EFA0746002F32D1401E72
:1025600030602068012810D1207C6168FFF79CF959
:102570004CF25030FFF76EFA07461748006848F2F1
:1025800004018843144908601AE0A56812E0217C20
:102590002846FFF71DF94CF25030FFF75BFA07466B
:1025A0000D48006820F0FA000B4908600FB1356053
:1025B00005E06D1CD4E902100844A842E7D800BF2A
:1025C000FFF736F900BF00200249087600BF384601
:1025D000B8E70000881D0020103C02400348006856
:1025E00040F000400149086000207047103C024064
:1025F0002DE9F04106460F4614461D464FF00108EE
:1026000000BF1F48007E012802D10220BDE8F081F2
:1026100001201B49087600BF4CF25030FFF71AFA30
:102620008046B8F1000F23D126B9E1B23846FFF752
:1026300065F912E0012E04D1A1B23846FFF788F9FE
:102640000BE0022E04D121463846FFF795F904E04D
:1026500022462B463846FFF763F94CF25030FFF71D
:10266000F9F980460748006820F001000549086034
:1026700000BF00200249087600BF4046C6E70000C0
:10268000881D0020103C024000200949096801F023
:10269000004159B10749064A0C3A116006491160D8
:1026A0000349096801F0004101B1012070470000B1
:1026B000103C024023016745AB89EFCD00B587B0E0
:1026C000142102A8FDF79BFF3148006808B107B04C
:1026D00000BD01202E49086000BF002001902D4858
:1026E000006840F001002B4908600846006800F0CF
:1026F0000100019000BF00BF4FF63F000290022092
:10270000039000200490032005900C20069002A95D
:10271000214800F027F90D200290022003900020AC
:102720000490032005900C20069002A91B4800F09D
:1027300019F948F23710029002200390002004900B
:10274000032005900C20069002A9154800F00AF914
:102750004FF6837002900220039000200490032023
:1027600005900C20069002A90E4800F0FBF84CF2F0
:102770000370029002200390002004900320059033
:102780000C20069002A9084800F0ECF800BF9EE774
:102790004400002038380240001402400008024083
:1027A0000018024000100240000C024070B50546BF
:1027B000B5F5005F7ED15A48007830BB4FF4005128
:1027C000584800F0D7F920B15748006857490860C9
:1027D00045E05548006855490968401A26280ED931
:1027E0005148006851490968401A292807D8012032
:1027F0004B4908704C4800684C4908602FE00020A5
:102800004A4908604849086029E04FF400514548AA
:1028100000F0B0F9F8B146480078401C444908700F
:10282000444800784006000E424908703E4800685F
:102830003E490968401A032811D33B4800683B49C8
:102840000968401A04280AD83A48007840F0010084
:102850003849087003E03448006834490860344857
:10286000007807285AD1334800784006000E3149D5
:102870000870084600783049304A127888542D484C
:10288000007800F0020020B12A48007800F08000B3
:1028900048B12848007800F08000A8B925480078A1
:1028A00000F0300080B100F073F90446244800685D
:1028B000201A00E032E0B0F5FA7F1BD9012021494F
:1028C00008701F48046015E01E48007801280CD1EC
:1028D000184800781849087016480078487015485C
:1028E0000078887013480078C87000F051F90446E9
:1028F0001348046011480078401C104908700846CD
:102900000078032801DD00200870002008490870C5
:1029100005490860054908600149087070BD00005C
:10292000B6040020000C024008000020C40400206F
:10293000C8040020B7040020B8040020C904002007
:10294000C0040020B504002010B504460448006807
:10295000204020B1024804602046FFF727FF10BD49
:10296000143C0140F8B502460B4600250024002027
:102970000021E0E0012606FA01F51E6806EA0504DA
:10298000AC4274D11E7906F00306012E04D01E79E4
:1029900006F00306022E13D190684F000326BE40B6
:1029A000B0434F00DE68BE4030439060506801265F
:1029B0008E40B0431E79C6F300168E4030435060FF
:1029C0001E7906F00306032E09D0D0684F000326B7
:1029D000BE40B0434F009E68BE403043D0601E7979
:1029E00006F00306022E13D1CF0802F1200656F896
:1029F00027004E07F70E0F26BE40B0434F07FF0ECD
:102A00001E69BE403043CF0802F1200646F8270079
:102A100010684F000326BE40B0431E7906F003063F
:102A20004F00BE40304310605E6806F44036002E12
:102A30001DD000BF00260096414E366846F4804601
:102A40003F4F3E603E46366806F48046009600BF23
:102A500000BF3C4E8F0856F827008E07370F0F2611
:102A6000BE40B043384EB24202D100262EE061E0B3
:102A7000364EB24201D1012628E0354EB24201D194
:102A8000022623E0334EB24201D103261EE0324E2D
:102A9000B24201D1042619E0304EB24201D10526DE
:102AA00014E02F4EB24201D106260FE02D4EB24265
:102AB00001D107260AE02C4EB24201D1082605E0DA
:102AC0002A4EB24201D1092600E00A268F073F0FA5
:102AD000BE4030431B4E8F0846F82700244E306816
:102AE000A0435E6806F4801606B12043204E306095
:102AF000361D3068A0435E6806F4001606B1204318
:102B00001B4E361D30601A4E361F3068A0435E687B
:102B100006F4003606B12043154E361F3060361FCE
:102B20003068A0435E6806F4803606B12043104E3C
:102B3000083E3060491C1029FFF41CAFF8BD0000AE
:102B400044380240083801400000024000040240BE
:102B500000080240000C0240001002400014024035
:102B600000180240001C02400020024000240240E5
:102B7000083C0140024613690B400BB1012000E004
:102B8000002070470AB1816101E00B048361704746
:102B900001480068704700005000002003480068AA
:102BA0000349097808440149086070475000002033
:102BB0005800002010B50D48006840F400700B4923
:102BC00008600846006840F48060086008460068B5
:102BD00040F480700860032000F01CFB0F2000F020
:102BE00007F800F09BFA002010BD0000003C0240F6
:102BF0002DE9F04188B004460027B84600BF002008
:102C000001902348006840F004002149086008460C
:102C1000006800F00400019000BF00BF02A903A8F3
:102C200000F096FD069F1FB900F0BAFD054602E0D0
:102C300000F0B6FD45001748B5FBF0F0A0F1010823
:102C400015481649086040F2E7311448C160C0F8E1
:102C50000480002101618160816101F02BF9064649
:102C600096B90E4801F04EFA06466EB91E2000F0E5
:102C70007FFA102C07D2002221461E2000F08CFA89
:102C80000748046000E00126304608B0BDE8F08146
:102C90004038024040420F0000080040401D002024
:102CA0005400002070B504460E46154600BF94F847
:102CB000A000012801D1022070BD012084F8A000ED
:102CC00000BF022084F8A10005EB850101EBC502DD
:102CD00004F1380101EB820034223146FDF755FC46
:102CE0002A463146204601F079FE012021684862DB
:102CF00084F8A10000BF002084F8A00000BF00BF3E
:102D0000DAE7000070B504460CB9012070BD94F8F4
:102D1000A10028B9002084F8A000204600F07EF829
:102D2000022084F8A1002068806920F070402168AA
:102D30008861D4E901010843E16808432169084337
:102D40002168896908432168886120688068324960
:102D5000084021688860A08A050420688068A1690D
:102D600029430843216888602068C0682A490840D0
:102D70002168C860A08B05042068C068216A2943C7
:102D800008432168C8602068006923490840216819
:102D90000861A08C050420680069A16A29430843E2
:102DA00021680861206840691B4908402168486122
:102DB000A08D050420684069216B294308432168E0
:102DC000486194F83500050294F83600060420683E
:102DD000C06A00F07F402168C86246EA050094F8A6
:102DE000341008432168C96A08432168C862206812
:102DF000406B40F00600216848632068806940F01D
:102E00000100216888610020C4F8A400012084F832
:102E1000A10000207AE7000000F800F010B592B0A1
:102E2000044614210DA8FDF7EAFB302101A8FDF7A7
:102E3000E6FB7C49206888427ED1082001904FF44F
:102E4000A8700590032107914FF480300A9001A8E3
:102E500000F03AFA08B1FEF7B7FC00BF002000907E
:102E60007148006840F080606F490860084600685B
:102E700000F08060009000BF00BF00BF0020009005
:102E800069481438006840F0200067491439086028
:102E90000846006800F02000009000BF00BF00BF9F
:102EA000002000900846006840F0010008600846D5
:102EB000006800F00100009000BF00BF00BF0020CC
:102EC00000900846006840F002000860084600686C
:102ED00000F00200009000BF00BF00BF0020009083
:102EE0000846006840F0400008600846006800F0AE
:102EF0004000009000BF00BF00BF002000900846C7
:102F0000006840F0040008600846006800F0040013
:102F1000009000BF00BF00BF00200090084600687E
:102F200040F0080008600846006800F008000090C3
:102F300000BF00BF081500E072E00D9002200E9067
:102F400000200F90032010900E2011900DA93748FB
:102F5000FFF708FD41F658000D9002200E9000206A
:102F60000F90032010900E2011900DA93048FFF70C
:102F7000F9FC03200D9002200E9000200F900320FA
:102F80001090092011900DA92A48FFF7EBFC4FF48F
:102F900070600D9002200E9000200F900320109082
:102FA0000E2011900DA92348FFF7DCFC4FF40C60B4
:102FB0000D9002200E9000200F90032010900E2004
:102FC00011900DA91C48FFF7CDFCC0200D900220E8
:102FD0000E9000200F90032010900E2011900DA94C
:102FE0001648FFF7BFFC08200D9002200E9000202D
:102FF0000F90032010900E2011900DA91048FFF79C
:10300000B1FC4FF4A0500D9002200E9000200F90C4
:1030100003201090092011900DA90748FFF7A2FC8A
:1030200012B010BD00680140443802400014024054
:103030000000024000040240001802400008024064
:10304000000C02402DE9F04104460E461746984612
:1030500000BF94F8A000012802D10220BDE8F08151
:10306000012084F8A00000BF022084F8A10008EB32
:10307000880000EBC80104F1380000EB81052E60E8
:10308000A86A30446860AF60E86A3844E860424645
:103090002946204601F0A2FC01202168486284F8FC
:1030A000A10000BF002084F8A00000BF00BFD5E74A
:1030B0002DE9F04104460E461746984600BF94F8A5
:1030C000A000012802D10220BDE8F081012084F88F
:1030D000A00000BF022084F8A10008EB880000EBEC
:1030E000C80104F1380000EB8105286830446860AD
:1030F000A8683844E860AE62EF624246294620463E
:1031000001F06CFC01202168486284F8A10000BF36
:10311000002084F8A00000BF00BFD5E708B500BFBD
:10312000002000901148006840F480400F4908607A
:103130000846006800F48040009000BF00BF00BF58
:1031400000200090081F006840F08050091F0860B0
:103150000846006800F08050009000BF00BF0022C9
:103160000F21901E00F018F808BD000044380240FE
:103170000146084600280DDB00BF00BF00F01F031A
:1031800001229A4043099B0003F1E023C3F8002188
:1031900000BF00BF00BF70472DE9F05F80460D46BD
:1031A0001646002703F03AF8074639462A463346C2
:1031B00001F00700C0F1070ABAF1040F02D94FF07D
:1031C000040A01E0C0F1070AD14600F1040ABAF18D
:1031D000070F02D24FF0000A01E0A0F1030AD44623
:1031E0004FF0010A0AFA09FAAAF1010A0AEA020AE8
:1031F0000AFA0CFA4FF0010B0BFA0CFBABF1010BC6
:103200000BEA030B4AEA0B042146404603F00EF892
:10321000BDE8F09F00BF00F00702064B19684FF6AB
:10322000FF031940044B0B4343EA0221014B196091
:1032300000BF70470CED00E00000FA0538B500242F
:1032400000BF002000901D48006840F080501B49DE
:1032500008600846006800F08050009000BF00BF82
:10326000012017490864FFF793FC044607E0FFF7C5
:103270008FFC001BB0F57A7F01D9032038BD1148BF
:10328000406800F48030B0F5803FF0D101200C4957
:103290004864FFF77DFC044607E0FFF779FC001B5C
:1032A000B0F57A7F01D90320E8E70648406800F4CA
:1032B0000030B0F5003FF0D10020DFE74038024099
:1032C00000000E4200700040F8B5044600250026BC
:1032D000207800F0010048B9207800F002000228B0
:1032E00004D0207800F04000402862D10020B1498D
:1032F0008866FFF74DFC054606E0FFF749FC401BDA
:10330000022801D90320F8BDAB480068C0F3C060B3
:103310000028F2D1207800F0010038B16068810106
:10332000207A41EA0070A44984310860207800F0D6
:103330000200022819D1A04884300068C0F3027648
:1033400060688101207B41EA006040EA06709A498A
:103350008431086098488C30006820F01F00E169D3
:10336000491E084394498C310860207800F04000E1
:1033700040280AD160688101207B41EA0061207AFF
:1033800041EA00708C4984310860012089498866CF
:10339000FFF7FEFB054606E0FFF7FAFB401B02289D
:1033A00001D90320AFE784480068C0F3C06000285B
:1033B000F2D0207800F00400042804D0207800F037
:1033C0000800082863D100207A490867FFF7E0FB6E
:1033D000054606E0FFF7DCFB401B022801D903206D
:1033E00091E775480068C0F340700028F2D120785A
:1033F00000F00400042819D16F4888300068C0F339
:10340000027620698101207D41EA006040EA067071
:10341000694988310860081D006820F4F851206A65
:10342000401E41EA002064498C310860207800F099
:103430000800082817D1604888300068C0F3036688
:103440002069800140EA0661207E41EA00705A4905
:1034500088310860081D006820F44030616A084324
:1034600055498C310860012052490867FFF790FBED
:10347000054606E0FFF78CFB401B022801D903201C
:1034800041E74D480068C0F340700028F2D0207832
:1034900000F0200020287DD100BF00200090464889
:1034A0004030006840F08050434940310860084691
:1034B000006800F08050009000BF00BF3F480068E7
:1034C00040F480703D490860FFF762FB054606E066
:1034D000FFF75EFB401B022801D9032013E73748A2
:1034E000006800F480700028F2D033487030006823
:1034F00000F440764EB3208D00F44070B04224D0EA
:103500002D487030006820F4407601202C49086076
:1035100000200860284870300660006800F0010054
:1035200098B1FFF735FB054608E0FFF731FB401B7C
:1035300041F28831884201D90320E4E61E48703008
:103540000068C0F340000028EFD000BF208D00F4D9
:103550004070B0F5407F0CD117480830006820F467
:10356000F810184AA16A114008431349083108604D
:1035700007E011480830006820F4F8100E490831BF
:1035800008600D4870300068218DC1F30B010843BD
:10359000094900E002E07031086000BF207800F0C7
:1035A0001000102803D194F82C000749086000206F
:1035B000A9E60000000047420038024000700040C9
:1035C000400E4742FFFCFF0FE011474270B5044632
:1035D0000D460CB9012070BD5848006800F00F007E
:1035E000A84209D255490D700846006800F00F0046
:1035F000A84201D00120EEE7207800F00200022866
:103600001DD1207800F00400042805D14C48006842
:1036100040F4E0504A490860207800F0080008288B
:1036200005D14748006840F4604045490860444877
:10363000006820F0F000A168084341490860207844
:1036400000F00100A8B36068012807D13C480838A1
:103650000068C0F34040B8B90120BCE760680228A8
:1036600002D06068032807D1354808380068C0F3E5
:10367000406048B90120AEE7314808380068C0F31F
:10368000400008B90120A6E72D48006820F003009B
:10369000616808432A490860FFF77AFA064609E09C
:1036A000FFF776FA801B41F28831884202D9032065
:1036B00091E707E02248006800F00C006168B0EB79
:1036C000810FEDD11D48006800F00F00A84209D914
:1036D0001A490D700846006800F00F00A84201D09A
:1036E000012078E7207800F00400042807D114486E
:1036F000006820F4E050E168084311490860207830
:1037000000F00800082808D10D48006820F4604047
:10371000216940EAC1000A49086000F061F80849DF
:103720000968C1F30311074A515CC84006490860A3
:1037300006480068FFF75CFA00204CE7003C0240B6
:103740000838024010DE03084C000020540000201E
:103750000F2202600D4A126802F0030242600B4A17
:10376000126802F0F0028260084A126802F4E05225
:10377000C260064A126802F46042D2080261044A3A
:10378000126802F00F020A60704700000838024019
:10379000003C024001480068704700004C000020D7
:1037A00000B5FFF7F7FF04490968C1F38221034A16
:1037B000515CC84000BD00000838024020DE03080C
:1037C00000B5FFF7E7FF04490968C1F34231034A36
:1037D000515CC84000BD00000838024020DE0308EC
:1037E0002DE9F047002400250026A1462548006861
:1037F00000F00C0020B1042805D008283AD105E0DB
:10380000DFF8849039E0DFF8849036E01D48001F2F
:10381000006800F03F041B48001F006800F48000AF
:1038200078B11A481749091F0968C1F38811A0FB2C
:1038300001700146224600233846FCF7A7FD0546E5
:103840000EE011480F49091F0968C1F38811A0FB58
:1038500001700146224600233846FCF797FD0546D5
:103860000848001F0068C0F30140401C4600B5FB3B
:10387000F6F902E0DFF8109000BF00BF4846BDE84F
:10388000F0870000083802400024F40000127A009B
:10389000F8B504460CB90120F8BD207800F001000D
:1038A000002874D0F948006800F00C0004280DD0FE
:1038B000F648006800F00C00082813D1F348001FF8
:1038C000006800F48000B0F5800F0BD1EF48083895
:1038D0000068C0F34040002859D06068002856D1E5
:1038E0000120D9E700BF6068B0F5803F08D1E74804
:1038F0000838006840F48030E449083908601EE068
:103900006068B0F5A02F0DD1E0480838006840F499
:103910008020DE49083908600846006840F480309D
:1039200008600CE0D9480838006820F48030D74996
:10393000083908600846006820F48020086000BF4D
:10394000606890B1FFF724F9054606E0FFF720F91B
:10395000401B642801D903209EE7CC480838006842
:10396000C0F340400028F1D011E0FFF711F90546FF
:1039700006E0FFF70DF9401B642801D903208BE70F
:10398000C24808380068C0F340400028F1D12078D0
:1039900000F0020002285FD1BC48006800F00C0073
:1039A00058B1BA48006800F00C0008281CD1B7488C
:1039B000001F006800F48000B0B9B44808380068FF
:1039C000C0F3400020B1E068012801D0012063E786
:1039D000AE480838006820F0F800216940EAC100CC
:1039E000AA490839086037E0E06800B30120A84917
:1039F0000860FFF7CDF8054606E0FFF7C9F8401B61
:103A0000022801D9032047E7A04808380068C0F31E
:103A100040000028F1D09D480838006820F0F800E8
:103A2000216940EAC10099490839086014E0002082
:103A300097490860FFF7ACF8054606E0FFF7A8F8DD
:103A4000401B022801D9032026E790480838006867
:103A5000C0F340000028F1D1207800F008000828C9
:103A60002CD16069A8B101208A490860FFF790F85D
:103A7000054606E0FFF78CF8401B022801D9032019
:103A80000AE782486C300068C0F340000028F1D09B
:103A900014E000207F490860FFF77AF8054606E049
:103AA000FFF776F8401B022801D90320F4E6774897
:103AB0006C300068C0F340000028F1D1207800F09D
:103AC0000400042870D1002770483830006800F0E6
:103AD000805090B900BF002000906C4838300068DA
:103AE00040F080506949383108600846006800F0AD
:103AF0008050009000BF00BF01276748006800F4B5
:103B00008070B0B96448006840F480706249086011
:103B1000FFF73EF8054606E0FFF73AF8401B02289B
:103B200001D90320B8E65C48006800F480700028E2
:103B3000F2D000BFA068012808D15448683000685E
:103B400040F001005149683108601DE0A068052877
:103B50000DD14E486830006840F004004B49683190
:103B600008600846006840F0010008600CE0474823
:103B70006830006820F00100444968310860084658
:103B8000006820F00400086000BFA068A8B1FEF73C
:103B9000FFFF054609E0FEF7FBFF401B41F28831BD
:103BA000884202D9032077E626E03848683000686A
:103BB000C0F340000028EED013E0FEF7E9FF054611
:103BC00008E0FEF7E5FF401B41F28831884201D949
:103BD000032061E62D4868300068C0F340000028EB
:103BE000EFD1012F07D129483830006820F08050EC
:103BF00026493831086000BFA069002845D0234815
:103C0000006800F00C0008285DD0A069022845D1AA
:103C100000201F490866FEF7BBFF054606E0FEF7D9
:103C2000B7FF401B022801D9032035E617480838A2
:103C30000068C0F340600028F1D1D4E907010843CF
:103C4000616A40EA81110122A06AC2EB500041EA98
:103C500000412C20005D41EA00600C49091F08600A
:103C600001200B490866FEF793FF054606E0FEF7C4
:103C70008FFF401B022801D903200DE603480838B6
:103C80000068C0F340600028F1D049E008380240E5
:103C900000004742800E474200700040002021494A
:103CA0000866FEF775FF054606E0FEF771FF401B4C
:103CB000022801D90320EFE51B480068C0F34060EB
:103CC0000028F2D12CE0A069012800D1E4E51648D3
:103CD000001D0668A069012820D006F48001E06973
:103CE00081421BD106F03F01206A814216D147F67E
:103CF000C0703040616AB0EB811F0FD106F44031D3
:103D00000122A06AC2EB5000B1EB004F06D106F0D1
:103D100070612C20005DB1EB006F01D00120BBE58C
:103D20000020B9E5000047420038024070B5044663
:103D30000D460CB9012070BD94F82C0028B9002064
:103D400084F82D00204600F011F8022084F82C00A1
:103D5000211D2068FDF7B0FE2946D4E90002FDF7D9
:103D600017FF012084F82C000020E4E710B504467A
:103D7000FEF7A4FC10BD70B504460D4694F82C0067
:103D8000022800D170BD94F82C0001280AD102202D
:103D900084F82C0029462068FDF7C4FE012084F831
:103DA0002C0001E00120EDE70020EBE72DE9F041D8
:103DB00004460E46174694F82C50022D02D10220DC
:103DC000BDE8F081012D01D0052D12D1022084F82B
:103DD0002C003A4631462068FDF7AEFE30680228D6
:103DE00003D1052084F82C0005E0012084F82C0084
:103DF00001E00120E4E70020E2E77047704700009F
:103E000030B502460B4600BF92F83C00012801D1B4
:103E1000022030BD012082F83C0000BF022082F861
:103E20003D00106844681068816824F070041868C8
:103E3000044310684460184D1068A8421BD01068F5
:103E4000B0F1804F17D0154D1068A84213D0144D13
:103E50001068A8420FD0134D1068A8420BD0124D25
:103E60001068A84207D0114D1068A84203D0104D29
:103E70001068A84205D121F08001586801431068FC
:103E80008160012082F83D0000BF002082F83C00E4
:103E900000BF00BFBDE7000000000140000400407B
:103EA00000080040000C00400004014000400140B8
:103EB0000018004010B504460CB9012010BD94F85C
:103EC0003D0028B9002084F83C00204600F026F888
:103ED000022084F83D00211D206801F05DFD0120D5
:103EE00084F8460000BF84F83E0001213F200155C0
:103EF000402001554120015500BF00BF012084F83A
:103F0000420043200155442001554520015500BF82
:103F1000012084F83D000020D0E7000038B50446B9
:103F20002068B0F1804F18D100BF002000904848B1
:103F3000006840F00100464908600846006800F04B
:103F40000100009000BF00BF002205211C20FFF7E8
:103F500023F91C20FFF70CF978E03E4920688842DD
:103F60000FD100BF002000903948006840F00200E7
:103F7000374908600846006800F00200009000BF62
:103F800064E03549206888420FD100BF00200090CE
:103F90002F48006840F008002D4908600846006876
:103FA00000F00800009000BF50E02C4920688842D3
:103FB0001AD100BF002000902548001D006840F085
:103FC00002002349091D08600846006800F002004D
:103FD000009000BF00BF002205212B20FFF7DCF876
:103FE0002B20FFF7C5F831E01D492068884211D128
:103FF00000BF002000901648001D006840F480308B
:104000001349091D08600846006800F480300090DC
:1040100000BF1BE013492068884217D100BF002071
:1040200000900B48006840F04000094908600846CD
:10403000006800F04000009000BF00BF0022052192
:104040002B20FFF7A9F82B20FFF792F838BD0000CE
:104050004038024000040040000C004000040140D1
:104060000040014000180040014691F83D00012841
:1040700001D001207047022081F83D001A4B0868EA
:1040800098421BD00868B0F1804F17D0174B0868D2
:10409000984213D0164B086898420FD0154B086809
:1040A00098420BD0144B0868984207D0134B08680D
:1040B000984203D0124B086898420CD10868806877
:1040C00000F00702062A0CD00868006840F00100E2
:1040D0000B68186005E00868006840F001000B6894
:1040E00018600020C6E70000000001400004004006
:1040F00000080040000C0040000401400040014066
:1041000000180040014691F83D00012801D001202F
:104110007047022081F83D000868C06840F0010047
:104120000B68D8601A4B086898421BD00868B0F139
:10413000804F17D0174B0868984213D0164B086869
:1041400098420FD0154B086898420BD0144B086862
:10415000984207D0134B0868984203D0124B086866
:1041600098420CD10868806800F00702062A0CD03B
:104170000868006840F001000B68186005E00868F6
:10418000006840F001000B6818600020C0E70000E4
:10419000000001400004004000080040000C004006
:1041A0000004014000400140001800402DE9F041AA
:1041B00004460D46002700BF94F83C00012802D1B8
:1041C0000220BDE8F081012084F83C0000BF0220FD
:1041D00084F83D002068866826F0770626F47F463E
:1041E000206886602868502833D00CDC202850D006
:1041F00004DC00284BD0102851D149E0302849D0A8
:1042000040284CD139E060282DD0702807D0B0F577
:10421000805F03D0B0F5005F41D10DE041E0D5E90A
:1042200002136A68206801F03CFC2068866846F04A
:1042300077062068866034E0D5E902136A68206852
:1042400001F02FFC2068806840F48040216888607D
:1042500027E0EA686968206801F014FD50212068B1
:1042600001F02AFC1DE0EA686968206801F01DFD84
:104270006021206801F020FC13E0EA68696820688A
:1042800001F000FD4021206801F016FC09E000BFAC
:1042900000BF00BF2968206801F00EFC01E0012783
:1042A00000BF00BF012084F83D0000BF002084F85B
:1042B0003C0000BF384684E7704770B5044620686C
:1042C000C5682068066906F00200022819D105F0C9
:1042D0000200022815D1401F2168086101202077C3
:1042E0002068806900F0030018B12046FFF7E4FF62
:1042F00005E0204600F036F9204600F0EAF90020FB
:10430000207706F00400042819D105F004000428E1
:1043100015D1C04321680861022020772068806998
:1043200000F4407018B12046FFF7C6FF05E02046B4
:1043300000F018F9204600F0CCF90020207706F0B4
:104340000800082819D105F00800082815D1C04335
:1043500021680861042020772068C06900F003000C
:1043600018B12046FFF7A8FF05E0204600F0FAF854
:10437000204600F0AEF90020207706F0100010284B
:1043800019D105F01000102815D1C043216808612B
:10439000082020772068C06900F4407018B12046DA
:1043A000FFF78AFF05E0204600F0DCF8204600F029
:1043B00090F90020207706F0010048B105F00100D7
:1043C00030B16FF0010021680861204600F008FA62
:1043D00006F08000802809D105F08000802805D1F2
:1043E000C043216808612046FFF707FD06F0400042
:1043F000402809D105F04000402805D1C04321687C
:104400000861204600F068FA06F02000202809D153
:1044100005F02000202805D1C0432168086120460E
:10442000FFF7ECFC70BD000010B586B00446142107
:1044300001A8FCF7E4F82068B0F1804F1DD100BF5F
:10444000002000904048006840F001003E490860AC
:104450000846006800F00100009000BF00BF012086
:10446000019002200290002003900490012005900A
:1044700001A93648FEF776FA64E03549206888429B
:104480001DD100BF002000902F48006840F00200BE
:104490002D4908600846006800F00200009000BF47
:1044A00000BF302001900220029000200390049071
:1044B0000220059001A92748FEF754FA42E0264958
:1044C000206888421DD100BF002000901E4800686F
:1044D00040F001001C4908600846006800F0010037
:1044E000009000BF00BF0620019002200290002033
:1044F000039004900220059001A91448FEF732FAB7
:1045000020E01649206888421CD100BF002000909E
:104510000D48006840F010000B490860084600682C
:1045200000F01000009000BF00BF4020019002206A
:1045300002900020039004900320059001A90848F0
:10454000FEF710FA06B010BD3038024000000240FD
:104550000004004000040240000C00400040014004
:104560000010024070472DE9F04104460D46164602
:10457000002700BF94F83C00012802D10220BDE8CA
:10458000F081012084F83C0000BF36B1042E1BD01E
:10459000082E31D00C2E5ED145E02946206801F06E
:1045A00095FA2068806940F00800216888612068D9
:1045B000806920F004002168886120688069296989
:1045C00008432168886148E02946206801F0B6FA6E
:1045D0002068806940F400602168886120688069F3
:1045E00020F480602168886120688069296940EA38
:1045F00001202168886130E02946206801F0DCFA5A
:104600002068C06940F008002168C8612068C0695E
:1046100020F004002168C8612068C0692969084346
:104620002168C86119E02946206801F001FB206873
:10463000C06940F400602168C8612068C06920F446
:1046400080602168C8612068C069296940EA01204A
:104650002168C86101E0012700BF00BF00BF002042
:1046600084F83C0000BF384689E710B504460CB911
:10467000012010BD94F83D0028B9002084F83C00CA
:10468000204600F025F8022084F83D00211D206816
:1046900001F082F9012084F8460000BF84F83E0052
:1046A00001213F200155402001554120015500BF07
:1046B00000BF012084F842004320015544200155E9
:1046C0004520015500BF012084F83D000020D0E7BF
:1046D0007047704770B504460D4615B994F83E0012
:1046E0000BE0042D02D13F20005D06E0082D02D131
:1046F0004020005D01E04120005D012801D0012043
:1047000070BD1DB9022084F83E000EE0042D03D1D7
:1047100002213F20015508E0082D03D1022140204D
:10472000015502E00221412001550122294620685D
:1047300001F0A6F923492068884203D02249206865
:10474000884201D1012000E0002028B12068406C9F
:1047500040F40040216848641A49206888421BD010
:104760002068B0F1804F17D018492068884213D0D4
:104770001749206888420FD01649206888420BD01C
:1047800011492068884207D013492068884203D025
:104790001249206888420CD12068806800F0070622
:1047A000062E0CD02068006840F0010021680860E7
:1047B00005E02068006840F00100216808600020E2
:1047C0009EE700000000014000040140000400409A
:1047D00000080040000C004000400140001800406C
:1047E00010B504462B492068884201D1FEF7D6F95E
:1047F00029492068884242D128480068401C27493E
:10480000086027480068401C254908602548006862
:10481000401C2449086024480068401C2249086064
:1048200022480068401C2149086021480068401C5B
:104830001F4908601F480068401C1E4908601E4848
:104840000068401C1C4908601C480068401C1B494B
:1048500008601648006840F2DC51884202D9012005
:104860001749087017480088012808D116480078B1
:10487000062804DA15480068401C144908601449E9
:104880002068884204D113480068401C1149086020
:1048900010BD00000008004000040140100000208E
:1048A00004000020000000200C0000201400002064
:1048B000200000201C000020280000202C000020E8
:1048C00024000020AC040020B404002018000020C4
:1048D0000018004008000020704710B504460CB9CD
:1048E000012010BDA06900B100E000BF94F84100B4
:1048F00028B9002084F84000204600F029F8242040
:1049000084F841002068C06820F400502168C86025
:10491000204601F0DFF92068006920F4904021680A
:1049200008612068406920F02A00216848612068F9
:10493000C06840F400502168C860002060642020F6
:1049400084F8410084F842000020606300BFC8E79B
:1049500010B586B00446142101A8FBF750FE1B4990
:104960002068884230D100BF0020009018480068BD
:1049700040F01000164908600846006800F010007A
:10498000009000BF00BF00BF002000901048143806
:10499000006840F001000E491439086008460068BC
:1049A00000F00100009000BF00BF4FF4C060019014
:1049B000022002900020039003200490072005901D
:1049C00001A90448FDF7CEFF06B010BD001001405C
:1049D000443802400000024000BFFEE7F0B58E8878
:1049E0000768FF68C7F30B473E4433040668843604
:1049F000802707FB0266766806F4704706688436EF
:104A00004FF0800C0CFB026677600E680768FF6849
:104A1000C7F30B473E44761C1E43076884370CFBE4
:104A200002777E608E890768FF68C7F30A073E44F5
:104A3000330406688436802707FB0266B66806F4EE
:104A40007047066884360CFB0266B7608E6807689C
:104A5000FF68C7F30A073E44761C46EA0307066868
:104A600084360CFB0266B76006688436802707FB35
:104A70000266366926F00707066884360CFB026674
:104A800037610F69066884360CFB02663761312690
:104A9000765C33023226765C34040E7E3506066878
:104AA0008436802707FB0266B669002706688436CD
:104AB0000CFB0266B76191F830601E43264346EA5C
:104AC0000507066884360CFB0266B7610668843603
:104AD000802707FB0266766926F0FF0706688436A2
:104AE0000CFB026677614F69066884360CFB026630
:104AF000776106688436802707FB0266F66940F214
:104B00000777BE43076884370CFB0277FE61D1E963
:104B100007763743066884360CFB0266F761066841
:104B20008436802707FB0266B66A0027066884364B
:104B30000CFB0266B7624F6A066884360CFB02669D
:104B4000B7620E690EB9042313E00E69012E01D17C
:104B500003230EE00E69042E08D00E69022E05D044
:104B60000E69032E02D00E69072E01D1022300E048
:104B7000012306688436802707FB0266F66A06F082
:104B8000E027066884364FF0800C0CFB0266F76263
:104B9000D1E90076F61B5E43F61C0F8D5F4346EAB3
:104BA0000747066884360CFB0266F762066884369F
:104BB000802707FB0266366BF70AFF020668843619
:104BC0000CFB02663763CF6A066884360CFB02660C
:104BD000376306688436D701F65946F00107066840
:104BE00084364FEAC21C46F80C70F0BD10B516486A
:104BF0000078012812D115480078072803D01348FF
:104C0000007806280AD112480088012806D0012021
:104C10000F49088001220F48FCF7BAFB0B480078C7
:104C2000072802DD00200A4908800B4800680B496C
:104C3000884208D9002008490860054908800122F7
:104C40000448FCF7A5FB10BD24000020B40400209C
:104C5000AC04002000001C0818000020C0D4010093
:104C60001FB500200090019002900390154816494E
:104C700008604FF480304860002113488160016172
:104C8000017680F82010C162104981620021C16064
:104C90000121C161002180F8301001214161FDF73F
:104CA00097F808B1FCF790FD0F20009001200190CB
:104CB0000020029069460448FCF7B4FF08B1FCF7F5
:104CC00083FD1FBD00200140841900200100000F5A
:104CD00010B50848084908604FF440304860022188
:104CE000054881600021C160FDF7E2F908B1FCF7D9
:104CF0006BFD10BD00B002402C1A002008B500BFAB
:104D0000002000900A48006840F4800008490860CC
:104D10000846006800F48000009000BF00BF002239
:104D200005213820FEF738FA3820FEF721FA08BDB1
:104D30003038024000B587B01C216846FBF75FFCA5
:104D40001A481B490860002048600121184881600A
:104D50000821C16010210161402141614FF4C071FF
:104D600081610021C1614FF400610162490041622B
:104D700049008162022000900720019006200290E5
:104D8000039004200490022005900690694608488C
:104D9000FEF7CCFF08B1FCF717FD2EF01BFF40F229
:104DA000DA210348FEF7E7FF07B000BD400100A08D
:104DB0006C1A002010B5074A002107482CF070F942
:104DC00006490860064A002106482CF069F90649A0
:104DD000086010BDC8DD0308A95600083000002097
:104DE000ECDD0308015F00083400002000B587B047
:104DF000142102A8FBF703FC00BF00200190A74884
:104E0000006840F01000A54908600846006800F0FE
:104E10001000019000BF00BF00BF002001900846B5
:104E2000006840F0200008600846006800F020009C
:104E3000019000BF00BF00BF00200190084600683D
:104E400040F0800008600846006800F08000019093
:104E500000BF00BF00BF002001900846006840F07E
:104E6000040008600846006800F00400019000BFDC
:104E700000BF00BF002001900846006840F001001C
:104E800008600846006800F00100019000BF00BF04
:104E900000BF002001900846006840F00200086052
:104EA0000846006800F00200019000BF00BF00BF8C
:104EB000002001900846006840F040000860084665
:104EC000006800F04000019000BF00BF00BF00205C
:104ED00001900846006840F0080008600846006835
:104EE00000F00800019000BF00BF002210216C48B4
:104EF000FDF748FE00224FF420716A48FDF742FE9C
:104F0000002248F280116848FDF73CFE00224BF277
:104F1000CC016648FDF736FE00224FF48651644806
:104F2000FDF730FE00224FF4F0516248FDF72AFEF3
:104F300000224FF400716048FDF724FE0820029023
:104F4000002003900120049002A95548FDF70AFDB6
:104F5000102002900120039000200490059002A9E7
:104F60004F48FDF7FFFC4FF42070029001200390A2
:104F700000200490059002A94A48FDF7F3FC48F28E
:104F8000801002900120039000200490059002A957
:104F90004548FDF7E7FC0420029001200390022021
:104FA00004900020059002A94048FDF7DBFC4FF477
:104FB000304002900120039004900320059002A944
:104FC0003A48FDF7CFFC4FF4805002900120039047
:104FD00000200490059002A93548FDF7C3FC4FF46A
:104FE000005002904FF4441003900120049002A955
:104FF0002F48FDF7B7FC4FF490500290012003902A
:1050000000200490059002A92A48FDF7ABFC4FF45C
:10501000406002900120039000200490032005903E
:1050200002A92448FDF79EFCC020029001200390B5
:10503000002004900320059002A91D48FDF792FC72
:105040004FF400700290012003900020049005901E
:1050500002A91948FDF786FC082002900120039060
:1050600000200490059002A91048FDF77BFCC020A9
:10507000029011200390012004900320059002A9C2
:105080000A48FDF76FFC002205212820FEF784F86E
:105090002820FEF76DF807B000BD00003038024050
:1050A00000100240001402400000024000040240D0
:1050B000000C0240000802400018024000B58DB00C
:1050C00034216846FBF79BFA2C482D4908600020E4
:1050D000486000212A488160C1604FF08051016121
:1050E0000121416181611F21C1611521016240F2ED
:1050F000FF11416240F23531816240F20921C16203
:1051000040F285310163002180F8341080F83510B9
:1051100080F83610FDF7F6FD08B1FCF755FB0020CE
:1051200000904FF4F0700190002002904FF448700E
:10513000039002200490FF200590002006904FF479
:10514000C060079007200890800709904FF4F07026
:105150000A904FF448700B9000208DF83000002129
:105160008DF831108DF83210002269460448FDF7A1
:1051700099FD08B1FCF728FB0DB000BD00680140A7
:10518000A01A00201FB5002000900190029003900B
:105190000E480F4908605920486000210C48816082
:1051A0006321C160002101618161FEF783FE08B1C6
:1051B000FCF70AFB4FF48050009069460448FEF764
:1051C000F5FF08B1FCF700FB1FBD00000018004010
:1051D000B01C002000B58DB0002009900A900B9003
:1051E0000C90079008901C216846FBF708FA4FF0D6
:1051F00080401F4908605920486000211C48816098
:105200004FF47A71C160002101618161FEF752FEA5
:1052100008B1FCF7D9FA4FF48050099009A9144855
:10522000FEF7C4FF08B1FCF7CFFA1148FFF71DFAEB
:1052300008B1FCF7C9FA00200790089007A90C48AC
:10524000FEF7DEFD08B1FCF7BFFA602000900020F9
:10525000019002900490002269460548FFF783F907
:1052600008B1FCF7B1FA0248FFF7DEF80DB000BD57
:10527000481B002000B58DB0002009900A900B90CB
:105280000C90079008901C216846FBF7B8F9244859
:10529000244908605920486000212248816040F676
:1052A000C411C160002101618161FEF703FE08B1F4
:1052B000FCF78AFA4FF48050099009A91948FEF7C3
:1052C00075FF08B1FCF780FA1648FFF7CEF908B170
:1052D000FCF77AFA00200790089007A91148FEF71A
:1052E0008FFD08B1FCF770FA60200090002001905B
:1052F00002900490002269460A48FFF734F908B189
:10530000FCF762FA042269460648FFF72CF908B157
:10531000FCF75AFA0348FFF787F80DB000BD00000C
:1053200000040040901B002000B58DB000200990C3
:105330000A900B900C90079008901C216846FBF790
:105340005EF9244824490860592048600021224819
:10535000816041F29F01C160002101618161FEF71E
:10536000A9FD08B1FCF730FA4FF48050099009A963
:105370001948FEF71BFF08B1FCF726FA1648FFF79D
:1053800074F908B1FCF720FA00200790089007A9EB
:105390001148FEF735FD08B1FCF716FA60200090C1
:1053A0000020019002900490042269460A48FFF709
:1053B000DAF808B1FCF708FA082269460648FFF750
:1053C000D2F808B1FCF700FA0348FFF72DF80DB04A
:1053D00000BD0000000C0040D81B002000B587B0C5
:1053E00000200390049005900690019002901548CB
:1053F00015490860B32048600021134881604FF4CC
:105400007A71C1600021016141618161FEF752FD45
:1054100008B1FCF7D9F94FF48050039003A90A486A
:10542000FEF7C4FE08B1FCF7CFF90020019002900E
:1054300001A90548FEF7E4FC08B1FCF7C5F907B07F
:1054400000BD000000040140201C002000B58BB00E
:1054500000200790089009900A901C216846FBF7ED
:10546000CEF81B481B490860B3204860002119484A
:1054700081604FF4C871C160002101618161FEF754
:1054800019FD08B1FCF7A0F94FF48050079007A967
:105490001048FEF78BFE08B1FCF796F90D48FFF7B0
:1054A000E4F808B1FCF790F960200090002001902A
:1054B00002900490042269460648FFF754F808B1A8
:1054C000FCF782F90348FEF7AFFF0BB000BD000008
:1054D00000400140681C002010B50B480B490860D3
:1054E0004FF4E1204860002108488160C1600161FB
:1054F0000C21416100218161C161FFF7EEF908B122
:10550000FCF762F910BD000000100140F81C0020FB
:1055100000BFFEE700BFFEE770B5064600BF0022F1
:105520004FF480512D48FDF72DFB00BF00BF002236
:105530004FF400512948FDF725FB00BF00BF0022B2
:105540004FF400412548FDF71DFB00BF00BF0122BD
:1055500051032248FDF716FB00BF8025002432E0EE
:1055600006EA0500A8B100BF00224FF400511B4815
:10557000FDF708FB00BF00BF0122D1031748FDF76C
:1055800001FB00BF00BF012251031448FDF7FAFAE6
:1055900016E000BF00224FF400511048FDF7F2FA68
:1055A00000BF00BF00224FF400410C48FDF7EAFAAB
:1055B00000BF00BF012251030848FDF7E3FA00BF16
:1055C0006D10601CC4B2082CCADB00BF012211039D
:1055D0000248FDF7D7FA00BF70BD0000000402408A
:1055E00070B5064600BF00224FF480512C48FDF7ED
:1055F000C9FA00BF00BF00224FF400512848FDF750
:10560000C1FA00BF00BF0122D1032548FDF7BAFA55
:1056100000BF00BF012251032148FDF7B3FA00BFCC
:105620008025002432E006EA0500A8B100BF002270
:105630004FF400511A48FDF7A5FA00BF00BF012240
:10564000D1031748FDF79EFA00BF00BF01225103A6
:105650001348FDF797FA16E000BF00224FF40051FF
:105660000F48FDF78FFA00BF00BF00224FF4004142
:105670000B48FDF787FA00BF00BF0122510308481D
:10568000FDF780FA00BF6D10601CC4B2082CCADBA5
:1056900000BF012211030248FDF774FA00BF70BD7C
:1056A000000402407047000086B0002400BF1FF0D5
:1056B000CFFB00BF6848007860BB6848006840F6D0
:1056C000AC51884226D200BF6448006840F2DC51E9
:1056D000884204D94FF47A706149096848635F4889
:1056E000006840F67A51884213D9012000210291C6
:1056F0000391CDE9041008465A49CDE900105A48F3
:10570000027900F55C73014636F0F6FA0120524941
:10571000087098E0504800780128FAD1FFF7C2FFDE
:10572000FDF736FA044651480068201A6428F0D97B
:105730004E4804604E480088322812D14A4932222D
:10574000D1F88000114625F08BFB474940F20A2230
:10575000D1F88000D82125F031FB3C204449088055
:1057600071E0434800883C2812D13F493C22D1F8DF
:105770008000114625F074FB3B4940F20522D1F828
:105780008000D32125F01AFB4620394908805AE0D1
:1057900037480088462812D133494622D1F8800084
:1057A000114625F05DFB30494FF40072D1F88000BE
:1057B000CE2125F003FB50202D49088043E02C48E2
:1057C0000088502812D128495022D1F88000114673
:1057D00025F046FB244940F2FB12D1F88000C92194
:1057E00025F0ECFA5A20224908802CE02048008855
:1057F0005A2812D11C495A22D1F88000114625F0AE
:105800002FFB19494FF4FB72D1F88000C42125F019
:10581000D5FA64201649088015E0154800886428E8
:1058200011D111496422D1F88000114625F018FBEE
:105830000D4940F2F112D1F88000BF2125F0BEFAE7
:1058400032200B490880FBF711FA29F01BFD0520D7
:105850002BF0D0FB2EE700003C00002010000020C1
:10586000481B002039400308643201203800002022
:105870003E00002010B54FF0E020006937F052FBE9
:10588000012801D036F09CFF10BD000000B593B098
:10589000302107A8FAF7B3FE142102A8FAF7AFFEE9
:1058A00000BF002001902748006840F08050254943
:1058B00008600846006800F08050019000BF00BFFB
:1058C00000BF002001902048006840F440401E497D
:1058D00008600846006800F44040019000BF00BF27
:1058E000012007900004089002200D9041050E91C0
:1058F00008210F914FF4B4711091022111910421EC
:10590000129107A8FDF7C4FF08B1FBF75DFFFDF793
:1059100095FC08B1FBF758FF0F200290022003907E
:10592000002004904FF4A05005904FF48050069052
:10593000052102A8FDF74AFE08B1FBF745FF13B0A9
:1059400000BD00004038024000700040034800687D
:1059500040F47000014908607047000088ED00E0E5
:1059600010B50248FEF7A9FC10BD0000481B00203E
:1059700010B50248FEF7A1FC10BD0000401D00203C
:1059800010B50348FEF799FC0248FEF796FC10BDDF
:10599000201C0020B01C002010B502682D4B98423E
:1059A0000ED0B0F1804F0BD02B4B984208D02B4B30
:1059B000984205D02A4B984202D02A4B984203D1F4
:1059C00022F070024B681A43224B984220D0B0F16B
:1059D000804F1DD0204B98421AD0204B984217D0B0
:1059E0001F4B984214D01F4B984211D01E4B984227
:1059F0000ED01E4B98420BD01D4B984208D01D4B29
:105A0000984205D01C4B984202D01C4B984203D1BF
:105A100022F44072CB681A4322F080034C6943EAB7
:105A2000040202608B68C3620B688362094B984270
:105A300002D00C4B984201D10B69036301234361EF
:105A4000036903F001031BB1036923F00103036140
:105A500010BD0000000001400004004000080040AC
:105A6000000C00400004014000400140004401409F
:105A70000048014000180040001C00400020004089
:105A800030B501F01F05012404FA05F3046A9C43B4
:105A90000462046A01F01F0502FA05F52C43046252
:105AA00030BD30B50C46816821F47F4142EA0325C0
:105AB00025432943816030BD0A46816821F0700189
:105AC00042F00703194381607047000030B5026A55
:105AD000056A25F0010505624368846924F07004B5
