:020000040800F2
:10000000385100200D030008A31E0008871A0008BD
:10001000A11E00084306000855200008000000004B
:100020000000000000000000000000004D02000879
:100030004506000800000000A9020008AD1E0008E7
:1000400027030008270300082703000827030008E8
:1000500027030008270300082703000827030008D8
:1000600027030008270300082703000827030008C8
:1000700027030008270300082703000827030008B8
:1000800027030008270300082703000827030008A8
:100090002703000827030008270300082703000898
:1000A0002703000827030008270300082703000888
:1000B0002703000827030008270300082703000878
:1000C0002703000827030008270300082703000868
:1000D0002703000827030008270300082703000858
:1000E0002703000827030008270300082703000848
:1000F00027030008711F00082703000827030008D2
:100100002703000827030008270300082703000827
:100110002703000827030008270300082703000817
:100120002703000827030008270300082703000807
:1001300027030008270300082703000827030008F7
:1001400027030008270300082703000827030008E7
:1001500027030008270300082703000827030008D7
:1001600027030008270300082703000827030008C7
:1001700027030008270300082703000800000000E9
:1001800027030008270300082703000827030008A7
:100190002703000827030008270300082703000897
:1001A00027030008270300082703000800F002F8CF
:1001B00000F03CF80AA090E8000C82448344AAF1C5
:1001C0000107DA4501D100F031F8AFF2090EBAE8C3
:1001D0000F0013F0010F18BFFB1A43F0010318477B
:1001E000F436000014370000103A24BF78C878C1F4
:1001F000FAD8520724BF30C830C144BF04680C602D
:10020000704700000023002400250026103A28BF74
:1002100078C1FBD8520728BF30C148BF0B60704778
:100220001FB503F02DFB1FBD10B510BD00F0D0F9B8
:100230001146FFF7F5FF01F01FFF00F0EEF903B4E0
:10024000FFF7F2FF03BC00F0F5F900002C4B196832
:100250000868B0E8F04F80F30988BFF36F8F4FF064
:10026000000080F311887047000000000848006813
:10027000006880F308884FF0000080F3148862B6AD
:1002800061B6BFF34F8FBFF36F8F00DF00BF00BFBA
:1002900008ED00E0DFF80C00016841F47001016036
:1002A000704700BF88ED00E0EFF30980BFF36F8F68
:1002B000134B1A681EF0100F08BF20ED108A20E9BA
:1002C000F04F106009B44FF0500080F31188BFF375
:1002D0004F8FBFF36F8F02F0A5FD4FF0000080F34A
:1002E000118809BC19680868B0E8F04F1EF0100FBB
:1002F00008BFB0EC108A80F30988BFF36F8F704796
:100300001C000020EFF3058070470000094880477B
:1003100009480047FEE7FEE7FEE7FEE7FEE7FEE7E7
:10032000FEE7FEE7FEE7FEE704480549054A064BFF
:1003300070470000611F0008AD010008384B002025
:1003400038510020384D0020384D002053EA020C6F
:1003500000F069802DE9F04B4FF00006002B1FBF25
:10036000B3FA83F503FA05F424FA05F65E4012BFEA
:100370001643B2FA82F502FA05F4C5F120051EBF54
:1003800022FA05FC44EA0C04203556EA044C4FEAF4
:10039000144418BF641C4FF000084FF0000990424D
:1003A00071EB030C39D3002919BFB1FA81F701FAB7
:1003B00007F6B0FA80F700FA07F6C7F120071EBF6C
:1003C00020FA07FC46EA0C062037B6FBF4FCA7EB44
:1003D0000507103F07F01F0BCBF120060CFA0BFBB3
:1003E0002CFA06F644BFB3460026202FA4BF5E4673
:1003F0004FF0000B5BEA060C08BF4FF0010B19EB46
:100400000B09ABFB027C48EB0608C01B06FB02CCC9
:100410000BFB03CC71EB0C01C1E70B4602464146D6
:100420004846BDE8F08B13B54FF000004FF00001D7
:10043000AFF30080BDE81C407047032A40F23080D3
:1004400010F0030C00F0158011F8013BBCF1020F15
:10045000624498BF11F801CB00F8013B38BF11F896
:10046000013BA2F1040298BF00F801CB38BF00F8AD
:10047000013B11F0030300F02580083AC0F008802A
:1004800051F8043B083A51F804CBA0E80810F5E70E
:10049000121D5CBF51F8043B40F8043BAFF30080F1
:1004A000D20724BF11F8013B11F801CB48BF11F866
:1004B000012B24BF00F8013B00F801CB48BF00F836
:1004C000012B704710B5203AC0F00B80B1E81850EE
:1004D000203AA0E81850B1E81850A0E81850BFF42E
:1004E000F5AF5FEA027C24BFB1E81850A0E81850CD
:1004F00044BF18C918C0BDE810405FEA827C24BF21
:1005000051F8043B40F8043B08BF7047D20728BFAE
:1005100031F8023B48BF11F8012B28BF20F8023BFD
:1005200048BF00F8012B704702F0FF0343EA0322A3
:1005300042EA024200F02CB84FF0000200B5134628
:1005400094469646203922BFA0E80C50A0E80C50F3
:10055000B1F12001BFF4F7AF090728BFA0E80C50A4
:1005600048BF0CC05DF804EB890028BF40F8042B9D
:1005700008BF704748BF20F8022B11F0804F18BF0A
:1005800000F8012B70477047704770474FF000022A
:100590000429C0F0128010F0030C3FF4CFAFCCF16F
:1005A000040CBCF1020F18BF00F8012BA8BF20F803
:1005B000022BA1EB0C01FFF7C1BF5FEAC17C24BF96
:1005C00000F8012B00F8012B48BF00F8012B704701
:1005D000754600F02BF8AE4605006946534620F0FC
:1005E0000700854618B020B5FFF79EFEBDE8204005
:1005F0004FF000064FF000074FF000084FF0000BDF
:1006000021F00701AC46ACE8C009ACE8C009ACE891
:10061000C009ACE8C0098D46704710B50446AFF379
:1006200000802046BDE81040FFF709BE0048704733
:10063000D44A002001491820ABBEFEE72600020084
:100640007047FEE7704772B6FEE7F0B5D1E90735AF
:100650004C6A0A68C2B102682B4322F4F842144380
:1006600023430360D1E901231A43D1E9033423432F
:100670001A434B6989691A430A4341686FF30E01B3
:100680000A4342600020F0BDD1E901263243D1E99E
:1006900003673E4332434E69896932430A431A4332
:1006A0002A43016822436FF30E010A430260E9E71F
:1006B000426943F6FE739A4342EA410141610020D8
:1006C00070470000F0B56FF00F058C8A2E014FEADD
:1006D000054ECB682F034FF07F4C0EEB04540AB34A
:1006E0001A03A2F58052836822431D4C23401A430B
:1006F0008260D1E9002305EB0313521E1A438B6875
:1007000006EB03231A430B8A097E07EB03431A43C4
:100710000CEB01610A43C16801F070410A43C260F9
:100720000020F0BDD1E9002E05EB0E15521E2A4324
:100730008D6806EB05252A430A4D05EB03331A4362
:100740000B8A097E07EB03431A4322430CEB01613A
:100750000A43816801F070410A438260E0E70000CB
:10076000FF0F0FFF00F0FFFF70B590F83820012A4F
:1007700024D0012680F83860022280F8392000EB6E
:100780000112148CD369183243EA04451E4C0A2B1B
:1007900016D0092B14D0137B45EA036300290168A6
:1007A00013D0CD69A5431D43CD610368116819615C
:1007B00051680A291BD0092919D01DE0022070BDFB
:1007C000D36803F07F432B43E8E74D6AA5431D43FD
:1007D0004D6203681168996151680A2901D009299D
:1007E0000AD1D168026821F07F41916204E0D168AA
:1007F000026821F07F41116280F83960002180F8A1
:100800003810084670BD00000F0003FF70B50400EB
:1008100004D094F83900002510B106E0012070BD25
:1008200084F83850204600F01FF8022084F8390080
:1008300020680168626821F440311143016020683A
:10084000416BA26821F00701114341632068016CEC
:10085000E2686FF30D0111430164E563012084F840
:100860003900002070BD000008B5006806498842C4
:1008700008D10648016841F400010160006800F4F5
:100880000000009008BD000000B002403038024077
:10089000F0B587B014216846FFF74EFE2548016881
:1008A000002944D10121016023480024016841F05E
:1008B000010101600068022500F0010005904FF67B
:1008C0003F00CDE9000502AA03260C2782E8D000EC
:1008D00069461A4800F03CF80D20CDE9000502AA4F
:1008E000694682E8D000164800F032F848F2371026
:1008F000CDE9000502AA694682E8D000114800F05F
:1009000027F84FF68370CDE9000502AA694682E810
:10091000D0000D4800F01CF84CF20370CDE9000542
:1009200002AA694682E8D000084800F011F807B032
:10093000F0BD0000040000203838024000140240DE
:10094000000802400018024000100240000C024063
:100950002DE9F84FDFF8F8A10022012403254FF01C
:100960000F090AF1040BAAF1040E00BF0B6804FA88
:1009700002F63340B34270D10F7907F00307012F1D
:1009800001D0022F16D187684FEA420805FA08FC09
:1009900027EA0C07D1F80CC00CFA08FC4CEA070C4B
:1009A000C0F808C04768B7430E79C6F300169640F2
:1009B0003E4346600E79F643B6070AD0C7684FEA51
:1009C000420C05FA0CF6B7438E6806FA0CF63E4365
:1009D000C6600E7906F00306022E10D1D60800EB91
:1009E0008608D8F8206057074FEAD76C09FA0CF749
:1009F000BE430F6907FA0CF73743C8F82070066842
:100A00004FEA420C05FA0CF7BE430F7907F00307D3
:100A100007FA0CF7374307604E6816F4403F1CD0C6
:100A20004C4E376847F480473760366822F003073A
:100A300006F480460096484E07EB060CDCF8086882
:100A400097073F0F09FA07F826EA0806DFF80C8136
:100A5000404503D14FF0000841E072E0DFF800812B
:100A6000404502D14FF0010839E0DFF8F8804045F9
:100A700002D14FF0020832E0DFF8EC80404502D1AD
:100A80004FF003082BE0DFF8E480404502D14FF03F
:100A9000040824E0DFF8D880404502D14FF0050873
:100AA0001DE0DFF8D080404502D14FF0060816E087
:100AB000DFF8C480404502D14FF007080FE0DFF8AF
:100AC000BC80404502D14FF0080808E0DFF8B08054
:100AD000404502D14FF0090801E04FF00A0808FA3A
:100AE00007F848EA0608CCF80888DAF800605746A4
:100AF000D1F804C09E435FEACC2C00D51E433E6073
:100B0000DBF800605F46D1F804C09E435FEA8C2C9E
:100B100000D51E433E60DEF800607746D1F804C081
:100B20009E435FEA8C3C00D51E433E60084F083F61
:100B30003E68D1F804C09E435FEACC3C00D51E431A
:100B40003E60521C102AFFF411AFBDE8F88F000080
:100B5000083C01404438024000300140000002409F
:100B60000004024000080240000C02400010024055
:100B70000014024000180240001C02400020024005
:100B8000002402400AB1816170470904FBE70000BC
:100B900001488068704700000C000020024881680E
:100BA00002781144816070470C0000200B4810B59A
:100BB000016841F400710160016841F480610160E5
:100BC000016841F480710160032000F01DFA0F20DC
:100BD00000F006F800F0CEF9002010BD003C024005
:100BE00030B505461F4887B00024016841F4807184
:100BF0000160006806A900F48070009001A800F070
:100C0000D9FB0498A8B100F0F5FB40001649174A3B
:100C1000B0FBF1F11648491E026040F2E732C0E92C
:100C20000324C0E90114846100F018FE040003D01D
:100C300015E000F0DFFBE9E70D4800F03DFE0400A1
:100C40000DD12D2000F0B2F9102D07D20022294637
:100C50002D2000F0B9F90748056000E0012407B035
:100C6000204630BD4038024040420F000020004086
:100C7000B8010020100000202DE9F041044690F852
:100C8000A00016460F4601281DD0012584F8A0506B
:100C9000022084F8A10006EB860000EBC60004EBFE
:100CA000800034223830FFF70DFC324639462046AA
:100CB00000F0EAFE2068456284F8A150002084F824
:100CC000A000BDE8F0810220FBE7000070B5040041
:100CD00004D094F8A100002510B106E0012070BDF9
:100CE00084F8A050204600F06BF8022084F8A100A0
:100CF0002068816921F070418161D4E901010843D4
:100D0000D4E903121143084321688A6910438861BA
:100D100021688A68294802408A60A18A0A042168F9
:100D20008B68A669334313438B602168CA6802400D
:100D3000CA60A18B0B042168CA68266A32431A4331
:100D4000CA6021680A6902400A61A18C22680B040A
:100D50001169A66A31431943116121684A69024049
:100D60004A61A08D010420684269236B1A430A433B
:100D7000426194F835002168020294F83600CB6A8B
:100D800003F07F43CB622168CB6A94F8346042EA77
:100D9000004033430343CB622068416B41F00601BE
:100DA00041632068816941F001018161C4F8A45068
:100DB000012084F8A100002070BD000000F800F0C0
:100DC00070B592B0044614216846FFF7B5FB302198
:100DD00005A8FFF7B1FB37492068884268D1082091
:100DE00005904FF4B470099003200B904FF48030BD
:100DF0000E9005A800F01AF908B1FFF724FC2E4860
:100E00000024016841F080610160006800F08060AA
:100E1000119029481438016841F48071016001681B
:100E200001F480711191016841F0200101600168B5
:100E300001F020011191016841F080010160016819
:100E400001F080011191016841F0400101600068EA
:100E5000022500F04000119040F2F7600090CDE9CB
:100E600001540E26CDE9034669461448FFF770FD8C
:100E700068020090CDE90154CDE903466946104867
:100E8000FFF766FD4FF47E400090CDE90154CDE9B7
:100E9000034669460B48FFF75BFD4FF40C6000907A
:100EA000CDE90154CDE9034669460748FFF750FDF7
:100EB00012B070BD0068014044380240002002407A
:100EC00000140240001C02400018024070B50446A5
:100ED00090F8A0000E46012820D0012584F8A050EB
:100EE000022084F8A10003EB830000EBC30004EBB5
:100EF000800141F8386F886A3044C1E90102C86A4C
:100F00001044C8601A46204600F0BEFD20684562C5
:100F100084F8A150002084F8A00070BD022070BDAC
:100F200070B5044690F8A0000E46012820D0012597
:100F300084F8A050022084F8A10003EB830000EBAA
:100F4000C30004EB800151F8380F304448608868D2
:100F50001044C860C1E90A621A46204600F094FDB8
:100F60002068456284F8A150002084F8A00070BD7C
:100F7000022070BD0C4882B0016841F480410160DC
:100F8000006800F4804000900748001F016841F0AD
:100F9000805101600068002200F0805000900F2115
:100FA000901E02B000F010B844380240002809DB5F
:100FB00000F01F02012191404009800000F1E02073
:100FC000C0F8001170470000F0B40E4B1B680C46CF
:100FD000C3F30223C3F10705042D00D90425191D0D
:100FE000072901D2002300E0DB1E012606FA05F1E5
:100FF000491E214099409E40761E16403143F0BC68
:1010000001F029B80CED00E0064900F0070208687D
:101010004FF6FF03184040EA0220034A10430860DD
:10102000704700000CED00E00000FA052DE9F84FD4
:1010300004460068DFF824A2894F8A4DC1074FF0AB
:1010400001084FF0000603D1810701D4400648D5BE
:10105000CAF86860FFF79CFD814605E0FFF798FD40
:10106000A0EB090002287DD828680001F6D420787A
:10107000C1077D4805D06168227A890141EA027181
:1010800001602178890711D501686268237B92018C
:10109000C1F3027142EA036242EA017101603968F8
:1010A000E26921F01F01521E11433960217849067F
:1010B00008D56168227B890141EA0261227A41EA0E
:1010C00002710160CAF86880FFF762FD814605E0A1
:1010D000FFF75EFDA0EB0900022843D82868000155
:1010E000F6D52068410701D400074ED5CAF87060D4
:1010F000FFF74EFD814605E0FFF74AFDA0EB090032
:1011000002282FD82868C0438000F5D520784107F1
:10111000564814D501682269237D9201C1F30271FA
:1011200042EA036242EA017101603968226A6FF0A3
:10113000FF0321F4F85103EB0222114339602178B7
:10114000090712D501682269C1F30361920142EADD
:101150000161227E41EA027101603868616A20F40F
:10116000403000E051E008433860CAF87080FFF773
:101170000FFD074605E000BFFFF70AFDC01B022870
:1011800043D82868C0438000F6D42078800653D521
:1011900034484030016841F0805101600068344DAE
:1011A00000F080500090286840F480702860FFF7BD
:1011B000EFFC074605E000BFFFF7EAFCC01B022872
:1011C00023D82868C005F7D5274D143D286810F4AA
:1011D000407020D0218D01F4407181421BD02868DD
:1011E00020F440712348C0F8008006602960286818
:1011F000C00710D0FFF7CCFC064641F2883707E065
:10120000FFF7C6FC801BB84202D90320BDE8F88F67
:1012100028688007F4D5A16A1248C1F3012208307A
:10122000032A13D0016821F4F81101602868218D88
:10123000C1F30B01084328602078C00604D50E498D
:1012400094F82C00C1F8E0010020DFE702680B4BA6
:1012500022F4F81219400A430260E7E7000047420F
:101260008C380240003802408438024088380240FE
:1012700000700040400E474200104742FFFCFF0F45
:101280002DE9F0470E46050065D0DFF81481D8F847
:101290000000F7B200F00F00B04207D288F80070EB
:1012A000D8F8000000F00F00B04254D128683D4C3F
:1012B000810712D5400703D5206840F4E050206034
:1012C0002878000703D5206840F46040206020683B
:1012D000A96820F0F000084320602878C0072DD0CE
:1012E000304968680839012812D0022813D0032831
:1012F00011D00968890700292DDA216821F003013E
:1013000001432160FFF744FC814641F2883A0EE038
:1013100009688903EFE709688901ECE7FFF738FC02
:10132000A0EB0901514502D90320BDE8F0872068F0
:10133000696800F00C00B0EB810FEFD1D8F8001015
:10134000404601F00F01B14207D90770006800F074
:101350000F00B04201D00120E7E72878400705D50B
:101360002068E96820F4E0500843206028780007EE
:1013700006D52068296920F4604040EAC100206059
:1013800000F048F82168084AC1F30311515CC840D5
:101390000649086006480068FFF722FC0020C4E701
:1013A000003C024008380240B03800081800002015
:1013B000100000200F2202600C4A136803F00303A0
:1013C0004360136803F0F0038360136803F4E05391
:1013D000C36012684FF4E05303EAD202026104488A
:1013E000006800F00F0008607047000008380240F5
:1013F000003C02400448054900680968044AC1F3FA
:101400008221515CC8407047180000200838024013
:10141000C0380008154810B5006810F00C021448D8
:1014200013D01449042A0FD0082A0ED10F4C241FC0
:101430002268236802F03F025B0207D52068C0F3F0
:101440008810A0FB010106E0084610BD2168C1F329
:101450008811A1FB00010023FEF778FF2168C1F38A
:101460000141491C4900B0FBF1F010BD08380240B1
:101470000024F40040787D012DE9F84F04006ED07F
:101480002078DFF84C93C007A9F104054AD009F190
:1014900004000168C1F38101012908D00068C0F38C
:1014A000810002280AD1D9F80000400206D5286838
:1014B000800337D560680028E1D033E06068B0F57C
:1014C000803F10D0B0F5A02F286810D020F48030D5
:1014D0002860286820F4802028606068A8B1FFF7A1
:1014E00057FB06460DE0286840F48030F4E740F4EE
:1014F00080202860F7E700BFFFF74AFB801B6428C5
:1015000073D828688003F7D50CE0FFF741FB064647
:1015100005E000BFFFF73CFB801B6428F0D828687B
:101520008003F7D42078DFF8AC8280074FF0000A00
:101530003ED5A748001D016811F00C0F08D00068C7
:10154000C0F3810002280BD1D9F80000400207D473
:101550002868800716D5E068012800D112E033E141
:10156000E068B8B10120C8F80000FFF711FB06469B
:1015700005E000BFFFF70CFB801B0228C0D82868DD
:101580008007F7D52868216920F0F80040EAC100FB
:1015900028600DE0C8F800A0FFF7FAFA064604E05C
:1015A000FFF7F6FA801B02281FD828688007F7D4B7
:1015B0002078000722D5864F87486169703771B15E
:1015C00001210160FFF7E4FA064604E0FFF7E0FAC4
:1015D000801B022809D838688007F7D50EE0C0F8CC
:1015E00000A0FFF7D5FA064605E082E0FFF7D0FA43
:1015F000801B02287DD838688007F7D42078400700
:1016000068D5DFF8CCB100270BF13C0BDBF800000C
:10161000C0000BD4DBF8001041F08051CBF8001073
:10162000DBF80000012700F0805000906B4E30681E
:10163000C00510D4306840F480703060FFF7A8FA1D
:10164000009005E0FFF7A4FA0099401A022850D84C
:101650003068C005F6D55E4EA0686C3601280FD004
:101660000528306810D020F001003060306820F08C
:1016700004003060A068B8B1FFF78AFA00900FE06C
:10168000306840F00100F4E740F004003060F7E714
:10169000FFF77EFA0099411A41F28830814266D8FC
:1016A00030688007F4D50EE0FFF772FA009007E08B
:1016B000FFF76EFA0099411A41F28830814256D8FC
:1016C00030688007F4D42FB1DBF8001021F080518E
:1016D000CBF80010A069C8B33D49091D0968C1F3E2
:1016E000810102294AD00228504607D0C8F860007C
:1016F00000E03CE0FFF74CFA04463BE04746C8F800
:101700006000FFF745FA064605E000BFFFF740FA24
:10171000801B02282BD828688001F7D4D4E9070160
:101720000843A16A2E4A490802EB0141626A41EA74
:101730008211084394F82C1040EA0161C9F80010A6
:1017400001203866FFF724FA044606E03EE000BFB9
:10175000FFF71EFA001B022809D828688001F7D578
:1017600034E000BFFFF714FA001B022802D903205F
:10177000BDE8F88F28688001F4D427E00128F7D06D
:10178000D9F80000E26900F4800191421CD1226A7C
:1017900000F03F01914217D147F6C071626A0140E3
:1017A000B1EB821F10D1A26A4FF0FF3300F4403139
:1017B00003EB5202B1EB024F06D194F82C1000F06B
:1017C0007060B0EB016F01D00120D1E70020CFE7BE
:1017D0000438024000004742800E4742007000403B
:1017E0000000FFFF70B50D46040003D094F82C00F4
:1017F00010B107E0012070BD002084F82D002046C4
:1018000000F011F8022084F82C00211D2068FEF75A
:101810001CFFD4E900022946FEF754FF012084F89A
:101820002C00002070BDFFF733B810B5044690F8C7
:101830002C00022804D094F82C00012801D00120AB
:1018400010BD022084F82C002068FEF731FF012033
:1018500084F82C00002010BD7047704710B50400BC
:1018600003D094F83D0010B107E0012010BD002026
:1018700084F83C00204600F01EF8022084F83D0069
:10188000211D206800F07AFB012084F8460084F8CE
:101890003E0084F83F0084F8400084F8410084F85A
:1018A000420084F8430084F8440084F8450084F83A
:1018B0003D00002010BD704790F83D10012901D077
:1018C00001207047022180F83D100168CA6842F08B
:1018D0000102CA6000681149884214D0B0F1804FFB
:1018E00011D00F4988420ED00E4988420BD00E49C4
:1018F000884208D00D49884205D00D49884202D05F
:101900000C49884204D1816801F00701062903D0FF
:10191000016841F0010101600020704700000140B2
:101920000004004000080040000C0040000401409A
:10193000004001400018004070472DE9F041044686
:101940000068C66805694FF00007A90713D5B107FD
:1019500011D5F91E01610120207720688069800778
:10196000204602D0FFF7E8FF04E000F07EF82046B2
:1019700000F07CF82777680716D5700714D5216822
:101980006FF004000861022020772068806910F45D
:10199000407F204602D0FFF7CFFF04E000F065F85B
:1019A000204600F063F82777280715D5300713D5B0
:1019B00021686FF008000861042020772068C06962
:1019C0008007204602D0FFF7B7FF04E000F04DF893
:1019D000204600F04BF82777E80616D5F00614D518
:1019E00021686FF010000861082020772068C06926
:1019F00010F4407F204602D0FFF79EFF04E000F085
:101A000034F8204600F032F82777E80708D0F007CE
:101A100006D021686FF001000861204600F028F828
:101A2000280608D5300606D521686FF080000861C9
:101A30002046FFF711FF680608D5700606D5216815
:101A40006FF040000861204600F01CF8A8060AD597
:101A5000B00608D521686FF0200008612046BDE877
:101A6000F041FFF7FABEBDE8F08170477047000013
:101A700000680349884201D1FFF790B87047000021
:101A8000002000407047FEE7F0B503688C88DD68F1
:101A9000C5F30B452C442504882404EBC2141E59BD
:101AA00006F470461E5103680F68DE68C6F30B46E5
:101AB000761C3E442E431E5104688B89E568C5F3AD
:101AC0000A052B441D048C2303EBC213E65806F4CD
:101AD0007046E65004688F68E668C6F30A06761C0E
:101AE0003E442E43E6509423046803EBC213E558AA
:101AF00025F00705E55005680C69EC5091F8313088
:101B00000C7E1F0226069C24056804EBC21491F883
:101B1000323055F804C04FF0000C45F804C091F87D
:101B2000305046EA03433D431D4303681D5198234B
:101B3000046803EBC213E55825F0FF05E55005687E
:101B40004C69EC50A023046803EBC213E55840F243
:101B50000776B543E550D1E907452C430568EC50BD
:101B6000AC23046803EBC213E55844F803C00568CE
:101B70004C6AEC500B698BB3012B32D0042B32D062
:101B8000022B30D0032B2ED0072B2CD00123B024D6
:101B9000056804EBC2142E5906F0E0262E51D1E957
:101BA0000065AD1B0E8D5D435E43ED1C45EA0643AB
:101BB00005682B51B423046803EBC213E5586FF397
:101BC0000A05E5500468C96AE1500068842101EB08
:101BD000C211425842F001024250F0BDFFE7042317
:101BE000D5E70323D3E70223D1E700000E4810B561
:101BF0000C49016000210222C0E90112C160C0E964
:101C00000A1201634163FEF701FE08B172B6FEE7F6
:101C100001210548FEF7A8FD002801D072B6FEE7B5
:101C200010BD000000B002409C00002000B587B04D
:101C30001C216846FEF780FC184817490022C0E9BD
:101C400000120121816008211023C0E90313402301
:101C500043614FF4C073C0E906320A0202624A02CD
:101C600042628A0282620220CDE9000106210291CD
:101C700003910421CDE90410069069460748FFF757
:101C8000B1FD08B172B6FEE740F2AB210348FFF7A1
:101C9000CCFD07B000BD0000400100A08401002081
:101CA0002DE9F04387B014216846FEF745FC46480D
:101CB0000024016841F480710160016801F48071C1
:101CC0000591016841F004010160016801F004011F
:101CD0000591016841F020010160016801F02001D7
:101CE0000591016841F080010160016801F0800107
:101CF0000591016841F040010160016801F0400177
:101D00000591016841F010010160016801F01001C6
:101D10000591016841F008010160016801F00801C6
:101D20000591016841F001010160016801F00101C4
:101D30000591016841F0020101600068234E00F046
:101D400002004FF484750590002229463046FEF7C4
:101D500019FF1F4F0022C0213846FEF713FFDFF89E
:101D60007480002208214046FEF70CFFDFF86890DF
:101D7000002220214846FEF705FF00950125CDE908
:101D80000154694630460394FEF7E2FDC0200090FE
:101D9000CDE90154694638460394FEF7D9FD082081
:101DA0000090CDE90154694640460394FEF7D0FD0A
:101DB00020200090CDE90154694648460394FEF77F
:101DC000C7FD07B0BDE8F083303802400020024074
:101DD000001C02400018024000040240F0B58DB023
:101DE00034216846FEF7A8FB2C482B490024C0E9A3
:101DF000001484602F21C460C0E9044102258721BA
:101E0000C0E906512221016240F2A731416240F24D
:101E10000221816240F2CF31C16240F20F210163A1
:101E200080F8344080F8354080F83640FEF74EFFA9
:101E300008B172B6FEE74FF448774FF4F076CDE97B
:101E40000047CDE902460495FF20CDE905404FF457
:101E5000C06007900720089080070B96CDE909071E
:101E60008DF830408DF831408DF8324000226946BF
:101E70000A48FEF701FF08B172B6FEE700231A46D2
:101E800019460648FFF722F8002332463946034830
:101E9000FFF746F80DB0F0BD00680140DC000020FF
:101EA000FEE7FEE7052000F005F9FBE710B54FF06F
:101EB000E020006901F02EFB012803D0BDE81040AE
:101EC00001F05CB810BD000030B593B03021684619
:101ED000FEF732FB14210CA8FEF72EFB1E4800254E
:101EE000016841F080510160006800F0805011905D
:101EF0001A48016821F4404141F4804101600068C2
:101F0000022400F440401190012000900004019050
:101F10008001CDE9064019200890D820CDE90904B8
:101F200004200B906846FFF7A7FA08B172B6FEE7E7
:101F30000CA90F2081E831004FF4A0500F904FF40E
:101F40008050109003210CA8FFF79AF9002801D0C7
:101F500072B6FEE713B030BD40380240007000405A
:101F60000248016841F470010160704788ED00E0AB
:101F70000148FFF7E2BC0000B8010020F0B502689C
:101F8000294C2A4D2A4E2B4F2B4B4FF0804CA04210
:101F900009D0604507D0A84205D0B04203D0B8426E
:101FA00001D0984204D122F0700E4A6842EA0E0233
:101FB000A0421BD0604519D0A84217D0B04215D01E
:101FC000B84213D0984211D01C4DA8420ED01C4DDF
:101FD000A8420BD01B4DA84208D01B4DA84205D0EB
:101FE0001A4DA84202D01A4DA84203D122F44075DE
:101FF000CA682A434D6922F080022A4302608A6837
:10200000C2620A688262A04201D0984201D1096985
:102010000163012141610169C90703D0016921F010
:1020200001010161F0BD000000000140000400401A
:1020300000080040000C0040000401400040014046
:10204000004401400048014000180040001C0040CE
:1020500000200040FEE70907090E002804DB00F11C
:10206000E02080F80014704700F00F0000F1E0203D
:1020700080F8141D70470000FEF798FDFFF724FF5D
:10208000FFF70EFEFFF7D2FDFFF7A8FEFFF7AEFD4C
:1020900000F01EF8044A0021044800F047F8044903
:1020A000086000F027F8FEE78C380008A51E00083D
:1020B0000000002010B5EFF3058111B16FF00504A9
:1020C00003E0002408B100F0F9FD204610BD000037
:1020D000EFF3058010B16FF0050070470448016808
:1020E00011B14FF0FF3070470121016000207047AF
:1020F0006C00002010B5EFF3058010B16FF0050003
:1021000010BD08480168012902D04FF0FF3010BD12
:10211000054A002182F8141D0221016000F036FEFC
:10212000002010BD6C0000200BE000E02DE9FF4115
:102130004FEA01034FF00005EFF30581039549BB1A
:1021400040B38027182100244AB3166806B13446EC
:1021500096691EB13146761E382E02D21679F607E0
:1021600003D0002004B0BDE8F081566906B1B7087D
:10217000D2F808C0BCF1000F0DD0D5685C2D18D383
:1021800012693AB136B18DE806103A46214601F09F
:1021900096F903900DE0D6685EB912694AB903AAB0
:1021A000CDE90012BAB2214601F05CF9012800D055
:1021B00003950398D6E700002DE9F041134C0F4634
:1021C0000546E6682068001D00F044FC681C07D145
:1021D00037B12168BDE8F0410D48091D00F08ABC07
:1021E00020683544B5424560216805D2A06BBDE842
:1021F000F041091D00F066BC606B091D00F062FC37
:10220000A06A854200D2A562BDE8F0811C000020D2
:10221000F00600202DE9F041054600F077FC2D4C3A
:10222000A068401CA06020682B4F10B1606930B3DB
:102230002BE02560A068012827D1002606EB860048
:1022400007EB800000F030FC761C382EF6D32348D4
:1022500000F02AFC2148143000F026FC1F482830EA
:1022600000F022FC1D483C3000F01EFC1B485030A2
:1022700000F01AFC194860631430A06305E0206880
:10228000E96AC06A884200D82560606A401C6062C2
:102290006864E86A2169884200D9206100EB800007
:1022A00007EB8000291D00F025FC00F04FFC606961
:1022B00000280CD02068E96AC06A884207D2084921
:1022C0004FF080500860BFF34F8FBFF36F8FBDE8B2
:1022D000F08100001C00002040020020A006002029
:1022E00004ED00E038B500F011FC104C2068C8B9CE
:1022F0000F4800F0D9FB0E48143000F0D5FB0C4815
:10230000E060143020610A4B0020F03B009003F1A4
:10231000500210210A2000F047FE206010B105A1F4
:1023200000F096FCBDE8384000F010BC58000020DA
:10233000F4070020546D72510000000030B4026CAC
:102340000B46002A0BD0C1681144C1608468A142C9
:1023500001D30168C16030BC1846FEF76EB830BCCE
:1023600070472DE9F041856B174604460026026C44
:1023700082B1C7B1E068FEF760F8E168206C091A25
:10238000E1602268914202D2A168081AE060022F3F
:1023900016D017E02068A8B9A06801F033F9064606
:1023A0000020A0600EE06068FEF747F8216C6068CE
:1023B00008446060A168884204D32068606001E03E
:1023C00005B16D1E6D1CA5633046BDE8F08110B5EA
:1023D000044690F8590058B101280CD002280FD0BB
:1023E000502080F31188BFF34F8FBFF36F8FFEE74C
:1023F000206B00F0BFFB2046BDE8104000F0BABBE8
:1024000010BD000010484FF47051420706D0C01DA7
:102410000D4920F00700411AC1F570510B4A002305
:102420000144C2E900030839183A21F0070111609C
:102430004B600B600B1AC0E9001393604FF0004033
:102440005360506170470000D40E002088000020C7
:10245000144E154CA6F29C474FF08058DFF84C9074
:1024600012E000BF00F052FBF068C568281D00F0C4
:10247000F1FAA068401EA0606068401E606000F035
:1024800065FB2846FFF7A3FF60680028EAD138689B
:102490000128F9D9C9F80080BFF34F8FBFF36F8FC0
:1024A000F2E70000DC0600201C00002004ED00E044
:1024B00070B51D46049C51B1C4F80020C4E90F0159
:1024C0000121204600F0A4FD84F84C5070BD24602A
:1024D000F4E700002DE9F05F8846DDE90B9415462E
:1024E000834691009A460A9EA522206BFEF71CF8AF
:1024F0006FF00301206B01EB8501084420F0070712
:10250000780707D0502080F31188BFF34F8FBFF3B7
:102510006F8FFEE70025B8F1000F0FD05FF00000CD
:10252000221818F8001082F8341018F8001011B1B1
:10253000401C1028F4D384F8435001E084F8345050
:10254000382E00D33726E662C4E91365201D00F05B
:10255000B6FA04F1180000F0B2FA2461C6F13800AE
:102560006462A061656584F8585052465946384601
:1025700000F05AFA2060B9F1000F01D0C9F800400C
:10258000BDE8F09F30B5114900E011460A6882426B
:10259000FBD34B685C18844203D140681844486000
:1025A000084643681C18944209D1084C183C24681A
:1025B000A24209D052681A4442600A681268026056
:1025C000814200D0086030BD0460F9E78800002037
:1025D00070B5002441600B4D0061914206D8D11ABC
:1025E0008269914206D2011D286907E09A4203D20E
:1025F000994201D3012403E0011DE86800F062FA6A
:10260000204670BD5800002010B5044600F07EFA48
:10261000A06B28B15FF0000400F098FA204610BDCE
:102620000124F9E730B589B03C4D6EE004980028EC
:1026300006DADDE90601059A90470498002864DB74
:10264000069C606910B1201D00F004FA03A800F098
:10265000D7F8024604980A2857D2DFE800F00505AB
:10266000052D334A05052D3394F8280040F001006C
:1026700084F828000599A069059B01442046FFF7CE
:10268000A7FF68B3216A2046884794F828004007CE
:102690003BD5002000900598A169002342181946F7
:1026A000204601F0B9F8D8B9502080F31188BFF363
:1026B0004F8FBFF36F8FFEE714F8280F20F0010053
:1026C000207022E094F8280040F0010084F82800EF
:1026D0000598A06128B1811813462046FFF778FFBE
:1026E00013E0502080F31188BFF34F8FBFF36F8F3B
:1026F000FEE794F82800810703D4204600F03AFA58
:1027000003E020F0010084F82800002204A92868D2
:1027100000F0D2FD002889D109B030BD580000205A
:102720002DE9FC410F46054600F074FB01A800F0BE
:1027300067F80446019818B100F0DCFFBDE8FC81A1
:10274000254EAFB130690068D0B30027291B3A4647
:10275000306800F091FA00F0CDFF0028EED11F495B
:102760004FF080500860BFF34F8FBFF36F8FE5E7E6
:10277000A542EBD800F0BEFFF0682746C068C468E9
:10278000201D00F067F994F82800410719D5A069C9
:102790002B4641193A462046FFF71AFFA8B1002000
:1027A0000346014600902A46204601F035F860B9FC
:1027B000502080F31188BFF34F8FBFF36F8FFEE778
:1027C00007E020F0010084F82800216A20468847AD
:1027D000B4E70127BAE700005800002004ED00E04C
:1027E0000648416B096829B1416BC968C9684968E5
:1027F000816270474FF0FF31FAE700001C000020B3
:1028000070B5054600F094FE064E0446B06884425A
:1028100003D200F009F8012000E0002028602046E3
:10282000B46070BD58000020F8B5194D20E0C068B4
:10283000C4680668201D00F00DF9216A204688470B
:1028400094F82800400713D5A0693044B04206D957
:1028500024616060211DE86800F034F908E0002080
:102860000346014600903246204600F0D5FF38B1BD
:10287000E86801680029DAD12969C5E90310F8BDC3
:10288000502080F31188BFF34F8FBFF36F8FFEE7A7
:102890005800002008484068401C4FF0500080F36A
:1028A000118804D0BFF34F8FBFF36F8FFEE7BFF3E4
:1028B0004F8FBFF36F8FFEE790000020074CE0685A
:1028C000016841B1C0680021D0F80000FFF728FF7F
:1028D000FFF7A8FEF3E701210020F7E758000020EA
:1028E0002DE9F041044600F011F994F9455004F146
:1028F000240609E0606A48B1304600F0C3FE08B122
:1029000000F00AFA6D1E6DB2002DF3DC4FF0FF36B9
:1029100084F8456000F01AF900F0F8F894F9445092
:1029200004F1100709E0206948B1384600F0AAFE1A
:1029300008B100F0F1F96D1E6DB2002DF3DC84F8E2
:102940004460BDE8F04100F001B900002DE9F0411C
:102950000546002700F05EFA324E306808B9FFF7EE
:1029600051FD706905424ED1C5B3083568070ED0D8
:1029700005F00700C0F108000544680707D05020A3
:1029800080F31188BFF34F8FBFF36F8FFEE72DB336
:102990007068854237D82348183001460C6801E03A
:1029A00020460C466168A94202D221680029F7D16D
:1029B00031688C4227D00768216801606068083759
:1029C000411B10290FD96019420708D0502080F30D
:1029D0001188BFF34F8FBFF36F8FFEE713E04160A5
:1029E0006560FFF7CFFD61687068401A7060B2687B
:1029F000904200D2B060706901430020C4E9000138
:102A0000F068401CF06000F075FE780707D0502099
:102A100080F31188BFF34F8FBFF36F8FFEE7384607
:102A2000BDE8F0817000002010B5031F4FF08074E6
:102A30001C601B1F21F001011960191F044B0B6062
:102A400014390A60091F6FF0020244380A6010BD91
:102A500095280008D0E9013201699A60D0E9012384
:102A60005A604A68824201D182684A60002202614B
:102A70000868401E0860086870470000034B036048
:102A800003F15C0008608020106070471C08002083
:102A9000044B036003F15C0008604FF48070106029
:102AA00070470000780A002000F108014FF0FF3263
:102AB000C0E90112C160016100210160704700217D
:102AC0000161704730B50B685A1C02D000F1080252
:102AD00002E0026904E02246546825689D42FAD962
:102AE00053684B6099608A60516008610168491CB5
:102AF000016030BD42684A6093688B60936859609A
:102B0000916008610168491C01607047502080F3A2
:102B10001188BFF34F8FBFF36F8F0A494868401C7D
:102B2000486001280CD10848006810F0FF0F07D05A
:102B3000502080F31188BFF34F8FBFF36F8FFEE7F4
:102B4000704700009000002004ED00E0084948684C
:102B500028B1401E486001D180F311887047502091
:102B600080F31188BFF34F8FBFF36F8FFEE7000034
:102B70009000002070B500282AD0164DA0F108045E
:102B800060686969084207D1502080F31188BFF35B
:102B90004F8FBFF36F8FFEE722683AB1502080F36A
:102BA0001188BFF34F8FBFF36F8FFEE788436060DC
:102BB00000F030F960686968084468602046FFF7F3
:102BC000E1FC2869401C2861BDE8704000F092BD1E
:102BD00070BD0000700000204FF0E0200021016176
:102BE000816105494FF47A720968B1FBF2F1491E1F
:102BF00041610721016170471800002010B5FDF701
:102C000081FB114910280ED300F1E02090F8F00369
:102C10000A78904207D2502080F31188BFF34F8F7B
:102C2000BFF36F8FFEE709480068896800F4E06031
:102C3000884207D9502080F31188BFF34F8FBFF32C
:102C40006F8FFEE710BD0000900000200CED00E04B
:102C500010B5084B002200BF53F832401CB1521C83
:102C6000082AF9D310BD43F8321003EBC2014860C3
:102C700010BD00000002002070B515460E46044647
:102C8000FFF744FF94F944100020491C01D184F857
:102C9000440094F94510491C01D184F84500FFF720
:102CA00055FFA06B28B92A46314604F1240000F0F4
:102CB00051F82046BDE87040FFF712BE10B5020083
:102CC00014D00F48006B38B1502080F31188BFF347
:102CD0004F8FBFF36F8FFEE700F09CF80021104686
:102CE000FFF76AFA00F006FD002807D105494FF00A
:102CF00080500860BFF34F8FBFF36F8F10BD00008F
:102D00001C00002004ED00E002490A6A0260C96864
:102D1000416070471C00002001490120C8617047D4
:102D20001C00002010B50C4650B109490968183143
:102D3000FFF7C8FE2046BDE810400121FFF73CBA6E
:102D4000502080F31188BFF34F8FBFF36F8FFEE7E2
:102D50001C00002070B514460D4668B10A49096888
:102D60001831FFF7C7FE0CB14FF0FF35214628465A
:102D7000BDE87040FFF720BA502080F31188BFF300
:102D80004F8FBFF36F8FFEE71C00002030B587B078
:102D90000024039405AA04A903A80494FFF76EFE77
:102DA000DDE903010094CDE90110002315A11748C6
:102DB000059A00F084FB164D0028E8621FD000F051
:102DC000FBFC012809D0401C19D1502080F3118848
:102DD000BFF34F8FBFF36F8FFEE7502080F3118852
:102DE000BFF34F8FBFF36F8F4FF0FF30A86201200A
:102DF0006861EC6007B0BDE8304000F045B807B04E
:102E000030BD000049444C4500000000512400083A
:102E10001C0000200248016B491C01637047000040
:102E20001C000020164810B5016B11B10121C161D1
:102E300010BD0021C1610169124A01E0B9B1491E0A
:102E400001EB810352F82330002BF7D001EB810313
:102E500002EB830202F1080453685B685360A342EB
:102E600001D15B685360DA680260016110BD5020D7
:102E700080F31188BFF34F8FBFF36F8FFEE7000021
:102E80001C000020400200201CB537480168374A6A
:102E9000914207D1502080F31188BFF34F8FBFF3C9
:102EA0006F8FFEE700683149491E884207D15020E4
:102EB00080F31188BFF34F8FBFF36F8FFEE72C496C
:102EC00008780190FF20087008788DF800009DF8C0
:102ED00000009DF8002000F0F000904207D0502044
:102EE00080F31188BFF34F8FBFF36F8FFEE79DF81C
:102EF0000000204C00F0500020700720A06005E08A
:102F00009DF8002052008DF80020401E9DF8002002
:102F10001206F5D4A060032807D0502080F3118852
:102F2000BFF34F8FBFF36F8FFEE74FF44070A06089
:102F3000019808700C482030016841F4700101606C
:102F4000016841F070410160FFF746FE00206060BB
:102F5000FDF7A0F90848016841F040410160FDF724
:102F600085F900201CBD000000ED00E071C20F419A
:102F700000E400E09000002034EF00E010B55020A5
:102F800080F31188BFF34F8FBFF36F8F00F0D6FA35
:102F900018B104494FF080500860002080F3118878
:102FA00010BD000004ED00E038B5049D18B153B128
:102FB000CAB181B120E0502080F31188BFF34F8F58
:102FC000BFF36F8FFEE7502080F31188BFF34F8F60
:102FD000BFF36F8FFEE7502080F31188BFF34F8F50
:102FE000BFF36F8FFEE739B1502080F31188BFF334
:102FF0004F8FBFF36F8FFEE750241C46012384F8E8
:1030000046302B460094FFF753FA204638BD0000A7
:1030100070B50D46040025D0FFF778FDD4E90F20E8
:10302000216802FB0011A1600021A1632168616099
:103030000A46D4E90F01401E00FB0121E160214650
:103040004FF0FF3001F8440F487004F110008DB1CB
:10305000FFF72AFD04F12400FFF726FDFFF776FDB8
:10306000012070BD502080F31188BFF34F8FBFF354
:103070006F8FFEE721690029F0D000F003FB0028E4
:10308000ECD004494FF080500860BFF34F8FBFF37E
:103090006F8FE3E704ED00E02DE9FF4782B01D46A6
:1030A0008A464FF00008040003D0BAF1000F08D0A0
:1030B00011E0502080F31188BFF34F8FBFF36F8F63
:1030C000FEE7206C38B1502080F31188BFF34F8F9A
:1030D000BFF36F8FFEE7022D0AD1E06B012807D006
:1030E000502080F31188BFF34F8FBFF36F8FFEE73F
:1030F00000F010FA3F4F4FF000094FF0805648B9EA
:10310000049838B1502080F31188BFF34F8FBFF37C
:103110006F8FFEE7FFF7FAFCA06BE16B884207D3E5
:10312000022D05D00498D0B1B8F1000F1AD01EE0DE
:103130002A4651462046FFF714F9616A19B104F195
:10314000240000F09FFA20B13E60BFF34F8FBFF321
:103150006F8FFFF7FBFC012006B0BDE8F087FFF79B
:10316000F5FC22E06846FFF7CFFD4FF00108FFF7BE
:10317000EDFCFFF74FFEFFF7C9FC94F94400401C3B
:1031800001D184F8449094F94500401C01D184F8A1
:103190004590FFF7DBFC04A9684600F029F930B13F
:1031A0002046FFF79DFB00F0A5FA0020D4E7FFF7CB
:1031B000ADFCA06BE16B884213D1FFF7C7FC04F1B3
:1031C00010000499FFF7AEFD2046FFF789FB00F0E1
:1031D00091FA00289ED13E60BFF34F8FBFF36F8FEF
:1031E00098E7FFF7B3FC2046FFF77AFB00F082FA7E
:1031F00090E7000004ED00E02DE9F0471F469046FF
:103200008946040003D0B9F1000F08D011E0502026
:1032100080F31188BFF34F8FBFF36F8FFEE7206CF1
:1032200038B1502080F31188BFF34F8FBFF36F8FF9
:10323000FEE7022F0AD1E06B012807D0502080F36F
:103240001188BFF34F8FBFF36F8FFEE7FFF7D6FCF8
:103250005020EFF3118680F31188BFF34F8FBFF337
:103260006F8FA06BE16B884206D3022F04D0002041
:1032700086F31188BDE8F08794F94550A06B3A4673
:1032800049462046FFF76DF8681C04D06D1C84F891
:1032900045500120ECE7606A0028FAD004F12400D0
:1032A00000F0F0F90028F4D0B8F1000FF1D00121BE
:1032B000C8F80010EDE700002DE9F747002683B0BD
:1032C0008A46040003D0BAF1000F08D011E0502064
:1032D00080F31188BFF34F8FBFF36F8FFEE7206C31
:1032E00038B1502080F31188BFF34F8FBFF36F8F39
:1032F000FEE700F00FF9DFF8F4804FF000094FF01F
:10330000805748B9059838B1502080F31188BFF331
:103310004F8FBFF36F8FFEE7FFF7F8FBA56BC5B1CB
:1033200051462046FFF70AF86D1EA563206950B18B
:1033300004F1100000F0A6F928B1C8F80070BFF33E
:103340004F8FBFF36F8FFFF701FC012006B0BDE880
:10335000F087059808B11EB106E0FFF7F7FB27E0FC
:103360006846FFF7D1FC0126FFF7F0FBFFF752FD9F
:10337000FFF7CCFB94F94400401C01D184F8449041
:1033800094F94500401C01D184F84590FFF7DEFB1D
:1033900005A9684600F02CF8002820460AD0FFF75F
:1033A0009FFA00F0A7F92046FFF72EF90028B3D0C6
:1033B0000020CBE7FFF728F990B104F1240005992C
:1033C000FFF7B0FC2046FFF78BFA00F093F90028D6
:1033D000A2D1C8F80070BFF34F8FBFF36F8F9BE788
:1033E0002046FFF77DFA00F085F995E704ED00E04F
:1033F0002DE9F0410C46050011D0C4B1FFF786FB62
:10340000174BDA686E682068911B471C17D02F682D
:103410001B6A9F4219D0964217D8012410E0502011
:1034200080F31188BFF34F8FBFF36F8FFEE75020FB
:1034300080F31188BFF34F8FBFF36F8FFEE7002437
:10344000FFF784FB2046BDE8F081884205D9401A89
:1034500020602846FFF758FCF1E700202060DCE7F9
:103460001C0000202DE9FF5F8346DDE90E879946A9
:1034700016468A469000FFF769FA05001CD05C20CA
:10348000FFF764FA040014D00020256384F8590083
:10349000CDE90240CDE900874B46324651465846B9
:1034A000FFF718F82046FEF7B5FE012004B0BDE88E
:1034B000F09F2846FFF75EFB4FF0FF30F6E7F0B5D0
:1034C00085B0DDE90B640A9DA6B1DCB15C270097ED
:1034D0002663022684F85960002604AFCDE902462F
:1034E000CDE90057FEF7F6FF2046FEF793FE04985D
:1034F00005B0F0BD502080F31188BFF34F8FBFF3AC
:103500006F8FFEE7502080F31188BFF34F8FBFF31A
:103510006F8FFEE70548416919B1006B18B10020B3
:103520007047012070470220704700001C000020F7
:103530000148C068704700001C0000202DE9F041E0
:103540002E4C0027206B28B1A069401CA061384692
:10355000BDE8F081E668761CE66013D1606B006818
:1035600038B1502080F31188BFF34F8FBFF36F8FB6
:10357000FEE7606BA16B6163A063206A401C206260
:10358000FFF72EF9A06ADFF87880864209D3606BD6
:103590000068A0B1606BC068C5686868864211D2D7
:1035A000A0622068C06A00EB800158F82100012861
:1035B00000D90127E0690028C9D00127C7E74FF0EB
:1035C000FF30EDE7281DFFF745FAA86A18B105F1AD
:1035D0001800FFF73FFAE86A2169884200D92061A4
:1035E00000EB800108EB8100291DFFF783FAE86AF0
:1035F0002168C96A8842CAD30127C8E71C00002095
:103600004002002070B504004FF0000133D01B4D84
:103610002868844207D0502080F31188BFF34F8F71
:10362000BFF36F8FFEE7206D38B1401E2065E36C5D
:10363000E26A9A421FD040B11DE0502080F3118809
:10364000BFF34F8FBFF36F8FFEE7201DFFF702FA26
:10365000E06CE062C0F13800A061E06A296988424C
:1036600000D92861064900EB800001EB8000211D94
:10367000FFF740FA0121084670BD00001C00002041
:103680004002002070B5C068C46854B104F118004D
:103690000646FFF7DFF9144D286B50B13146134849
:1036A00015E0502080F31188BFF34F8FBFF36F8F69
:1036B000FEE7201DFFF7CEF9E06A2969884200D9AC
:1036C00028610B4900EB800001EB8000211DFFF712
:1036D00011FAE06A2968C96A884202D90120E861C2
:1036E00070BD002070BD00001C000020C806002036
:1036F000400200202DE9F0472C4D00242746286B7E
:1037000038B1FFF703FA286B401E2863286B40B1DD
:1037100046E0502080F31188BFF34F8FBFF36F8FC7
:10372000FEE7A968224E0120D1B3A6F59169804633
:103730003068E0B1F068C46804F11800FFF78AF956
:10374000201DFFF787F9E06A2969884200D92861BE
:1037500000EB800109EB8100211DFFF7CBF9E06A46
:103760002968C96A8842E3D3C5F81C80E0E70CB138
:10377000FFF736F8AC694CB14FEA0806FFF7DEFEFA
:1037800000B1EE61641EF9D10020A861E86938B18A
:103790000849012738070860BFF34F8FBFF36F8FC9
:1037A000FFF7D4F93846BDE8F08700001C00002080
:1037B000C806002004ED00E010B586B0FEF792FDCB
:1037C000114C2068B8B100200390049005AA04A908
:1037D00003A8FFF75DF9DDE9032102208DE807006A
:1037E00000230AA10B48059AFFF769FE606010B13B
:1037F00006B0012010BD502080F31188BFF34F8F19
:10380000BFF36F8FFEE7000058000020546D722058
:1038100053766300BD2800082DE9FF411E4613467C
:1038200002000A9D4FF0000016D0144C2768002FAC
:103830000FD0CDE900130292062917DAFFF76AFECE
:1038400002284FF000030FD0002269462068FFF7DE
:1038500023FC04B0BDE8F081502080F31188BFF351
:103860004F8FBFF36F8FFEE72A46EEE70023324605
:1038700069463846FFF7C0FCEBE70000580000201F
:103880004FF04070E1EE100A70470000C8380008A1
:103890000000000000000000000000000000000028
:1038A00000100000180000000000000000000000F0
:1038B00000000000000000000102030406070809E0
:1038C000000000000102030453637265656E4C43FF
:1038D00044000000F4380008000000209C000000B4
:1038E000E8010008903900089C0000209C5000006E
:1038F00004020008000000000000000000000000BA
:103900000100000010000000000000000024F4008E
:1039100000000000000000000000000000000000A7
:103920000000000000000000000000000000000097
:103930000000000000000000000000000000000087
:103940000000000000000000000000000000000077
:103950000000000000000000000000000000000067
:103960000000000000000000000000000000000057
:103970000000000000000000000000000000000047
:103980000000000000000000AAAAAAAA000000008F
:04000005080001AD41
:00000001FF
