:020000040800F2
:1000000060C101204D030008BB2000084F1C000800
:10001000B92000088B0700088123000800000000B9
:100020000000000000000000000000008D02000839
:100030008D07000800000000E9020008D121000837
:1000400067030008670300086703000867030008E8
:1000500067030008670300086703000867030008D8
:1000600067030008670300086703000867030008C8
:1000700067030008670300086703000867030008B8
:1000800067030008670300086703000867030008A8
:100090006703000867030008670300086703000898
:1000A0006703000867030008670300086703000888
:1000B00067030008670300089D2200086703000823
:1000C0006703000867030008670300086703000868
:1000D0006703000867030008670300086703000858
:1000E0006703000867030008670300086703000848
:1000F0006703000867030008670300086703000838
:100100006703000867030008670300086703000827
:100110006703000867030008670300086703000817
:100120006703000867030008670300086703000807
:1001300067030008670300086703000867030008F7
:1001400067030008670300086703000867030008E7
:1001500067030008670300086703000867030008D7
:1001600067030008670300086703000867030008C7
:100170006703000867030008670300080000000029
:1001800067030008670300086703000867030008A7
:100190006703000867030008670300086703000897
:1001A00067030008670300086703000800F002F80F
:1001B00000F05CF80AA090E8000C82448344AAF1A5
:1001C0000107DA4501D100F051F8AFF2090EBAE8A3
:1001D0000F0013F0010F18BFFB1A43F0010318477B
:1001E000C4560400E45604000A444FF0000C10F812
:1001F000013B13F0070408BF10F8014B1D1108BFA5
:1002000010F8015B641E05D010F8016B641E01F844
:10021000016BF9D113F0080F1EBF10F8014BAD1C94
:100220000C1B09D16D1E58BF01F801CBFAD505E0B2
:1002300014F8016B01F8016B6D1EF9D59142D6D30C
:10024000704700000023002400250026103A28BF34
:1002500078C1FBD8520728BF30C148BF0B60704738
:100260001FB529F0BDFF1FBD10B510BD00F053FA3A
:100270001146FFF7F5FF22F065FB00F071FA03B4B9
:10028000FFF7F2FF03BC00F079FA00002C4B19686D
:100290000868B0E8F04F80F30988BFF36F8F4FF024
:1002A000000080F3118870470000000008480068D3
:1002B000006880F308884FF0000080F3148862B66D
:1002C00061B6BFF34F8FBFF36F8F00DF00BF00BF7A
:1002D00008ED00E0DFF80C00016841F470010160F6
:1002E000704700BF88ED00E0EFF30980BFF36F8F28
:1002F000134B1A681EF0100F08BF20ED108A20E97A
:10030000F04F106009B44FF0500080F31188BFF334
:100310004F8FBFF36F8F29F071F94FF0000080F31A
:10032000118809BC19680868B0E8F04F1EF0100F7A
:1003300008BFB0EC108A80F30988BFF36F8F704755
:100340001C000020EFF3058070470000094880473B
:1003500009480047FEE7FEE7FEE7FEE7FEE7FEE7A7
:10036000FEE7FEE7FEE7FEE704480549054A064BBF
:10037000704700008D220008AD01000860BB01201D
:1003800060C1012060BD012060BD012053EA020C64
:1003900000F069802DE9F04B4FF00006002B1FBFE5
:1003A000B3FA83F503FA05F424FA05F65E4012BFAA
:1003B0001643B2FA82F502FA05F4C5F120051EBF14
:1003C00022FA05FC44EA0C04203556EA044C4FEAB4
:1003D000144418BF641C4FF000084FF0000990420D
:1003E00071EB030C39D3002919BFB1FA81F701FA77
:1003F00007F6B0FA80F700FA07F6C7F120071EBF2C
:1004000020FA07FC46EA0C062037B6FBF4FCA7EB03
:100410000507103F07F01F0BCBF120060CFA0BFB72
:100420002CFA06F644BFB3460026202FA4BF5E4632
:100430004FF0000B5BEA060C08BF4FF0010B19EB05
:100440000B09ABFB027C48EB0608C01B06FB02CC89
:100450000BFB03CC71EB0C01C1E70B460246414696
:100460004846BDE8F08B13B54FF000004FF0000197
:10047000AFF30080BDE81C40704740EA010302462C
:1004800030B59B0710D14FF0013400E008C208C915
:100490001D1B9D4315EAC41FF8D013F0FF0102F89D
:1004A000011B0DD01B0AF8E711F8013B002B02F8E5
:1004B000013B05D011F8013B002B02F8013BF3D1C1
:1004C00030BD10B5431C02E010F8011B71B181076B
:1004D000FAD14FF0013202C88C1A8C4314EAC211CF
:1004E000F9D0C01A0A0603D0C01E10BDC01A10BD34
:1004F0000A0401D0801E10BD0902FCD0401E10BDB0
:10050000032A40F2308010F0030C00F0158011F83F
:10051000013BBCF1020F624498BF11F801CB00F817
:10052000013B38BF11F8013BA2F1040298BF00F86B
:1005300001CB38BF00F8013B11F0030300F0258028
:10054000083AC0F0088051F8043B083A51F804CB4F
:10055000A0E80810F5E7121D5CBF51F8043B40F815
:10056000043BAFF30080D20724BF11F8013B11F820
:1005700001CB48BF11F8012B24BF00F8013B00F864
:1005800001CB48BF00F8012B704710B5203AC0F0EE
:100590000B80B1E81850203AA0E81850B1E8185084
:1005A000A0E81850BFF4F5AF5FEA027C24BFB1E8C1
:1005B0001850A0E8185044BF18C918C0BDE8104032
:1005C0005FEA827C24BF51F8043B40F8043B08BF3B
:1005D0007047D20728BF31F8023B48BF11F8012B02
:1005E00028BF20F8023B48BF00F8012B704702F0FB
:1005F000FF0343EA032242EA024200F06CB84FF0E4
:10060000000200B5134694469646203922BFA0E862
:100610000C50A0E80C50B1F12001BFF4F7AF09076E
:1006200028BFA0E80C5048BF0CC05DF804EB89005F
:1006300028BF40F8042B08BF704748BF20F8022BA2
:1006400011F0804F18BF00F8012B70474FF0013CAC
:1006500050F8042B51F8043B9A4221D1A2EB0C0331
:10066000934313EACC1317D150F8042B51F8043BF1
:100670009A4215D1A2EB0C03934313EACC130BD18E
:1006800050F8042B51F8043B9A4209D1A2EB0C0319
:10069000934313EACC13DBD04FF00000704700BF48
:1006A000D01A01BAB1FA81F101F0180122FA01F071
:1006B000CB40C1F12001DBB2C0B2C01A2CFA01F369
:1006C000D11A914311EAC311E6D1704770477047C0
:1006D00070474FF000020429C0F0128010F0030CA4
:1006E0003FF48FAFCCF1040CBCF1020F18BF00F83F
:1006F000012BA8BF20F8022BA1EB0C01FFF781BF53
:100700005FEAC17C24BF00F8012B00F8012B48BF31
:1007100000F8012B7047754600F02CF8AE46050036
:100720006946534620F00700854618B020B5FFF70C
:100730001BFEBDE820404FF000064FF000074FF0D1
:1007400000084FF0000B21F00701AC46ACE8C009EF
:10075000ACE8C009ACE8C009ACE8C0098D467047F8
:1007600010B50446AFF300802046BDE81040FFF707
:1007700086BD00000048704700BB012001491820D9
:10078000ABBEFEE7260002007047FEE7704772B678
:10079000FEE7F0B5D1E907354C6A0A68C2B10268D4
:1007A0002B4322F4F842144323430360D1E901238D
:1007B0001A43D1E9033423431A434B6989691A4325
:1007C0000A4341686FF30E010A4342600020F0BD06
:1007D000D1E901263243D1E903673E4332434E69F2
:1007E000896932430A431A432A43016822436FF35B
:1007F0000E010A430260E9E7426943F6FE739A4339
:1008000042EA410141610020704770B51446054637
:10081000D1E9000210438A686FF01F03C96803EB37
:10082000421242EA4121084329696FF31501084346
:10083000286100F03BFA064609E0601C07D024B1AD
:1008400000F034FA801BA04201D9032070BDA869D2
:100850008006F2D4002070BDF0B56FF00F058C8AD1
:100860002E014FEA054ECB682F034FF07F4C0EEB65
:1008700004540AB31A03A2F58052836822431D4C24
:1008800023401A438260D1E9002305EB0313521E73
:100890001A438B6806EB03231A430B8A097E07EB86
:1008A00003431A430CEB01610A43C16801F0704134
:1008B0000A43C2600020F0BDD1E9002E05EB0E1501
:1008C000521E2A438D6806EB05252A430A4D05EB87
:1008D00003331A430B8A097E07EB03431A4322436F
:1008E0000CEB01610A43816801F070410A438260A8
:1008F000E0E70000FF0F0FFF00F0FFFF70B50400FE
:1009000004D094F83900002510B106E0012070BD34
:1009100084F83850204600F01FF8022084F839008F
:1009200020680168626821F4403111430160206849
:10093000416BA26821F00701114341632068016CFB
:10094000E2686FF30D0111430164E563012084F84F
:100950003900002070BD000008B5006806498842D3
:1009600008D10648016841F400010160006800F404
:100970000000009008BD000000B002403038024086
:1009800070B5044600F092F90546601C02D0044898
:100990000078044400F08AF9401BA042FAD370BDED
:1009A00010000020F0B587B014216846FFF727FE3D
:1009B00025480168002944D1012101602348002411
:1009C000016841F0010101600068022500F00100AA
:1009D00005904FF63F00CDE9000502AA03260C273B
:1009E00082E8D00069461A4800F03CF80D20CDE9B5
:1009F000000502AA694682E8D000164800F032F8E5
:100A000048F23710CDE9000502AA694682E8D00015
:100A1000114800F027F84FF68370CDE9000502AACF
:100A2000694682E8D0000D4800F01CF84CF20370D3
:100A3000CDE9000502AA694682E8D000084800F026
:100A400011F807B0F0BD0000040000203838024063
:100A5000001402400008024000180240001002404A
:100A6000000C02402DE9F84FDFF8F8A10022012424
:100A700003254FF00F090AF1040BAAF1040E00BF81
:100A80000B6804FA02F63340B34270D10F7907F0D5
:100A90000307012F01D0022F16D187684FEA4208C1
:100AA00005FA08FC27EA0C07D1F80CC00CFA08FC80
:100AB0004CEA070CC0F808C04768B7430E79C6F384
:100AC000001696403E4346600E79F643B6070AD0BC
:100AD000C7684FEA420C05FA0CF6B7438E6806FA6F
:100AE0000CF63E43C6600E7906F00306022E10D1C6
:100AF000D60800EB8608D8F8206057074FEAD76C75
:100B000009FA0CF7BE430F6907FA0CF73743C8F828
:100B1000207006684FEA420C05FA0CF7BE430F79C5
:100B200007F0030707FA0CF7374307604E6816F41F
:100B3000403F1CD04C4E376847F4804737603668DA
:100B400022F0030706F480460096484E07EB060C99
:100B5000DCF8086897073F0F09FA07F826EA080645
:100B6000DFF80C81404503D14FF0000841E072E00E
:100B7000DFF80081404502D14FF0010839E0DFF88D
:100B8000F880404502D14FF0020832E0DFF8EC80F7
:100B9000404502D14FF003082BE0DFF8E4804045E8
:100BA00002D14FF0040824E0DFF8D880404502D19C
:100BB0004FF005081DE0DFF8D080404502D14FF02E
:100BC000060816E0DFF8C480404502D14FF0070860
:100BD0000FE0DFF8BC80404502D14FF0080808E084
:100BE000DFF8B080404502D14FF0090801E04FF036
:100BF0000A0808FA07F848EA0608CCF80888DAF87C
:100C000000605746D1F804C09E435FEACC2C00D563
:100C10001E433E60DBF800605F46D1F804C09E438F
:100C20005FEA8C2C00D51E433E60DEF800607746FC
:100C3000D1F804C09E435FEA8C3C00D51E433E6061
:100C4000084F083F3E68D1F804C09E435FEACC3CA1
:100C500000D51E433E60521C102AFFF411AFBDE8C0
:100C6000F88F0000083C0140443802400030014049
:100C7000000002400004024000080240000C024054
:100C8000001002400014024000180240001C024004
:100C900000200240002402400069084000D00120EA
:100CA00070470AB1816170470904FBE70148806819
:100CB000704700001000002002488168027811444B
:100CC00081607047100000200B4810B5016841F4A6
:100CD00000710160016841F480610160016841F4C4
:100CE00080710160032000F01DFA0F2000F006F86B
:100CF00000F0CEF9002010BD003C024030B50546A2
:100D00001F4887B00024016841F0040101600068B9
:100D100006A900F00400009001A800F011FC04985E
:100D2000A8B100F02DFC40001649174AB0FBF1F1C4
:100D30001648491E026040F2E732C0E90324C0E9C8
:100D40000114846100F06EFE040003D015E000F091
:100D500017FCE9E70D4800F093FE04000DD11E20BA
:100D600000F0B2F9102D07D2002229461E2000F013
:100D7000B9F90748056000E0012407B0204630BDFE
:100D80004038024040420F0000080040F8140020A4
:100D9000140000202DE9F041044690F8A00016460A
:100DA0000F4601281DD0012584F8A050022084F8A8
:100DB000A10006EB860000EBC60004EB80003422A5
:100DC0003830FFF7E2FB32463946204600F040FF5C
:100DD0002068456284F8A150002084F8A000BDE896
:100DE000F0810220FBE7000070B5040004D094F805
:100DF000A100002510B106E0012070BD84F8A050CC
:100E0000204600F06BF8022084F8A1002068816978
:100E100021F070418161D4E901010843D4E9031252
:100E20001143084321688A691043886121688A68F0
:100E3000294802408A60A18A0A0421688B68A66951
:100E4000334313438B602168CA680240CA60A18B98
:100E50000B042168CA68266A32431A43CA602168B3
:100E60000A6902400A61A18C22680B041169A66A12
:100E700031431943116121684A6902404A61A08DDA
:100E8000010420684269236B1A430A43426194F8C3
:100E900035002168020294F83600CB6A03F07F43E4
:100EA000CB622168CB6A94F8346042EA0040334355
:100EB0000343CB622068416B41F006014163206827
:100EC000816941F001018161C4F8A450012084F8D6
:100ED000A100002070BD000000F800F0F0B593B054
:100EE000044614216846FFF78AFB302105A8FFF766
:100EF00086FB37492068884268D1082005904FF466
:100F0000C67009904FF4803003240E900B9405A80E
:100F100000F052F908B1FFF73AFC2E4800250168AD
:100F200041F080610160006800F080601190294804
:100F30001438016841F480710160016801F4807126
:100F40001191016841F020010160016801F0200168
:100F50001191016841F080010160016801F0800198
:100F60001191016841F0400101600068022600F023
:100F70004000119040F2F760CDE90006CDE902543F
:100F80000E27694604971448FFF76CFD7002CDE9FF
:100F90000006CDE90254694604971048FFF762FD48
:100FA0004FF47E40CDE90006CDE90254694604972E
:100FB0000B48FFF757FD4FF40C60CDE90006CDE973
:100FC0000254694604970748FFF74CFD13B0F0BD83
:100FD00000680140443802400020024000140240F2
:100FE000001C02400018024070B5044690F8A000B2
:100FF0000E46012820D0012584F8A050022084F854
:10100000A10003EB830000EBC30004EB800141F877
:10101000386F886A3044C1E90102C86A1044C86068
:101020001A46204600F014FE2068456284F8A1505C
:10103000002084F8A00070BD022070BD70B5044689
:1010400090F8A0000E46012820D0012584F8A05079
:10105000022084F8A10003EB830000EBC30004EB43
:10106000800151F8380F3044486088681044C860E7
:10107000C1E90A621A46204600F0EAFD206845628E
:1010800084F8A150002084F8A00070BD022070BD3B
:101090000C4882B0016841F480410160006800F4AE
:1010A000804000900748001F016841F080510160B6
:1010B0000068002200F0805000900F21901E02B0C6
:1010C00000F010B844380240002809DB00F01F028D
:1010D000012191404009800000F1E020C0F800119A
:1010E00070470000F0B40E4B1B680C46C3F302239C
:1010F000C3F10705042D00D90425191D072901D2C4
:10110000002300E0DB1E012606FA05F1491E2140FE
:1011100099409E40761E16403143F0BC01F031B933
:101120000CED00E0064900F0070208684FF6FF03E7
:10113000184040EA0220034A10430860704700004C
:101140000CED00E00000FA052DE9F84317480168AE
:1011500041F0805101600068154F00F08050012679
:1011600000903E64FFF7A2FD05464FF47A78114CDB
:1011700005E000BFFFF79AFD401B40450DD86068B1
:10118000C003F7D57E64FFF791FD0546464607E0AC
:10119000FFF78CFD401BB04202D90320BDE8F88365
:1011A00060688003F4D50020F8E700004038024072
:1011B00000000E42007000402DE9F84F0446006820
:1011C000DFF824A2894F8A4DC1074FF001084FF084
:1011D000000603D1810701D4400648D5CAF86860EB
:1011E000FFF764FD814605E0FFF760FDA0EB090015
:1011F00002287DD828680001F6D42078C1077D48F0
:1012000005D06168227A890141EA02710160217882
:10121000890711D501686268237B9201C1F30271CD
:1012200042EA036242EA017101603968E26921F031
:101230001F01521E114339602178490608D56168A3
:10124000227B890141EA0261227A41EA027101604E
:10125000CAF86880FFF72AFD814605E0FFF726FD02
:10126000A0EB0900022843D828680001F6D52068C1
:10127000410701D400074ED5CAF87060FFF716FD8C
:10128000814605E0FFF712FDA0EB090002282FD8E8
:101290002868C0438000F5D520784107564814D50A
:1012A00001682269237D9201C1F3027142EA03625F
:1012B00042EA017101603968226A6FF0FF0321F48C
:1012C000F85103EB0222114339602178090712D546
:1012D00001682269C1F30361920142EA0161227E41
:1012E00041EA027101603868616A20F4403000E030
:1012F00051E008433860CAF87080FFF7D7FC074612
:1013000005E000BFFFF7D2FCC01B022843D82868C5
:10131000C0438000F6D42078800653D5344840304E
:10132000016841F0805101600068344D00F0805048
:101330000090286840F480702860FFF7B7FC0746EB
:1013400005E000BFFFF7B2FCC01B022823D82868C5
:10135000C005F7D5274D143D286810F4407020D003
:10136000218D01F4407181421BD0286820F4407126
:101370002348C0F80080066029602868C00710D0A4
:10138000FFF794FC064641F2883707E0FFF78EFC32
:10139000801BB84202D90320BDE8F88F2868800777
:1013A000F4D5A16A1248C1F301220830032A13D0F0
:1013B000016821F4F81101602868218DC1F30B0147
:1013C000084328602078C00604D50E4994F82C0004
:1013D000C1F8E0010020DFE702680B4B22F4F812AD
:1013E00019400A430260E7E7000047428C38024098
:1013F00000380240843802408838024000700040C3
:10140000400E474200104742FFFCFF0F2DE9F04716
:101410000E46050065D0DFF81481D8F80000F7B259
:1014200000F00F00B04207D288F80070D8F8000032
:1014300000F00F00B04254D128683D4C810712D50E
:10144000400703D5206840F4E0502060287800076A
:1014500003D5206840F4604020602068A96820F02F
:10146000F000084320602878C0072DD03049686814
:101470000839012812D0022813D0032811D0096896
:10148000890700292DDA216821F003010143216039
:10149000FFF70CFC814641F2883A0EE009688903A7
:1014A000EFE709688901ECE7FFF700FCA0EB090111
:1014B000514502D90320BDE8F0872068696800F033
:1014C0000C00B0EB810FEFD1D8F80010404601F0CE
:1014D0000F01B14207D90770006800F00F00B04259
:1014E00001D00120E7E72878400705D52068E968A2
:1014F00020F4E050084320602878000706D52068D3
:10150000296920F4604040EAC100206000F048F8FA
:101510002168084AC1F30311515CC84006490860BC
:1015200006480068FFF7EAFB0020C4E7003C0240E1
:101530000838024010A202080C000020140000200D
:101540000F2202600C4A136803F003034360136820
:1015500003F0F0038360136803F4E053C360126880
:101560004FF4E05303EAD20202610448006800F03D
:101570000F0008607047000008380240003C02403D
:101580000448054900680968044AC1F38221515C96
:10159000C84070470C0000200838024020A2020812
:1015A000154810B5006810F00C02144813D0144907
:1015B000042A0FD0082A0ED10F4C241F226823685A
:1015C00002F03F025B0207D52068C0F38810A0FB41
:1015D000010106E0084610BD2168C1F38811A1FB96
:1015E00000010023FEF7D2FE2168C1F30141491C2E
:1015F0004900B0FBF1F010BD083802400024F400AF
:1016000040787D012DE9F84F04006ED02078DFF896
:101610004C93C007A9F104054AD009F10400016800
:10162000C1F38101012908D00068C0F381000228BC
:101630000AD1D9F80000400206D52868800337D5C2
:1016400060680028E1D033E06068B0F5803F10D0DA
:10165000B0F5A02F286810D020F4803028602868CA
:1016600020F4802028606068A8B1FFF71FFB0646C1
:101670000DE0286840F48030F4E740F480202860D2
:10168000F7E700BFFFF712FB801B642873D82868B8
:101690008003F7D50CE0FFF709FB064605E000BF25
:1016A000FFF704FB801B6428F0D828688003F7D478
:1016B0002078DFF8AC8280074FF0000A3ED5A748BB
:1016C000001D016811F00C0F08D00068C0F3810004
:1016D00002280BD1D9F80000400207D428688007FF
:1016E00016D5E068012800D112E033E1E068B8B116
:1016F0000120C8F80000FFF7D9FA064605E000BF50
:10170000FFF7D4FA801B0228C0D828688007F7D5D5
:101710002868216920F0F80040EAC10028600DE047
:10172000C8F800A0FFF7C2FA064604E0FFF7BEFAC9
:10173000801B02281FD828688007F7D4207800076C
:1017400022D5864F87486169703771B101210160E8
:10175000FFF7ACFA064604E0FFF7A8FA801B022860
:1017600009D838688007F7D50EE0C0F800A0FFF769
:101770009DFA064605E082E0FFF798FA801B0228F2
:101780007DD838688007F7D42078400768D5DFF81F
:10179000CCB100270BF13C0BDBF80000C0000BD4F0
:1017A000DBF8001041F08051CBF80010DBF80000AE
:1017B000012700F0805000906B4E3068C00510D4B7
:1017C000306840F480703060FFF770FA009005E0F8
:1017D000FFF76CFA0099401A022850D83068C0050B
:1017E000F6D55E4EA0686C3601280FD0052830680B
:1017F00010D020F001003060306820F0040030602C
:10180000A068B8B1FFF752FA00900FE0306840F0DE
:101810000100F4E740F004003060F7E7FFF746FA14
:101820000099411A41F28830814266D830688007B9
:10183000F4D50EE0FFF73AFA009007E0FFF736FA2A
:101840000099411A41F28830814256D830688007A9
:10185000F4D42FB1DBF8001021F08051CBF8001048
:10186000A069C8B33D49091D0968C1F38101022976
:101870004AD00228504607D0C8F8600000E03CE09B
:10188000FFF714FA04463BE04746C8F86000FFF74C
:101890000DFA064605E000BFFFF708FA801B022894
:1018A0002BD828688001F7D4D4E907010843A16A3E
:1018B0002E4A490802EB0141626A41EA821108435B
:1018C00094F82C1040EA0161C9F800100120386634
:1018D000FFF7ECF9044606E03EE000BFFFF7E6F94B
:1018E000001B022809D828688001F7D534E000BF22
:1018F000FFF7DCF9001B022802D90320BDE8F88FAE
:1019000028688001F4D427E00128F7D0D9F8000036
:10191000E26900F4800191421CD1226A00F03F018B
:10192000914217D147F6C071626A0140B1EB821F44
:1019300010D1A26A4FF0FF3300F4403103EB5202A2
:10194000B1EB024F06D194F82C1000F07060B0EBB0
:10195000016F01D00120D1E70020CFE70438024019
:1019600000004742800E4742007000400000FFFF29
:1019700070B50D46040003D094F82C0010B107E0B8
:10198000012070BD002084F82D00204600F011F8E1
:10199000022084F82C00211D2068FEF7FAFED4E90D
:1019A00000022946FEF758FF012084F82C00002091
:1019B00070BDFEF7F7BF10B5044690F82C00022862
:1019C00004D094F82C00012801D0012010BD022081
:1019D00084F82C002068FEF70FFF012084F82C000B
:1019E000002010BD70B5044690F82C000D4602286A
:1019F00004D0012803D0052801D0012070BD0220A9
:101A000084F82C002068FEF700FF2868022805D023
:101A10005FF0010084F82C00002070BD0520F9E77C
:101A20007047704710B5040003D094F83D0010B122
:101A300007E0012010BD002084F83C00204600F0A3
:101A40001EF8022084F83D00211D206800F02CFCC7
:101A5000012084F8460084F83E0084F83F0084F8B2
:101A6000400084F8410084F8420084F8430084F880
:101A7000440084F8450084F83D00002010BD704704
:101A800090F83D10012901D001207047022180F813
:101A90003D100168CA6842F00102CA60006811493D
:101AA000884214D0B0F1804F11D00F4988420ED037
:101AB0000E4988420BD00E49884208D00D49884211
:101AC00005D00D49884202D00C49884204D1816872
:101AD00001F00701062903D0016841F0010101600E
:101AE0000020704700000140000400400008004052
:101AF000000C00400004014000400140001800407C
:101B000070472DE9F04104460068C66805694FF04A
:101B10000007A90713D5B10711D5F91E01610120EE
:101B20002077206880698007204602D0FFF7E8FF11
:101B300004E000F07EF8204600F07CF82777680784
:101B400016D5700714D521686FF0040008610220D3
:101B500020772068806910F4407F204602D0FFF78C
:101B6000CFFF04E000F065F8204600F063F8277727
:101B7000280715D5300713D521686FF008000861D4
:101B8000042020772068C0698007204602D0FFF734
:101B9000B7FF04E000F04DF8204600F04BF827773F
:101BA000E80616D5F00614D521686FF0100008611C
:101BB000082020772068C06910F4407F204602D0BA
:101BC000FFF79EFF04E000F034F8204600F032F802
:101BD0002777E80708D0F00706D021686FF00100EA
:101BE0000861204600F028F8280608D5300606D5FA
:101BF00021686FF0800008612046FFF711FF68063A
:101C000008D5700606D521686FF0400008612046AF
:101C100000F01CF8A8060AD5B00608D521686FF0B8
:101C2000200008612046BDE8F041FFF7FABEBDE89C
:101C3000F08170477047000000680349884201D175
:101C4000FFF73AB870470000000800407047FEE711
:101C5000F0B503688C88DD68C5F30B452C4425047A
:101C6000882404EBC2141E5906F470461E51036802
:101C70000F68DE68C6F30B46761C3E442E431E51A9
:101C800004688B89E568C5F30A052B441D048C2381
:101C900003EBC213E65806F47046E65004688F68FA
:101CA000E668C6F30A06761C3E442E43E6509423AB
:101CB000046803EBC213E55825F00705E5500568F5
:101CC0000C69EC5091F831300C7E1F0226069C24E2
:101CD000056804EBC21491F8323055F804C04FF097
:101CE000000C45F804C091F8305046EA03433D43E8
:101CF0001D4303681D519823046803EBC213E55884
:101D000025F0FF05E55005684C69EC50A0230468F8
:101D100003EBC213E55840F20776B543E550D1E92D
:101D200007452C430568EC50AC23046803EBC21351
:101D3000E55844F803C005684C6AEC500B698BB356
:101D4000012B32D0042B32D0022B30D0032B2ED0DB
:101D5000072B2CD00123B024056804EBC2142E59A4
:101D600006F0E0262E51D1E90065AD1B0E8D5D43D6
:101D70005E43ED1C45EA064305682B51B423046815
:101D800003EBC213E5586FF30A05E5500468C96A0E
:101D9000E1500068842101EBC211425842F0010277
:101DA0004250F0BDFFE70423D5E70323D3E7022326
:101DB000D1E700000A4810B5084901604FF44031EE
:101DC0004160022181600021C160FEF797FD00287B
:101DD00003D0BDE81040FEF7DABC10BD00B00240F1
:101DE000DC13002000B587B01C216846FEF707FC15
:101DF0001A481949012201600021C0E90112082294
:101E0000C26010220261402242614FF4C072C0E9F8
:101E100006214FF40061016249004162490081627C
:101E200002200721CDE9000106210291039104213E
:101E3000CDE90410069069460848FFF799FD08B1FE
:101E4000FEF7A5FC23F037FB40F2DA210348FFF749
:101E5000B2FD07B000BD0000400100A01C1400202E
:101E600010B5044A0021044821F036FB03490860FC
:101E700010BD0000ECA10208BD21000800000020F8
:101E80002DE9F04F87B014216846FEF7B8FB58489B
:101E90000025016841F480710160016801F48071DE
:101EA0000591016841F004010160016801F004013D
:101EB0000591016841F020010160016801F02001F5
:101EC0000591016841F080010160016801F0800125
:101ED0000591016841F001010160016801F0010113
:101EE0000591016841F040010160016801F0400185
:101EF0000591016841F010010160016801F01001D5
:101F00000591016841F008010160016801F00801D4
:101F10000591016841F0020101600068DFF8D4A07A
:101F200000F00200059000224FF484715046FEF745
:101F3000B8FE314F0022B0213846FEF7B2FEDFF87E
:101F4000BC80002240214046FEF7ABFEDFF8B09097
:101F5000002208214846FEF7A4FEDFF8A8B00022C0
:101F600020215846FEF79DFE0124B815CDE9000456
:101F700069465046CDE90245FEF774FDB020CDE933
:101F800000040326CDE9024669463846FEF76AFD9D
:101F900040201127CDE90007CDE9024669464046B9
:101FA000FEF760FD8020CDE90005694602944046B9
:101FB000FEF758FD4FF00808CDF80080CDE9014547
:101FC000694648460395FEF74DFDCDE90246CDE949
:101FD000008769465046FEF745FD20208DE8310018
:101FE000694658460395FEF73DFD07B0BDE8F08F02
:101FF000303802400020024000000240001C024035
:10200000001802400004024030B58DB0342168460B
:10201000FEF7F5FA274826490024C0E90014846039
:102020002F21C460C0E9044102258721C0E906517F
:102030002221016240F26721416240F24231816215
:1020400040F28F21C16240F24F31016380F8344089
:1020500080F8354080F83640FEF7C6FE08B1FEF73E
:1020600096FB4FF4F0704FF44871CDE90040CDE994
:102070000241FF220495CDE905244FF4C062079286
:10208000072208924206CDE90A018DF830400992F4
:102090008DF831408DF83240002269460548FEF740
:1020A00079FE002801D0FEF772FB0DB030BD0000B4
:1020B0000068014050140020FEE7FEE72DE9F041E2
:1020C0001D4D0746002210212846FEF7EAFD00229A
:1020D00020212846FEF7E5FD002280212846FEF754
:1020E000E0FD012220212846FEF7DBFD80260024AA
:1020F00037424FF000024FF02001284603D0FEF790
:10210000D0FD012202E0FEF7CCFD0022802128460E
:10211000FEF7C7FD012220212846FEF7C2FD641C00
:102120007608E4B2082CE3D32846BDE8F04101224A
:102130001021FEF7B6BD0000000002402DE9F0417D
:102140001D4D0746002210212846FEF7AAFD002259
:1021500020212846FEF7A5FD012280212846FEF712
:10216000A0FD012220212846FEF79BFD80260024A9
:1021700037424FF000024FF02001284603D0FEF70F
:1021800090FD012202E0FEF78CFD0022802128460E
:10219000FEF787FD012220212846FEF782FD641C00
:1021A0007608E4B2082CE3D32846BDE8F0410122CA
:1021B0001021FEF776BD00000000024018F0E2F8A2
:1021C0001FF030FF21F01EF8052021F04AF9F7E753
:1021D00010B54FF0E020006927F030FE012803D051
:1021E000BDE8104027F05EBB10BD000030B593B0D5
:1021F00030216846FEF703FA14210CA8FEF7FFF918
:1022000020480025016841F080510160006800F01D
:10221000805011901C48016841F440410160006801
:10222000022400F44040119001200090000401902D
:102230008001CDE90640192008904FF4B470CDE933
:10224000090404200B906846FFF7DCF908B172B668
:10225000FEE7FEF779FF08B172B6FEE70CA90F2082
:1022600081E831004FF4A0500F904FF4805010904F
:1022700005210CA8FFF7CAF8002801D072B6FEE7C6
:1022800013B030BD40380240007000400248016881
:1022900041F470010160704788ED00E00148FFF7EC
:1022A00030BC0000F8140020F0B50268294C2A4D1B
:1022B0002A4E2B4F2B4B4FF0804CA04209D060454B
:1022C00007D0A84205D0B04203D0B84201D098420E
:1022D00004D122F0700E4A6842EA0E02A0421BD0DE
:1022E000604519D0A84217D0B04215D0B84213D0DB
:1022F000984211D01C4DA8420ED01C4DA8420BD0C4
:102300001B4DA84208D01B4DA84205D01A4DA8422B
:1023100002D01A4DA84203D122F44075CA682A435C
:102320004D6922F080022A4302608A68C2620A680C
:102330008262A04201D0984201D109690163012162
:1023400041610169C90703D0016921F001010161FF
:10235000F0BD000000000140000400400008004003
:10236000000C0040000401400040014000440140D6
:102370000048014000180040001C004000200040C0
:10238000FEE70907090E002804DB00F1E02080F8D1
:102390000014704700F00F0000F1E02080F8141DD9
:1023A000704770B5044600256FF02F0608E02068DE
:1023B000411C2160007805EB850106EB41014518C1
:1023C0002068007800F004F80028F0D1284670BD9D
:1023D0003038092801D801207047002070470000DC
:1023E00010B54421074800F027FF00220F210648BE
:1023F0001FF0E0FD054CA06002F014F800202070F2
:1024000010BD0000B8A30020D94400080802002035
:102410002DE9F0470E46814617461146304600F03A
:102420001CF94FF0FF3A00287DD000223946304693
:1024300000F0BFF800284FF0000075D1B6F9048015
:10244000B6F900305246A8EB0301491C0AFA81F1A3
:102450000FFA81FAB6F906C0B6F90210ACEB010C1E
:102460000CF1010C02FA8CF2B7F802C012B2ACEB1C
:10247000010C0FFA8CFCBCF1000F0EDD63F30F04AE
:1024800068F30F0501EB0C0061F31F4460F31F4577
:10249000C9F800400120C9F80450B7F90610738844
:1024A000CB1AD21A12B2002A13DDB6F906309942BD
:1024B0000FDA338863F30F04B38861F31F4463F3C7
:1024C0000F05114461F31F4509EBC001401C0C606E
:1024D0004D60B7F90220B6F902108A4200DD1146BC
:1024E000B7F90630B6F90620934200DA1A463B885F
:1024F000B6F900C0521AA3EB0C031BB212B2002BA8
:1025000010DD002A0EDD634463F30F058B1863F3BF
:102510001F456CF30F0409EBC00361F31F441C60FB
:102520005D60401C01E01AE017E0B7F9043036881E
:102530009F1BAAEB070636B2002E0EDD63F30F04D5
:1025400061F31F44334463F30F05114461F31F45E6
:1025500009EBC001401C0C604D60BDE8F08750469F
:10256000FBE770B5B1F90030B2F90040A34200DCDE
:1025700023460380B1F90250B2F90240A54200DDC2
:102580002C464480B1F90460B2F90450AE4200DA3E
:1025900035468580B1F90610B2F90620914200DB7C
:1025A0001146C1800120AB4201DC8C4200DD0020DD
:1025B00070BDF8B50D460446B0F90000B1F9001041
:1025C0001646884247DBB4F90210B5F90220914261
:1025D00041DBB4F90410B5F9042091423BDCB4F9B5
:1025E0000610B5F90620914235DC96B3ADF800002F
:1025F0006088ADF8020032466946284600F099F836
:10260000002827D0A088ADF800006088ADF802004F
:1026100032466946284600F08CF800281AD02088F7
:10262000ADF80000E088ADF8020032466946284661
:1026300000F07FF800280DD0A088ADF80000E088F9
:10264000ADF8020032466946284600F072F80028CC
:1026500000D00120F8BD0020F8BDB0F90020B1F98C
:1026600004309A4213DCB0F90420B1F900309A42E8
:102670000DDBB0F90220B1F906309A4207DCB0F95F
:102680000600B1F90210884201DB012070470020EA
:102690007047F8B50D460446B0F90400B1F90010D2
:1026A0001646884243DBB4F90600B5F902108842A9
:1026B0003DDBB4F90000B5F90410884237DCB4F909
:1026C0000210B5F90620914231DC76B3ADF8000076
:1026D0006088ADF8020032466946284600F029F8C5
:1026E00018BBA088ADF800006088ADF80200324643
:1026F0006946284600F01DF8B8B92088ADF80000FA
:10270000E088ADF8020032466946284600F011F82C
:1027100058B9A088ADF80000E088ADF80200324654
:102720006946284600F005F808B10020F8BD0120F0
:10273000F8BD2DE9FC4114460E46B1F90020B0F970
:10274000001005468A423ADBB5F90400824236DCC5
:10275000B6F90270B5F90220974230DBB5F90630C0
:102760009F422CDC002C75DD401A9A1A401C521C2A
:1027700000B212B200EBD07002EBD27240105210D5
:10278000904200DB1046844200DD0446ADF80010A4
:10279000288800222044ADF804006888ADF80200C3
:1027A000688831462044ADF806006846FFF7C1FF4F
:1027B00040B1BDF804002044ADF804003FE0002023
:1027C000BDE8FC81E8880022001BADF80200E88823
:1027D000ADF8060031466846FFF7ABFF28B1BDF8FB
:1027E00004002044ADF8040011E0A8880022001B7A
:1027F000ADF80000A888ADF8040031466846FFF740
:1028000098FF50B1BDF80000001BADF80000BDF806
:102810000200001BADF8020016E06888ADF8020067
:10282000688800222044ADF8060031466846FFF76C
:1028300080FF70B1BDF80000001BADF80000BDF8CE
:1028400006002044ADF80600314668461CF06CFCDA
:10285000B6E7FFE70120B3E710B5B1F90040B2F9E0
:1028600000309C4200DA23460380B1F90240B2F9FD
:1028700002309C4200DA23464380B1F90440B2F9A9
:1028800004309C4200DD23468380B1F90610B2F982
:102890000620914200DC1146C18010BD2DE9FC41AB
:1028A00005461FF035FB00267D4C074600960DB10E
:1028B000E86801E011F0A4F9606000691CF030FBE9
:1028C0006068406908B11CF02BFB6068C0691CF0AF
:1028D00027FB6068006A1CF023FB6068016991B106
:1028E0001CF0D2FC22F0C6F821F0ECFD6068B0F8D4
:1028F0005011E1B30068017CC9071ED0C068406870
:10290000D8B1002514E0A0F85061BDE8FC81411960
:1029100091F8301151B900F5AC7000F0E4FC616839
:1029200001EBC5010A6B0260496B41606D1CADB2E1
:102930006068B0F85011A942E9D860684FF480711E
:10294000303017F0E3FE6068202100F5987017F032
:10295000DDFE6068A0F8506138461FF0D3FA0090A1
:1029600060680068436A13B122680099984717F0BD
:102970004BFD00F0CFF800F0A1F84A4D6F69EFBBB6
:1029800011F03EF911F06AF916F0E4FB0746002257
:102990007F211CF053F900221146104610F0AAFBCB
:1029A0000190BDF80410002238461CF01BF9FF22EC
:1029B0001146104610F09EFB0190BDF80410002255
:1029C00038461CF012FA0022032138461CF0D9F9CF
:1029D0000022032138461CF0BBF9002203213846AF
:1029E0001CF0C0F90022032138461CF0C0F9002277
:1029F000032138461CF0F4F92BA100E009E0384629
:102A000017F02EFA00231A460621384618F06AFA03
:102A10006F6128681FF076FAB0F5967F0DD22068B6
:102A200041F2883188427FF670AF686800990844A7
:102A30006860A868401CA86067E71FF069FA286012
:102A40006068406828B100684FF47A71B1FBF0F01B
:102A500000E04220696809B901216960A968E1B113
:102A60004FF47A7251436A68B1FBF2F46E60AE6063
:102A7000844200D90446286920442861E868401C43
:102A8000E8601FF0C9FAC0F1640302B0224638467C
:102A9000BDE8F04105A117F01ABA0446E6E70000C8
:102AA000D0000020209D00203F000000257520461A
:102AB00050530A25752525204350550070B50A4D01
:102AC000002400BFC4EBC40655F8260008B117F077
:102AD0000FFD05EB86001C2117F018FE641CE4B204
:102AE000042CEFD370BD000094A40020084949686D
:102AF0000AE04A68824202D00A68824203D10A7E12
:102B000042F001020A7649690029F2D170470000BB
:102B1000A4000020704700000421014800F08CBB95
:102B2000ACA300202021014800F086BBC4A30020F4
:102B30002DE9FF410446DDE90A671D004FF0000062
:102B400002D1B6F5807F2BD0039001900290ADF8B2
:102B50000C100090ADF80410ADF80A20ADF80E206E
:102B60003B463246294668461CF03EFA3B46324612
:102B7000294601A81CF038FA3B463246294602A8ED
:102B80001CF032FA3B463246294603A81CF02CFAC8
:102B9000BDF90000BDF90430984209DA054608E0A5
:102BA0002080491E6080A180521EE280BDE8FF8126
:102BB0001D46BDF90820BDF90C108A4201DA1646FF
:102BC00000E00E46B54203DA984206DB184604E000
:102BD0008A4201DA104600E00846801E2080BDF9D6
:102BE0000030BDF90420934201DD1D4600E015468A
:102BF000BDF90800BDF90C10884201DD064600E071
:102C00000E46B54205DD934201DD194604E011464A
:102C100002E0884200DD0146891CA180BDF9023036
:102C2000BDF90620934201DA1D4600E01546BDF9C4
:102C30000A00BDF90E10884201DA064600E00E4691
:102C4000B54205DA934201DA194604E0114602E082
:102C5000884200DA0146891E6180BDF90230BDF963
:102C60000620934201DD1D4600E01546BDF90A002D
:102C7000BDF90E10884201DD064600E00E46B54261
:102C800005DD934201DD194604E0114602E0884269
:102C900000DD0146891CE18088E700002DE9F04154
:102CA00015460E460746114C1FF032F980462B465A
:102CB00032463946204615F08DFC20B10020A06236
:102CC000E06950B110E02C21204617F01FFD4FF0B5
:102CD0000040A0620020BDE8F08140461FF012F9DC
:102CE000E06108B90120E0612046F4E7E8A3002094
:102CF00010B51421074800F09FFA15F031FC40B1DF
:102D00000549016005494160054981600549C16087
:102D100010BDFEE7D0A30020357F0108B182010875
:102D200081840108017F010870B50D460446102119
:102D3000284617F0EBFC20680078012804D0022810
:102D400007D0042807D008E0A08A2880E08A68809D
:102D500003E0E06800E00A20686020684268002A1A
:102D600003D02946BDE87040104770BD2DE9FE43F1
:102D70000446808A10B9E08A002874D0D4F82C80E8
:102D80005FEA080010D120460AF037FC5FEA00082D
:102D900069D020460DF096F900220921404614F032
:102DA0000BFB607880075ED44FF4807900274E4695
:102DB0004546002128461AF033F9384407B200216D
:102DC00028461AF04BF9C11700EB1160001210FBF6
:102DD00006F006B2284619F013F90500E9D10FB93B
:102DE0004E450CD0784201B24FF4803090FBF6F0A3
:102DF00002B26B4604F1140000951CF0F5F8ADF832
:102E00000450ADF8085094F8400000F00F0003287B
:102E1000404616D019F046FA0646404619F0FCF82E
:102E200003460C200090B4F916103246404609F0D3
:102E30006FFFADF80800404619F040F9C10713D004
:102E400018E019F0C3F90646404619F05FF902464A
:102E500003200090B4F914103346404609F058FF9F
:102E6000ADF80400E7E736E0BDF90410002901DD04
:102E7000ADF80450810705D4BDF90410002901DA2A
:102E8000ADF80450410705D4BDF90810002901DD53
:102E9000ADF80850000705D4BDF90800002801DA94
:102EA000ADF8085002AA01A9204622F003FABDF9A4
:102EB0000820BDF90410404600F08AFA60788007C7
:102EC00009D4208BBDF8041008442083608BBDF822
:102ED000081008446083BDE8FE832DE9FC5F0446CA
:102EE000C06A5FEA000B71D094F8400000076DD013
:102EF00015F002FE019000684021457E58461AF008
:102F0000DFF94FF0000818B9A4F81E80A4F81C805F
:102F1000584619F0B9F98246584619F0BCF90646E8
:102F200094F840004FF0640900F00F000C2802D024
:102F300003284CD09AE0A4F81C8056B1B4F91E5076
:102F4000002715F0D9FD00684946407EC0F16400B5
:102F500022E0E08BC5F1640110FB01F191FBF9F077
:102F6000E083584619F058F80546584619F09AF982
:102F700002460C200090B4F91E102B46584609F06A
:102F8000C7FEE083024600231EE07A1917B210FB49
:102F900005F292FBF1F215B2002DF6D1ADF80070FA
:102FA000A4F81E806A460021204622F083F941F6EB
:102FB000FF72BDF90030514258460AF0B5FCBDF829
:102FC00000100123084402B200214CE09AE0A4F86A
:102FD0001E80BAF1000F0AD0B4F91C50002715F07A
:102FE0008BFD00684946407EC0F1640022E0A08B62
:102FF000C5F1640110FB01F191FBF9F0A083584683
:1030000019F084F80546584619F0E0F80346032005
:103010000090B4F91C102A46584609F079FEA083A6
:10302000014600231EE07A1917B210FB05F292FB4D
:10303000F1F215B2002DF6D1ADF80070A4F81C80A5
:1030400000226946204622F035F941F6FF72BDF9AB
:103050000030514258460AF0DFFBBDF80010012352
:10306000084401B2002258461BF0FEF9A08B00284C
:1030700048D1E08B002845D1C6B9584619F012F95D
:103080000546584618F0C8FF002D06DC00280DDD67
:10309000002D02DA01232A4604E0002806DA012383
:1030A000404202B2002158461BF0DEF9BAF1000F8F
:1030B00019D1584619F02AF80546584619F086F8ED
:1030C000002D07DC00280EDD002D03DA012300228D
:1030D000294605E0002806DA01230022404201B219
:1030E00058461BF0C1F90A215846019A14F064F9B8
:1030F0006078800706D414F8400F20F00F0020708D
:1031000044F8148CBDE8FC9F7FB50E46040003D143
:1031100010F076FD04002CD010F0E6FD002828D039
:1031200094F82800400724D4002506B3ADF80050D9
:10313000ADF80250204610F07BFD401EADF80400B3
:10314000204610F0BBFD401EADF806006A46314631
:1031500002A8FFF706FA00280BD02068017C890737
:1031600008D5DDE90001C4E90C01012029E0A4F83B
:1031700050517FBD82690AB102A9904700260AE03A
:1031800004EBC601002202A83031FFF712FA002832
:10319000EFD1761CB6B2B4F85001B042F0D880B28C
:1031A000202804D204EBC00002A9303004E0A4F8C7
:1031B000505104F1300069460EF00BFAB4F850019A
:1031C000401CA4F8500160680028D2D01EF0D2FF45
:1031D0007FBD70B5054600F012F804460CE02146AC
:1031E000284600F01EF806462146284600F0A2F8C0
:1031F000204617F07DF93446002CF0D170BD002830
:1032000000D04068704700B503460022FFF7F7FF83
:1032100003E01846521C00F004F80100F9D11046F2
:1032200000BD0068091D405870470068405870474D
:10323000002800D08068704700224260C91C21F03D
:10324000030182600160704770B504460068083071
:1032500017F0C2F8050013D001460022204620F0E6
:1032600063F829462046626820F058F8616819B171
:103270002A46204620F058F86560A06800B9A5608D
:10328000284670BD2DE9F0410C4606000AD04CB12D
:10329000FFF7B5FFA04208D13046FFF7D5FF051E66
:1032A00001D01EE00020BDE8F0813068083017F042
:1032B00093F8051EF7D030682A460759304639463C
:1032C00020F02CF83A462946304620F02DF82A46C0
:1032D0002146304620F028F822462946304620F084
:1032E0001DF82846DFE770B504460068083017F07F
:1032F00073F8050013D001460022204620F00EF896
:1033000029462046A26820F00FF8A16819B12A4684
:10331000204620F003F8A560606800B96560284683
:1033200070BD28B1416809B9806808B100207047B4
:103330000120704770B504000DD0FFF760FF002238
:103340008842204608D1FFF76CFF6060011E01D063
:1033500000221EE0A26070BDFFF76AFF884220686D
:1033600008440AD10168A16029B12046BDE8704037
:1033700000221FF0D3BF626070BD05682046FFF7D2
:1033800050FF06460246294620461FF0C7FF2A4640
:1033900031462046BDE870401FF0C6BF10B5044658
:1033A000006882680AB121469047206800680028BA
:1033B00001D02060F5E710BD8068002801D0B0F989
:1033C000160070478068002801D0807E8009704711
:1033D00070B5164605460C4651EA06001AD0284636
:1033E00017F0FAFEA86801233246018A21440182BF
:1033F000A868418A31444182214628461AF08CFA55
:1034000000220B21284613F0D7FF012803D12846BC
:103410001AF0DCF9012070BD77B581B00E460500C9
:1034200017D0622219F01EFD040012D0206880B16E
:1034300028463146632219F015FD10F0FF0208D02E
:1034400023682046039998470090BDF80000ADF826
:103450000C00039804B070BD2DE9F047074692B008
:10346000408C1A9E40F00400788490463A84994635
:103470008A463289384619F0F5FC0546A7F82090AF
:1034800032895146384619F0EDFC0446788CA54245
:1034900020F00400788403D12904B1EB044F68D0F4
:1034A000A7F8208032895146384619F0DBFC0546E2
:1034B0008046A7F82090514638460BF089FC3189A8
:1034C00000682A461DF076FC30890B2823D147F688
:1034D000FF794D4501D04C451DD1384619F0A7FE66
:1034E00000EBD0704510384618F049FD00EBD07065
:1034F0004010C84506D1691C431C994200DA00E01F
:10350000194688464C4506D1691C421C914201DA95
:103510006C1C00E014461948FFF796FE05002BD0FE
:103520002F60C5E903843089A8806846C5F808A0E3
:103530000DF0F6FD1248FF21CDE900501148029030
:103540001148039000200890CDE9090130880B90C4
:1035500070889DF8421040420C90F068079000205F
:1035600060F300018DF842103069069068460DF056
:103570004BFE12B0BDE8F087FEE70000DCA30020A0
:10358000B18B0208E98D0208458D0208142101481B
:10359000FFF752BEDCA300202DE9F84F002590462E
:1035A000894606462C460427E5E000BFF16807EB94
:1035B000C400085882017AD480B230EA090211D0DE
:1035C0005FF0000230EA08000ED0002082426ED088
:1035D00051F834A06A46102150461DF04DF90028DC
:1035E00071D103E00122EDE70120EFE76A461121E6
:1035F00050461DF041F9002865D16A461221504617
:103600001DF03AF900285ED16A46132150461DF09C
:1036100033F9002857D16A46152150461DF02CF980
:10362000002850D16A46142150461DF025F9E8BB08
:103630006A460A2150461DF01FF9B8BB6A466B2145
:1036400050461DF019F988BB6A466C2150461DF0A2
:1036500013F958BB6A46012150461DF00DF928BBED
:103660006A46042150461DF007F9F8B96A4602215E
:1036700050461DF001F9C8B96A46032150461DF0B5
:10368000FBF898B96A46052150461DF0F5F868B96F
:103690006A46062150461DF0EFF838B96A463221D5
:1036A00050461DF0E9F808B96A4601E00BE061E018
:1036B0006E2150461DF0E0F828B96A466D2150464B
:1036C0001DF0DAF810B10320BDE8F88F6A466921D1
:1036D00050461DF0D1F8E8BB6A466A2150461DF0FD
:1036E000CBF8B8BB6A466E2150461DF0C5F888BBC2
:1036F0006A466D2150461DF0BFF858BB6A46372117
:1037000050461DF0B9F828BB6A46382150461DF0D6
:10371000B3F8F8B96A46352150461DF0ADF8C8B97E
:103720006A46402150461DF0A7F898B96A464521DF
:1037300050461DF0A1F868B96A46412150461DF077
:103740009BF838B96A46422150461DF095F808B9F1
:103750006A4600E00AE0432150461DF08DF828B982
:103760006A46492150461DF087F808B1022501E05C
:1037700005B90125641C708CC0F3C500A0423FF65A
:1037800015AF2846A0E700000148406870470000D8
:10379000D00000200448002141600161C1608160C7
:1037A0000160416170470000209D0020C0F30410BB
:1037B000072800D907207047A0F57F41FF3905D0C1
:1037C000002804D0712803D208490AE01F2070475E
:1037D0000749713880B2096829B1064A5268904297
:1037E00001D2085C7047002070470000E0E1020849
:1037F000340200204802002010B518210348FFF7CA
:103800001BFD03490120087010BD000088A30020A3
:10381000500200202DE9F04190460C46050015D0DD
:10382000FCF74FFE0A4F06462146BA6828469047E5
:103830000446BA682819414690470146701A03E0C9
:103840006218AA5C2A55641CA042F9D2BDE8F08136
:10385000640200202DE9F041094D90460E466A6849
:103860001C46074619469047306020B120686A68B8
:10387000384400219047C8F80000BDE8F0810000FE
:10388000640200202DE9F04F87B08A46DDE9105828
:103890001F4693460446002105B129805CB120787B
:1038A000002809D0BAF1000F05D0002618F0060F45
:1038B00015D0002004E0002007B0BDE8F08F401CC8
:1038C000215C0A2904D00D2902D00029F7D100E09B
:1038D000401C002DF0D04FF0FF312980ECE75FEA6B
:1038E000887001D541F6FF77894608468DF8141097
:1038F000049127E00498CDF8189068B34FF0000CBD
:1039000005AA06ABCDF80CC0CDF80080CDE9013298
:1039100020443B465A4651461EF06EFD06997A1ADF
:10392000314417B20EB288B1049901440491207851
:103930000A280BD00D2809D0605C0A280FD00D286A
:103940000DD00846205C08B1002FD3DC049848B1A4
:1039500005B12E800498AFE74FF0010CD0E7481C6A
:103960000490F3E7064A04A9204652689047002DC8
:10397000F0D001460022504613F032FE06B2E8E7CE
:10398000640200202DE9F0411746884606001ED04B
:10399000002F1CD0FCF795FD04463846FCF791FD3E
:1039A000050014D00B4A2C4441469268304690479B
:1039B000411903E0621BB25C3255641EA142F9D981
:1039C00030442A463946BDE8F04116F061BEBDE8F4
:1039D000F08100006402002002460020A2F59C4114
:1039E00045F2A513994205D9002107E006A35B5CC7
:1039F000934201D101207047491CC9B202A35B5C0C
:103A0000002BF3D170470000202C2E3B3A2D5F0095
:103A100000230278232902D0012A0DD00FE02AB119
:103A20000021012A04D0022A04D008E0012101E08B
:103A3000017004E0017001E0202902D00123184642
:103A400070470221F6E72DE9F0410E468046024616
:103A50000021334608461EF02DFF04460027401C77
:103A600016F0BAFC050008D02F5533464246611CBB
:103A70001EF020FF2846BDE8F081FEE72DE9F04763
:103A80001E4614460D468246DDF8209015E000BF24
:103A90004FEA540808FB0657394650464A469047B5
:103AA000002808DD44F30000C0EB540407EB0605D2
:103AB000A4F1010401E005DA4446002CE8D12046D7
:103AC000BDE8F0873846FBE72DE9FC5F9B460CAB71
:103AD0008A468146DDE9116093E81210DDE90F574F
:103AE0005FEA80784FF030031AD45EB15FEAC078A5
:103AF00008D000F00C0858EA0C0803D0761E01E04C
:103B00000B55641CBC4204D2202CF9D301E00B55A8
:103B1000641C5FEAC07803D0B44201D2202CF6D3F3
:103B20005FEAC06825D55FEA40580AD44CB1BC4270
:103B300001D0B44205D1641E03D0102D03D1641E00
:103B400004E0102D02D0022D0AD00EE0850603D429
:103B5000202C1ED2782506E0202C1AD2582502E00F
:103B6000202C16D262250D55641C202C11D20B5529
:103B7000641C202C0DD2BCF1000F01D02D2306E0D7
:103B8000430701D52B2302E0030702D520230B5561
:103B9000641CCDE900BAC846154681468B46AA4644
:103BA000800714D1274607E02A46DDE900316D1C65
:103BB0002020C446E0477F1CB742F5D307E02A46E1
:103BC0006D1C641EDDE900311BF80400C047002CA9
:103BD000F5D15FEA897006D409E02A46DDE90031B3
:103BE0006D1C2020C047A5EB0A00B042F5D3284643
:103BF000BDE8FC9F2DE9F04F8FB099468B46DDE97B
:103C00001818DDE91C63DDE91A4792468646002252
:103C100009B923F01003580507AD00D5C9B1B1FBB0
:103C2000F4F004FB1010C0B20A2801D2303009E0D1
:103C30005FEA836C02D54FF0410C01E04FF0610C5C
:103C400060440A38B1FBF4F1A854521C09B1202A8F
:103C5000E5D3CDF80880CDE90563CDE90052CDE983
:103C600003474B46524659467046FFF72DFF0FB0AB
:103C7000BDE8F08F2DE9FF4F8FB01CACDDE9239537
:103C800094E8030820AC94E8C004002450EA010240
:103C900001D125F010056A050DF11C0802D550EA86
:103CA000010217D032463B46FCF770FBD2B20A2A1B
:103CB00001D2303206E0AB0601D5412300E061239A
:103CC0001A440A3A08F80420641C50EA010201D0A0
:103CD000202CE7D3CDE90084CDF808B0CDE90595D7
:103CE000CDE9036A0FAF97E80F00FFF7EDFE13B0C1
:103CF000BDE8F08F9A4200D28854704770470000A8
:103D00002DE9FF4F89B005460A9800249246002805
:103D100000D1FE4D8FE1252804D02246641C534675
:103D20000A990BE2491C4FF0000808460C910178F3
:103D30002B2919D004DC202919D0232904D119E01A
:103D40002D290ED0302909D00026C8B2FEF740FB3D
:103D5000B0B10CA8FEF725FB06461FE048F00101B4
:103D60000AE048F0020107E048F0040104E048F0EE
:103D7000080101E048F01001401C88460C90D6E78D
:103D80000C9908782A2809D1169840C81690002E58
:103D900002DA48F002087642491C0C910C984FF068
:103DA000000B01782E2919D1401C0C9048F4806832
:103DB0000078FEF70DFB20B10CA8FEF7F2FA83465F
:103DC0000CE00C9A10782A2808D1169802C8169090
:103DD000002900DC0021521C8B460C920C980178C3
:103DE0006C290AD004DC68290FD06A2919D128E08F
:103DF000742929D07A2914D126E0401C0C9001782E
:103E000048F480786C291CD00BE0401C0C900178A1
:103E100048F08008682904D148F04001401C8846D9
:103E20000C9002460078692822D015DC62281FD049
:103E30000DDC252871D050281AD058287FF46DAF9A
:103E400016E048F40071E9E748F48071E6E763287A
:103E500078D06428F2D10BE0732874D004DC6F288A
:103E600006D07028EAD103E0752801D07828E5D182
:103E700078280DD058280BD070280BD0502809D0A6
:103E80006F2816D0622816D00A2128F0100016E0FC
:103E9000102107E05078102148F48878562804D182
:103EA000521C0C921078582807D01078502804D053
:103EB00006E0082109E0022107E048F020008046E2
:103EC0001078692803D0642801D028F00C085FEA34
:103ED000485001D528F00108107869281ED06428C0
:103EE0001CD0562864D05FEA885072D5169804AB6F
:103EF000C01D002283E806080292CDE9076820F081
:103F000007005346F0E80212CDE90012169022464F
:103F100028460A99FFF7AEFE89E00AE15FEA885079
:103F200024D5169804AFC01D20F00703F3E8020261
:103F30001693002387E80A08CDE90768002A03DA08
:103F4000012102E080E0A6E0002100230291194651
:103F50001B1A914101DA114603E00021404261EB56
:103F6000020153462246CDE90001D1E75FEAC8507D
:103F700004D5169804C80FE0524215E05FEA486085
:103F800003D5169810F8042B06E05FEA0860F0D518
:103F9000169830F8042B12B21690CDE9021BCDE929
:103FA0000468D00F002AE7DDCDE9002053461EE06B
:103FB0001698AAEB040202C81690486800680090A0
:103FC0000A980B6801192846FFF79AFE04442FE06F
:103FD000FFE75FEAC8500CD5CDE9021BCDE90468C4
:103FE00016980021534604C8CDE9002116902246B8
:103FF00019E05FEA486003D5169810F8042B08E032
:104000005FEA0860169803D530F8042B92B200E0FE
:1040100004C816900020CDE90020CDE9021BCDE9AF
:1040200004685346224628460A99FFF7E3FD0446F2
:104030000C98401C0C900C99087800287FF46BAE0B
:1040400054457DD222467DE001275FEA887006D57F
:1040500009E02246641C534620200A99A8473846A6
:104060007F1CB042F5D316992246641C11F8040B4C
:10407000169153460A99A8475FEA887006D4D7E795
:104080002246641C534620200A99A84738467F1CC4
:10409000B042F5D3CCE7169850F8049B16904B46E7
:1040A000BBF1000001D0014601E04FF0FF3148466E
:1040B00000E0401C02780AB1491EFAD2C71A5FEA32
:1040C000485003D558465F4500D307465FEA8870DD
:1040D00006D512E02246641C534620200A99A847C0
:1040E00038467F1CB042F5D307E000BF224609F1F5
:1040F0000109641C53460A99A84799F8000040B189
:104100005FEA4851F2D5BBF1010B01E0FD3C00082C
:10411000ECD25FEA887006D48AE72246641C5346D4
:1041200020200A99A84738467F1CB042F5D37FE784
:1041300006E02246641C534625200A99A84777E7E3
:10414000AAF10102534600200A99A8470DB0204663
:10415000BDE8F08F10B502004FF000000CD04B1EF0
:10416000194200D0FEE70A44521E9A43B2F5803F3E
:1041700002D20C2A01D9104610BD0C2010BD0844F3
:104180004A1E401E9043114200D0FEE770470000D7
:104190002DE9F0410F4601210025044641862E46B7
:1041A0000BE01B49FCF752FA10B16D1CADB202E0F6
:1041B000608E401C6086761CB6B257F8260010B19F
:1041C00001780029EDD1208EA8421ED0A06A0026D9
:1041D00010B116F08DF9A662E06A10B116F088F9F8
:1041E000E662E80016F0F8F8A06238B1680016F050
:1041F000F3F8E06218B1A16A11B102E0FEE7FEE750
:104200000025690016F082FA2586BDE8F0810000DD
:10421000D41F01082DE9F84F8146407A0F4600F07F
:104220000700022819D010468046974200DD3A4622
:10423000164603202A4C2B4A00EB460020F00305CB
:10424000A06811681035411A636805EB010C9C45A4
:1042500005D2416821F0004124E00846E4E79D4290
:1042600019D892464FF0FF3B48196168884210D92F
:10427000002269461C48CDF800B00CF0FDFA00227F
:1042800069461A480CF0F8FAA168DAF80000091A31
:10429000EAE7A068DDE7284616F09EF8C0B141685D
:1042A00041F0004188EA6702416089EA0201016049
:1042B000416801F04041491C31F0804141608681F4
:1042C000A0F80E8005D500F110018160BDE8F88FDF
:1042D000FEE7A16801F1100229448260A160F5E7C0
:1042E000D800002030020020E9D50008D9080108D4
:1042F00070B586B000224A4C8DF808208DF80C204D
:104300008DF81020E2888A4201D0FF22A270E1805D
:1043100090F83C20142302F003024FF4B475012AF4
:1043200024D0022A5ED0A578AA4211D010F8265FC8
:1043300005EB051505EB4505B5FBF3F52570407854
:1043400000EB001000EB4000B0FBF3F06070A270D7
:1043500004AA03A8CDE9000201EB41004FF6FF716A
:1043600001EA400002AB627821781BE0A678B242F5
:1043700010D0868C06EB46067602B6FBF5F5A580D6
:1043800090F8270000EB001000EB4000B0FBF3F0CA
:104390006070A27004AA03A8CDE90002C9B202AB02
:1043A00062783AE008F036FE9DF810109DF80C0097
:1043B000CB08BDF800109DF8082063F30401ADF8A8
:1043C00000108108BDF8000061F34A10D10880B2E6
:1043D00061F3CF20ADF8000080B20090BDF800007E
:1043E00006B070BDA678B24210D0868C06EB4606A9
:1043F0007602B6FBF5F5A58090F8260000EB0010DC
:1044000000EB4000B0FBF3F02070A27004AA03A8F8
:10441000CDE90002CAB2217802ABA088C2E7000051
:104420008401002010B5084C012020700748FEF7D9
:10443000E6FE0028A06803D0BDE810401DF09ABE3B
:10444000BDE810401DF08ABE08020020B8A300207D
:1044500010B5044690F84200A16B820709D4B4F865
:1044600040204AB1A2F57F43FF3B1BD0521EA4F867
:104470004020B4F84020AAB909B1820712D52146DC
:104480001448FEF757FFFFF7CDFFE16809B120465A
:104490008847216909B1204688472046BDE8104079
:1044A00016F026B8E26B52422263002911D082072F
:1044B00002D4626B524222634210521C62F34100EA
:1044C00084F84200A26A206A2262A062E06AE16285
:1044D000A06310BDB8A3002070B5304D68681DF012
:1044E00011FD0646687880F00100687047E0002002
:1044F000287094F842006978C0F380028A4242D062
:1045000061F3820084F84200216B8A19030719D4F1
:10451000002917DC002A15DBC00709D1616939B110
:1045200020468847216A01442162A16A0844A062AA
:10453000A16809B12046884794F8420040F008007D
:1045400084F84200206B8019206316D4E16A884207
:1045500000DD2163E169204688470146606A8842A0
:1045600004D0616262680AB120689047D4E90B0107
:10457000814202DB2046FFF76BFF287818B108481C
:10458000FEF73DFE03E021460548FEF74AFE040023
:10459000ADD11DF0BDFC686070BD000008020020B8
:1045A000B8A3002070B5044640680D4608B1FFF777
:1045B000F9FF2268002A04D029462046BDE8704051
:1045C000104770BD89B20CF01FBF89B20CF0A2BFBA
:1045D0002DE9FF4F99B09846DDE926B12D98164692
:1045E0008A464FF00009042811D0052811D006286A
:1045F00012D0142870D101270225002418FB06F0E0
:104600000E901A98401E0D90701E069051E10027E2
:10461000F2E701270325F0E701270225FFF7B4F8A9
:104620000068D0F83890E8E7289860430BEB202228
:10463000299860430AEB202110124FEA212E7DD4E5
:104640001A9B98427ADABEF1000F77DBB64575DA2D
:10465000D2B2CBB2802A05DAC2F17F024FF0FF312D
:10466000520003E001215200A2F580720992802BD2
:1046700005DAC3F17F034FF0FF325B0003E0012254
:104680005B00A3F580730A930EFB080C199B0CFBCF
:10469000053307934318119372D4DDF834C0634592
:1046A0006EDC1EEB02036BD4DDF818C0634567DCDB
:1046B000DDF81CC011FB05C1CDE915C112FB08F1E5
:1046C00001FB05C10C91D7B32D99052905D01429FB
:1046D0000BD0062955D066E0EFE01598807807905A
:1046E0000C9881781698807810E0199A0E990EFB34
:1046F00008FC02EB41010A180EFB08111CF802002D
:104700000790119803FB08F3085C995C079A9142A3
:104710000AD00A9A11FB02F20A99C1F5807307992F
:1047200011FB0321C1F30721079A90420DD0099A8A
:1047300010FB02F20998C0F5807301E02FE035E02C
:10474000079810FB0320C0F3072008442C99400869
:10475000085527D015980178407801EB0020ADF876
:104760000C000C980178407801EB0020ADF81000A7
:1047700016980178407801EB0020ADF8080023E09E
:104780004CE0159801881FFA89F0814207D00C99F6
:104790000988814203D016990988814203D12C9956
:1047A0000020085583E0FF210846CEE715980088D1
:1047B000ADF80C0016980088ADF808000888ADF830
:1047C00010002C98FF210155BDF80C00BDF8101009
:1047D000884209D1BDF80810884205D12B98BDF850
:1047E0000C1000EB440017E00A98C2B2DDE9031098
:1047F0000EF064FD04900998C2B2DDE902010EF0EA
:104800005DFD7F22029004990EF058FD00902B98D8
:10481000BDF8001000EB4400018048E0079B93F8CE
:1048200000C05B780CEB0323DDF8ACC09BB22CF826
:104830001430DDF8B4C0BCF1050F06D0BCF1060F92
:1048400006D0BCF1140F09D10AE0079B9B780FE05A
:104850001FFA89FC634501D1002309E0FF2307E02B
:10486000199B0EFB083C0E9B00EB43031CF8033026
:1048700008B9002905DBDDF834C0604503D1002903
:1048800001DD09980AE0BEF1000F01D1002A04DB26
:1048900006998E4508D1002A06DD0A98C0F1FF006E
:1048A00010FB03F0010A00E000212C980155641C64
:1048B00024B22A988442FFF6B7AE1DB0BDE8F08F4F
:1048C00010B5818F92B00446A9B168460CF028FC5F
:1048D0000B480121CDE90040A08F0B9000200890EB
:1048E000CDE90901074807900748039068460CF096
:1048F0008BFC12B010BD12B0BDE810401FF01CBB05
:10490000B13F0208DF110108B33F020810B50446A9
:10491000406882080AD0496821F00301091D084453
:104920006060204600F042F8204610BDFEE7406877
:10493000103120F00300884201D30120704700208D
:1049400070472DE9FC47054648680C4620F00300F7
:1049500001AA69461EF0DAFADDE9007005EBC7111D
:1049600001EB80098046D9F83C0060B164B1C4E92C
:10497000020504F10806C46030460421FFF7FFFB7E
:10498000864202D0FEE7FEE7FEE7C9F83C40012080
:10499000296900FA07F21143296105EB870100FA42
:1049A00008F04A6902434A61BDE8FC8710B5044635
:1049B00000F087F8046010BD2DE9FC4706464FF073
:1049C00000000D0000900746019042D00C46E946D9
:1049D0000DF10408802907D3084624F0A7F8411FE9
:1049E00001208840401E04444246494620461EF0AD
:1049F0008DFA009C0A2C2CDA06EB8400019A40699F
:104A00004FF0FF3101FA02F210400CD1641C306902
:104A1000A14008401DD024F081F80446009006EB28
:104A20008000406978B124F079F8034606EBC411A0
:104A3000019001EB8000C76B5FB1786820F0030044
:104A4000A84201D2FEE7FEE739463046009A20F040
:104A50006FF93846BDE8FC8710B50446FFF7A6FF9E
:104A6000416841F002014160606840F0010060600F
:104A700010BD10B5044600F024F8416821F0020191
:104A80004160606820F00100606010BD70B50646AE
:104A90000D46084600F015F8040010D02079C00734
:104AA0000BD0686880080BD02146304600F03CF8F7
:104AB00021462846FFF72AFF0546284670BDFEE737
:104AC000FEE7426800F1080122F00300001F0844DD
:104AD000910800D1FEE7704770B506460C004FF014
:104AE00000001ED0F2B120791546C0071BD0114638
:104AF0002046FFF71CFF78B12946204600F025F834
:104B000005462046FFF752FF6868294640F002003C
:104B100068603046FFF715FF2046FFF7AAFF04F153
:104B2000080070BDFEE7FEE77CB5054648680C4608
:104B300020F0030001AA69461EF0E8F9DDE9002330
:104B40002146284620F0F4F87CBD2DE9F0410D46C1
:104B5000044600F10801281F0E18606806F10807D6
:104B600020F00300401BA0F1040838460421FFF7A1
:104B700006FB874200D0FEE7606820F0030108EBE7
:104B80000500001D814200D0FEE7307900F00300EF
:104B900040EA0800706020F003000C2800D2FEE715
:104BA000207900F00300284360603046FFF754FF8F
:104BB0003046BDE8F08138B5044613F09DFF054648
:104BC00013F0CFFF0028204605D0218FE18618F092
:104BD000FDFD012038BD12F0ADF9002820461ED0A1
:104BE00012F07CF8218FE08E81420CD02087E08E7D
:104BF00000906A461C21204612F0DEFB0128E9D114
:104C0000204618F0E3FD284613F0B7FF0428E0D152
:104C1000204617F0AFF9002113F0E3F8D9E712F0BE
:104C2000E5F9D6E770B512F0C3FB054617F0E8F9D1
:104C3000044628460DF096FA01462046BDE870402D
:104C400000221CF08DBC00002DE9F04F0D4687B00E
:104C50000446002117F0C2F860B32946204600F050
:104C600061FA2946204600F06FF80021204617F02F
:104C7000E5FF05900021204618F094F804900021EB
:104C8000204617F0A6FE012800D000208046002113
:104C9000204618F0F5F907460021204617F014FFCA
:104CA00042F2D17906464F450BD1608C400508D4BD
:104CB000012707E007B02846BDE8F04F1C2115F09A
:104CC00025BD0027204617F007F9DFF878A08346B6
:104CD00020460021BAF8042018F0C4F8D5F810C016
:104CE000AB682968CDF800C0CDF80C80CDE9013162
:104CF000C2B239465846059B0AF0DCF828834E4577
:104D000004D1608C800501D4012600E000262046F5
:104D100017F0C8F8074620460021BAF8082018F016
:104D2000A1F8C2B2686900246B68E9688DE81B00CD
:104D300031463846049B0AF0BDF8688307B0BDE8E9
:104D4000F08F0000F80000202DE9F34F81B00C46F1
:104D5000019809F031FB0646019817F0BDF882462C
:104D6000304601F002F82061400015F063FB20603E
:104D70002069400015F05EFB002541F69A79A0609D
:104D80003AE036F91510DFF82081494533D1002784
:104D9000DFF818B11FE03946019817F01FF859469F
:104DA000009018F094FAA8B9009809F017FB0128B0
:104DB00010D1009809F008FBA8420BD1009818F018
:104DC00036FA4146404501DA084602E0009818F0FC
:104DD0002EFA80467F1C019817F012F8B842DAD8F4
:104DE000B8F1000F03DBA16821F8158003E0A1688A
:104DF000002021F815006D1C2069A842C1D80025AB
:104E00002F46284641F69B784B4615E036F91010A0
:104E1000414504DB0D44A5F5F8559B3D0BE0994257
:104E200004D1A16831F81010394403E0A26822F8D7
:104E3000101039440FB2401C21698142E6D800218C
:104E4000019817F0FBFE2169C1F1010200FB02A0ED
:104E5000C01B00B2002800DA002000224FF0FF3310
:104E60001146C44611E000BF36F9117067450BDBEF
:104E7000A7F5F8579B3F3AB210FB02F3B3FBF5F3EB
:104E8000A76827F811300B46491C27698F42EBD8D9
:104E9000002B07DBA91A4143B1FBF5F1401AA168C9
:104EA00021F81300BDE8FE8F01E0FFFF01000600BE
:104EB0002DE9F14F00221146009819F017FC00214E
:104EC000009817F0BFFD04460021009817F07CFF02
:104ED00020440FFA80F90021009817F067FE204463
:104EE0000FFA80F8009817F021FD00EB090101EBA3
:104EF0000800DFF898A006B25446009816F080FF2C
:104F0000074600252AE0009821498068006850F88B
:104F10002500834618F0DBF9F8B9584618F0AEFCC6
:104F200040BB0021584617F025FD18B3012821D0B9
:104F300002281FD003281DD00021584618F0BEF8C3
:104F400058B9BBF81A10BBF81600081A401C00B27A
:104F50004844A04200DB044624B26D1CBD42D2D3BB
:104F6000544504D004EB080000B2B04200DC3046E7
:104F7000BDE8F88F0098BBF91A10B0F91600081AAE
:104F8000411CA142E8DB0C46E6E7000001E0FFFF20
:104F9000010004002DE9F84F00228046114619F067
:104FA0008FFB0021404617F04DFD0446002140468E
:104FB00017F0B0FE20440FFA80FA0021404617F0A7
:104FC0005BFE20440FFA80F9404617F0BDFC00EB71
:104FD000090101EB0A00DFF844B105B25C46404626
:104FE00016F00EFF07460021404617F0E0FC0128AE
:104FF0004FF0000644D078E0D8F80800484900682F
:1050000050F82600009018F062F9C0BB009818F024
:1050100035FC50B10098B8F91810B0F91400091A0D
:10502000481CA0422ADB4C1C28E00021009817F005
:10503000A1FC58B1032809D0062807D0082805D0BC
:105040000021009818F034F858B118E00098B8F929
:105050001810B0F91400081A411CA1420EDB0C46CE
:105060000CE00098143000900CF02DFB5044A0424E
:1050700004DB00980CF027FB00EB0A0424B2761C3A
:10508000BE42B9D35C453BD004EB090033E000BF1E
:10509000D8F808002249006850F82600009018F05F
:1050A00016F908BB009818F0E9FB60BB00210098D6
:1050B00017F060FC38B3012825D0042823D0072836
:1050C00021D00021009817F0F9FF68B9009814303A
:1050D00000900CF0F8FA4844A04204DB00980CF071
:1050E000F2FA00EB090424B2761CBE42D0D35C4530
:1050F00006D004EB0A0000B2584501D0A84200DCFB
:105100002846BDE8F88F0098B0F91810B8F91400D7
:10511000091A481CA042E6DB4C1CE4E701E0FFFF53
:10512000010004002DE9F84F0C46834609F048FDC4
:10513000064600F01AFE6061400015F07BF96060E1
:105140006069400015F076F9002541F69A79E06033
:105150003AE036F91500DFF82881484533D10027B9
:10516000DFF820A11FE03946584616F037FE5146B9
:10517000009018F0ACF8A8B9009809F0ADFD01282E
:1051800010D1009809F09EFDA8420BD1009816F0AE
:10519000F6FE4146404501DA084602E0009816F066
:1051A000EEFE80467F1C584616F02AFEB842DAD83A
:1051B000B8F1000F03DBE16821F8158003E0E16836
:1051C000002021F815006D1C6069A842C1D8002597
:1051D0002F46284641F69B784B4615E036F91010CD
:1051E000414504DB0D44A5F5F8559B3D0BE0994284
:1051F00004D1E16831F81010394403E0E26822F884
:10520000101039440FB2401C61698142E6D8002178
:10521000584617F0C7FD8146584616F043FE014632
:105220006069C0F1010209FB0210C01B00B2002836
:1052300000DA002000224FF0FF331146C44610E090
:1052400036F9117067450BDBA7F5F8579B3F3AB26B
:1052500010FB02F3B3FBF5F3E76827F811300B46B8
:10526000491C67698F42EBD8002B07DBA91A414321
:10527000B1FBF5F1401AE16821F81300BDE8F88FA1
:1052800001E0FFFF010006001CB50B8804892344E0
:10529000ADF800304B8844892344ADF802308B8848
:1052A00004892344ADF80430C98843891944ADF812
:1052B00006104369694698471CBD00002DE9FF4F61
:1052C00089B0C8781A9CC0070D46002801D0F8485C
:1052D00000E0F848069001D0F74800E0F748049055
:1052E00001D1F54800E0F5484FF010034FF00C0EE7
:1052F0004FF0080BCDF814006188A2884FF0000A27
:10530000A1EB0201504609B25246D4F810C00FE09A
:1053100002EB8207E66803EB870816F808805FEA6D
:10532000C87809D00BEB8707F65B891B09B2521CC2
:105330009445EDD8002254E00EEB8707F65B30442D
:1053400000B2F4E7E66802EB820703EB870CB14694
:10535000CDF820C016F80C60F60741D1002872D0B5
:1053600091FBF0F80EEB8706079639F8066006FB0E
:1053700008F60FFA86FCCDF800C04FF0060C0CEBD7
:10538000870C042639F90C8006EB8706DDF800C08F
:1053900039F90660E04500DCC446664504DC009E41
:1053A000C446B04500DC6646DDF800C0019666459F
:1053B00006D0DDF820C04FF00108C24649F80C8045
:1053C000D4F80C80019E0BEB870728F80760D4F80F
:1053D0000CC0079F3CF80770C01B891B00B209B2C4
:1053E000521C26699642ADD8BAF1000F84D1002133
:1053F000099817F0E8FA012826D000270020ADF818
:105400000800ADF80C0003A902A8CDE9000120892D
:10541000B4F9022003B2287818991EF0A2F8E878AF
:10542000384207D0099816F057FDBDF80810084417
:10543000ADF808000B99099816F0D0FC06464FF419
:10544000FA682AE1FFE7FEE70127D7E79C493046E3
:1054500017F03DFF00286FD10021304617F01EFBEA
:10546000F0B34FF00009484621690FE0E26800EB15
:10547000800352F82320B24207D1E16800EB80029A
:105480000BEB820031F9009002E0401C8142EDD824
:10549000E878C007708C04D020F4007040F480607D
:1054A00003E020F4806040F40070708406F1140082
:1054B000049982468847484528D0304618F086F936
:1054C000B08AADF80000F08AADF80200308BADF87C
:1054D0000400708BADF8060049465046069A00E07D
:1054E00010E090476A462921304611F065FF3046AA
:1054F00016F086FD3246222111F05EFF304618F08C
:1055000065F903E0708C20F4C06070840020009086
:105510006878012811D0022817D1059906F11400E6
:105520008847B4F90010491C21F00101081A00EB6A
:10553000D07040F34F0007E0A7E0059906F1140092
:1055400088472188081A00B20090E878384208D0CD
:10555000049906F114008847BDF80810081AADF840
:105560000800304600216B2217F07CFC0FFA80F90E
:10557000304600216C2217F075FC0FFA80FA304695
:1055800017F055FE0190304616F0F9FC0146C9F3BC
:10559000413001280FD129F4C04040450BDCB0F563
:1055A0007A7F01DDC0F57A70019A5043642290FB46
:1055B000F2F00FFA80F9CAF3413001280ED12AF433
:1055C000C04040450ADCB0F57A7F01DDC0F57A7055
:1055D0004843642190FBF1F00FFA80FAB18A1698E3
:1055E000F28A411A01EB0900179900B28A1A02EBFC
:1055F0000A01EA7809B2D207002A02D0BDF90820D0
:1056000000E0009A10440FFA80FA01D0009801E0FF
:10561000BDF9080008440FFA80F95AEA09011BD0C5
:10562000304618F0D3F8B18A01EB0A00B082318B12
:1056300001EB0A003083F18A01EB0900F082718BE3
:1056400001EB09007083304618F0C0F800234A4689
:105650005146304618F060F9E87838420CD1049988
:1056600006F11400884719990844BDF80C10084445
:10567000BDF80810084406E0BDF80C10199808445D
:10568000BDF80810081AADF80800E8780BAAC0F3B6
:105690008001099809F05AF90646002E04D0DDE988
:1056A0000B0188427FF4D2AE0DB0BDE8F08F000050
:1056B0004F17010845170108EB160108931601085A
:1056C000010006002DE9F04F91B00E0005463FD0D5
:1056D0002E83286808B114F00BFF06EB4600062164
:1056E00001EB400014F078FE286040B3022101EB8A
:1056F00046010144E960042101EB86010144C5E94A
:10570000010101210024012E1AD0F000083014F00C
:1057100091FE814600EB860000F10408B00000B263
:10572000A346ADF81000C0F101028010ADF812B030
:105730000FFA82FA5C46CDF828B00690ABE0FEE79F
:10574000B4220270E8680480E8684180A868048098
:1057500011B0BDE8F08F0027BDF81220BAF1000F9C
:1057600007DC032101EB42010AEB01000FFA80FA8A
:105770000CE0BDF810100523521A03EB420202EBB5
:105780000A00491E0FFA80FAADF81010BDF8120099
:10579000401CADF8120004A800F0E9F868B1BDF9AA
:1057A000100006A9821041F827200AA900F0030082
:1057B00041F827007F1C042FCEDB042F71D10999FB
:1057C0000698884212D129F8140028F814B0DDE9AF
:1057D0000A010144DDE90C201044084469680855B9
:1057E000696800010855641C24B252E00799884298
:1057F00019D029F8140028F814B06A680A981055CE
:105800006A6800011055641C069A20B2521E29F8DD
:10581000102028F810B0DDE90B120A440D99091D7B
:1058200011446A682FE0089929F81400884228F882
:1058300014B0DDE90A025946104412D06A681055C6
:105840006A6800011055641C069A20B2521E29F89D
:10585000102028F81010DDE90C12114408316A6894
:1058600011E00C9A10446A6810556A6800011055DE
:10587000641C069A20B2521E29F8102028F8101035
:105880000D996A680C3111546A6809011154401C61
:1058900004B20BF1010B04A800F069F800287FF4B2
:1058A0005AAF40F2D32016FB00F109EB44028812F4
:1058B00032F9022C824205D108EB440232F9022C63
:1058C00082421AD0A1EB8021B1F5007F03DC49436D
:1058D00041F3CF3106E0C1F58061494341F3CF3157
:1058E000C1F10F0129F8140028F814006868015567
:1058F000686809010155641C24B2A01E0EE000BFB7
:1059000038F8102029F8142039F8102028F814202D
:1059100069680A5C0A55641C24B2401E0028EFDA4C
:10592000EA680021084611801BE0EA6822F81100AD
:10593000AB6839F8102023F811200AE0AE6839F975
:10594000102036F81130934200DA1A4626F811205A
:10595000401C38F910208A4201D1A042EEDB491CDC
:1059600009B2A042E1DB484614F0B0FDF0E6B0F920
:105970000210B0F90000814201DC012070470020D4
:10598000704717B581B0022A03D8BDF8080004B0EB
:1059900010BDBDF80830BDF80400D90A01EBD021D4
:1059A0001F2900D31F2161F3CF20C3F34511C0F39A
:1059B00045142144ADF804003F2900D33F2161F391
:1059C0004A1003F01F0100F01F031944ADF8040052
:1059D0001F2900D31F2161F30400ADF80400FF2A42
:1059E00007D0DDE901010DF02DFC0090BDF80000AD
:1059F000CDE780B2CBE717B581B0022A03D8BDF856
:105A0000080004B010BDBDF80400BDF80810C30ABA
:105A1000CC0A13FB04F35B0963F3CF2000F01F03F0
:105A200001F01F0413FB04F35B0963F30400C0F3EC
:105A30004513C1F3451113FB01F1890961F34A10C4
:105A4000ADF80400FF2A07D0DDE901010DF0FAFBF3
:105A50000090BDF80000D4E780B2D2E717B581B05E
:105A6000022A03D8BDF8080004B010BDBDF8083004
:105A7000BDF80400D90AA1EBD021002900DC0021E7
:105A800061F3CF20C3F34511C0F34514091BADF8F2
:105A90000400002900DC002161F34A1003F01F011B
:105AA00000F01F03C91AADF80400002900DC002132
:105AB00061F30400ADF80400FF2A07D0DDE901011D
:105AC0000DF0C0FB0090BDF80000CDE780B2CBE741
:105AD000F8B5044611F06CFC0646204611F02AFC8D
